:1051C600E4F594F593F592F591F596F595F5B2F526
:1051D600B1F5B4F5B3F5CAF5C9F5D8F5D9F5DEF5E7
:1051E6008EF598F59AF5ACF584F5A2F5BAF5AFF516
:1051F60089F5E9F5F9125F5E9005061216110001B0
:0B520600C200E490050AF0FF0236A28F
:105E8C0090053DEFF0FDE4FF12526B90053DE0FFF5
:015E9C0022E3
:03002000C2AF224A
:03003E00D2AF221C
:1050430053A2F3EF14601214601714602624037044
:10505300285392C35391C380205396C35395C3805F
:1050630018E5F0F452B4E5F0F452B353CAEF53C960
:10507300EF800653B2C353B1C39004B0E042CE9065
:0F50830004AFE0700643CE8043CE1043CE4022F0
:1052110053A2F3EF14600A14600C14600E2403808F
:105221000D43A204800843A208800343A20C53CE7D
:10523100FCED14600A14600C14600E2403800D430D
:10524100CE01800843CE02800343CE03AF038FCF4C
:0B525100E5CD30E7FB75CDC0AFCF22EC
:105E5400EF1FAA0670011E4A60087D091DED60F05F
:025E640080FAC2
:015E66002219
:1057F100E490052FF0A3F0FC90FE82E020E61E7FEE
:10580100017E00125E5490052FE475F0011214B967
:10581100FEC3E5F0941EEE940040DD7C0190FE8213
:06582100E054BFF0AF04EB
:01582700225E
:095F430090FE817401F00257F197
:085D6E00AF01EF25E04401FF45
:0E5D760090FE86EFF090FE817402F00257F16D
:095F4C0090FE817403F00257F18C
:0F5EFD0090FE817404F01257F190FE87E0FF22AF
:0F5C7C00900476E0FBA3E0FAA3E0F9EF1213D255
:0E5C8B0090FE82E4F090FE817405F00257F165
:0F5F0C0090FE827401F090FE817405F00257F14F
:095F550090FE817406F00257F180
:1054A20053BACF43BA80EF14600A14600C14600E32
:1054B2002403800D43BA10800843BA20800343BA04
:1054C2003090FE80E04440F0E04480F0C083C0822F
:1054D200E0FB90046FA3A3A3E0FFEB4FD082D08345
:0754E200F090FE82E4F022CD
:10490D00A90553BACFEF14600A14600C14600E247D
:10491D0003800D43BA10800843BA20800343BA3098
:10492D00125F43EF60037F0122AF01EF25E0FF121D
:10493D005D76EF60037F0122125F4CEF60037F0114
:10494D0022AF03125D76EF60037F0122125F4CEF01
:10495D0060037F0122900518E0FF125D76EF600382
:10496D007F0122125F4CEF60037F0122125F55EF32
:08497D0060037F01227F00228C
:10481400A90553BACFEF14600A14600C14600E2477
:1048240003800D43BA10800843BA20800343BA3092
:10483400125F43EF60037F0122E925E0FF125D76FA
:10484400EF60037F0122125F4CEF60037F0122AF10
:1048540003125D76EF60037F0122125F4CEF600369
:104864007F0122125D6EEF60037F0122125F4CEF25
:1048740060037F0122125EFD9004B4125C7FEF603E
:10488400037F0122125F55EF60037F01227F002224
:1044B500A90553BACFEF14600A14600C14600E24DA
:1044C50003800D43BA10800843BA20800343BA30F5
:1044D500125F43EF60037F0122E925E0FF125D765D
:1044E500EF60037F0122125F4CEF60037F0122AF73
:1044F50003125D76EF60037F0122125F4CEF6003CC
:104505007F0122125D6EEF60037F0122125F4CEF87
:1045150060037F0122900479E014F06018125EFDBB
:10452500125C7CEF60037F0122900477E475F00153
:104535001214A380E0125EFD125C7CEF60037F0124
:0D45450022125F55EF60037F01227F0022EC
:0536A200900505EFF0AA
:1036A700A3E0F8A3E0F9A3E0FAA3E0FB7FC07E0E56
:1036B7007D167C0212150BE47B04FAF9F812150B40
:1036C700C3E49FFFE49EAD07FC900505E01460523C
:1036D700146079147003023781240360030237B240
:1036E7004398508D8BECF58D438E4053A23F900548
:1036F7000AE0FF7E007002801FEF64014E700543F1
:10370700A2408014EF64024E700543A2808009EF47
:1037170064034E700343A2C0D28EE49001CAF00244
:1037270037B2439A108DD7ECF5D6438E1453BAFEB1
:1037370090050AE0FF7E006404EF64054E700343C2
:10374700BA0143AF01E49001CBF0805F43AC508DE9
:10375700D5ECF5D443D10A53BAFD90050AE0FF7EB4
:1037670000640670028009EF64074E700343BA02D3
:1037770043AF08E49001CCF080314384508DD3EC03
:10378700F5D243D1A053BAFB90050AE0FF7E00644F
:10379700087002800EEF64094E7008F5CA75C904F7
:0D37A70043BA0443AF10E49001CDF0D2AC62
:0137B40022F2
:0F525C00A3E475F0011214B9A9F0FA12138CFD36
:10526B00EF14601514601D1460252403702D90013C
:10527B00CAE070FA04F08D99229001CBE070FA0429
:10528B00F08D9B229001CCE070FA04F08DAD229052
:0C529B0001CDE070FA04F0AF058F852211
:1059FB009004B8EBF0A3EAF0A3E9F0AE079004BB78
:105A0B0074FFF5F01214B945F0600CAF069004B8B2
:085A1B00E0FB12525C80E62260
:105A230090051DEBF0A3EAF0A3E9F0AE0790051D86
:105A3300E0FBA3E0FAA3E0F912138C600AAF06902F
:085A4300051D12525C80E622F1
:1052A70043BC80EF131313541FFB7A00640170177C
:1052B700EF5407FEF87401088002C333D8FCFEF4EC
:1052C7005294EE42938019EB4A7015EF5407FEF89B
:1052D7007401088002C333D8FCFEF45292EE429167
:0952E700ED540F42DE43DE2022EB
:02595200A905A5
:1059540053BCF0EF42BC43BC40E5BC30E5FB53BC58
:10596400DFAFBDEFFEADBEEDFFAD01A805088005BC
:08597400CEC313CE13D8F9FFD6
:01597C002208
:1055BA00EF14601814602014602614602C24047000
:1055CA0030E4F58AF58C438904D28C22E4F58BF514
:1055DA008D438940D28E22E4F5D7F5D6438E182220
:1055EA00E4F5D5F5D443D10C22E4F5D3F5D243D171
:0255FA00C022CD
:10553000EF14601714601E14602514602C2404708E
:1055400030AF8CEFFCAF8AEFFD8026AF8DEFFCAF64
:105550008BEFFD801CAFD6EFFCAFD7EFFD8012AF15
:10556000D4EFFCAFD5EFFD8008AFD2EFFCAFD3EFA7
:05557000FDAF05AE04D3
:015575002213
:1052F000EF14601714601E146027146030240470CB
:1053000037C28CE4F58CF58AD28C22C28EE4F58DFE
:10531000F58BD28E22538EEFE4F5D6F5D7438E105F
:105320002253D1F7E4F5D4F5D543D1082253D17FE8
:09533000E4F5D2F5D343D180224B
:05270B0090037CEFF0DB
:10271000E4900387F090037CE0C4540FFFF8740149
:10272000088002C333D8FC42F143BA8090037DE0B5
:10273000F8A3E0F9A3E0FAA3E0FB7FC07E0E7D16CC
:102740007C0212150B780F1215D2900387EFF090D0
:10275000037DE0F8A3E0F9A3E0FAA3E0FB7FC07EED
:102760000E7D167C0212150BC006C007900387E091
:102770002401FFE433AB07FA3395E0F9F8D007D032
:102780000612150B900385EEF0A3EFF0900381E0A5
:10279000FCA3E0FDE41211BA7B007A40791C784674
:1027A00012109FC004C005C006C007900385E0FC5E
:1027B000A3E0FDE41211BAD003D002D001D0001280
:1027C0000F961211F3900383EEF0A3EFF090037CC9
:1027D000E0FFC3943074809480900387E0FD506ADA
:1027E000EFC4540FF975F050A4FFAEF02402FBEED5
:1027F00034FF8B82F583EDF0900385E0FCA3E0FDD0
:10280000E42FFFEE34FF8F82F583ECF0A3EDF09020
:102810000383E0FCA3E0FDE975F050A42410FBE580
:10282000F034FFFA90037CE0540F75F008A42BFFFE
:10283000E5F03A8F82F583ECF0A3EDF0E975F05006
:10284000A42414FDE5F034FF806D90037CE024D0D7
:10285000C4540FF975F050A4FFAEF02402FBEE341F
:10286000FC8B82F583EDF0900385E0FCA3E0FDE4B2
:102870002FFFEE34FC8F82F583ECF0A3EDF0900394
:1028800083E0FCA3E0FDE975F050A42410FBE5F023
:1028900034FCFA90037CE0540F75F008A42BFFE59C
:1028A000F03A8F82F583ECF0A3EDF0E975F050A4D7
:1028B0002414FDE5F034FCFC90037CE0540F75F02B
:1028C00008A42DFFE5F03C8F82F583E04480F09072
:1028D000037CE0C4540F14601514601714601914BD
:1028E000601B14601D2405701C43F601801743F61D
:1028F00010801243F701800D43F710800843FE015A
:08290000800343FE1053BA7F6F
:0129080022AC
:0B358B0090050BEFF0A3ECF0A3EDF0B7
:1035960043BA8090050BE0C3943074809480506FDA
:1035A600A3E0FCA3E0FDE41211BA7B007A40791C8B
:1035B600784612109FC004C005C006C00790050BD0
:1035C600E0C4540F75F050A42400FFE5F034FF8FDB
:1035D60082F583E0FCA3E0FDE41211BAD003D00229
:1035E600D001D000120F961211F390050EEEF0A343
:1035F600EFF090050EE0FCA3E0FD90050BE0F9C4AA
:10360600540F75F050A42410FBE5F034FF8073903E
:10361600050CE0FCA3E0FDE41211BA7B007A4079C8
:103626001C784612109FC004C005C006C00790054E
:103636000BE024D0C4540F75F050A42400FFE5F02D
:1036460034FC8F82F583E0FCA3E0FDE41211BAD0CE
:1036560003D002D001D000120F961211F390050E7E
:10366600EEF0A3EFF090050EE0FCA3E0FD90050B55
:10367600E0F924D0C4540F75F050A42410FBE5F0F3
:1036860034FCFAE9540F75F008A42BFFE5F03A8FE5
:0B36960082F583ECF0A3EDF053BA7F47
:0136A1002206
:052ABF0090035FEFF041
:102AC400E490036EF0900360E0F8A3E0F9A3E0FA69
:102AD400A3E0FB7FC07E0E7D167C0212150B780FDF
:102AE4001215D290036EEFF0900360E0F8A3E0F9C2
:102AF400A3E0FAA3E0FB7FC07E0E7D167C021215D4
:102B04000BC006C00790036EE02401FFE433AB075B
:102B1400FA3395E0F9F8D007D00612150B90036A42
:102B2400121605900364E0FCA3E0FDE41211BA7BE5
:102B3400007A40791C784612109FC004C005C00674
:102B4400C00790036AE0FCA3E0FDA3E0FEA3E0FF5E
:102B5400E41211B5D003D002D001D000120F9612A6
:102B640011F390036612160543BA8090035FE0C325
:102B740094307480948090036EE0FD90035FE05085
:102B84004AC4540FF975F050A4FBAAF02402FFEADA
:102B940034FF8F82F583EDF090036AA3A3E0FEA3D4
:102BA400E0FFE42BFDEA34FF8D82F583EEF0A3EF22
:102BB400F0900366A3A3E0FEA3E0FDAC06E975F084
:102BC40050A42410FBE5F034FF804A24D0C4540FF1
:102BD400F975F050A4FBAAF02402FFEA34FC8F82BA
:102BE400F583EDF090036AA3A3E0FEA3E0FFE42BDA
:102BF400FDEA34FC8D82F583EEF0A3EFF0900366DA
:102C0400A3A3E0FEA3E0FDAC06E975F050A42410F4
:102C1400FBE5F034FCFA90035FE0540F75F008A470
:102C24002BFFE5F03A8F82F583ECF0A3EDF09003EF
:102C34005FE0C4540F146015146017146019146015
:102C44001B14601D2405701C43F601801743F61005
:102C5400801243F701800D43F710800843FE018082
:072C64000343FE1053BA7F89
:012C6B002246
:105D3F0046038E00000000000046038800000000AC
:025D4F00000052
:104DE400E4F5D875D906EF64017054EDB40A0050A7
:104DF4004E904DFCF8282873024E1A024E1E024EA5
:104E040022024E26024E2A024E2E024E32024E3606
:104E1400024E3A024E40E4F5DA2275DA422275DA9D
:104E2400632275DA532275DA732275DA202275DA71
:104E3400102275DA302275DA49D2DE2275DA4C2274
:105E7A00EF64017008AFFAEFFCAFEAEFFDAF05AED1
:015E8A000413
:015E8B0022F4
:0A001600EF64017004F5F9F5E9222A
:053EE800900520EFF041
:103EED00C2DEAFF9EFFFABE9EBA3CFF0A3EFF0909C
:103EFD000520E0705D7E037FE81214187C007D0CB8
:103F0D00121406AB07AA06E4F9F87FC07E0E7D16E3
:103F1D007C02125576AC06AD07900388ECF0A3ED4C
:103F2D00F075DA49E5E904F5EA85F9FA900388E0D8
:103F3D00FEA3E0FF90038FE02FFF90038EE03EFE87
:103F4D00900522E02FFF900521E03E90038EF0A317
:103F5D00EFF0900520E0640170517E037FE81214AC
:103F6D00187C007D0C121406AB07AA06E4F9F87F45
:103F7D00C07E0E7D167C0212557690038AEEF0A35C
:103F8D00EFF075DB49E5E904F5EA85F9FA9003915F
:103F9D00E02FFF900390E03EFE900522E02FFF9072
:0D3FAD000521E03E900390F0A3EFF0D2DE7E
:013FBA0022E4
:10589400EF7007ED24FF9288D2A8EF64017007ED42
:1058A40024FF928AD2AAEFFD7C0064027003758FF4
:1058B40010ED64034C7003758F20ED64044C700389
:0458C400758F40227A
:055D51004205310B6466
:095F5E0075DC48E4F5D9D2DE221D
:105C9900AFF9EFFEADE9EDFF900532E02FFF90057A
:0C5CA90031E03E8FECF5FC30DAFDC2DA91
:015CB50022CC
:105DF000AB07AA06EB1BAE0270011A4E6005125CDF
:045E00009980F12272
:104E4400EDFB7A0064017025EFC4540F2410FDE4D7
:104E540034FE8D82F583C083C082E0FEEF540FFFE1
:104E6400F87401088002C333D8FC4E8028EB4A70E2
:104E740029EFC4540F2410FDE434FE8D82F583C061
:104E840083C082E0FEEF540FFFF87401088002C370
:0B4E940033D8FCF45ED082D083F02203
:10225200ED60030222F5EF54F0F9FB7A007013EF00
:10226200540FFEF87401088002C333D8FCF4529371
:102272005294EB64104A7013EF540FFEF874010885
:102282008002C333D8FCF452915292E96420701355
:10229200EF540FFEF87401088002C333D8FCF452E5
:1022A200955296E9FB7A0064307013EF540FFEF8F2
:1022B2007401088002C333D8FCF452B152B2EB6409
:1022C200404A7013EF540FFEF87401088002C333C2
:1022D200D8FCF452B352B4E964506003022502EF11
:1022E200540FFEF87401088002C333D8FCF452C9BB
:1022F20052CA22ED640160030223A5EF54F0F9FBF8
:102302007A007015EF540FFEF87401088002C3338F
:10231200D8FCFEF45293EE4294EB64104A7015EF2F
:10232200540FFEF87401088002C333D8FCFEF45245
:1023320091EE4292E964207015EF540FFEF8740199
:10234200088002C333D8FCFEF45295EE4296E9FBB4
:102352007A0064307015EF540FFEF87401088002A1
:10236200C333D8FCFEF452B1EE42B2EB64404A7081
:1023720015EF540FFEF87401088002C333D8FCFE37
:10238200F452B3EE42B4E964506003022502EF5402
:102392000FFEF87401088002C333D8FCFEF452C960
:1023A2000224FFED64026003022456EF54F0F9FBAD
:1023B2007A007015EF540FFEF87401088002C333DF
:1023C200D8FCFE4293EEF45294EB64104A7015EF7F
:1023D200540FFEF87401088002C333D8FCFE429108
:1023E200EEF45292E964207015EF540FFEF8740176
:1023F200088002C333D8FCFE4295EEF45296E9FB04
:102402007A0064307015EF540FFEF87401088002F0
:10241200C333D8FCFE42B1EEF452B2EB64404A70D0
:1024220015EF540FFEF87401088002C333D8FCFE86
:1024320042B3EEF452B4E964506003022502EF5451
:102442000FFEF87401088002C333D8FCFE42C9EEC5
:10245200F452CA22ED64036003022502EF54F0FD38
:102462007C007014EF540FFEF87401088002C3332D
:10247200D8FCFE4293EE4294ED64104C7014EF547B
:102482000FFEF87401088002C333D8FCFE4291EEBD
:102492004292EF54F064207014EF540FFEF874016E
:1024A200088002C333D8FCFE4295EE4296EF54F008
:1024B200FD7C0064307014EF540FFEF87401088044
:1024C20002C333D8FCFE42B1EE42B2ED64404C701E
:1024D20014EF540FFEF87401088002C333D8FCFED7
:1024E20042B3EE42B4EF54F064507014EF540FFE56
:1024F200F87401088002C333D8FCFE42C9EE42CA16
:0125020022B6
:065F670025640025660020
:105E9D00C2C6C2C5AB07E4FD7F02125211D2C622A3
:105EAD00C2C6D2C5AB07E4FD7F02125211D2C62283
:0259D200AC0621
:1059D400EC900533F0A3EFF0C2C6D2C5900533E0D6
:1059E400FBE4FD7F02125211900534E0FBE4FD7FDD
:0659F40002125211D2C69E
:0159FA00228A
:104D830090043CEEF0A3EFF0A3ECF0A3EDF0A3EA64
:104D9300F0A3EBF07F2A125E9DE4FF125EAD900458
:104DA3003CA3E02402FF125EADE4FF125EAD90046B
:104DB30040A3E02402FF125EAD7F2B125E9DE4FF51
:104DC300125EAD90043EA3E004FF125EADE4FF1259
:104DD3005EAD900442A3E004FF125EAD7F2C025E41
:014DE3009D32
:084E9F00900519EEF0A3EFF0FD
:104EA700900442E4F0A3749FF07B7F7A00E4FDFC5A
:104EB700FFFE124D83E490051BF090051BE0C394A1
:104EC700A074809480502BE4A3F090051CE0C39459
:104ED70080748094805013900519E0FEA3E0FF12C0
:104EE70059D290051CE004F080E090051BE004F027
:024EF70080C871
:014EF9002296
:102503009004AE7422F0E4A3F0A3F07B217D207F3E
:1025130002125043C2C47F0A7E00125DF0D2C47F10
:10252300787E00125DF07F11125E9D7F787E00122F
:102533005DF07FB1125E9D7F01125EAD7F2C125E56
:10254300AD7F2D125EAD7FB2125E9D7F01125EAD37
:102553007F2C125EAD7F2D125EAD7FB3125E9D7F29
:1025630001125EAD7F2C125EAD7F2D125EAD7F0139
:10257300125EAD7F2C125EAD7F2D125EAD7FB41265
:102583005E9D7F07125EAD7FC0125E9D7FA2125ECD
:10259300AD7F02125EAD7F84125EAD7FC1125E9D80
:1025A3007FC5125EAD7FC2125E9D7F0A125EADE4EF
:1025B300FF125EAD7FC3125E9D7F8A125EAD7F2ADE
:1025C300125EAD7FC4125E9D7F8A125EAD7FEE12F6
:1025D3005EAD7FC5125E9D7F0E125EAD7F36125ECD
:1025E3009DE4701E14600E14600F146010240370B9
:1025F300117FC0800AE4FF80067FA080027F601203
:102603005EAD7FE0125E9D7F0F125EAD7F1A125E9C
:10261300AD7F0F125EAD7F18125EAD7F2F125EADE0
:102623007F28125EAD7F20125EAD7F22125EAD7FEA
:102633001F125EAD7F1B125EAD7F23125EAD7F372F
:10264300125EADE4FF125EAD7F07125EAD7F021234
:102653005EAD7F10125EAD7FE1125E9D7F0F125E55
:10266300AD7F1B125EAD7F0F125EAD7F17125EADA5
:102673007F33125EAD7F2C125EAD7F29125EAD7F7C
:102683002E125EAD7F30125EAD7F30125EAD7F39AC
:10269300125EAD7F3F125EADE4FF125EAD7F0712A7
:1026A3005EAD7F03125EAD7F10125EAD7F2A125EB8
:1026B3009DE4FF125EAD7F02125EADE4FF125EADDC
:1026C3007F82125EAD7F2B125E9DE4FF125EAD7FB3
:1026D30003125EADE4FF125EAD7F83125EAD7FF049
:1026E300125E9D7F01125EAD7FF6125E9DE4FF12C6
:1026F3005EAD7F3A125E9D7F05125EAD7F29125E4D
:082703009D74FFFFFE024E9FD2
:1055FC009004BDEEF0A3EFF09004C1EAF0A3EBF041
:10560C009004BFECF0A3EDF09004BDE0FAA3E0FB36
:10561C00FFAE02C007A3E0FFA3E0900442CFF0A3CB
:10562C00EFF0D007124D839004C1E0FEA3E0FF021F
:02563C0059D241
:063B7400F583E02430FBA4
:103B7A00900444EEF0A3EFF0A3ECF0A3EDF0A3EB76
:013B8A00F04A
:103B8B00E4A3F0900449E0F9C3941074809480404E
:103B9B0003023C53E9FF900447E02FFD900446E0FD
:103BAB003400FC900445E02407FB900444E034000F
:103BBB00FA7E00900446E0F8A3E02FFFEE38900465
:103BCB0042F0A3EFF0900444E0FEA3E0FF124D831C
:103BDB00900448E0FF3395E0FEEFC4F8540FC8683B
:103BEB00FFEEC454F048FE74962FF58274FE3EF53A
:103BFB0083C083C082900449E0D082D0832582F5B4
:103C0B0082E43583F583E49390044BF0E490044A0B
:103C1B00F090044AE0C39408748094805021A3E090
:103C2B0030E0067F007EF8800474FFFFFE1259D24D
:103C3B0090044BE0C313F090044AE004F080D29060
:083C4B000449E004F0023B8E85
:013C5300224E
:104A730090040FEEF0A3EFF0A3ECF0A3EDF0A3EBA3
:074A8300F0A3EAF0A3E9F043
:104A8A00E4A3F0A3F0900413E0FBA3E0FAA3E0F997
:104A9A00A3E0FEA3E0FFF5828E831213A5FB603E1E
:104AAA00EF7803C333CE33CED8F9FF900410E02F4A
:104ABA00FF90040FE03EFE900412E0C4F8540FC8C1
:104ACA0068FD900411E0C454F048FC123B7A90044B
:0E4ADA0017E004F070AF900416E004F080A71F
:014AE80022AB
:103D3400900418EEF0A3EFF0A3ECF0A3EDF0A3EBE6
:013D4400F08E
:103D45003395E0C36480948090041BE0C4F8540F5D
:103D5500C868FD90041AE0C454F048FC900418E0CB
:103D6500FEA3E0FF500E7B2D123B7A90041CE0F47D
:103D750004F080057B20123B7A90041CE0FF75F06F
:103D85006412136A90041DF0EF75F00A12136AFFAE
:103D950075F00A12136AAFF090041EEFF090041C40
:103DA500E0FF75F00A12136AAFF090041FEFF0E41C
:103DB500A3F0900420E0FBFF7E00C394037480947D
:103DC500805045EF2401FFEE33FEEF7803C333CE79
:103DD50033CED8F9FF900419E02FFF900418E03E88
:103DE500FE90041BE0C4F8540FC868FD90041AE067
:103DF500C454F048FC741D2BF582E43404123B7462
:083E0500900420E004F080AA03
:013E0D002292
:0E49850090044CEEF0A3EFF0A3ECF0A3EDF0E5
:10499300EB75F06484A3F0EB75F00A8475F00A8478
:1049A300A3E5F0F0EB75F00A84A3E5F0F0E4A3F0DF
:1049B300900453E0C3940374809480503BE0FB75F0
:1049C300F008A4FF90044DE02FFF90044CE035F075
:1049D300FE90044FE0C4F8540FC868FD90044EE005
:1049E300C454F048FC74502BF582E43404123B7435
:0849F300900453E004F080B8C9
:0149FB002299
:10322E00900394EEF0A3EFF0A3ECF0A3EDF0A3EA7D
:04323E00F0A3EBF01E
:10324200C3EA64809480900397E0C4F8540FC8687E
:10325200FD900396E0C454F048FC900394E0FEA372
:10326200E0FF501C7B2D123B7A900398E0FEA3E016
:10327200FFC3E49FFFE49E900398F0A3EFF0800564
:103282007B20123B7A900398E0FAA3E0FB7C277D37
:1032920010FFAE0212146DA3EFF07C037DE8AF03C2
:1032A200AE0212146D7C007D0A12146DA3EDF09033
:1032B2000398A3E07C007D64FFAE0212146D7C00D3
:1032C2007D0A12146D90039CEDF07C007D0AAF0321
:1032D200AE0212146D7C007D0A12146DA3EDF09003
:1032E2000398E0FEA3E0FF7C007D0A12146D9003B8
:1032F2009EEDF0E4A3F090039FE0FBFF7E00C394F9
:1033020005748094805045EF2401FFEE33FEEF7880
:1033120003C333CE33CED8F9FF900395E02FFF904D
:103322000394E03EFE900397E0C4F8540FC868FD92
:10333200900396E0C454F048FC749A2BF582E4346E
:0C33420003123B7490039FE004F080AA8B
:01334E00225C
:0E4156009003F1EEF0A3EFF0A3ECF0A3EDF078
:104164007C277D10AF03AE02121418A3EFF07C037A
:104174007DE8AF03AE021214187C007D0A121418F5
:10418400A3EDF07C007D64AF03AE021214187C0032
:104194007D0A121418A3EDF07C007D0AAF03AE0271
:1041A4001214187C007D0A121418A3EDF0AE02AFAD
:1041B400037C007D0A121418A3EDF0E4A3F090032D
:1041C400FAE0C3940574809480503BE0FB75F008DA
:1041D400A4FF9003F2E02FFF9003F1E035F0FE908E
:1041E40003F4E0C4F8540FC868FD9003F3E0C4542A
:1041F400F048FC74F52BF582E43403123B7490030D
:06420400FAE004F080B8AE
:01420A002291
:0E38AE009002B7EEF0A3EFF0A3ECF0A3EDF064
:1038BC009002BFE0FFC3740A9F7480F898500374A1
:1038CC000AF09002BFE004F09002BBE0FCA3E0FD24
:1038DC00A3E0FEA3E0FFE4FBFAF9F8D31215AB402A
:1038EC00319001D174FFF0A3745FF0A37467F09072
:1038FC0002BBE0FCA3E0FDA3E0FEA3E0FF9001D43B
:10390C001216050B7A0279C0121CB09002E2EFF08D
:10391C0080389002C07420F09001D174FFF0A37431
:10392C005FF0A37467F09002BBE0FCA3E0FDA3E0A2
:10393C00FEA3E0FF9001D41216057B017A0279C137
:10394C00121CB09002E2EFF0801E9002BFE0FF90DC
:10395C0002E2E0FEC39F501574C02EF582E43402DF
:10396C00F5837420F09002E2E004F080DD74C02F47
:10397C00F582E43402F583E4F09002B7E0FEA3E0B4
:10398C00FFA3E0FCA3E0FD7B017A0279C0024A733D
:0E2C6C0090022AEEF0A3EFF0A3ECF0A3EDF03F
:102C7A00900233E0FFC374069F7480F8985003747F
:102C8A0006F0900232E0FFC3740A9F7480F89850ED
:102C9A0003740AF090022EE0FCA3E0FDA3E0FEA379
:102CAA00E0FFE4FBFAF9F812113C9001D1603140DF
:102CBA002F74FFF0A3745FF0A3746AF090022EE001
:102CCA00FCA3E0FDA3E0FEA3E0FF9001D4121605E9
:102CDA007B017A027935121CB0900234EFF0803011
:102CEA0074FFF0A3745FF0A3746AF090022EE0FC04
:102CFA00A3E0FDA3E0FEA3E0FF9001D41216057B3A
:102D0A00017A027936121CB0900234EFF0E004F036
:102D1A00900234E024F9FD900232E0FEC3ED9E14E5
:102D2A00900257F0900233E0AE052E04900258F05C
:102D3A00900257E0FF3395E0FED3E49FEE6480F8FB
:102D4A007480984022A3E0FF3395E0FE74352FF596
:102D5A008274023EF5837420F0900258E004F090E9
:102D6A000257E004F080C990022EE0FCA3E0FDA324
:102D7A00E0FEA3E0FFE4FBFAF9F812113C900257D7
:102D8A0060174015E0FF3395E0FE74352FF5827425
:102D9A00023EF583742DF08013E0FF3395E0FE7454
:102DAA00352FF58274023EF5837420F0900258E0C4
:102DBA00FF3395E0FE74352FF58274023EF583E405
:102DCA00F090022AE0FEA3E0FFA3E0FCA3E0FD7B73
:082DDA00017A027935024A7307
:0B3470009003D0EBF0A3EAF0A3E9F01A
:10347B0074FFFFFE124E9FE49003D7F0A3F0E4908D
:10348B0003D5F0A3F09003D5E0FAA3E0FB7C007D1D
:10349B0028FFAE02121406C006C007A3E0FEA3E08D
:1034AB00FF121406C006C007AF03AE02121406EFDC
:1034BB002427FBE43EFA9003D7E0FEA3E0FF1214AF
:1034CB0006EF2427FFE43E900442F0A3EFF0D00573
:1034DB00D004D007D006124D83E49003D3F0A3F0B1
:1034EB009003D4E025E0FF9003D3E033FE9003D0AC
:1034FB00E0FBA3E0FAA3E0F98F828E831213A59071
:10350B0003DAF0E92FF9EA3EFA9000011213A590C5
:10351B0003D9F0FEA3E0FDEDFF1259D29003D4E0E6
:10352B0004F070069003D3E004F0C39003D4E0944E
:10353B00409003D3E06480948640A59003D6E004CA
:10354B00F070069003D5E004F0C39003D6E094032B
:10355B009003D5E06480948050030234909003D89C
:10356B00E004F070069003D7E004F0C39003D8E0BA
:0F357B0094049003D7E064809480500302348955
:01358A00221E
:10009600000000000000000000000000000000005A
:1000A6000000000808080808080800000808000002
:1000B6000048242412000000000000000000000098
:1000C6000000004848487E2424247E24242400007E
:1000D6000000103C5252121C30505052523C10102C
:1000E600000000222515150D2A58545452220000EE
:1000F6000000000C1212120A76252919916E0000D2
:1001060000060404020000000000000000000000D9
:1001160000402010100808080808081010204000A9
:10012600000204080810101010101008080402003D
:100136000000000008086B1C1C6B0808000000008B
:100146000000000000101010FE101010000000004B
:100156000000000000000000000000000604040289
:1001660000000000000000007E000000000000000B
:10017600000000000000000000000000060600006D
:100186000000402020201010080808040402020085
:100196000000001824424242424242422418000013
:1001A600000000101C10101010101010107C000021
:1001B6000000003C4242424020100804427E0000FB
:1001C6000000003C4242402018204042423C0000D1
:1001D60000000020303028242422FE2020F80000D1
:1001E6000000007E0202021E22404042221C000045
:1001F600000000182402023A4642424244380000F7
:100206000000007E422020101008080808080000A0
:100216000000003C4242422418244242423C000074
:100226000000001C22424242625C4040241800004A
:100236000000000000001818000000001818000058
:100246000000000000000008000000000008080888
:10025600000000402010080402040810204000009E
:100266000000000000007E00007E0000000000008C
:1002760000000002040810204020100804020000BC
:100286000000003C424246201010100018180000E2
:100296000000001C225A55555555553A423C00005F
:1002A6000000000808181414243C224242E700000B
:1002B6000000001F2222221E22424242221F00006C
:1002C6000000007C4242010101010142221C0000A3
:1002D6000000001F2242424242424242221F0000C8
:1002E6000000003F4212121E12120242423F00005C
:1002F6000000003F4212121E121202020207000004
:100306000000003C2222010101712122221C000072
:10031600000000E7424242427E42424242E700007B
:100326000000003E0808080808080808083E000003
:100336000000007C10101010101010101010110F7B
:100346000000007722120A0E0A12122222770000FB
:10035600000000070202020202020202427F0000BF
:100366000000007736363636362A2A2A2A6B0000EF
:10037600000000E346464A4A525252626247000073
:100386000000001C2241414141414141221C000024
:100396000000003F424242423E02020202070000C3
:1003A6000000001C224141414141414D321C600088
:1003B6000000003F4242423E1212222242C7000083
:1003C6000000007C4242020418204042423E0000E7
:1003D6000000007F4908080808080808081C0000F3
:1003E600000000E74242424242424242423C000092
:1003F600000000E7424222242414141808080000D2
:100406000000006B2A2A2A2A2A3614141414000023
:10041600000000E7422424181818242442E70000AC
:10042600000000772222141408080808081C00009F
:100436000000007E2120101008040442423F000004
:100446000078080808080808080808080808780056
:100456000000020404040808081010202020404070
:10046600001E1010101010101010101010101E008A
:10047600001824000000000000000000000000003A
:1004860000000000000000007E00000000000000E8
:100496000006080000000000000000000000000048
:1004A600000000000000001C22302C22326C0000EC
:1004B600000000000302021A26424242261A0000E9
:1004C6000000000000000038440202024438000028
:1004D600000000006040407C4242424262DC000074
:1004E600000000000000003C42427E02423C000048
:1004F600000000003048083E08080808083E0000D2
:10050600000000000000007C22221C023C42423C0B
:10051600000000000302023A4642424242E700005F
:100526000000000C0C00000E08080808083E000039
:100536000000003030000038202020202020221E1D
:100546000000000003020272120A0E122277000057
:10055600000000080E08080808080808083E000001
:10056600000000000000007F9292929292B7000075
:10057600000000000000003B4642424242E7000005
:10058600000000000000003C42424242423C0000A3
:10059600000000000000001B26424242261A020705
:1005A600000000000000005864424242645840E0E7
:1005B60000000000000000774C040404041F000043
:1005C600000000000000007C42023C40423E000069
:1005D600000000000008083E08080808483000002F
:1005E60000000000000000634242424262DC00005C
:1005F6000000000000000077222214140808000002
:1006060000000000000000DB91525A2A242400005A
:10061600000000000000006E241818182476000060
:1006260000000000000000E742242418180808060D
:10063600000000000000007E22100808447E000032
:1006460000C0202020202020102020202020C000B4
:100656001010101010101010101010101010101094
:10066600000304040404040408040404040403004A
:10067600045A2000000000000000000000000000F6
:100686000000000000000000002F0000000007002E
:10069600070000147F147F1400242A7F2A120062A8
:1006A6006408132300364955225000000503000054
:1006B60000001C224100000041221C000014083EDC
:1006C60008140008083E0808000000A060000008A2
:1006D60008080808000060600000002010080402F6
:1006E600003E5149453E0000427F400000426151B4
:1006F6004946002141454B31001814127F1000274E
:1007060045454539003C4A49493000017109050310
:1007160000364949493600064949291E0000363641
:1007260000000000563600000008142241000014A4
:100736001414141400004122140800020151090681
:1007460000324959513E007C1211127C007F494902
:100756004936003E41414122007F4141221C007F33
:1007660049494941007F09090901003E4149497A41
:10077600007F0808087F0000417F410000204041BB
:100786003F01007F08142241007F40404040007F27
:10079600020C027F007F0408107F003E4141413E6B
:1007A600007F09090906003E4151215E007F0919B3
:1007B60029460046494949310001017F0101003FB0
:1007C6004040403F001F2040201F003F4038403F30
:1007D6000063140814630007087008070061514994
:1007E600454300007F41410000552A552A55000027
:1007F60041417F00000402010204004040404040A5
:10080600000001020400002054545478007F48443C
:10081600443800384444442000384444487F003873
:100826005454541800087E0901020018A4A4A47C9C
:10083600007F080404780000447D40000040808466
:100846007D00007F102844000000417F4000007CAE
:1008560004180478007C08040478003844444438BA
:1008660000FC242424180018242418FC007C080406
:10087600040800485454542000043F444020003CDF
:100886004040207C001C2040201C003C4030403C66
:10089600004428102844001CA0A0A07C00446454F6
:1008A6004C4414141414141400000000000000003A
:1008B6000000000000000000000000F8000000003A
:1008C600000000333000000000100C06100C06007B
:1008D600000000000000000040C07840C0784000E2
:1008E600043F04043F040400007088FC0830000044
:1008F600001820FF211E0000F008F000E01800009C
:1009060000211C031E211E0000F008887000000054
:100916001E2123241927211010160E0000000000A6
:100926000000000000000000000000E018040200C3
:10093600000000071820400000020418E000000034
:100946000040201807000000404080F08040400032
:100956000202010F01020200000000F00000000088
:100966000101011F0101010000000000000000005C
:1009760080B07000000000000000000000000000D1
:10098600000101010101010100000000000000005A
:1009960000303000000000000000000080601804F5
:1009A600006018060100000000E010080810E000D2
:1009B600000F102020100F00001010F8000000009B
:1009C6000020203F202000000070080808887000E2
:1009D6000030282422213000003008888848300062
:1009E6000018202020110E000000C02010F8000082
:1009F60000070424243F240000F80888880808001B
:100A06000019212020110E0000E01088881800002F
:100A1600000F112020110E0000380808C838080001
:100A26000000003F00000000007088080888700081
:100A3600001C222121221C0000E010080810E00002
:100A46000000312222110F00000000C0C00000008B
:100A560000000030300000000000008000000000B0
:100A660000008060000000000000804020100800A8
:100A76000001020408102000404040404040400071
:100A8600040404040404040000081020408000004C
:100A96000020100804020100007048080808F00051
:100AA6000000003036010000C030C828E810E00021
:100AB6000718272423140B000000C038E0000000AC
:100AC600203C23020227382008F888888870000016
:100AD600203F202020110E00C030080808083800EA
:100AE600071820202010080008F808080810E00061
:100AF600203F202020100F0008F88888E808100002
:100B0600203F20202320180008F88888E8081000D5
:100B1600203F200003000000C0300808083800000D
:100B260007182020221E020008F808000008F8080E
:100B3600203F210101213F20000808F80808000095
:100B46000020203F2020000000000808F8080800C8
:100B5600C08080807F00000008F888C02818080040
:100B6600203F20012638200008F808000000000079
:100B7600203F20202020300008F8F800F8F8080070
:100B8600203F003F003F200008F830C00008F8086A
:100B9600203F200007183F00E01008080810E0007A
:100BA6000F10202020100F0008F808080808F00091
:100BB600203F210101010000E01008080810E000B4
:100BC6000F18242438504F0008F888888888700049
:100BD600203F2000030C30200070880808083800E9
:100BE6000038202121221C00180808F808081800DF
:100BF6000000203F2000000008F808000008F80860
:100C0600001F202020201F000878880000C8380810
:100C1600000007380E010000F80800F80008F80088
:100C2600033C0700073C0300081868808068180822
:100C360020302C03032C30200838C800C8380800A0
:100C46000000203F2000000010080808C8380800EF
:100C56002038262120201800000000FE0202020093
:100C66000000007F40404000000C30C00000000043
:100C7600000000010638C00000020202FE0000006B
:100C8600004040407F000000000004020202040011
:100C9600000000000000000000000000000000004E
:100CA6008080808080808080000202040000000036
:100CB600000000000000000000008080808000002E
:100CC6000019242222223F2008F80080800000001C
:100CD600003F112020110E000000008080800000DF
:100CE600000E112020201100000000808088F800EE
:100CF600000E112020103F20000080808080000020
:100D0600001F222222221300008080F08888881883
:100D16000020203F2020000000008080808080008E
:100D2600006B94949493600008F800808080000023
:100D3600203F210000203F200080989800000000FE
:100D46000020203F2020000000000080989800002E
:100D560000C08080807F000008F80000808080004E
:100D6600203F24022D302000000808F80000000073
:100D76000020203F2020000080808080808080002E
:100D8600203F20003F20003F8080008080800000C0
:100D9600203F210000203F2000008080808000004E
:100DA600001F202020201F0080800080800000007F
:100DB60080FFA12020110E000000008080808000AE
:100DC600000E112020A0FF8080808000808080009F
:100DD60020203F21200001000000808080808000CC
:100DE6000033242424241900008080E08080000041
:100DF6000000001F2020000080800000008080008E
:100E0600001F202020103F208080800000808080EE
:100E160000010E300806010080800080008080807E
:100E26000F300C030C300F000080800080808000A3
:100E36000020312E0E3120008080800000808080CE
:100E460080818E701806010000808080808080007E
:100E56000021302C2221300000000000807C02029C
:100E660000000000003F404000000000FF000000BE
:100E760000000000FF0000000002027C800000006D
:100E86000040403F00000000000601010202040489
:080E9600000000000000000054
:10005E00E490053EF090053EE064126017E4FB7DEF
:10006E00757F6912577E90053EEFF07F0A7E001273
:04007E005DF080E1D0
:01008200225B
:104CB7007F0A7E00125DF012005E7B807D6B7F694C
:104CC700125CF07F027E00125DF0E4FB7D6B7F6972
:104CD70012577EEF20E7F37B017D6B7F69125CF053
:104CE700E4FB7D6C7F69125CF07B017D1A7F6912A2
:104CF7005CF07B077D197F69125CF07B187D1B7F59
:104D070069125CF07B107D1C7F69125CF07B037D70
:064D17001D7F69025CF043
:105092007B017A0479C39004867406F0E4A3F07D60
:1050A2003B7F691248949004C3E0FEA3E0FDEDFF4C
:1050B2009003A0EEF0A3EFF09004C5E0FEA3E0FDA4
:1050C200EDFF9003A2EEF0A3EFF09004C7E0FEA381
:0C50D200E0FDEDFF9003A4EEF0A3EFF072
:0150DE0022AF
:1050DF007B017A0479C99004867406F0E4A3F07D0D
:1050EF00437F691248949004C9E0FEA3E0FDEDFFF1
:1050FF009003A6EEF0A3EFF09004CBE0FEA3E0FD4B
:10510F00EDFF9003A8EEF0A3EFF09004CDE0FEA327
:0C511F00E0FDEDFF9003AAEEF0A3EFF01E
:01512B002261
:065A4B00C292EF4480FF4F
:105A5100E4FEEEC39408748094805015EF33929362
:105A6100EF25E0FFC295D295A294E4334FFF0E805B
:015A7100E153
:015A72002211
:0D000600C292125A51AF05125A51D29222E5
:0F5F1B00125A4BE4FF125A51EF1213D2D29222B4
:0B56C100900511EBF0A3EAF0A3E9F064
:1056CC00125A4BE4FDFC900514E0FFC3ED9FEC94E3
:1056DC0000501FE4FF125A51900511E0FBA3E0FAB1
:1056EC00A3E0F98D828C83EF1213E40DBD00010C45
:0456FC0080D4D292F2
:015700002286
:105E04007B017A05793F7F75125F1B90053FE06443
:035E14001270ED1C
:015E17002268
:104EFA00125E047D807F6B1200067F027E00125DC7
:104F0A00F07B017A0579407F6B125F1B900540E0C8
:104F1A00644170ED7D017F6B1200061D7F6C1200EB
:104F2A00060D7F1A1200067D077F191200067D18EA
:104F3A007F1B1200067D107F1C1200067D037F1D59
:034F4A000200065C
:105382007B017A0479CF9005147406F07F3B1256A4
:10539200C19004CFE0FEA3E0FDEDFF9003A0EEF08C
:1053A200A3EFF09004D1E0FEA3E0FDEDFF9003A295
:1053B200EEF0A3EFF09004D3E0FEA3E0FDEDFF904A
:0753C20003A4EEF0A3EFF0DD
:0153C90022C1
:1053CA007B017A0479D59005147406F07F4312564E
:1053DA00C19004D5E0FEA3E0FDEDFF9003A6EEF038
:1053EA00A3EFF09004D7E0FEA3E0FDEDFF9003A841
:1053FA00EEF0A3EFF09004D9E0FEA3E0FDEDFF90FC
:07540A0003AAEEF0A3EFF08E
:015411002278
:0E5D8400EBF0A3EAF0A3E9F0C292EF4480FF37
:085D9200AB07E4FDFF02521112
:10002600900541EDF0C292125D92900541E0FF12FB
:050036005D92D2922250
:105CB600900523125D84E4FF125D92900523E0FBBC
:0D5CC600A3E0FAA3E0F9EF1213D2D292226C
:034FA00090047BFF
:104FA300125D84E490047FF0A3F090047EE0FFC3DD
:104FB300900480E09F90047FE09400502FE4FF1260
:104FC3005D9290047BE0FBA3E0FAA3E0F990047FF9
:104FD300E0FCA3E0F5828C83EF1213E4900480E0FD
:0E4FE30004F070C690047FE004F080BED2920D
:014FF100229D
:105B5500E4900542F0900542E0641260147B017AFE
:105B65000579427F75125CB67F0A7E00125DF08072
:015B7500E44B
:015B7600220C
:104BD400E4900543F07F0AFE125DF09004AE740287
:104BE400F0E4A3F0A3F07B01FDFF125043125B55E8
:104BF4007D807F6B1200267F027E00125DF07B01B8
:104C04007A0579437F6B125CB6900543E06441708A
:104C1400ED7D017F6B120026E4FD7F6C1200267D82
:104C2400017F1A1200267D077F191200267D187F46
:104C34001B1200267D107F1C1200267D037F1D029F
:024C4400002648
:105412007B017A0479DB90047E7406F07F3B124FA5
:10542200A09004DBE0FEA3E0FDEDFF9003A0EEF010
:10543200A3EFF09004DDE0FEA3E0FDEDFF9003A2F8
:10544200EEF0A3EFF09004DFE0FEA3E0FDEDFF90AD
:0754520003A4EEF0A3EFF04C
:015459002230
:10545A007B017A0479E190047E7406F07F43124F4F
:10546A00A09004E1E0FEA3E0FDEDFF9003A6EEF0BC
:10547A00A3EFF09004E3E0FEA3E0FDEDFF9003A8A4
:10548A00EEF0A3EFF09004E5E0FEA3E0FDEDFF905F
:07549A0003AAEEF0A3EFF0FE
:0154A10022E8
:01004100229C
:075D9A00C295125DA1D29534
:0E5DA1007F647E00EF1FAC0670011E4C70F692
:015DAF0022D1
:0F5F2A00D293D295125DA1C293125DA1C29522AE
:0A004600C293125D9AD293025DA1ED
:105D0C00AD07C295125DA1ED6004C2938002D293DF
:0A5D1C00D295125DA1C295025DA1AF
:105DB000125D9A309306C295E4FEFF22C295125DF1
:065DC000A17E007F01221C
:045A9B00E025E0FF23
:025A9F00AD0751
:105AA1007B08AF031BEF6015ED30E704D293800252
:105AB100C293ED25E0FD125D9CC29580E5025DB0CB
:02585F00AD0793
:10586100E4FBC295125DA1D293E4FAEAC3940874F1
:105871008094805011125DA1125D9AEB25E0FB30FE
:1058810093010B0A80E5C295125DA1AF05125D0C73
:02589100AF0363
:0158930022F2
:105CF000900544EFF0AA03A905125F2A125A9BAF40
:0C5D000001125A9FAF02125A9F02004687
:09577E00900545EDF0AA07A9030E
:10578700125F2AEA25E0FF125A9FE0FF125A9FE9AB
:1057970064017003120046125F2AAF02EF25E0444E
:1057A70001FF125A9FE4FF12585FAD07120046AF80
:0157B70005EC
:0157B80022CE
:10489400900481EFF0A3EDF0A3EBF0A3EAF0A3E919
:1048A400F0125F2A900481125A9BA3E0FF125A9FD0
:1048B400900487E064017003120046125F2A90049A
:1048C40081E025E04401FF125A9F900486E014F031
:1048D40060207F0112585F900483E0FBA3E0FAA3F9
:1048E400E0F9EF1213D2900484E475F0011214A3DA
:1048F40080D8E4FF12585F900483E0FBA3E0FAA39E
:09490400E0F9EF1213D2020046A3
:105EBD00E4FD7F0D1252A77D0A7C00E4FF023EE84F
:10455200E4900546F0FDFF12526B7DFFE4FF12521C
:104562006B7D01E4FF12526BE4FDFF12526BE4908B
:104572000546F0900546E0FDC39480748094805017
:1045820061ED25E02401F582E43400F583C083C0A7
:1045920082A3E0C4F8540FC868FF0582D5820215D1
:1045A200831582E0C454F048D082D083F0A3EFF0A8
:1045B200ED25E02401F582E43400F583E0FDE4FF1B
:1045C20012526B900546E025E02401F582E43400A6
:1045D200F583A3E0FDE4FF12526B900546E004F080
:0245E2008091C6
:0145E40022B4
:1054E900E4900547F0D2B6C2B7C2B6D2B7D2B6C2B7
:1054F900B7F0900547E0C39480748094805027C228
:10550900B6E4FD7F0D125952900547E025E02401CC
:10551900F582E43400F583EEF0A3EFF0D2B69005FE
:0655290047E004F080CC15
:01552F002259
:065F6D002564002566001A
:105ECD00C2C6C2C5AB07E4FD7F02125211D2C62273
:105EDD00C2C6D2C5AB07E4FD7F02125211D2C62253
:0758C8002428FFE03400FE7C
:0258CF00AC0625
:1058D100EC900535F0A3EFF0C2C6D2C5900535E0D6
:1058E100FBE4FD7F02125211900536E0FBE4FD7FDF
:0658F10002125211D2C6A2
:0158F700228E
:1030CA009004AE7422F0E4A3F0A3F07B217D207F6C
:1030DA0002125043D2C7C2C5C2C47FC87E00125D65
:1030EA00F0D2C47F647E00125DF07F36125ECD7F1F
:1030FA00A0125EDD7F3A125ECD7F05125EDD7FB2E1
:10310A00125ECD7F0C125EDD7F0C125EDDE4FF12D3
:10311A005EDD7F33125EDD7F33125EDD7FB7125EC6
:10312A00CD7F35125EDD7FBB125ECD7F37125EDD4D
:10313A007FC0125ECD7F2C125EDD7FC2125ECD7F14
:10314A0001125EDD7FC3125ECD7F12125EDD7FC487
:10315A00125ECD7F20125EDD7FC6125ECD7F0F121A
:10316A005EDD7FD0125ECD7FA4125EDD7FA1125E8E
:10317A00DD7FE0125ECD7FD0125EDD7F04125EDD60
:10318A007F0D125EDD7F11125EDD7F13125EDD7F21
:10319A002B125EDD7F3F125EDD7F54125EDD7F4CB7
:1031AA00125EDD7F18125EDD7F0D125EDD7F0B126F
:1031BA005EDD7F1F125EDD7F23125EDD7FE1125E20
:1031CA00CD7FD0125EDD7F04125EDD7F0C125EDDE4
:1031DA007F11125EDD7F13125EDD7F2C125EDD7FB2
:1031EA003F125EDD7F44125EDD7F51125EDD7F2F6E
:1031FA00125EDD7F1F125EDD7F1F125EDD7F2012F1
:10320A005EDD7F23125EDD7F21125ECD7F11125EAD
:10321A00CD7F787E00125DF07F29125ECD74FFFFAC
:04322A00FE024C460E
:104FF200900454EEF0A3EFF0A3ECF0A3EDF0A3EADB
:10500200F0A3EBF07F2A125ECD900455E090045499
:105012001258C8900459E09004581258C87F2B12B5
:105022005ECD900457E02434FF9004561258CB9082
:10503200045BE02434FF90045A1258CB7F2C025EAA
:01504200CDA0
:084C46009004EDEEF0A3EFF085
:104C4E0090045AE4F0A37486F07BEF7A00E4FDFC46
:104C5E00FFFE124FF2E49004EFF0A3F0E49004F1A3
:104C6E00F0A3F09004EDE0FEA3E0FF1258CF900405
:104C7E00F2E004F070069004F1E004F0C39004F248
:104C8E00E094879004F1E0940040D89004F0E004A2
:104C9E00F070069004EFE004F0C39004F0E094F09E
:084CAE009004EFE0940040B413
:014CB60022DB
:10563E009004F3EEF0A3EFF09004F7EAF0A3EBF092
:10564E009004F5ECF0A3EDF09004F3E0FAA3E0FB88
:10565E00FFAE02C007A3E0FFA3E090045ACFF0A371
:10566E00EFF0D007124FF29004F7E0FEA3E0FF0236
:02567E0058CF03
:063C5400F583E02430FBC3
:103C5A0090045CEEF0A3EFF0A3ECF0A3EDF0A3EB7D
:013C6A00F069
:103C6B00E4A3F0900461E0F9C39410748094804055
:103C7B0003023D33E9FF90045FE02FFD90045EE00B
:103C8B003400FC90045DE02407FB90045CE03400FE
:103C9B00FA7E0090045EE0F8A3E02FFFEE3890046C
:103CAB005AF0A3EFF090045CE0FEA3E0FF124FF29A
:103CBB00900460E0FF3395E0FEEFC4F8540FC86842
:103CCB00FFEEC454F048FE74962FF58274FE3EF559
:103CDB0083C083C082900461E0D082D0832582F5BB
:103CEB0082E43583F583E493900463F0E4900462FB
:103CFB00F0900462E0C39408748094805021A3E098
:103D0B0030E0067F007EF8800474FFFFFE1258CF70
:103D1B00900463E0C313F0900462E004F080D2904F
:083D2B000461E004F0023C6EAB
:013D3300226D
:104AE900900421EEF0A3EFF0A3ECF0A3EDF0A3EB1B
:074AF900F0A3EAF0A3E9F0CD
:104B0000E4A3F0A3F0900425E0FBA3E0FAA3E0F90E
:104B1000A3E0FEA3E0FFF5828E831213A5FB603EA7
:104B2000EF7803C333CE33CED8F9FF900422E02FC1
:104B3000FF900421E03EFE900424E0C4F8540FC826
:104B400068FD900423E0C454F048FC123C5A9004E1
:0E4B500029E004F070AF900428E004F080A784
:014B5E002234
:103E0E0090042AEEF0A3EFF0A3ECF0A3EDF0A3EBF9
:013E1E00F0B3
:103E1F003395E0C36480948090042DE0C4F8540F70
:103E2F00C868FD90042CE0C454F048FC90042AE0CC
:103E3F00FEA3E0FF500E7B2D123C5A90042EE0F4AF
:103E4F0004F080057B20123C5A90042EE0FF75F0A1
:103E5F006412136A90042FF0EF75F00A12136AFFC1
:103E6F0075F00A12136AAFF0900430EFF090042E41
:103E7F00E0FF75F00A12136AAFF0900431EFF0E42F
:103E8F00A3F0900432E0FBFF7E00C3940374809490
:103E9F00805045EF2401FFEE33FEEF7803C333CE9E
:103EAF0033CED8F9FF90042BE02FFF90042AE03E89
:103EBF00FE90042DE0C4F8540FC868FD90042CE068
:103ECF00C454F048FC742F2BF582E43404123C5494
:083EDF00900432E004F080AA17
:013EE70022B8
:0E49FC00900464EEF0A3EFF0A3ECF0A3EDF056
:104A0A00EB75F06484A3F0EB75F00A8475F00A8400
:104A1A00A3E5F0F0EB75F00A84A3E5F0F0E4A3F067
:104A2A0090046BE0C3940374809480503BE0FB7560
:104A3A00F008A4FF900465E02FFF900464E035F0CD
:104A4A00FE900467E0C4F8540FC868FD900466E05D
:104A5A00C454F048FC74682BF582E43404123C54C4
:084A6A0090046BE004F080B839
:014A72002221
:10334F009003ACEEF0A3EFF0A3ECF0A3EDF0A3EA43
:04335F00F0A3EBF0FC
:10336300C3EA648094809003AFE0C4F8540FC86844
:10337300FD9003AEE0C454F048FC9003ACE0FEA320
:10338300E0FF501C7B2D123C5A9003B0E0FEA3E0FB
:10339300FFC3E49FFFE49E9003B0F0A3EFF080052A
:1033A3007B20123C5A9003B0E0FAA3E0FB7C277D1C
:1033B30010FFAE0212146DA3EFF07C037DE8AF03A0
:1033C300AE0212146D7C007D0A12146DA3EDF09011
:1033D30003B0A3E07C007D64FFAE0212146D7C0099
:1033E3007D0A12146D9003B4EDF07C007D0AAF03E7
:1033F300AE0212146D7C007D0A12146DA3EDF090E1
:1034030003B0E0FEA3E0FF7C007D0A12146D90037D
:10341300B6EDF0E4A3F09003B7E0FBFF7E00C394A6
:1034230005748094805045EF2401FFEE33FEEF785E
:1034330003C333CE33CED8F9FF9003ADE02FFF9013
:1034430003ACE03EFE9003AFE0C4F8540FC868FD40
:103453009003AEE0C454F048FC74B22BF582E4341C
:0C34630003123C549003B7E004F080AA70
:01346F00223A
:0E420B009003FBEEF0A3EFF0A3ECF0A3EDF0B8
:104219007C277D10AF03AE02121418A3EFF07C03C4
:104229007DE8AF03AE021214187C007D0A1214183F
:10423900A3EDF07C007D64AF03AE021214187C007C
:104249007D0A121418A3EDF07C007D0AAF03AE02BB
:104259001214187C007D0A121418A3EDF0AE02AFF7
:10426900037C007D0A121418A3EDF0E4A3F0900476
:1042790004E0C3940574809480503BE0FB75F0081A
:10428900A4FF9003FCE02FFF9003FBE035F0FE90C4
:1042990003FEE0C4F8540FC868FD9003FDE0C45460
:1042A900F048FC74FF2BF582E43403123C5490046B
:0642B90004E004F080B8EF
:0142BF0022DC
:0E399C009002E3EEF0A3EFF0A3ECF0A3EDF049
:1039AA009002EBE0FFC3740A9F7480F89850037486
:1039BA000AF09002EBE004F09002E7E0FCA3E0FDDD
:1039CA00A3E0FEA3E0FFE4FBFAF9F8D31215AB403B
:1039DA00319001D174FFF0A3745FF0A3746DF0907D
:1039EA0002E7E0FCA3E0FDA3E0FEA3E0FF9001D420
:1039FA001216050B7A0279EC121CB090030EEFF046
:103A0A0080389002EC7420F09001D174FFF0A37416
:103A1A005FF0A3746DF09002E7E0FCA3E0FDA3E081
:103A2A00FEA3E0FF9001D41216057B017A0279ED1C
:103A3A00121CB090030EEFF0801E9002EBE0FF9094
:103A4A00030EE0FEC39F501574EC2EF582E4340297
:103A5A00F5837420F090030EE004F080DD74EC2FFF
:103A6A00F582E43402F583E4F09002E3E0FEA3E099
:103A7A00FFA3E0FCA3E0FD7B017A0279EC024AE9AC
:0E2DE200900259EEF0A3EFF0A3ECF0A3EDF099
:102DF000900262E0FFC374069F7480F898500374D9
:102E000006F0900261E0FFC3740A9F7480F8985046
:102E100003740AF090025DE0FCA3E0FDA3E0FEA3D2
:102E2000E0FFE4FBFAF9F812113C9001D160314067
:102E30002F74FFF0A3745FF0A37470F090025DE054
:102E4000FCA3E0FDA3E0FEA3E0FF9001D412160571
:102E50007B017A027964121CB0900263EFF080303B
:102E600074FFF0A3745FF0A37470F090025DE0FC57
:102E7000A3E0FDA3E0FEA3E0FF9001D41216057BC2
:102E8000017A027965121CB0900263EFF0E004F061
:102E9000900263E024F9FD900261E0FEC3ED9E1410
:102EA000900286F0900262E0AE052E04900287F058
:102EB000900286E0FF3395E0FED3E49FEE6480F855
:102EC0007480984022A3E0FF3395E0FE74642FF5F0
:102ED0008274023EF5837420F0900287E004F09043
:102EE0000286E004F080C990025DE0FCA3E0FDA34F
:102EF000E0FEA3E0FFE4FBFAF9F812113C90028631
:102F000060174015E0FF3395E0FE74642FF582747E
:102F1000023EF583742DF08013E0FF3395E0FE74DC
:102F2000642FF58274023EF5837420F0900287E0EE
:102F3000FF3395E0FE74642FF58274023EF583E45E
:102F4000F0900259E0FEA3E0FFA3E0FCA3E0FD7BCC
:082F5000017A027964024AE9EA
:105BDD00E4FB7D6B7F68125CF07B077D197F68129B
:105BED005CF0E4FB7D197F6812577EEF640770F25D
:015BFD002285
:105339007F647E00125DF0125BDDE4FB7D6B7F68AC
:10534900125CF07B077D197F68125CF07B047D1A83
:105359007F68125CF07B187D1B7F68125CF07B1004
:105369007D1C7F68125CF0E4FB7D6A7F68125CF04B
:095379007B027D377F68025CF0C5
:10512C007B017A0479F99004867406F0E4A3F07D8F
:10513C003B7F681248949004F9E0FEA3E0FDEDFF7C
:10514C009003B8EEF0A3EFF09004FBE0FEA3E0FDBB
:10515C00EDFF9003BAEEF0A3EFF09004FDE0FEA398
:0C516C00E0FDEDFF9003BCEEF0A3EFF0BF
:015178002214
:105179007B017A0479FF9004867406F0E4A3F07D3C
:10518900437F681248949004FFE0FEA3E0FDEDFF21
:105199009003BEEEF0A3EFF0900501E0FEA3E0FD61
:1051A900EDFF9003C0EEF0A3EFF0900503E0FEA33E
:0C51B900E0FDEDFF9003C2EEF0A3EFF06C
:0151C50022C7
:0A5F39002D002000256400256600FD
:0559A800F583E493FF0C
:1059AD007E08C2C6D2C5C2C3AD061EED6014EF306F
:1059BD00E704D2C08002C2C0D2C3C2C3EF25E0FF4C
:0459CD0080E6D2C6D8
:0159D10022B3
:105AE7007E06C2C6D2C5C2C3AD061EED6014EF3036
:105AF700E704D2C08002C2C0D2C3C2C3EF25E0FF11
:045B070080E6D2C69C
:015B0B002277
:0858F80054F0C4540F4410FFEA
:105900007E08C2C6C2C5C2C3AD061EED6014EF302C
:10591000E704D2C08002C2C0D2C3C2C3EF25E0FFF9
:0459200080E6D2C685
:015924002260
:10479200900488EEF0A3EFF0A3EBF0A3EAF0A3E914
:0147A200F026
:1047A30090048E7406F090048AE0FBA3E0FAA3E081
:1047B300F990048EE0F582758300E4804E90048EB8
:1047C300E0604D14F0900488E0FAA3E0FB7C007DE8
:1047D3000AFFAE0212141890048DEDF07C007D0ADE
:1047E300AF03AE02121418900488EEF0A3EFF0901A
:1047F300048DE02430FF90048AE0FBA3E0FAA3E0F9
:10480300F990048EE0F582758300EF1213E480AD16
:014813002282
:10436C00D2C6D2C3C2C47F327E00125DF0D2C47FEB
:10437C00AE125900E4FF1259007F101259007F4011
:10438C001259007F811259007F7F1259007FA112B0
:10439C0059007FC81259007FA61259007FA81259E4
:1043AC00007F3F1259007FD3125900E4FF125900CD
:1043BC007FD51259007F801259007FD91259007F86
:1043CC00F11259007FDA1259007F121259007FDB6B
:1043DC001259007F401259007F201259007F02129F
:1043EC0059007F8D1259007F141259007FA4125965
:1043FC00007FA61259007FAF125900E4FF12582813
:06440C00E4FDFF025E1852
:105E1800AC07ED24B0FF125900EC1258F8EC540FFF
:045E2800FF0259001C
:02582800AC07CB
:10582A00E4FBEBC39408748094805028EB24B0FF07
:10583A001259007F011259007F10125900E4FAEA46
:10584A00C39480748094805008AF041259AD0A80C2
:04585A00EE0B80CE03
:01585E002227
:105C4000AA07A905125E18E924B0FF125900EA124A
:0E5C500058F8EA540FFF125900AF030259AD85
:105C5E00AB07AA05125E18EA24B0FF125900EB1228
:0E5C6E0058F8EB540FFF125900E4FF0259AD35
:1046760090048FEFF0A3EDF0A3EBF0A3EAF0A3E92B
:01468600F043
:10468700E4A3F0FCA3F0900491E0FBA3E0FAA3E01D
:10469700F9900495E0F5827583001213A5605F24F5
:1046A700E0900494F090048FE0D3947E748094801B
:1046B7004006E4F0A3E004F090048FE0FFA3E0FDE0
:1046C700125E18E4FCECC39406748094805020902A
:1046D7000494E075F006A42486F582E5F03406F527
:1046E70083E5822CF582E435831259A80C80D69095
:0E46F700048FE02406F0900495E004F0808823
:014705002291
:10408A00900496EFF0A3EDF0A3EBF0A3EAF0A3E916
:01409A00F035
:10409B00E4A3F0FCA3F0900498E0FBA3E0FAA3E008
:1040AB00F990049CE0F5827583001213A57003024E
:1040BB00415524E090049BF0900496E0D3947874DF
:1040CB008094804006E4F0A3E004F0900496E0FFB7
:1040DB00A3E0FD125E18E4FCECC39408748094809A
:1040EB00502090049BE075F010A42CF582E435F081
:1040FB00F583E58224AEF582E58334081259A80CCA
:10410B0080D6900496E0FFA3E004FD125E18E4FC59
:10411B00ECC3940874809480502090049BE075F05D
:10412B0010A42CF582E435F0F583E58224B6F582F4
:10413B00E58334081259A80C80D6900496E0240825
:0A414B00F090049CE004F00240A193
:014155002247
:085AC100900433EFF0A3EDF0B7
:105AC900AE02AF037B017A04793512479290043311
:0E5AD900E0FFA3E0FD7B017A047936024676F9
:0E4B5F009003DBEFF0A3EDF0A3EAF0A3EBF080
:104B6D00C3EA6480948050259003DDE0FEA3E0FF4E
:104B7D00C3E49FFFE49E9003DDF0A3EFF09003DB11
:104B8D00E0FFA3E0FD7BFF7A5F7939800E9003DBB8
:104B9D00E0FFA3E0FD7BFF7A5F793B124676900341
:104BAD00DBE02406F09003DDE0FEA3E0FF7B017A5D
:104BBD000379DF1247929003DBE0FFA3E0FD7B0159
:074BCD007A0379E00246764D
:0E3A8A0090030FEEF0A3EFF0A3ECF0A3EDF02D
:103A9800900317E0FFC3740A9F7480F8985003746A
:103AA8000AF0900317E004F0900313E0FCA3E0FD94
:103AB800A3E0FEA3E0FFE4FBFAF9F8D31215AB404C
:103AC800319001D174FFF0A3745FF0A3743DF090BE
:103AD8000313E0FCA3E0FDA3E0FEA3E0FF9001D404
:103AE8001216050B7A037918121CB090033AEFF0FE
:103AF80080389003187420F09001D174FFF0A374FB
:103B08005FF0A3743DF0900313E0FCA3E0FDA3E095
:103B1800FEA3E0FF9001D41216057B017A03791900
:103B2800121CB090033AEFF0801E900317E0FF904C
:103B3800033AE0FEC39F501574182EF582E434034F
:103B4800F5837420F090033AE004F080DD74182FB8
:103B5800F582E43403F583E4F090030FA3E0FFA3B8
:0C3B6800A3E0FD7B017A03791802467689
:0E2F5800900288EEF0A3EFF0A3ECF0A3EDF0F2
:102F6600900291E0FFC374069F7480F89850037432
:102F760006F0900290E0FFC3740A9F7480F89850A0
:102F860003740AF090028CE0FCA3E0FDA3E0FEA32C
:102F9600E0FFE4FBFAF9F812113C9001D1603140F0
:102FA6002F74FFF0A3745FF0A37440F090028CE0DE
:102FB600FCA3E0FDA3E0FEA3E0FF9001D4121605FA
:102FC6007B017A027993121CB0900292EFF0803066
:102FD60074FFF0A3745FF0A37440F090028CE0FCE1
:102FE600A3E0FDA3E0FEA3E0FF9001D41216057B4B
:102FF600017A027994121CB0900292EFF0E004F08C
:10300600900292E024F9FD900290E0FEC3ED9E143A
:103016009002B5F0900291E0AE052E049002B6F053
:103026009002B5E0FF3395E0FED3E49FEE6480F8AE
:103036007480984022A3E0FF3395E0FE74932FF549
:103046008274023EF5837420F09002B6E004F0909C
:1030560002B5E004F080C990028CE0FCA3E0FDA379
:10306600E0FEA3E0FFE4FBFAF9F812113C9002B58A
:1030760060174015E0FF3395E0FE74932FF58274D8
:10308600023EF583742DF08013E0FF3395E0FE7465
:10309600932FF58274023EF5837420F09002B6E019
:1030A600FF3395E0FE74932FF58274023EF583E4B8
:1030B600F0900288A3E0FFA3A3E0FD7B017A0279EA
:0430C60093024676B5
:1016F400900350ECF0A3EDF0A3EBF0A3EAF0A3E920
:09170400F090034EEEF0A3EFF0AB
:10170D007E005407FF90035CEEF0A3EFF07017908E
:10171D00034EE0FEA3E07803CEC313CE13D8F9FF3A
:10172D0090035AEE801890034EE0FEA3E07803CEAE
:10173D00C313CE13D8F92401FFE43E90035AF0A34E
:10174D00EFF0E4900356F0A3F090035AE0FEA3E00F
:10175D00FF900356E0FCA3E0FDC39FEE6480F8EC20
:10176D006480984003021CAFE4FF125E18E4A3F0FE
:10177D00A3F0900350E0FCA3E0FDC3900359E09D5E
:10178D00900358E09C4003021C9EE490035EF09091
:10179D00035BE024FFFF90035AE034FFFE900356F5
:1017AD00E0FAA3E0FBC39FEE6480F8EA6480984002
:1017BD001590035CE0FEA3E0FF4E600AEF9401EE8E
:1017CD0064809480404D90035EE0FFC007AE02EB55
:1017DD007803C333CE33CED8F9FF121406900352DB
:1017ED00E0FBA3E0FAA3E02FF9EA3EFA900358E0FC
:1017FD00FEA3E029F9EA3EFA12138CFF900355E09F
:10180D00FEEFD39E40047E0180027E00D0E04E901C
:10181D00035EF090035BE024FFFF90035AE034FF7A
:10182D00FE900356E0FCA3E0FDC39FEE6480F8EC50
:10183D00648098401590035CE0FEA3E0FF4E600AC3
:10184D00EF9402EE64809480406390035EE0FFC0ED
:10185D0007AE04ED7803C333CE33CED8F9FF900332
:10186D0050E0FCA3E0FD121406A3E0FBA3E0FAA3F5
:10187D00E02FF9EA3EFA900358E0FEA3E029F9EAD9
:10188D003EFA900350E0FEA3E029F9EA3EFA121366
:10189D008CFF900355E0FEEFD39E40047F01800244
:1018AD007F00EF25E0FED0E04E90035EF090035BED
:1018BD00E024FFFF90035AE034FFFE900356E0FC56
:1018CD00A3E0FDC39FEE6480F8EC64809840159012
:1018DD00035CE0FEA3E0FF4E600AEF9403EE64802C
:1018ED009480406C90035EE0FFC007AE04ED78037A
:1018FD00C333CE33CED8F9FF900350E0FCA3E0FD07
:10190D00121406A3E0FBA3E0FAA3E02FF9EA3EFAD6
:10191D00900358E0FEA3E029F9EA3EFA900351E066
:10192D0025E0FF900350E033FEE92FF9EA3EFA126D
:10193D00138CFF900355E0FEEFD39E40047F018092
:10194D00027F00EF25E025E0FED0E04E90035EF033
:10195D0090035BE024FFFF90035AE034FFFE9003F9
:10196D0056E0FCA3E0FDC39FEE6480F8EC64809824
:10197D00401590035CE0FEA3E0FF4E600AEF940477
:10198D00EE64809480406A90035EE0FFC007AE0471
:10199D00ED7803C333CE33CED8F9FF900350E0FC7E
:1019AD00A3E0FD121406A3E0FBA3E0FAA3E02FF9D8
:1019BD00EA3EFA900358E0FEA3E029F9EA3EFA90D8
:1019CD000350E0FEA3E0F5828E83740312164212DB
:1019DD0013A5FF900355E0FEEFD39E40047F0180D9
:1019ED00027F00EF33333354F8FED0E04E90035EA8
:1019FD00F090035BE024FFFF90035AE034FFFE906C
:101A0D000356E0FCA3E0FDC39FEE6480F8EC648018
:101A1D0098401590035CE0FEA3E0FF4E600AEF9442
:101A2D0005EE64809480406D90035EE0FFC007AECC
:101A3D0004ED7803C333CE33CED8F9FF900350E0D5
:101A4D00FCA3E0FD121406A3E0FBA3E0FAA3E02F34
:101A5D00F9EA3EFA900358E0FEA3E029F9EA3EFACE
:101A6D00900350E0FEA3E07802C333CE33CED8F915
:101A7D0029F9EA3EFA12138CFF900355E0FEEFD3DD
:101A8D009E40047F0180027F00EFC454F0FED0E041
:101A9D004E90035EF090035BE024FFFF90035AE04D
:101AAD0034FFFE900356E0FCA3E0FDC39FEE64807F
:101ABD00F8EC648098401590035CE0FEA3E0FF4EC7
:101ACD00600AEF9406EE64809480406990035EE0B6
:101ADD00FFC007AE04ED7803C333CE33CED8F9FF84
:101AED00900350E0FCA3E0FD121406A3E0FBA3E07D
:101AFD00FAA3E02FF9EA3EFA900358E0FEA3E0299D
:101B0D00F9EA3EFA900350E0FEA3E0F5828E83746D
:101B1D00051216421213A5FF900355E0FEEFD39E5A
:101B2D0040047F0180027F00EFC43354E0FED0E01B
:101B3D004E90035EF090035BE024FFFF90035AE0AC
:101B4D0034FFFE900356E0FCA3E0FDC39FEE6480DE
:101B5D00F8EC648098401590035CE0FEA3E0FF4E26
:101B6D00600AEF9407EE64809480406A90035EE013
:101B7D00FFC007AE04ED7803C333CE33CED8F9FFE3
:101B8D00900350E0FCA3E0FD121406A3E0FBA3E0DC
:101B9D00FAA3E02FF9EA3EFA900358E0FEA3E029FC
:101BAD00F9EA3EFA900350E0FEA3E0F5828E8374CD
:101BBD00061216421213A5FF900355E0FEEFD39EB9
:101BCD0040047F0180027F00EFC4333354C0FED048
:101BDD00E04E90035EF090035BE024FFFF90035A0C
:101BED00E034FFFE900356E0FCA3E0FDC39FEE64DE
:101BFD0080F8EC648098401590035CE0FEA3E0FF54
:101C0D004E600AEF9408EE64809480406B90035E02
:101C1D00E0FFC007AE04ED7803C333CE33CED8F961
:101C2D00FF900350E0FCA3E0FD121406A3E0FBA31C
:101C3D00E0FAA3E02FF9EA3EFA900358E0FEA3E0A4
:101C4D0029F9EA3EFA900350E0FEA3E0F5828E8377
:101C5D0074071216421213A5FF900355E0FEEFD341
:101C6D009E40047F0180027F00EFC43333335480E4
:101C7D00FED0E04E90035EF090035EE0FF1259AD92
:101C8D00900359E004F07006900358E004F0021739
:101C9D007F900357E004F07006900356E004F002C5
:021CAD001756C8
:011CAF002212
:0B3FBB0090036FEFF0A3EDF0A3EBF01C
:103FC600E4900376F0A3F0900375E0FFC3900377C7
:103FD600E09F7480F8900376E06480984003024086
:103FE60089E4900378F0A3F0900371E0FF131313B4
:103FF600541FFD900378E0FAA3E0FBC39D7480F89C
:10400600EA6480985069900376A3E08FF0A4FF904D
:10401600036FE02FFFA3E02BFD125E18E490037AF6
:10402600F0A3F0900372E0FBA3E0FAA3E0F9121309
:104036008CFF1259AD900373E475F0011214A3902E
:10404600037BE004F0700690037AE004F0C390036B
:104056007BE0941090037AE06480948040C59003DE
:1040660079E004F07082900378E004F0023FEE906D
:104076000377E004F06003023FCD900376E004F09E
:03408600023FCD29
:014089002214
:105E6700EF1FAA0670011E4A60087D091DED60F04C
:025E770080FAAF
:015E79002206
:0B592500C2A4EF4480FF125930AF0510
:10593000E4FEEEC39408748094805015EF3392A572
:10594000EF25E0FFC2A7D2A7A2A6E4334FFF0E8047
:01595000E175
:015951002233
:065F7300125925D2A42200
:105DC600C2A4EF4440FF125930E4FF125930EF12DB
:055DD60013D2D2A4224B
:105BFE00125925D2A4C2A4E4FF125930AC07E4FF17
:105C0E00125930D2A4AF04ED6F60037F01227F00E2
:015C1E002263
:10570100900526EBF0A3EAF0A3E9F0C2A4EF444030
:10571100FF125930E4FF125930D2A47F017E0012EA
:105721005E67C2A4E4FF125930900526E0FBA3E0B6
:10573100FAA3E0F9EF1213D2E4FF125930D2A422F6
:105A7300AB07AA06C3E49BFB74109AFAEBC4F85471
:105A83000FC868FBEAC454F048FAAD03E4FF125BA5
:085A9300FEEAFD7F01025BFE4B
:105B0C00C2A4E4FF125930AD07ED7D00FCE4FF1296
:105B1C005930D2A4AE04EEC4F854F0C868FEEFC4F9
:045B2C00540F48FFCB
:015B30002252
:105E2C007B017A0579487F06125701900548E0649A
:035E3C001C70EDEA
:015E3F002240
:105EED00125E2CE4FD7F09125BFEE4FFFE025A7385
:0E5D5700EBF0A3EAF0A3E9F0C2A2EF4440FF94
:095D6500AB07E4FD7F02025211BC
:105D2600900549EDF0C2A2EF4480FF125D65900533
:095D360049E0FF125D65D2A222D2
:105CD300900529125D57E4FF125930900529E0FB26
:0D5CE300A3E0FAA3E0F9EF1213D2D2A2223F
:05574100900537EDF0BA
:10574600C2A2EF4480FF125D65900537E0FF125D4F
:1057560065D2A2C2A2E4FF125D65900538EFF0E4BF
:10576600FF125D65D2A2900538E0FF900537E06F25
:0757760060037F01227F00A8
:01577D002209
:10597D0090052C125D57E4FF125D65D2A2C2A2E420
:10598D00FF125D6590052CE0FBA3E0FAA3E0F9EFB3
:0B599D001213D2E4FF125D65D2A222BB
:1057B900900539EEF0A3EFF0C3E49FF074109E90CA
:1057C9000539F0A3E0C4F8540FC868FF900539E023
:1057D900C454F048F0A3EFF0FDE4FF1257419005DF
:0857E90039E0FD7F0102574188
:10568000E490053BF0A3F0C2A2FF125D6590053BDC
:10569000E4F0A3EFF0E0F8E4F0E890053BF0E4FF7D
:1056A000125D6590053BE0F0A3E04FF0D2A29005BB
:1056B0003BE0C4F854F0C868FEA3E0C4540F48FFB0
:0156C00022C7
:105C1F007B017A05794A7F0612597D90054AE0FB90
:105C2F00E4FDFCFFFE1249FC90054AE0641C70E0A5
:015C3F002242
:105B31009004AE7420F0E4A3F0A3F07B207D207FDD
:105B410002125043125C1FE4FD7F09125741E4FF2A
:045B5100FE0257B940
:105DDB009005061216110001C20090050A7408F016
:055DEB007F030236A257
:1042C00090049DEBF0A3EAF0A3E9F0A38062E47F01
:1042D0001EFEFDFC9004A0E0F8A3E0F9A3E0FAA321
:1042E000E0FBD31215C1404D308402804B90049DF9
:1042F000E0FBA3E0FAA3E0F99004BBE4F0A3741E92
:10430000F07F031259FB90049EE475F01E1214A373
:104310009004A0E0FCA3E0FDA3E0FEA3E0C3941E94
:10432000FFEE9400FEED9400FDEC9400FC9004A0E0
:10433000121605809930840F9004A0E0FCA3E0FDE4
:10434000A3E0FEA3E0FF2290049DE0FBA3E0FAA31C
:10435000E0F9A3A3A3E0FFA3E09004BBCFF0A3EF99
:0C436000F07F031259FBE4FFFEFDFC227D
:0E45E5009004A4EBF0A3EAF0A3E9F0A3EDF03C
:1045F30074FFA3F0A3F0E4A3F09004A7E0FF9004FA
:10460300AAE0FEC39F50639004A4E0FBA3E0FAA3D7
:10461300E0F98E827583001213A5FF9004A8E0F0E1
:10462300A3E06FF0E4FDEDC39408748094805032EE
:104633009004A8E0FEA3E0FF30E019EEC313FEEF01
:1046430013FFEE64A0FEEF6401FF9004A8EEF0A355
:10465300EFF0800B9004A8E0C313F0A3E013F00D78
:1046630080C49004AAE004F0808F9004A8E0FEA325
:02467300E0FF66
:014675002222
:104412009003E8ECF0A3EDF0A3EAF0A3EBF0900335
:06442200E6EEF0A3EFF04E
:10442800E4FC9003EEE0FBA3E0FAA3E0F9EF12133B
:10443800D29003E6E0FEEEFF9003EEE0FBA3E0FA85
:10444800A3E0F9900001EF1213E49003E8A3E090D1
:1044580000021213E49003E8E0FEEE90000312134A
:10446800E49003EAA3E09000041213E49003EAE066
:10447800FEEE9000051213E49003ECA3E090000612
:104488001213E49003ECE0FEEE9000071213E47DB3
:10449800081245E59003EEE0FBA3E0FAA3E0F990EB
:0D44A8000008EF1213E4EE9000090213E487
:10290900900200E0FBA3E475F0041214B9A9F0FAEF
:102919001215E5900225121605900225E0FCA3E0A8
:10292900FDA3E0FEA3E0FF7B017A027904E49003B2
:0629390042F0A37410F04F
:10293F0090033B12160590033FEBF0A3EAF0A3E9D7
:01294F00F097
:10295000E490034CF0A3F0900342E07003022A0ECF
:1029600090033BE0FCA3E0FDA3E0FEA3E0FF9003A7
:1029700044121605900344E0FCA3E0FDA3E0FEA38F
:10298000E0FFEC335010900344A3A3A3E012159D85
:10299000900344121605900343E0FBE4FAF9F8A310
:1029A000E0FCA3E0FDA3E0FEA3E0FF125576EB24DC
:1029B00030FF90033FE0FBA3E0FAA3E0F9EF12132E
:1029C000D2900344E0FCA3E0FDA3E0FEA3E0FFC03F
:1029D00007900343E0FBE4FAF9F8D007125576902C
:1029E000034412160590034DE004F0900344E0FC0C
:1029F000A3E0FDA3E0FEA3E0FFEC4D4E4F70030209
:102A00002AB9900340E475F0011214A38088900362
:102A10003BE0FCA3E0FDA3E0FEA3E0FF900348122F
:102A20001605900343E0FBE4FAF9F8900348E0FC54
:102A3000A3E0FDA3E0FEA3E0FF12150BAF0390039C
:102A40004CEFF0D3740A9F7480F8985006E0243756
:102A5000F0800790034CE02430F090034CE0FF90AE
:102A6000033FE0FBA3E0FAA3E0F9EF1213D29003D7
:102A700048E0FCA3E0FDA3E0FEA3E0FFC007900355
:102A800043E0FBE4FAF9F8D00712150B9003481263
:102A9000160590034DE004F0900348E0FCA3E0FD30
:102AA000A3E0FEA3E0FFEC4D4E4F600D900340E429
:0E2AB00075F0011214A3022A2290034DE0FFDC
:012ABE0022F5
:1037B500900229EFF07B017A027904E0FFE4FCFD39
:0137C500FE05
:0F37C6009003C4EBF0A3EAF0A3E9F0A3121605F9
:1037D5009003CB12161100000000E47B02FAF9F801
:1037E5009003C7E0FCA3E0FDA3E0FEA3E0FF1215F4
:1037F5000B9003CBE0F8A3E0F9A3E0FAA3E0FBC349
:103805001215C140030238AD9003C7A3A3E0FEA380
:10381500E024FFFBEE34FFFAA3A3A3E0FEA3E0FF41
:10382500C3EB9FFDEA9EFC9003C4E0FBA3E0FAA373
:10383500E0F98D828C831213A59003CFF08F828ED1
:10384500831213A5FFC0079003C7A3A3E0FEA3E05F
:1038550024FFFBEE34FFFAA3A3A3E0FEA3E0FDAC37
:1038650006C3EB9DFFEA9CFE9003C4E0FBA3E0FAD0
:103875008F828E83D0E01213E49003CFE0FFEF8DAB
:10388500828C831213E49003CBE0FCA3E0FDA3E05C
:10389500FEA3E02401FFE43EFEE43DFDE43CFC9094
:0838A50003CB1216050237DF08
:0138AD0022F8
:0B1CB0009001CEEBF0A3EAF0A3E9F0F6
:101CBB009001FC121611000000009002007401F05C
:101CCB00A37401F0A374D4F09001D1E0FBA3E0FA6C
:0B1CDB00A3E0F912138C700302223A00
:101CE600900203F0642560030221E69001D1A3E48B
:101CF60075F0011214A3A9F0FA12138C12167321AF
:101D0600B2251DB446208C581D2D631D49641DB493
:101D1600661D496920116F21597020E0731F8B756C
:071D2600208C780000222D43
:101D2D00900200E0FBA3E475F0041214B9A9F0FAD7
:091D3D001215E5900204EFF0E03C
:031D46000221F483
:101D4900900200E0FBA3E475F0041214B9A9F0FABB
:101D59001215E5900225121605900225E0FCA3E074
:101D6900FDA3E0FEA3E0FF7B017A02790490034220
:101D79007401F0A3740AF012293F900229EFF09040
:101D89000225E0FCA3A3A3EC335014A3E02404F53B
:101D990082E43402F583742DF0900229E004F07B8B
:081DA900017A0279049002297D
:031DB100021FCF3F
:101DB400900200E0FBA3E475F0041214B9A9F0FA50
:101DC4001215E5900225121605900225E0FCA3E009
:101DD400FDA3E0FEA3E0FF1211F37B017A02790474
:101DE4009003427401F0A3740AF012293F9002296F
:101DF400EFF0E4FFFEFDFC900225E0F8A3E0F9A378
:101E0400E0FAA3E0FB12113C5016900229E02404EE
:101E1400F582E43402F583742DF0900229E004F095
:101E24007B017A0279049002291237C0900229E0DA
:101E3400FF7E009001CEE0FBA3E0FAA3E0F8AC0241
:101E4400AD037B017A027904121344900229E0FF66
:101E5400FD9001CFE48DF01214A39001FCE0F8A3EF
:101E6400E0F9A3E0FAA3E0FBE4FCFDFEEB2FFFEEB8
:101E74003AFEED39FDEC38FC9001FC121605900297
:101E840025E0FCA3E0FDA3E0FEA3E0FF1211F3ECC8
:101E94001211B5A804A905AA06AB07900225E0FC17
:101EA400A3E0FDA3E0FEA3E0FF120EA17B007A24D1
:101EB40079747849120F969002251216059002251E
:101EC400E0FCA3E0FDA3E0FEA3E0FFEC4D4E4F6079
:101ED40024900225A3A3A3E01211F37B017A0279D3
:101EE400049003427401F0A3740AF012293F900293
:101EF40029EFF080209002097430F0900208F090ED
:101F04000207F0900206F0900205F0900204F090AF
:101F140002297406F0900229E0FFFDD374069D7433
:101F240080F898401574042FF582E43402F5837424
:101F340030F0900229E004F080DB900229E02404D0
:101F4400F582E43402F583742EF0900229E0041241
:101F540037B9900229E0FF7E009001CEE0FBA3E0B8
:101F6400FAA3E0F8AC02AD037B017A027904121300
:101F7400449001FCE0F8A3E0F9A3E0FAA3E0FB90AD
:071F84000229E0FF0220CE5C
:101F8B00900200E0FBA3E475F0041214B9A9F0FA77
:101F9B001215E5900225121605900225E0FCA3E030
:101FAB00FDA3E0FEA3E0FF7B017A027904E490033A
:101FBB0042F0A3740AF012293F900229EFF07B0143
:101FCB007A0279041237C0900229E0FF7E0090015B
:101FDB00CEE0FBA3E0FAA3E0F8AC02AD037B017A01
:101FEB00027904121344900229E0FFFD9001CFE423
:101FFB008DF01214A39001FCE0F8A3E0F9A3E0FA32
:03200B00A3E0FB54
:03200E000220CEDF
:10201100900200E0FBA3E475F0041214B9A9F0FAF0
:102021001215E5900225121605900225E0FCA3E0A9
:10203100FDA3E0FEA3E0FF7B017A027904E49003B3
:1020410042F0A37408F012293F1237B5900229E03B
:10205100FF7E009001CEE0FBA3E0FAA3E0F8AC0222
:10206100AD037B017A027904121344900229E0FF47
:10207100FD9001CFE48DF01214A39001FCE0F8A3D0
:08208100E0F9A3E0FAA3E0FB83
:032089000220CE64
:10208C001229091237B5900229E0FF7E009001CE8B
:10209C00E0FBA3E0FAA3E0F8AC02AD037B017A020B
:1020AC007904121344900229E0FFFD9001CFE48DD6
:1020BC00F01214A39001FCE0F8A3E0F9A3E0FAA35A
:1020CC00E0FBE4FCFDFEEB2FFFEE3AFEED39FDEC00
:0120DC0038CB
:0320DD00022226B6
:1020E000900200E0FBA3E475F0031214B9A9F0FA22
:1020F000121653900204EBF0A3EAF0A3E9F0900269
:1021000004E0FBA3E0FAA3E0F912138C70030222AF
:102110002D12138CFF9001CEE0FBA3E0FAA3E0F9AF
:10212000EF1213D29001CFE475F0011214A39001C5
:10213000FCE0FCA3E0FDA3E0FEA3E02401FFE43EFD
:10214000FEE43DFDE43CFC9001FC12160590020506
:09215000E475F0011214A380A54E
:10215900122909900229EFF07B017A0279047F089C
:102169007E007D007C001237C69001CEE0FBA3E023
:10217900FAA3E0F8AC02AD037B017A0279047E0090
:102189007F081213449001CFE475F0081214A3904C
:1021990001FCE0FCA3E0FDA3E0FEA3E02408FFE4CA
:0721A9003EFEE43DFDE43CB5
:1021B00080749001CEE0FBA3E0FAA3E0F97425124D
:1021C00013D29001CFE475F0011214A39001FCE04A
:1021D000FCA3E0FDA3E0FEA3E02401FFE43EFEE457
:1021E0003DFDE43C80409001D1E0FBA3E0FAA3E098
:1021F000F912138CFF9001CEE0FBA3E0FAA3E0F903
:10220000EF1213D29001CFE475F0011214A39001E4
:10221000FCE0FCA3E0FDA3E0FEA3E02401FFE43E1C
:10222000FEE43DFDE43CFC9001FC1216059001D259
:07223000E475F0011214A394
:10223700021CD3900200E4F0A3F0A3F09001FCE0AD
:0A224700FCA3E0FDA3E0FEA3E0FF0E
:01225100226A
:03002300024F4D3C
:0F4F4D00C0E0C083C082C0D075D000C005C007CF
:104F5C00309907C2999001CAE4F030982AC298AFF0
:104F6C0099EFFD647F6005ED6480701690054BE051
:104F7C00FF04F0D3EF941474809480400A75C760DA
:074F8C00800590054BE4F0E5
:0D4F9300D007D005D0D0D082D083D0E0323E
:03004300025B77E6
:105B7700C0E0C083C082E59A30E108539AFD9001E6
:105B8700CBE4F0E59A30E003539AFED082D083D07D
:025B9700E032FA
:03008B00025B997C
:105B9900C0E0C083C082E5AC30E10853ACFD9001A0
:105BA900CCE4F0E5AC30E00353ACFED082D083D036
:025BB900E032D8
:03009300025BBB52
:105BBB00C0E0C083C082E58430E1085384FD9001CE
:105BCB00CDE4F0E58430E0035384FED082D083D063
:025BDB00E032B6
:03003B00024D1D56
:104D1D00C0E0C083C082C0D075D000C006C00730CF
:104D2D00D822C2D890038EE0FEA3E0F5EAEEF5FAA4
:104D3D00900388E0FEA3E0FF90038FE02FF0900337
:104D4D008EE03EF030D922C2D9900390E0FEA3E070
:104D5D00F5EBEEF5FB90038AE0FEA3E0FF900391E7
:104D6D00E02FF0900390E03EF0D007D006D0D0D0E9
:064D7D0082D083D0E03279
:03000300020042B6
:01004200328B
:0300130002005098
:01005000327D
:0300530002005157
:01005100327C
:03005B000200524E
:01005200327B
:0300830002005622
:010056003277
:105E40001200201251C612003E7FF47E01125DF056
:045E5000B2CA80F55D
:100E9E0002125FE86480F8E933E83360110460F011
:100EAE00ED33EC337009E8FCE9FDEAFEEBFF2204BA
:100EBE0060DED3EB9FEA9EE99DE8C2E78CF0C2F7B5
:100ECE0095F0400CE8CCF8E9CDF9EACEFAEBCFFB81
:100EDE0012122A85D0F05804700320D5B3E804709E
:100EEE00075002B2D502126992D5EC0460F7E4CC39
:100EFE00C0E0C398F8603B94186008400DD0E0FB4A
:100F0E00021241E4FBFAC9FC8028E830E406E4C989
:100F1E00FBE4CAFCE830E305E4C9CACBFCE854079D
:100F2E006010F8C3E913F9EA13FAEB13FBEC13FCA8
:100F3E00D8F130F52FC3E49CFCEF9BFFEE9AFEED4B
:100F4E0099FDD0E0FBEF4E4D4C701222DB030212E6
:100F5E0066EC2CFCEF33FFEE33FEED33FDED30E7A8
:100F6E00EB021241EF2BFFEE3AFEED39FDD0E0FB26
:100F7E0050130BBB0003021269ED13FDEE13FEEFCF
:080F8E0013FFEC13FC021241F9
:100F9600EC4D6011E8497017ED33EC3304600DE455
:100FA600FCFFFEFD22E933E8330470F802125F12FB
:100FB600122A58046009E4CC2481500628500902FC
:100FC6001269284003021266C0E0EB4A7044B980F9
:100FD60006D0E0FB021255EF4E701CBD8008EBFFF9
:100FE600EAFEE9FD80EBE98DF0A4FEE5F002107F54
:100FF600E9CDF9EAFEEBFFEF89F0A4FCE5F0CE8936
:10100600F0A42EFFE435F0CD89F0A42DFEE435F0F2
:101016008067EF4E7005BD80D780C3EF8BF0A4AC20
:10102600F0EE8BF0A42CFCE435F0F8EF8AF0A42C5B
:10103600E5F038FCE433CB8DF0A42CFCE5F03BF86E
:10104600EE8AF0A42CFCE5F038F8E433CF89F0A45E
:101056002CFCE5F038CF3400CE89F0A42FFFE5F064
:101066003EFEE433C98DF0A42EFEE5F039CD8AF0BC
:10107600A42FFFE5F03EFEE43DFD33D0E0FB500734
:101086000BBB000F021269EC2CFCEF33FFEE33FEB4
:06109600ED33FD021241E2
:10109C00021269EC5D046005E85904700302125FEA
:1010AC0012122A580460F6EC4860F2EC7004FDFE53
:1010BC00FF22C860DB2481C85009C3986002500627
:1010CC000212669850CAF582E9294B4A7005AB8228
:1010DC0002125575F0007C1A7880C3EF9BEE9AEDE6
:1010EC0099400DC3EF9BFFEE9AFEED99FDE842F09F
:1010FC00DC23ACF0D0E0FFD0E0FED0E0FDAB8220F2
:10110C00E7101BEB60BAEC2CFCEF33FFEE33FEED7B
:10111C0033FD021241E803F830E705C0F075F0002A
:10112C00EF2FFFEE33FEED33FD40B830E7C280AA5F
:10113C0074F8CC6480CCC86480C8F58204604FC35A
:10114C00EB9FF5F0EA9E42F0E99D42F0E89C45F0F9
:10115C00603C501DE5825FFFE582D313CB5BCBF483
:10116C002B5582FB50280ABA002409B900200880AC
:10117C001DE5825BFBE582D313CF5FCFF4C3132F46
:10118C005582FF50090EBE00050DBD00010CC3EBCE
:10119C009FF5F0EA9E42F0E99D42F0E89C45F06034
:0911AC0007CC4820E701B3EC2256
:1011B50075F020800E75F010800575F0087D007EB5
:1011C500007F003392D530D50312159DEC334010C6
:1011D500EF33FFEE33FEED33FDEC33FCD5F0ED22BE
:0E11E500E5F0247EA2D513CC92E7CDCEFF22FA
:1011F300EDD2E7CD33EC3392D524814006E4FFFEF4
:10120300FDFC22FCE4CFCECDCC24E0501174FF8052
:10121300EDC3CC13CCCD13CDCE13CECF13CF0470EF
:07122300F030D5DE02159D3D
:10122A00E9D2E7C933E833F892D5EDD2E7CD33EC0A
:07123A0033FC5002B2D52283
:10124100EC30E7100FBF000C0EBE00080DBD00040E
:101251000BEB6014A2D5EB13FCED92E7FD2274FFBA
:10126100FCFDFEFF22E480F8A2D574FF13FC7D8013
:03127100E480EF27
:03000000024706AE
:0C470600787FE4F6D8FD75810702474D6E
:10127400E709F608DFFA8046E709F208DFFA803E5C
:1012840088828C83E709F0A3DFFA8032E309F60849
:10129400DFFA8078E309F208DFFA807088828C83B1
:1012A400E309F0A3DFFA806489828A83E0A3F60865
:1012B400DFFA805889828A83E0A3F208DFFA804C3F
:1012C40080D280FA80C680D4806980F28033801016
:1012D40080A680EA809A80A880DA80E280CA80337F
:1012E40089828A83ECFAE493A3C8C582C8CCC583F7
:1012F400CCF0A3C8C582C8CCC583CCDFE9DEE780C7
:101304000D89828A83E493A3F608DFF9ECFAA9F045
:10131400EDFB2289828A83ECFAE0A3C8C582C8CC9B
:10132400C583CCF0A3C8C582C8CCC583CCDFEADEB4
:10133400E880DB89828A83E493A3F208DFF980CC16
:1013440088F0EF60010E4E60C388F0ED2402B4040F
:101354000050B9F582EB2402B4040050AF232345B6
:0613640082239012C47305
:10136A00C2D530F707B2D563F0FF05F030E70CB20B
:10137A00D5F4048463F0FF05F080018430D502F4CB
:02138A0004223B
:10138C00BB010689828A83E0225002E722BBFE025F
:09139C00E32289828A83E4932292
:1013A500BB010CE58229F582E5833AF583E02250FD
:1013B50006E92582F8E622BBFE06E92582F8E22247
:0D13C500E58229F582E5833AF583E4932261
:1013D200BB010689828A83F0225002F722BBFE01FA
:0213E200F322F4
:1013E400F8BB010DE58229F582E5833AF583E8F03F
:1013F400225006E92582C8F622BBFE05E92582C8EB
:02140400F222D2
:10140600EF8DF0A4A8F0CF8CF0A428CE8DF0A42EFA
:02141600FE22B4
:10141800BC000BBE0029EF8DF084FFADF022E4CCB8
:10142800F875F008EF2FFFEE33FEEC33FCEE9DEC81
:10143800984005FCEE9DFE0FD5F0E9E4CEFD22EDC7
:10144800F8F5F0EE8420D21CFEADF075F008EF2F11
:10145800FFED33FD4007985006D5F0F222C398FD02
:051468000FD5F0EA229F
:10146D00C2D5EC30E709B2D5E4C39DFDE49CFCEE9A
:10147D0030E715B2D5E4C39FFFE49EFE121418C3E6
:10148D00E49DFDE49CFC800312141830D507C3E4E1
:06149D009FFFE49EFE2209
:1014A300C5F0F8A3E028F0C5F0F8E58215827002D4
:0614B3001583E038F02271
:1014B900A3F8E0C5F025F0F0E582158270021583E6
:0614C900E0C838F0E82243
:1014CF0075F008758200EF2FFFEE33FECD33CDCCD4
:1014DF0033CCC58233C5829BED9AEC99E582984057
:1014EF000CF582EE9BFEED9AFDEC99FC0FD5F0D634
:1014FF00E4CEFBE4CDFAE4CCF9A88222B800C1B95E
:10150F000059BA002DEC8BF084CFCECDFCE5F0CB9B
:10151F00F97818EF2FFFEE33FEED33FDEC33FCEBD4
:10152F0033FB10D703994004EB99FB0FD8E5E4F98F
:10153F00FA227818EF2FFFEE33FEED33FDEC33FC7C
:10154F00C933C910D7059BE99A4007EC9BFCE99A70
:10155F00F90FD8E0E4C9FAE4CCFB2275F010EF2FB5
:10156F00FFEE33FEED33FDCC33CCC833C810D707B5
:10157F009BEC9AE899400AED9BFDEC9AFCE899F8F0
:0E158F000FD5F0DAE4CDFBE4CCFAE4C8F92283
:10557600C2D5E830E70FB2D5E4C39BFBE49AFAE460
:1055860099F9E498F8EC30E717B2D51255AC121534
:105596000BE4C39BFBE49AFAE499F9E498F88003D8
:1055A60012150B30D50DE4C39FFFE49EFEE49DFD6E
:0455B600E49CFC2253
:0E159D00C3E49FFFE49EFEE49DFDE49CFC225F
:1015AB00EB9FF5F0EA9E42F0E99D42F0EC6480C8B7
:0615BB0064809845F02257
:1015C100EB9FF5F0EA9E42F0E99D42F0E89C45F080
:0115D10022F7
:1015D200E8600FECC313FCED13FDEE13FEEF13FFF7
:0315E200D8F1221B
:1015E500BB010789828A830216A55005E9F8021610
:1015F50099BBFE05E9F80216B189828A830216BDF8
:0C160500ECF0A3EDF0A3EEF0A3EFF02258
:10161100A8828583F0D083D0821216281216281250
:101621001628121628E473E493A3C583C5F0C58375
:10163100C8C582C8F0A3C583C5F0C583C8C582C823
:011641002286
:10164200F5F0C582A4C582C5F0C583A42583F583C0
:011652002275
:10165300BB010789828A830216D65005E9F8021670
:10166300CDBBFE05E9F80216DF89828A830216E8FC
:10167300D083D082F8E4937012740193700DA3A306
:1016830093F8740193F5828883E47374029368601A
:06169300EFA3A3A380DF1A
:10471200025E40E493A3F8E493A34003F68001F21F
:1047220008DFF48029E493A3F85407240CC8C333A8
:10473200C4540F4420C8834004F456800146F6DF77
:10474200E4800B0102040810204080905D3FE47E6B
:10475200019360BCA3FF543F30E509541FFEE4936C
:10476200A360010ECF54C025E060A840B8E493A333
:10477200FAE493A3F8E493A3C8C582C8CAC583CA5E
:10478200F0A3C8C582C8CAC583CADFE9DEE780BE16
:015D5600004C
:0C169900E6FC08E6FD08E6FE08E6FF227D
:0C16A500E0FCA3E0FDA3E0FEA3E0FF22B8
:0C16B100E2FC08E2FD08E2FE08E2FF2275
:1016BD00E493FC740193FD740293FE740393FF2273
:0916CD00E6FB08E6FA08E6F92242
:0916D600E0FBA3E0FAA3E0F92215
:0916DF00E2FB08E2FA08E2F9223C
:0C16E800E493FB740193FA740293F9225E
:00000001FF
