:10590500E4F594F593F592F591F596F595F5B2F5DF
:10591500B1F5B4F5B3F5CAF5C9F5D8F5D9F5DEF5A0
:105925008EF598F59AF5ACF584F5A2F5BAF5AFF5CF
:1059350089F5E9F5F912663A90022D1217C30001AF
:0A594500C2007B01E4FDFF02371FE2
:1065680090025AEFF0FDE4FF1258C990025AE0FF7A
:016578002200
:03002000C2AF224A
:03003E00D2AF221C
:1056EC0053A2F3EF14601214601714602624037095
:1056FC00285392C35391C380205396C35395C380B0
:10570C0018E5F0F452B4E5F0F452B353CAEF53C9B0
:10571C00EF800653B2C353B1C39004E1E042CE9084
:0F572C0004E0E0700643CE8043CE1043CE40220F
:10586F0053A2F3EF14600A14600C14600E2403802B
:10587F000D43A204800843A208800343A20C53CE19
:10588F00FCED14600A14600C14600E2403800D43A9
:10589F00CE01800843CE02800343CE03AF038FCFE8
:0B58AF00E5CD30E7FB75CDC0AFCF2288
:10651D00EF1FAA0670011E4A60087D091DED60F08F
:02652D0080FAF2
:01652F002249
:105E9900E490055AF0A3F0FC90FE82E020E61E7F14
:105EA900017E0012651D90055AE475F00112166B0A
:105EB900FEC3E5F0941EEE940040DD7C0190FE8265
:065EC900E054BFF0AF043D
:015ECF0022B0
:09661F0090FE817401F0025E9905
:08646000AF01EF25E04401FF4C
:0E64680090FE86EFF090FE817402F0025E99C5
:0966280090FE817403F0025E99FA
:0F65D90090FE817404F0125E9990FE87E0FF221D
:0F634C009004A7E0FBA3E0FAA3E0F9EF12158499
:0E635B0090FE82E4F090FE817405F0025E99DF
:0F65E80090FE827401F090FE817405F0025E99BE
:0966310090FE817406F0025E99EE
:105B4A0053BACF43BA80EF14600A14600C14600E83
:105B5A002403800D43BA10800843BA20800343BA55
:105B6A003090FE80E04440F0E04480F0C083C08280
:105B7A00E0FB9004A0A3A3A3E0FFEB4FD082D08365
:075B8A00F090FE82E4F0221E
:104FB600A90553BACFEF14600A14600C14600E24CE
:104FC60003800D43BA10800843BA20800343BA30E9
:104FD60012661FEF60037F0122AF01EF25E0FF128B
:104FE6006468EF60037F0122126628EF60037F0189
:104FF60022AF03126468EF60037F0122126628EF76
:1050060060037F0122900543E0FF126468EF6003AE
:105016007F0122126628EF60037F0122126631EFBC
:0850260060037F01227F0022DC
:104EBD00A90553BACFEF14600A14600C14600E24C8
:104ECD0003800D43BA10800843BA20800343BA30E3
:104EDD0012661FEF60037F0122E925E0FF1264686F
:104EED00EF60037F0122126628EF60037F0122AF7E
:104EFD0003126468EF60037F0122126628EF6003DE
:104F0D007F0122126460EF60037F0122126628EF99
:104F1D0060037F01221265D99004E512634FEF60A3
:104F2D00037F0122126631EF60037F01227F002291
:104B5E00A90553BACFEF14600A14600C14600E242A
:104B6E0003800D43BA10800843BA20800343BA3045
:104B7E0012661FEF60037F0122E925E0FF126468D1
:104B8E00EF60037F0122126628EF60037F0122AFE0
:104B9E0003126468EF60037F0122126628EF600340
:104BAE007F0122126460EF60037F0122126628EFFC
:104BBE0060037F01229004AAE014F060181265D9F8
:104BCE0012634CEF60037F01229004A8E475F0019C
:104BDE0012165580E01265D912634CEF60037F0107
:0D4BEE0022126631EF60037F01227F00225A
:0B371F0090022AEFF0A3EDF0A3EBF006
:10372A00A3E0F8A3E0F9A3E0FAA3E0FB7FC07E0ED2
:10373A007D167C021216BDE47B04FAF9F81216BD56
:10374A00C3E49FFFE49EAD07FC90022AE014607276
:10375A001470030238081470030238442403600307
:10376A000238834398508D8BECF58D438E4053A2DB
:10377A003F90022BE0F9FF7E007008A3E06401701D
:10378A00028035EF64024E700D90022CE0640370E3
:10379A000543A2408022E96404700D90022CE06483
:1037AA0005700543A2808010E96406700B90022C14
:1037BA00E06407700343A2C0D28EE49001CAF0020B
:1037CA003883439A108DD7ECF5D6438E1453BAFE3C
:1037DA0090022BE0FF7E0064087008A3E064097081
:1037EA00028011EF640A4E700B90022CE0640B7099
:1037FA000343BA0143AF01E49001CBF0807B43ACB1
:10380A00508DD5ECF5D443D10A53BAFD90022BE082
:10381A00FF7E00640C7008A3E0640D70028011EF53
:10382A00640E4E700B90022CE0640F700343BA02D0
:10383A0043AF08E49001CCF0803F4384508DD3EC31
:10384A00F5D243D1A053BAFB90022BE0FF7E00646D
:10385A00107008A3E0641170028016EF64124E70B3
:10386A001090022CE064137008F5CA75C90443BAB3
:0B387A000443AF10E49001CDF0D2AC8D
:013885002220
:0F58BA00A3E475F00112166BA9F0FA12153EFD6A
:1058C900EF14601514601D1460252403702D9001D8
:1058D900CAE070FA04F08D99229001CBE070FA04C5
:1058E900F08D9B229001CCE070FA04F08DAD2290EE
:0C58F90001CDE070FA04F0AF058F8522AD
:1060A3009004E9EBF0A3EAF0A3E9F0AE079004EC67
:1060B30074FFF5F012166B45F0600CAF069004E91F
:0860C300E0FB1258BA80E6224E
:1060CB00900548EBF0A3EAF0A3E9F0AE0790054882
:1060DB00E0FBA3E0FAA3E0F912153E600AAF0690CD
:0860EB0005481258BA80E622B4
:10594F0043BC80EF131313541FFB7A0064017017CD
:10595F00EF5407FEF87401088002C333D8FCFEF43D
:10596F005294EE42938019EB4A7015EF5407FEF8EC
:10597F007401088002C333D8FCFEF45292EE4291B8
:09598F00ED540F42DE43DE20223C
:025FFA00A905F7
:105FFC0053BCF0EF42BC43BC40E5BC30E5FB53BCAA
:10600C00DFAFBDEFFEADBEEDFFAD01A8050880050D
:08601C00CEC313CE13D8F9FF27
:016024002259
:105C6200EF14601814602014602614602C24047051
:105C720030E4F58AF58C438904D28C22E4F58BF565
:105C82008D438940D28E22E4F5D7F5D6438E182271
:105C9200E4F5D5F5D443D10C22E4F5D3F5D243D1C2
:025CA200C0221E
:105BD800EF14601714601E14602514602C240470E0
:105BE80030AF8CEFFCAF8AEFFD8026AF8DEFFCAFB6
:105BF8008BEFFD801CAFD6EFFCAFD7EFFD8012AF67
:105C0800D4EFFCAFD5EFFD8008AFD2EFFCAFD3EFF8
:055C1800FDAF05AE0424
:015C1D002264
:10599800EF14601714601E1460271460302404701C
:1059A80037C28CE4F58CF58AD28C22C28EE4F58D50
:1059B800F58BD28E22538EEFE4F5D6F5D7438E10B1
:1059C8002253D1F7E4F5D4F5D543D1082253D17F3A
:0959D800E4F5D2F5D343D180229D
:052D60009003ADEFF04F
:102D6500E49003B8F09003ADE0C4540FFFF874018C
:102D7500088002C333D8FC42F143BA809003AEE029
:102D8500F8A3E0F9A3E0FAA3E0FB7FC07E0E7D1671
:102D95007C021216BD780F1217849003B8EFF090DD
:102DA50003AEE0F8A3E0F9A3E0FAA3E0FB7FC07E61
:102DB5000E7D167C021216BDC006C0079003B8E052
:102DC5002401FFE433AB07FA3395E0F9F8D007D0D7
:102DD500061216BD9003B6EEF0A3EFF09003B2E035
:102DE500FCA3E0FDE41211BA7B007A40791C784619
:102DF50012109FC004C005C006C0079003B6E0FCD2
:102E0500A3E0FDE41211BAD003D002D001D0001224
:102E15000F961211F39003B4EEF0A3EFF09003AD0B
:102E2500E0FFC39430748094809003B8E0FD506A4D
:102E3500EFC4540FF975F050A4FFAEF02402FBEE79
:102E450034FF8B82F583EDF09003B6E0FCA3E0FD43
:102E5500E42FFFEE34FF8F82F583ECF0A3EDF090C5
:102E650003B4E0FCA3E0FDE975F050A42410FBE5F4
:102E7500F034FFFA9003ADE0540F75F008A42BFF72
:102E8500E5F03A8F82F583ECF0A3EDF0E975F050AB
:102E9500A42414FDE5F034FF806D9003ADE024D04B
:102EA500C4540FF975F050A4FFAEF02402FBEE34C4
:102EB500FC8B82F583EDF09003B6E0FCA3E0FDE426
:102EC5002FFFEE34FC8F82F583ECF0A3EDF0900339
:102ED500B4E0FCA3E0FDE975F050A42410FBE5F097
:102EE50034FCFA9003ADE0540F75F008A42BFFE510
:102EF500F03A8F82F583ECF0A3EDF0E975F050A47C
:102F05002414FDE5F034FCFC9003ADE0540F75F09E
:102F150008A42DFFE5F03C8F82F583E04480F09016
:102F250003ADE0C4540F1460151460171460191430
:102F3500601B14601D2405701C43F601801743F6C1
:102F450010801243F701800D43F710800843FE01FE
:082F5500800343FE1053BA7F14
:012F5D002251
:0B3D4700900536EFF0A3ECF0A3EDF0C8
:103D520043BA80900536E0C3943074809480506FEB
:103D6200A3E0FCA3E0FDE41211BA7B007A40791CC7
:103D7200784612109FC004C005C006C007900536E1
:103D8200E0C4540F75F050A42400FFE5F034FF8F17
:103D920082F583E0FCA3E0FDE41211BAD003D00265
:103DA200D001D000120F961211F3900539EEF0A354
:103DB200EFF0900539E0FCA3E0FD900536E0F9C490
:103DC200540F75F050A42410FBE5F034FF8073907B
:103DD2000537E0FCA3E0FDE41211BA7B007A4079DA
:103DE2001C784612109FC004C005C006C00790058B
:103DF20036E024D0C4540F75F050A42400FFE5F03F
:103E020034FC8F82F583E0FCA3E0FDE41211BAD00A
:103E120003D002D001D000120F961211F39005398F
:103E2200EEF0A3EFF0900539E0FCA3E0FD9005363B
:103E3200E0F924D0C4540F75F050A42410FBE5F02F
:103E420034FCFAE9540F75F008A42BFFE5F03A8F21
:0B3E520082F583ECF0A3EDF053BA7F83
:013E5D002242
:05311400900390EFF0B4
:10311900E490039FF0900391E0F8A3E0F9A3E0FAAB
:10312900A3E0FB7FC07E0E7D167C021216BD780FD0
:1031390012178490039FEFF0900391E0F8A3E0F950
:10314900A3E0FAA3E0FB7FC07E0E7D167C02121677
:10315900BDC006C00790039FE02401FFE433AB071D
:10316900FA3395E0F9F8D007D0061216BD90039B03
:103179001217B7900395E0FCA3E0FDE41211BA7BA6
:10318900007A40791C784612109FC004C005C00619
:10319900C00790039BE0FCA3E0FDA3E0FEA3E0FFD2
:1031A900E41211B5D003D002D001D000120F96124B
:1031B90011F39003971217B743BA80900390E0C3B5
:1031C90094307480948090039FE0FD900390E050C8
:1031D9004AC4540FF975F050A4FBAAF02402FFEA7F
:1031E90034FF8F82F583EDF090039BA3A3E0FEA348
:1031F900E0FFE42BFDEA34FF8D82F583EEF0A3EFC7
:10320900F0900397A3A3E0FEA3E0FDAC06E975F0F7
:1032190050A42410FBE5F034FF804A24D0C4540F95
:10322900F975F050A4FBAAF02402FFEA34FC8F825E
:10323900F583EDF090039BA3A3E0FEA3E0FFE42B4D
:10324900FDEA34FC8D82F583EEF0A3EFF09003974D
:10325900A3A3E0FEA3E0FDAC06E975F050A4241099
:10326900FBE5F034FCFA900390E0540F75F008A4E4
:103279002BFFE5F03A8F82F583ECF0A3EDF0900394
:1032890090E0C4540F146015146017146019146089
:103299001B14601D2405701C43F601801743F610AA
:1032A900801243F701800D43F710800843FE018027
:0732B9000343FE1053BA7F2E
:0132C00022EB
:106369004603BF0000000000004603B9000000001A
:02637900000022
:10548D00E4F5D875D906EF64017054EDB40A0050F7
:10549D004E9054A5F82828730254C30254C70254E1
:1054AD00CB0254CF0254D30254D70254DB0254DF43
:1054BD000254E30254E9E4F5DA2275DA422275DA90
:1054CD00632275DA532275DA732275DA202275DAC2
:1054DD00102275DA302275DA49D2DE2275DA4C22C5
:10655600EF64017008AFFAEFFCAFEAEFFDAF05AEEE
:016566000430
:016567002211
:0A001600EF64017004F5F9F5E9222A
:0545910090054BEFF066
:10459600C2DEAFF9EFFFABE9EBA3CFF0A3EFF090EC
:1045A600054BE0705D7E037FE81215CA7C007D0C2A
:1045B6001215B8AB07AA06E4F9F87FC07E0E7D1681
:1045C6007C02125C1EAC06AD079003B9ECF0A3EDBD
:1045D600F075DA49E5E904F5EA85F9FA9003B9E0F8
:1045E600FEA3E0FF9003C0E02FFF9003BFE03EFE76
:1045F60090054DE02FFF90054CE03E9003BFF0A3E1
:10460600EFF090054BE0640170517E037FE81215D0
:10461600CA7C007D0C1215B8AB07AA06E4F9F87F30
:10462600C07E0E7D167C02125C1E9003BBEEF0A3CC
:10463600EFF075DB49E5E904F5EA85F9FA9003C27E
:10464600E02FFF9003C1E03EFE90054DE02FFF9066
:0D465600054CE03E9003C1F0A3EFF0D2DE72
:014663002234
:105F3C00EF7007ED24FF9288D2A8EF64017007ED93
:105F4C0024FF928AD2AAEFFD7C0064027003758F45
:105F5C0010ED64034C7003758F20ED64044C7003DA
:045F6C00758F4022CB
:05637B0042055C0B640B
:09663A0075DC48E4F5D9D2DE223A
:10638600AFF9EFFEADE9EDFF90055DE02FFF90055B
:0C6396005CE03E8FECF5FC30DAFDC2DA72
:0163A20022D8
:1064CD00AB07AA06EB1BAE0270011A4E60051263F4
:0464DD008680F122A2
:1054ED00EDFB7A0064017025EFC4540F2410FDE428
:1054FD0034FE8D82F583C083C082E0FEEF540FFF32
:10550D00F87401088002C333D8FC4E8028EB4A7032
:10551D0029EFC4540F2410FDE434FE8D82F583C0B1
:10552D0083C082E0FEEF540FFFF87401088002C3C0
:0B553D0033D8FCF45ED082D083F02253
:1028A700ED600302294AEF54F0F9FB7A007013EF49
:1028B700540FFEF87401088002C333D8FCF4529316
:1028C7005294EB64104A7013EF540FFEF87401082A
:1028D7008002C333D8FCF452915292E964207013FA
:1028E700EF540FFEF87401088002C333D8FCF4528A
:1028F700955296E9FB7A0064307013EF540FFEF897
:102907007401088002C333D8FCF452B152B2EB64AD
:10291700404A7013EF540FFEF87401088002C33366
:10292700D8FCF452B352B4E964506003022B57EF5A
:10293700540FFEF87401088002C333D8FCF452C95F
:1029470052CA22ED640160030229FAEF54F0F9FB41
:102957007A007015EF540FFEF87401088002C33334
:10296700D8FCFEF45293EE4294EB64104A7015EFD4
:10297700540FFEF87401088002C333D8FCFEF452EA
:1029870091EE4292E964207015EF540FFEF874013E
:10299700088002C333D8FCFEF45295EE4296E9FB59
:1029A7007A0064307015EF540FFEF8740108800246
:1029B700C333D8FCFEF452B1EE42B2EB64404A7026
:1029C70015EF540FFEF87401088002C333D8FCFEDC
:1029D700F452B3EE42B4E964506003022B57EF544C
:1029E7000FFEF87401088002C333D8FCFEF452C905
:1029F700022B54ED64026003022AABEF54F0F9FB9B
:102A07007A007015EF540FFEF87401088002C33383
:102A1700D8FCFE4293EEF45294EB64104A7015EF23
:102A2700540FFEF87401088002C333D8FCFE4291AC
:102A3700EEF45292E964207015EF540FFEF874011A
:102A4700088002C333D8FCFE4295EEF45296E9FBA8
:102A57007A0064307015EF540FFEF8740108800295
:102A6700C333D8FCFE42B1EEF452B2EB64404A7075
:102A770015EF540FFEF87401088002C333D8FCFE2B
:102A870042B3EEF452B4E964506003022B57EF549B
:102A97000FFEF87401088002C333D8FCFE42C9EE6A
:102AA700F452CA22ED64036003022B57EF54F0FD82
:102AB7007C007014EF540FFEF87401088002C333D2
:102AC700D8FCFE4293EE4294ED64104C7014EF5420
:102AD7000FFEF87401088002C333D8FCFE4291EE62
:102AE7004292EF54F064207014EF540FFEF8740113
:102AF700088002C333D8FCFE4295EE4296EF54F0AD
:102B0700FD7C0064307014EF540FFEF874010880E8
:102B170002C333D8FCFE42B1EE42B2ED64404C70C2
:102B270014EF540FFEF87401088002C333D8FCFE7B
:102B370042B3EE42B4EF54F064507014EF540FFEFA
:102B4700F87401088002C333D8FCFE42C9EE42CABA
:012B5700225B
:066643002564002566003D
:10657900C2C6C2C5AB07E4FD7F0212586FD2C6225C
:10658900C2C6D2C5AB07E4FD7F0212586FD2C6223C
:02607A00AC0672
:10607C00EC90055EF0A3EFF0C2C6D2C590055EE0D1
:10608C00FBE4FD7F0212586F90055FE0FBE4FD7F9F
:06609C000212586FD2C68B
:0160A20022DB
:10542C0090046DEEF0A3EFF0A3ECF0A3EDF0A3EA83
:10543C00F0A3EBF07F2A126579E4FF1265899004E2
:10544C006DA3E02402FF126589E4FF1265899004C4
:10545C0071A3E02402FF1265897F2B126579E4FFAA
:10546C0012658990046FA3E004FF126589E4FF12B2
:10547C006589900473A3E004FF1265897F2C026593
:01548C0079A6
:08554800900544EEF0A3EFF022
:10555000900473E4F0A3749FF07B7F7A00E4FDFC79
:10556000FFFE12542CE4900546F0900546E0C394EB
:10557000A074809480502BE4A3F0900547E0C3947E
:1055800080748094805013900544E0FEA3E0FF12E5
:10559000607A900547E004F080E0900546E004F072
:0255A00080C8C1
:0155A20022E6
:102B58009004DF7422F0E4A3F0A3F07B217D207FB2
:102B6800021256ECC2C47F0A7E001264CDD2C47F22
:102B7800787E001264CD7F111265797F787E00120D
:102B880064CD7FB11265797F011265897F2C12654A
:102B9800897F2D1265897FB21265797F0112658957
:102BA8007F2C1265897F2D1265897FB31265797F25
:102BB800011265897F2C1265897F2D1265897F0135
:102BC8001265897F2C1265897F2D1265897FB41261
:102BD80065797F071265897FC01265797FA21265C2
:102BE800897F021265897F841265897FC1126579A0
:102BF8007FC51265897FC21265797F0A126589E4EB
:102C0800FF1265897FC31265797F8A1265897F2AD9
:102C18001265897FC41265797F8A1265897FEE12F1
:102C280065897FC51265797F0E1265897F361265C1
:102C380079E4701E14600E14600F14601024037081
:102C4800117FC0800AE4FF80067FA080027F6012A7
:102C580065897FE01265797F0F1265897F1A126591
:102C6800897F0F1265897F181265897F2F12658900
:102C78007F281265897F201265897F221265897FE6
:102C88001F1265897F1B1265897F231265897F372B
:102C9800126589E4FF1265897F071265897F021230
:102CA80065897F101265897FE11265797F0F12654A
:102CB800897F1B1265897F0F1265897F17126589C5
:102CC8007F331265897F2C1265897F291265897F78
:102CD8002E1265897F301265897F301265897F39A8
:102CE8001265897F3F126589E4FF1265897F0712A3
:102CF80065897F031265897F101265897F2A1265AD
:102D080079E4FF1265897F02126589E4FF126589FB
:102D18007F821265897F2B126579E4FF1265897FAE
:102D280003126589E4FF1265897F831265897FF044
:102D38001265797F011265897FF6126579E4FF12C1
:102D480065897F3A1265797F051265897F29126541
:082D58007974FFFFFE025548EB
:105CA4009004EEEEF0A3EFF09004F2EAF0A3EBF030
:105CB4009004F0ECF0A3EDF09004EEE0FAA3E0FB26
:105CC400FFAE02C007A3E0FFA3E0900473CFF0A3EC
:105CD400EFF0D00712542C9004F2E0FEA3E0FF0290
:025CE400607AE4
:06421D00F583E02430FBF4
:10422300900475EEF0A3EFF0A3ECF0A3EDF0A3EB95
:01423300F09A
:10423400E4A3F090047AE0F9C3941074809480406D
:10424400030242FCE9FF900478E02FFD900477E03C
:104254003400FC900476E02407FB900475E03400FD
:10426400FA7E00900477E0F8A3E02FFFEE38900484
:1042740073F0A3EFF0900475E0FEA3E0FF12542C5A
:10428400900479E0FF3395E0FEEFC4F8540FC8685A
:10429400FFEEC454F048FE74962FF58274FE3EF58A
:1042A40083C083C08290047AE0D082D0832582F5D3
:1042B40082E43583F583E49390047CF0E490047BFA
:1042C400F090047BE0C39408748094805021A3E0B0
:1042D40030E0067F007EF8800474FFFFFE12607AEF
:1042E40090047CE0C313F090047BE004F080D2904F
:0842F400047AE004F0024237F5
:0142FC00229F
:10511C00900440EEF0A3EFF0A3ECF0A3EDF0A3EBC2
:07512C00F0A3EAF0A3E9F093
:10513300E4A3F0A3F0900444E0FBA3E0FAA3E0F9B6
:10514300A3E0FEA3E0FFF5828E83121557FB603EBA
:10515300EF7803C333CE33CED8F9FF900441E02F69
:10516300FF900440E03EFE900443E0C4F8540FC8AF
:1051730068FD900442E0C454F048FC1242239004BA
:0E51830048E004F070AF900447E004F080A70D
:0151910022FB
:1043DD00900449EEF0A3EFF0A3ECF0A3EDF0A3EB06
:0143ED00F0DF
:1043EE003395E0C36480948090044CE0C4F8540F7D
:1043FE00C868FD90044BE0C454F048FC900449E0BA
:10440E00FEA3E0FF500E7B2D12422390044DE0F4EC
:10441E0004F080057B2012422390044DE0FF75F0DE
:10442E006412151C90044EF0EF75F00A12151CFF65
:10443E0075F00A12151CAFF090044FEFF090044D7A
:10444E00E0FF75F00A12151CAFF0900450EFF0E487
:10445E00A3F0900451E0FBFF7E00C394037480949C
:10446E00805045EF2401FFEE33FEEF7803C333CEC9
:10447E0033CED8F9FF90044AE02FFF900449E03E76
:10448E00FE90044CE0C4F8540FC868FD90044BE055
:10449E00C454F048FC744E2BF582E4340412421DD1
:0844AE00900451E004F080AA23
:0144B60022E3
:0E502E0090047DEEF0A3EFF0A3ECF0A3EDF004
:10503C00EB75F06484A3F0EB75F00A8475F00A84C8
:10504C00A3E5F0F0EB75F00A84A3E5F0F0E4A3F02F
:10505C00900484E0C3940374809480503BE0FB750F
:10506C00F008A4FF90047EE02FFF90047DE035F063
:10507C00FE900480E0C4F8540FC868FD90047FE0F3
:10508C00C454F048FC74812BF582E4340412421DA4
:08509C00900484E004F080B8E8
:0150A40022E9
:1039EA009003C5EEF0A3EFF0A3ECF0A3EDF0A3EA89
:0439FA00F0A3EBF05B
:1039FE00C3EA648094809003C8E0C4F8540FC8688A
:103A0E00FD9003C7E0C454F048FC9003C5E0FEA34C
:103A1E00E0FF501C7B2D1242239003C9E0FEA3E071
:103A2E00FFC3E49FFFE49E9003C9F0A3EFF080056F
:103A3E007B201242239003C9E0FAA3E0FB7C277D92
:103A4E0010FFAE0212161FA3EFF07C037DE8AF034A
:103A5E00AE0212161F7C007D0A12161FA3EDF09007
:103A6E0003C9A3E07C007D64FFAE0212161F7C002A
:103A7E007D0A12161F9003CDEDF07C007D0AAF0378
:103A8E00AE0212161F7C007D0A12161FA3EDF090D7
:103A9E0003C9E0FEA3E0FF7C007D0A12161F90030F
:103AAE00CFEDF0E4A3F09003D0E0FBFF7E00C394D3
:103ABE0005748094805045EF2401FFEE33FEEF78BD
:103ACE0003C333CE33CED8F9FF9003C6E02FFF9059
:103ADE0003C5E03EFE9003C8E0C4F8540FC868FD6D
:103AEE009003C7E0C454F048FC74CB2BF582E43449
:0C3AFE000312421D9003D0E004F080AAE7
:013B0A002298
:0E47FF00900422EEF0A3EFF0A3ECF0A3EDF097
:10480D007C277D10AF03AE021215CAA3EFF07C0317
:10481D007DE8AF03AE021215CA7C007D0A1215CADF
:10482D00A3EDF07C007D64AF03AE021215CA7C00CF
:10483D007D0A1215CAA3EDF07C007D0AAF03AE020E
:10484D001215CA7C007D0A1215CAA3EDF0AE02AF97
:10485D00037C007D0A1215CAA3EDF0E4A3F09004C9
:10486D002BE0C3940574809480503BE0FB75F008F9
:10487D00A4FF900423E02FFF900422E035F0FE907A
:10488D000425E0C4F8540FC868FD900424E0C45416
:10489D00F048FC74262BF582E4340412421D90047A
:0648AD002BE004F080B8CE
:0148B30022E2
:0E3F57009002E8EEF0A3EFF0A3ECF0A3EDF083
:103F65009002F0E0FFC3740A9F7480F898500374C0
:103F75000AF09002F0E004F09002ECE0FCA3E0FD12
:103F8500A3E0FEA3E0FFE4FBFAF9F8D312175D40C6
:103F9500319001D174FFF0A37466F0A37443F090DF
:103FA50002ECE0FCA3E0FDA3E0FEA3E0FF9001D45A
:103FB5001217B70B7A0279F1121E82900313EFF0F4
:103FC50080389002F17420F09001D174FFF0A37451
:103FD50066F0A37443F09002ECE0FCA3E0FDA3E0DF
:103FE500FEA3E0FF9001D41217B77B017A0279F2A4
:103FF500121E82900313EFF0801E9002F0E0FF90F6
:104005000313E0FEC39F501574F12EF582E43402CC
:10401500F5837420F0900313E004F080DD74F12F34
:10402500F582E43402F583E4F09002E8E0FEA3E0D3
:10403500FFA3E0FCA3E0FD7B017A0279F102511CAC
:0E32C10090025BEEF0A3EFF0A3ECF0A3EDF0B3
:1032CF00900264E0FFC374069F7480F898500374F3
:1032DF0006F0900263E0FFC3740A9F7480F8985061
:1032EF0003740AF090025FE0FCA3E0FDA3E0FEA3ED
:1032FF00E0FFE4FBFAF9F812113C9001D160314084
:10330F002F74FFF0A37466F0A37446F090025FE091
:10331F00FCA3E0FDA3E0FEA3E0FF9001D41217B7DA
:10332F007B017A027966121E82900265EFF080307F
:10333F0074FFF0A37466F0A37446F090025FE0FC94
:10334F00A3E0FDA3E0FEA3E0FF9001D41217B77B2B
:10335F00017A027967121E82900265EFF0E004F0A5
:10336F00900265E024F9FD900263E0FEC3ED9E1428
:10337F00900288F0900264E0AE052E04900289F06E
:10338F00900288E0FF3395E0FED3E49FEE6480F86F
:10339F007480984022A3E0FF3395E0FE74662FF50A
:1033AF008274023EF5837420F0900289E004F0905D
:1033BF000288E004F080C990025FE0FCA3E0FDA367
:1033CF00E0FEA3E0FFE4FBFAF9F812113C9002884B
:1033DF0060174015E0FF3395E0FE74662FF5827499
:1033EF00023EF583742DF08013E0FF3395E0FE74F9
:1033FF00662FF58274023EF5837420F0900289E007
:10340F00FF3395E0FE74662FF58274023EF583E478
:10341F00F090025BE0FEA3E0FFA3E0FCA3E0FD7BE6
:08342F00017A02796602511CCA
:0B3C2C00900401EBF0A3EAF0A3E9F024
:103C370074FFFFFE125548E4900408F0A3F0E490E7
:103C47000406F0A3F0900406E0FAA3E0FB7C007DF5
:103C570028FFAE021215B8C006C007A3E0FEA3E016
:103C6700FF1215B8C006C007AF03AE021215B8EFB2
:103C77002427FBE43EFA900408E0FEA3E0FF1215B8
:103C8700B8EF2427FFE43E900473F0A3EFF0D005CC
:103C9700D004D007D00612542CE4900404F0A3F00B
:103CA700900405E025E0FF900404E033FE90040152
:103CB700E0FBA3E0FAA3E0F98F828E8312155790F9
:103CC700040BF0E92FF9EA3EFA900001121557901C
:103CD700040AF0FEA3E0FDEDFF12607A900405E010
:103CE70004F07006900404E004F0C3900405E09427
:103CF70040900404E06480948640A5900407E004A3
:103D0700F07006900406E004F0C3900407E0940303
:103D1700900406E0648094805003023C4C900409B0
:103D2700E004F07006900408E004F0C3900409E092
:0F3D37009404900408E0648094805003023C459B
:013D4600225A
:10009600000000000000000000000000000000005A
:1000A6000000000808080808080800000808000002
:1000B6000048242412000000000000000000000098
:1000C6000000004848487E2424247E24242400007E
:1000D6000000103C5252121C30505052523C10102C
:1000E600000000222515150D2A58545452220000EE
:1000F6000000000C1212120A76252919916E0000D2
:1001060000060404020000000000000000000000D9
:1001160000402010100808080808081010204000A9
:10012600000204080810101010101008080402003D
:100136000000000008086B1C1C6B0808000000008B
:100146000000000000101010FE101010000000004B
:100156000000000000000000000000000604040289
:1001660000000000000000007E000000000000000B
:10017600000000000000000000000000060600006D
:100186000000402020201010080808040402020085
:100196000000001824424242424242422418000013
:1001A600000000101C10101010101010107C000021
:1001B6000000003C4242424020100804427E0000FB
:1001C6000000003C4242402018204042423C0000D1
:1001D60000000020303028242422FE2020F80000D1
:1001E6000000007E0202021E22404042221C000045
:1001F600000000182402023A4642424244380000F7
:100206000000007E422020101008080808080000A0
:100216000000003C4242422418244242423C000074
:100226000000001C22424242625C4040241800004A
:100236000000000000001818000000001818000058
:100246000000000000000008000000000008080888
:10025600000000402010080402040810204000009E
:100266000000000000007E00007E0000000000008C
:1002760000000002040810204020100804020000BC
:100286000000003C424246201010100018180000E2
:100296000000001C225A55555555553A423C00005F
:1002A6000000000808181414243C224242E700000B
:1002B6000000001F2222221E22424242221F00006C
:1002C6000000007C4242010101010142221C0000A3
:1002D6000000001F2242424242424242221F0000C8
:1002E6000000003F4212121E12120242423F00005C
:1002F6000000003F4212121E121202020207000004
:100306000000003C2222010101712122221C000072
:10031600000000E7424242427E42424242E700007B
:100326000000003E0808080808080808083E000003
:100336000000007C10101010101010101010110F7B
:100346000000007722120A0E0A12122222770000FB
:10035600000000070202020202020202427F0000BF
:100366000000007736363636362A2A2A2A6B0000EF
:10037600000000E346464A4A525252626247000073
:100386000000001C2241414141414141221C000024
:100396000000003F424242423E02020202070000C3
:1003A6000000001C224141414141414D321C600088
:1003B6000000003F4242423E1212222242C7000083
:1003C6000000007C4242020418204042423E0000E7
:1003D6000000007F4908080808080808081C0000F3
:1003E600000000E74242424242424242423C000092
:1003F600000000E7424222242414141808080000D2
:100406000000006B2A2A2A2A2A3614141414000023
:10041600000000E7422424181818242442E70000AC
:10042600000000772222141408080808081C00009F
:100436000000007E2120101008040442423F000004
:100446000078080808080808080808080808780056
:100456000000020404040808081010202020404070
:10046600001E1010101010101010101010101E008A
:10047600001824000000000000000000000000003A
:1004860000000000000000007E00000000000000E8
:100496000006080000000000000000000000000048
:1004A600000000000000001C22302C22326C0000EC
:1004B600000000000302021A26424242261A0000E9
:1004C6000000000000000038440202024438000028
:1004D600000000006040407C4242424262DC000074
:1004E600000000000000003C42427E02423C000048
:1004F600000000003048083E08080808083E0000D2
:10050600000000000000007C22221C023C42423C0B
:10051600000000000302023A4642424242E700005F
:100526000000000C0C00000E08080808083E000039
:100536000000003030000038202020202020221E1D
:100546000000000003020272120A0E122277000057
:10055600000000080E08080808080808083E000001
:10056600000000000000007F9292929292B7000075
:10057600000000000000003B4642424242E7000005
:10058600000000000000003C42424242423C0000A3
:10059600000000000000001B26424242261A020705
:1005A600000000000000005864424242645840E0E7
:1005B60000000000000000774C040404041F000043
:1005C600000000000000007C42023C40423E000069
:1005D600000000000008083E08080808483000002F
:1005E60000000000000000634242424262DC00005C
:1005F6000000000000000077222214140808000002
:1006060000000000000000DB91525A2A242400005A
:10061600000000000000006E241818182476000060
:1006260000000000000000E742242418180808060D
:10063600000000000000007E22100808447E000032
:1006460000C0202020202020102020202020C000B4
:100656001010101010101010101010101010101094
:10066600000304040404040408040404040403004A
:10067600045A2000000000000000000000000000F6
:100686000000000000000000002F0000000007002E
:10069600070000147F147F1400242A7F2A120062A8
:1006A6006408132300364955225000000503000054
:1006B60000001C224100000041221C000014083EDC
:1006C60008140008083E0808000000A060000008A2
:1006D60008080808000060600000002010080402F6
:1006E600003E5149453E0000427F400000426151B4
:1006F6004946002141454B31001814127F1000274E
:1007060045454539003C4A49493000017109050310
:1007160000364949493600064949291E0000363641
:1007260000000000563600000008142241000014A4
:100736001414141400004122140800020151090681
:1007460000324959513E007C1211127C007F494902
:100756004936003E41414122007F4141221C007F33
:1007660049494941007F09090901003E4149497A41
:10077600007F0808087F0000417F410000204041BB
:100786003F01007F08142241007F40404040007F27
:10079600020C027F007F0408107F003E4141413E6B
:1007A600007F09090906003E4151215E007F0919B3
:1007B60029460046494949310001017F0101003FB0
:1007C6004040403F001F2040201F003F4038403F30
:1007D6000063140814630007087008070061514994
:1007E600454300007F41410000552A552A55000027
:1007F60041417F00000402010204004040404040A5
:10080600000001020400002054545478007F48443C
:10081600443800384444442000384444487F003873
:100826005454541800087E0901020018A4A4A47C9C
:10083600007F080404780000447D40000040808466
:100846007D00007F102844000000417F4000007CAE
:1008560004180478007C08040478003844444438BA
:1008660000FC242424180018242418FC007C080406
:10087600040800485454542000043F444020003CDF
:100886004040207C001C2040201C003C4030403C66
:10089600004428102844001CA0A0A07C00446454F6
:1008A6004C4414141414141400000000000000003A
:1008B6000000000000000000000000F8000000003A
:1008C600000000333000000000100C06100C06007B
:1008D600000000000000000040C07840C0784000E2
:1008E600043F04043F040400007088FC0830000044
:1008F600001820FF211E0000F008F000E01800009C
:1009060000211C031E211E0000F008887000000054
:100916001E2123241927211010160E0000000000A6
:100926000000000000000000000000E018040200C3
:10093600000000071820400000020418E000000034
:100946000040201807000000404080F08040400032
:100956000202010F01020200000000F00000000088
:100966000101011F0101010000000000000000005C
:1009760080B07000000000000000000000000000D1
:10098600000101010101010100000000000000005A
:1009960000303000000000000000000080601804F5
:1009A600006018060100000000E010080810E000D2
:1009B600000F102020100F00001010F8000000009B
:1009C6000020203F202000000070080808887000E2
:1009D6000030282422213000003008888848300062
:1009E6000018202020110E000000C02010F8000082
:1009F60000070424243F240000F80888880808001B
:100A06000019212020110E0000E01088881800002F
:100A1600000F112020110E0000380808C838080001
:100A26000000003F00000000007088080888700081
:100A3600001C222121221C0000E010080810E00002
:100A46000000312222110F00000000C0C00000008B
:100A560000000030300000000000008000000000B0
:100A660000008060000000000000804020100800A8
:100A76000001020408102000404040404040400071
:100A8600040404040404040000081020408000004C
:100A96000020100804020100007048080808F00051
:100AA6000000003036010000C030C828E810E00021
:100AB6000718272423140B000000C038E0000000AC
:100AC600203C23020227382008F888888870000016
:100AD600203F202020110E00C030080808083800EA
:100AE600071820202010080008F808080810E00061
:100AF600203F202020100F0008F88888E808100002
:100B0600203F20202320180008F88888E8081000D5
:100B1600203F200003000000C0300808083800000D
:100B260007182020221E020008F808000008F8080E
:100B3600203F210101213F20000808F80808000095
:100B46000020203F2020000000000808F8080800C8
:100B5600C08080807F00000008F888C02818080040
:100B6600203F20012638200008F808000000000079
:100B7600203F20202020300008F8F800F8F8080070
:100B8600203F003F003F200008F830C00008F8086A
:100B9600203F200007183F00E01008080810E0007A
:100BA6000F10202020100F0008F808080808F00091
:100BB600203F210101010000E01008080810E000B4
:100BC6000F18242438504F0008F888888888700049
:100BD600203F2000030C30200070880808083800E9
:100BE6000038202121221C00180808F808081800DF
:100BF6000000203F2000000008F808000008F80860
:100C0600001F202020201F000878880000C8380810
:100C1600000007380E010000F80800F80008F80088
:100C2600033C0700073C0300081868808068180822
:100C360020302C03032C30200838C800C8380800A0
:100C46000000203F2000000010080808C8380800EF
:100C56002038262120201800000000FE0202020093
:100C66000000007F40404000000C30C00000000043
:100C7600000000010638C00000020202FE0000006B
:100C8600004040407F000000000004020202040011
:100C9600000000000000000000000000000000004E
:100CA6008080808080808080000202040000000036
:100CB600000000000000000000008080808000002E
:100CC6000019242222223F2008F80080800000001C
:100CD600003F112020110E000000008080800000DF
:100CE600000E112020201100000000808088F800EE
:100CF600000E112020103F20000080808080000020
:100D0600001F222222221300008080F08888881883
:100D16000020203F2020000000008080808080008E
:100D2600006B94949493600008F800808080000023
:100D3600203F210000203F200080989800000000FE
:100D46000020203F2020000000000080989800002E
:100D560000C08080807F000008F80000808080004E
:100D6600203F24022D302000000808F80000000073
:100D76000020203F2020000080808080808080002E
:100D8600203F20003F20003F8080008080800000C0
:100D9600203F210000203F2000008080808000004E
:100DA600001F202020201F0080800080800000007F
:100DB60080FFA12020110E000000008080808000AE
:100DC600000E112020A0FF8080808000808080009F
:100DD60020203F21200001000000808080808000CC
:100DE6000033242424241900008080E08080000041
:100DF6000000001F2020000080800000008080008E
:100E0600001F202020103F208080800000808080EE
:100E160000010E300806010080800080008080807E
:100E26000F300C030C300F000080800080808000A3
:100E36000020312E0E3120008080800000808080CE
:100E460080818E701806010000808080808080007E
:100E56000021302C2221300000000000807C02029C
:100E660000000000003F404000000000FF000000BE
:100E760000000000FF0000000002027C800000006D
:100E86000040403F00000000000601010202040489
:080E9600000000000000000054
:10005E00E490056AF090056AE064126017E4FB7D97
:10006E00757F69125E2690056AEFF07F0A7E001298
:04007E0064CD80E1EC
:01008200225B
:105360007F0A7E001264CD12005E7B807D6B7F69B8
:105370001263FA7F027E001264CDE4FB7D6B7F69CD
:10538000125E26EF20E7F37B017D6B7F691263FAE3
:10539000E4FB7D6C7F691263FA7B017D1A7F6912E1
:1053A00063FA7B077D197F691263FA7B187D1B7F87
:1053B000691263FA7B107D1C7F691263FA7B037D9F
:0653C0001D7F690263FA83
:10573B007B017A0479F49004B77406F0E4A3F07D4E
:10574B003B7F69124F3D9004F4E0FEA3E0FDEDFFBB
:10575B009003D1EEF0A3EFF09004F6E0FEA3E0FD92
:10576B00EDFF9003D3EEF0A3EFF09004F8E0FEA36F
:0C577B00E0FDEDFF9003D5EEF0A3EFF091
:0157870022FF
:105788007B017A0479FA9004B77406F0E4A3F07DFB
:10579800437F69124F3D9004FAE0FEA3E0FDEDFF60
:1057A8009003D7EEF0A3EFF09004FCE0FEA3E0FD39
:1057B800EDFF9003D9EEF0A3EFF09004FEE0FEA316
:0C57C800E0FDEDFF9003DBEEF0A3EFF03E
:0157D40022B2
:0660F300C292EF4480FFA1
:1060F900E4FEEEC39408748094805015EF339293B4
:10610900EF25E0FFC295D295A294E4334FFF0E80AC
:01611900E1A4
:01611A002262
:0D000600C2921260F9AF051260F9D2922289
:0F65F7001260F3E4FF1260F9EF121584D29222C2
:0B5D690090053CEBF0A3EAF0A3E9F08A
:105D74001260F3E4FDFC90053FE0FFC3ED9FEC945B
:105D840000501FE4FF1260F990053CE0FBA3E0FA29
:105D9400A3E0F98D828C83EF1215960DBD00010CE2
:045DA40080D4D29243
:015DA80022D8
:1064E1007B017A05796B7F751265F790056BE06426
:0364F1001270ED39
:0164F4002285
:1055A3001264E17D807F6B1200067F027E0012642D
:1055B300CD7B017A05796C7F6B1265F790056CE002
:1055C300644170ED7D017F6B1200061D7F6C12003C
:1055D300060D7F1A1200067D077F191200067D183B
:1055E3007F1B1200067D107F1C1200067D037F1DAA
:0355F300020006AD
:105A2A007B017A05790090053F7406F07F3B125D91
:105A3A0069900500E0FEA3E0FDEDFF9003D1EEF0D2
:105A4A00A3EFF0900502E0FEA3E0FDEDFF9003D383
:105A5A00EEF0A3EFF0900504E0FEA3E0FDEDFF9069
:075A6A0003D5EEF0A3EFF0FD
:015A71002212
:105A72007B017A05790690053F7406F07F43125D3B
:105A820069900506E0FEA3E0FDEDFF9003D7EEF07E
:105A9200A3EFF0900508E0FEA3E0FDEDFF9003D92F
:105AA200EEF0A3EFF090050AE0FEA3E0FDEDFF901B
:075AB20003DBEEF0A3EFF0AF
:015AB90022CA
:0E647600EBF0A3EAF0A3E9F0C292EF4480FF3E
:08648400AB07E4FDFF02586FB5
:1000260090056DEDF0C29212648490056DE0FF12AA
:050036006484D2922257
:1063A30090054E126476E4FF12648490054EE0FB80
:0D63B300A3E0FAA3E0F9EF121584D29222C4
:035649009004AC1E
:10564C00126476E49004B0F0A3F09004AFE0FFC3D2
:10565C009004B1E09F9004B0E09400502FE4FF124E
:10566C0064849004ACE0FBA3E0FAA3E0F99004B0EE
:10567C00E0FCA3E0F5828C83EF1215969004B1E068
:0E568C0004F070C69004B0E004F080BED2922C
:01569A0022ED
:10622500E490056EF090056EE0641260147B017ACF
:1062350005796E7F751263A37F0A7E001264CD8097
:01624500E474
:016246002235
:10527D00E490056FF07F0AFE1264CD9004DF740296
:10528D00F0E4A3F0A3F07B01FDFF1256EC126225B2
:10529D007D807F6B1200267F027E001264CD7B0124
:1052AD007A05796F7F6B1263A390056FE06441708F
:1052BD00ED7D017F6B120026E4FD7F6C1200267DD3
:1052CD00017F1A1200267D077F191200267D187F97
:1052DD001B1200267D107F1C1200267D037F1D02F0
:0252ED00002699
:105ABA007B017A05790C9004AF7406F07F3B12568D
:105ACA004990050CE0FEA3E0FDEDFF9003D1EEF056
:105ADA00A3EFF090050EE0FEA3E0FDEDFF9003D3E7
:105AEA00EEF0A3EFF0900510E0FEA3E0FDEDFF90CD
:075AFA0003D5EEF0A3EFF06D
:015B01002281
:105B02007B017A0579129004AF7406F07F43125636
:105B120049900512E0FEA3E0FDEDFF9003D7EEF001
:105B2200A3EFF0900514E0FEA3E0FDEDFF9003D992
:105B3200EEF0A3EFF0900516E0FEA3E0FDEDFF907E
:075B420003DBEEF0A3EFF01E
:015B49002239
:01004100229C
:07648C00C295126493D29542
:0E6493007F647E00EF1FAC0670011E4C70F699
:0164A10022D8
:0F660600D293D295126493C293126493C29522D9
:0A004600C29312648CD293026493FB
:10641600AD07C295126493ED6004C2938002D293D5
:0A642600D295126493C295026493AC
:1064A20012648C309306C295E4FEFF22C2951264F8
:0664B200937E007F012231
:04616B00E025E0FF4C
:02616F00AD077A
:106171007B08AF031BEF6015ED30E704D29380027B
:10618100C293ED25E0FD12648EC29580E50264A202
:025F0700AD07E4
:105F0900E4FBC295126493D293E4FAEAC394087449
:105F1900809480501112649312648CEB25E0FB305D
:105F290093010B0A80E5C295126493AF05126416BA
:025F3900AF03B4
:015F3B002243
:1063FA00900570EFF0AA03A90512660612616BAF49
:0C640A000112616FAF0212616F020046C8
:095E2600900571EDF0AA07A90333
:105E2F00126606EA25E0FF12616FE0FF12616FE96B
:105E3F0064017003120046126606AF02EF25E044BC
:105E4F0001FF12616FE4FF125F07AD07120046AF4B
:015E5F00053D
:015E6000221F
:104F3D009004B2EFF0A3EDF0A3EBF0A3EAF0A3E938
:104F4D00F01266069004B212616BA3E0FF12616F5E
:104F5D009004B8E0640170031200461266069004D6
:104F6D00B2E025E04401FF12616F9004B7E014F048
:104F7D0060207F01125F079004B4E0FBA3E0FAA369
:104F8D00E0F9EF1215849004B5E475F00112165591
:104F9D0080D8E4FF125F079004B4E0FBA3E0FAA30E
:094FAD00E0F9EF12158402004640
:10659900E4FD7F0D12594F7D0A7C00E4FF0245910D
:104BFB00E4900572F0FDFF1258C97DFFE4FF1258D7
:104C0B00C97D01E4FF1258C9E4FDFF1258C9E490B5
:104C1B000572F0900572E0FDC3948074809480500F
:104C2B0061ED25E02401F582E43400F583C083C0F7
:104C3B0082A3E0C4F8540FC868FF0582D582021521
:104C4B00831582E0C454F048D082D083F0A3EFF0F8
:104C5B00ED25E02401F582E43400F583E0FDE4FF6B
:104C6B001258C9900572E025E02401F582E4340066
:104C7B00F583A3E0FDE4FF1258C9900572E004F040
:024C8B00809116
:014C8D002204
:105B9100E4900573F0D2B6C2B7C2B6D2B7D2B6C2DC
:105BA100B7F0900573E0C39480748094805027C24D
:105BB100B6E4FD7F0D125FFA900573E025E0240144
:105BC100F582E43400F583EEF0A3EFF0D2B6900550
:065BD10073E004F080CC3B
:015BD70022AB
:0666490025640025660037
:1065A900C2C6C2C5AB07E4FD7F0212586FD2C6222C
:1065B900C2C6D2C5AB07E4FD7F0212586FD2C6220C
:075F70002428FFE03400FECD
:025F7700AC0676
:105F7900EC900560F0A3EFF0C2C6D2C5900560E0D1
:105F8900FBE4FD7F0212586F900561E0FBE4FD7FA1
:065F99000212586FD2C68F
:015F9F0022DF
:103886009004DF7422F0E4A3F0A3F07B217D207F77
:10389600021256ECD2C7C2C5C2C47FC87E001264EB
:1038A600CDD2C47F647E001264CD7F361265A97FB7
:1038B600A01265B97F3A1265A97F051265B97FB274
:1038C6001265A97F0C1265B97F0C1265B9E4FF1267
:1038D60065B97F331265B97F331265B97FB7126553
:1038E600A97F351265B97FBB1265A97F371265B905
:1038F6007FC01265A97F2C1265B97FC21265A97FA8
:10390600011265B97FC31265A97F121265B97FC41A
:103916001265A97F201265B97FC61265A97F0F12AD
:1039260065B97FD01265A97FA41265B97FA112651A
:10393600B97FE01265A97FD01265B97F041265B917
:103946007F0D1265B97F111265B97F131265B97FB4
:103956002B1265B97F3F1265B97F541265B97F4C4A
:103966001265B97F181265B97F0D1265B97F0B1202
:1039760065B97F1F1265B97F231265B97FE11265AC
:10398600A97FD01265B97F041265B97F0C1265B99B
:103996007F111265B97F131265B97F2C1265B97F45
:1039A6003F1265B97F441265B97F511265B97F2F01
:1039B6001265B97F1F1265B97F1F1265B97F201284
:1039C60065B97F231265B97F211265A97F1112653A
:1039D600A97F787E001264CD7F291265A974FFFF46
:0439E600FE0252EF9C
:10569B00900485EEF0A3EFF0A3ECF0A3EDF0A3EAFA
:1056AB00F0A3EBF07F2A1265A9900486E0900485A5
:1056BB00125F7090048AE0900489125F707F2B1246
:1056CB0065A9900488E02434FF900487125F7390DF
:1056DB00048CE02434FF90048B125F737F2C0265E3
:0156EB00A915
:0852EF0090051EEEF0A3EFF0A4
:1052F70090048BE4F0A37486F07BEF7A00E4FDFC66
:10530700FFFE12569BE4900520F0A3F0E4900522DF
:10531700F0A3F090051EE0FEA3E0FF125F77900573
:1053270023E004F07006900522E004F0C390052303
:10533700E09487900522E0940040D8900521E0048E
:10534700F07006900520E004F0C3900521E094F08A
:08535700900520E0940040B431
:01535F00222B
:105CE600900524EEF0A3EFF0900528EAF0A3EBF080
:105CF600900526ECF0A3EDF0900524E0FAA3E0FB76
:105D0600FFAE02C007A3E0FFA3E090048BCFF0A391
:105D1600EFF0D00712569B900528E0FEA3E0FF02A5
:025D26005F77A5
:0642FD00F583E02430FB14
:1043030090048DEEF0A3EFF0A3ECF0A3EDF0A3EB9C
:01431300F0B9
:10431400E4A3F0900492E0F9C39410748094804074
:10432400030243DCE9FF900490E02FFD90048FE04A
:104334003400FC90048EE02407FB90048DE03400EC
:10434400FA7E0090048FE0F8A3E02FFFEE3890048B
:104354008BF0A3EFF090048DE0FEA3E0FF12569BD8
:10436400900491E0FF3395E0FEEFC4F8540FC86861
:10437400FFEEC454F048FE74962FF58274FE3EF5A9
:1043840083C083C082900492E0D082D0832582F5DA
:1043940082E43583F583E493900494F0E4900493E9
:1043A400F0900493E0C39408748094805021A3E0B7
:1043B40030E0067F007EF8800474FFFFFE125F7712
:1043C400900494E0C313F0900493E004F080D2903E
:0843D4000492E004F00243171B
:0143DC0022BE
:10519200900452EEF0A3EFF0A3ECF0A3EDF0A3EB3A
:0751A200F0A3EAF0A3E9F01D
:1051A900E4A3F0A3F0900456E0FBA3E0FAA3E0F92E
:1051B900A3E0FEA3E0FFF5828E83121557FB603E44
:1051C900EF7803C333CE33CED8F9FF900453E02FE1
:1051D900FF900452E03EFE900455E0C4F8540FC815
:1051E90068FD900454E0C454F048FC124303900451
:0E51F9005AE004F070AF900459E004F080A773
:015207002284
:1044B70090045BEEF0A3EFF0A3ECF0A3EDF0A3EB19
:0144C700F004
:1044C8003395E0C36480948090045EE0C4F8540F90
:1044D800C868FD90045DE0C454F048FC90045BE0BB
:1044E800FEA3E0FF500E7B2D12430390045FE0F41F
:1044F80004F080057B2012430390045FE0FF75F011
:104508006412151C900460F0EF75F00A12151CFF78
:1045180075F00A12151CAFF0900461EFF090045F7B
:10452800E0FF75F00A12151CAFF0900462EFF0E49A
:10453800A3F0900463E0FBFF7E00C39403748094AF
:10454800805045EF2401FFEE33FEEF7803C333CEEE
:1045580033CED8F9FF90045CE02FFF90045BE03E77
:10456800FE90045EE0C4F8540FC868FD90045DE056
:10457800C454F048FC74602BF582E434041242FD04
:08458800900463E004F080AA36
:014590002208
:0E50A500900495EEF0A3EFF0A3ECF0A3EDF075
:1050B300EB75F06484A3F0EB75F00A8475F00A8451
:1050C300A3E5F0F0EB75F00A84A3E5F0F0E4A3F0B8
:1050D30090049CE0C3940374809480503BE0FB7580
:1050E300F008A4FF900496E02FFF900495E035F0BC
:1050F300FE900498E0C4F8540FC868FD900497E04C
:10510300C454F048FC74992BF582E434041242FD34
:0851130090049CE004F080B858
:01511B002271
:103B0B009003DDEEF0A3EFF0A3ECF0A3EDF0A3EA4E
:043B1B00F0A3EBF038
:103B1F00C3EA648094809003E0E0C4F8540FC8684F
:103B2F00FD9003DFE0C454F048FC9003DDE0FEA3FA
:103B3F00E0FF501C7B2D1243039003E1E0FEA3E056
:103B4F00FFC3E49FFFE49E9003E1F0A3EFF0800535
:103B5F007B201243039003E1E0FAA3E0FB7C277D77
:103B6F0010FFAE0212161FA3EFF07C037DE8AF0328
:103B7F00AE0212161F7C007D0A12161FA3EDF090E5
:103B8F0003E1A3E07C007D64FFAE0212161F7C00F0
:103B9F007D0A12161F9003E5EDF07C007D0AAF033E
:103BAF00AE0212161F7C007D0A12161FA3EDF090B5
:103BBF0003E1E0FEA3E0FF7C007D0A12161F9003D5
:103BCF00E7EDF0E4A3F09003E8E0FBFF7E00C39481
:103BDF0005748094805045EF2401FFEE33FEEF789B
:103BEF0003C333CE33CED8F9FF9003DEE02FFF901F
:103BFF0003DDE03EFE9003E0E0C4F8540FC868FD1B
:103C0F009003DFE0C454F048FC74E32BF582E434F6
:0C3C1F00031242FD9003E8E004F080AACC
:013C2B002276
:0E48B40090042CEEF0A3EFF0A3ECF0A3EDF0D7
:1048C2007C277D10AF03AE021215CAA3EFF07C0362
:1048D2007DE8AF03AE021215CA7C007D0A1215CA2A
:1048E200A3EDF07C007D64AF03AE021215CA7C001A
:1048F2007D0A1215CAA3EDF07C007D0AAF03AE0259
:104902001215CA7C007D0A1215CAA3EDF0AE02AFE1
:10491200037C007D0A1215CAA3EDF0E4A3F0900413
:1049220035E0C3940574809480503BE0FB75F00839
:10493200A4FF90042DE02FFF90042CE035F0FE90B0
:10494200042FE0C4F8540FC868FD90042EE0C4544C
:10495200F048FC74302BF582E434041242FD9004DA
:0649620035E004F080B80E
:01496800222C
:0E404500900314EEF0A3EFF0A3ECF0A3EDF067
:1040530090031CE0FFC3740A9F7480F898500374A4
:104063000AF090031CE004F0900318E0FCA3E0FDC9
:10407300A3E0FEA3E0FFE4FBFAF9F8D312175D40D7
:10408300319001D174FFF0A37466F0A37449F090EA
:104093000318E0FCA3E0FDA3E0FEA3E0FF9001D43E
:1040A3001217B70B7A03791D121E8290033FEFF0AC
:1040B300803890031D7420F09001D174FFF0A37435
:1040C30066F0A37449F0900318E0FCA3E0FDA3E0BD
:1040D300FEA3E0FF9001D41217B77B017A03791E88
:1040E300121E8290033FEFF0801E90031CE0FF90AE
:1040F300033FE0FEC39F5015741D2EF582E4340385
:10410300F5837420F090033FE004F080DD741D2FED
:10411300F582E43403F583E4F0900314E0FEA3E0B6
:10412300FFA3E0FCA3E0FD7B017A03791D0251921A
:0E34370090028AEEF0A3EFF0A3ECF0A3EDF00C
:10344500900293E0FFC374069F7480F8985003744C
:1034550006F0900292E0FFC3740A9F7480F89850BA
:1034650003740AF090028EE0FCA3E0FDA3E0FEA346
:10347500E0FFE4FBFAF9F812113C9001D16031400C
:103485002F74FFF0A37466F0A3744CF090028EE0E5
:10349500FCA3E0FDA3E0FEA3E0FF9001D41217B763
:1034A5007B017A027995121E82900294EFF08030AA
:1034B50074FFF0A37466F0A3744CF090028EE0FCE8
:1034C500A3E0FDA3E0FEA3E0FF9001D41217B77BB4
:1034D500017A027996121E82900294EFF0E004F0D0
:1034E500900294E024F9FD900292E0FEC3ED9E1453
:1034F5009002B7F0900293E0AE052E049002B8F06A
:103505009002B7E0FF3395E0FED3E49FEE6480F8C8
:103515007480984022A3E0FF3395E0FE74952FF563
:103525008274023EF5837420F09002B8E004F090B6
:1035350002B7E004F080C990028EE0FCA3E0FDA391
:10354500E0FEA3E0FFE4FBFAF9F812113C9002B7A4
:1035550060174015E0FF3395E0FE74952FF58274F2
:10356500023EF583742DF08013E0FF3395E0FE7481
:10357500952FF58274023EF5837420F09002B8E031
:10358500FF3395E0FE74952FF58274023EF583E4D2
:10359500F090028AE0FEA3E0FFA3E0FCA3E0FD7B40
:0835A500017A027995025192AE
:1062AD00E4FB7D6B7F681263FA7B077D197F6812B3
:1062BD0063FAE4FB7D197F68125E26EF640770F2C6
:0162CD0022AE
:1059E1007F647E001264CD1262ADE4FB7D6B7F6843
:1059F1001263FA7B077D197F681263FA7B047D1AB3
:105A01007F681263FA7B187D1B7F681263FA7B1033
:105A11007D1C7F681263FAE4FB7D6A7F681263FA7A
:095A21007B027D377F680263FA05
:1057D5007B017A05792A9004B77406F0E4A3F07D7D
:1057E5003B7F68124F3D90052AE0FEA3E0FDEDFFEB
:1057F5009003E9EEF0A3EFF090052CE0FEA3E0FDA9
:10580500EDFF9003EBEEF0A3EFF090052EE0FEA385
:0C581500E0FDEDFF9003EDEEF0A3EFF0DE
:015821002264
:105822007B017A0579309004B77406F0E4A3F07D29
:10583200437F68124F3D900530E0FEA3E0FDEDFF8F
:105842009003EFEEF0A3EFF0900532E0FEA3E0FD4F
:10585200EDFF9003F1EEF0A3EFF0900534E0FEA32C
:0C586200E0FDEDFF9003F3EEF0A3EFF08B
:01586E002217
:0A6615002D0020002564002566001A
:05605000F583E493FF5D
:106055007E08C2C6D2C5C2C3AD061EED6014EF30C0
:10606500E704D2C08002C2C0D2C3C2C3EF25E0FF9D
:0460750080E6D2C629
:016079002204
:1061B7007E06C2C6D2C5C2C3AD061EED6014EF305F
:1061C700E704D2C08002C2C0D2C3C2C3EF25E0FF3A
:0461D70080E6D2C6C6
:0161DB0022A1
:085FA00054F0C4540F4410FF3B
:105FA8007E08C2C6C2C5C2C3AD061EED6014EF307E
:105FB800E704D2C08002C2C0D2C3C2C3EF25E0FF4B
:045FC80080E6D2C6D7
:015FCC0022B2
:104E3B009004B9EEF0A3EFF0A3EBF0A3EAF0A3E933
:014E4B00F076
:104E4C009004BF7406F09004BBE0FBA3E0FAA3E06F
:104E5C00F99004BFE0F582758300E4804E9004BFA6
:104E6C00E0604D14F09004B9E0FAA3E0FB7C007D07
:104E7C000AFFAE021215CA9004BEEDF07C007D0A4A
:104E8C00AF03AE021215CA9004B9EEF0A3EFF09086
:104E9C0004BEE02430FF9004BBE0FBA3E0FAA3E0E7
:104EAC00F99004BFE0F582758300EF12159680AD82
:014EBC0022D3
:104A1500D2C6D2C3C2C47F327E001264CDD2C47F57
:104A2500AE125FA8E4FF125FA87F10125FA87F4057
:104A3500125FA87F81125FA87F7F125FA87FA112F6
:104A45005FA87FC8125FA87FA6125FA87FA8125F24
:104A5500A87F3F125FA87FD3125FA8E4FF125FA86B
:104A65007FD5125FA87F80125FA87FD9125FA87FCC
:104A7500F1125FA87FDA125FA87F12125FA87FDBB1
:104A8500125FA87F40125FA87F20125FA87F0212E5
:104A95005FA87F8D125FA87F14125FA87FA4125FA5
:104AA500A87FA6125FA87FAF125FA8E4FF125ED0B1
:064AB500E4FDFF0264F5C0
:1064F500AC07ED24B0FF125FA8EC125FA0EC540FBF
:04650500FF025FA88A
:025ED000AC071D
:105ED200E4FBEBC39408748094805028EB24B0FF59
:105EE200125FA87F01125FA87F10125FA8E4FAEA8E
:105EF200C39480748094805008AF041260550A8065
:045F0200EE0B80CE54
:015F06002278
:10631000AA07A9051264F5E924B0FF125FA8EA12E2
:0E6320005FA0EA540FFF125FA8AF03026055A2
:10632E00AB07AA051264F5EA24B0FF125FA8EB12C0
:0E633E005FA0EB540FFF125FA8E4FF02605552
:104D1F009004C0EFF0A3EDF0A3EBF0A3EAF0A3E94A
:014D2F00F093
:104D3000E4A3F0FCA3F09004C2E0FBA3E0FAA3E03C
:104D4000F99004C6E0F582758300121557605F2460
:104D5000E09004C5F09004C0E0D3947E7480948009
:104D60004006E4F0A3E004F09004C0E0FFA3E0FDFF
:104D70001264F5E4FCECC394067480948050209097
:104D800004C5E075F006A42486F582E5F03406F546
:104D900083E5822CF582E435831260500C80D69036
:0E4DA00004C0E02406F09004C6E004F0808811
:014DAE0022E2
:104733009004C7EFF0A3EDF0A3EBF0A3EAF0A3E935
:01474300F085
:10474400E4A3F0FCA3F09004C9E0FBA3E0FAA3E027
:10475400F99004CDE0F582758300121557700302B9
:1047640047FE24E09004CCF09004C7E0D39478741E
:104774008094804006E4F0A3E004F09004C7E0FFD6
:10478400A3E0FD1264F5E4FCECC394087480948007
:1047940050209004CCE075F010A42CF582E435F0A0
:1047A400F583E58224AEF582E58334081260500C6B
:1047B40080D69004C7E0FFA3E004FD1264F5E4FC96
:1047C400ECC394087480948050209004CCE075F07D
:1047D40010A42CF582E435F0F583E58224B6F58245
:1047E400E58334081260500C80D69004C7E0240896
:0A47F400F09004CDE004F002474A03
:0147FE002298
:08619100900464EFF0A3EDF0AF
:10619900AE02AF037B017A047966124E3B90046428
:0E61A900E0FFA3E0FD7B017A047967024D1F41
:0E52080090040CEFF0A3EDF0A3EAF0A3EBF09E
:10521600C3EA64809480502590040EE0FEA3E0FF6C
:10522600C3E49FFFE49E90040EF0A3EFF090040CFD
:10523600E0FFA3E0FD7BFF7A667915800E90040CF3
:10524600E0FFA3E0FD7BFF7A667917124D1F9004FD
:105256000CE02406F090040EE0FEA3E0FF7B017A4A
:10526600047910124E3B90040CE0FFA3E0FD7B0195
:075276007A047911024D1FBB
:0E413300900340EEF0A3EFF0A3ECF0A3EDF04C
:10414100900348E0FFC3740A9F7480F89850037489
:104151000AF0900348E004F0900344E0FCA3E0FD82
:10416100A3E0FEA3E0FFE4FBFAF9F8D312175D40E8
:10417100319001D174FFF0A37466F0A37419F0902B
:104181000344E0FCA3E0FDA3E0FEA3E0FF9001D423
:104191001217B70B7A037949121E8290036BEFF065
:1041A10080389003497420F09001D174FFF0A3741A
:1041B10066F0A37419F0900344E0FCA3E0FDA3E0D2
:1041C100FEA3E0FF9001D41217B77B017A03794A6D
:1041D100121E8290036BEFF0801E900348E0FF9067
:1041E100036BE0FEC39F501574492EF582E434033E
:1041F100F5837420F090036BE004F080DD74492FA7
:10420100F582E43403F583E4F0900340A3E0FFA3D7
:0C421100A3E0FD7B017A037949024D1FF8
:0E35AD009002B9EEF0A3EFF0A3ECF0A3EDF066
:1035BB009002C2E0FFC374069F7480F898500374A6
:1035CB0006F09002C1E0FFC3740A9F7480F8985014
:1035DB0003740AF09002BDE0FCA3E0FDA3E0FEA3A0
:1035EB00E0FFE4FBFAF9F812113C9001D160314095
:1035FB002F74FFF0A37466F0A3741CF09002BDE06F
:10360B00FCA3E0FDA3E0FEA3E0FF9001D41217B7EB
:10361B007B017A0279C4121E829002C3EFF08030D4
:10362B0074FFF0A37466F0A3741CF09002BDE0FC71
:10363B00A3E0FDA3E0FEA3E0FF9001D41217B77B3C
:10364B00017A0279C5121E829002C3EFF0E004F0FA
:10365B009002C3E024F9FD9002C1E0FEC3ED9E147D
:10366B009002E6F09002C2E0AE052E049002E7F065
:10367B009002E6E0FF3395E0FED3E49FEE6480F822
:10368B007480984022A3E0FF3395E0FE74C42FF5BD
:10369B008274023EF5837420F09002E7E004F09010
:1036AB0002E6E004F080C99002BDE0FCA3E0FDA3BC
:1036BB00E0FEA3E0FFE4FBFAF9F812113C9002E6FE
:1036CB0060174015E0FF3395E0FE74C42FF582744C
:1036DB00023EF583742DF08013E0FF3395E0FE740A
:1036EB00C42FF58274023EF5837420F09002E7E05C
:1036FB00FF3395E0FE74C42FF58274023EF583E42C
:10370B00F09002B9A3E0FFA3A3E0FD7B017A02795D
:04371B00C4024D1F78
:1018C600900381ECF0A3EDF0A3EBF0A3EAF0A3E91B
:0918D600F090037FEEF0A3EFF0A7
:1018DF007E005407FF90038DEEF0A3EFF07017908A
:1018EF00037FE0FEA3E07803CEC313CE13D8F9FF36
:1018FF0090038BEE801890037FE0FEA3E07803CE79
:10190F00C313CE13D8F92401FFE43E90038BF0A349
:10191F00EFF0E4900387F0A3F090038BE0FEA3E0D9
:10192F00FF900387E0FCA3E0FDC39FEE6480F8EC1B
:10193F006480984003021E81E4FF1264F5E4A3F073
:10194F00A3F0900381E0FCA3E0FDC390038AE09D28
:10195F00900389E09C4003021E70E490038FF09087
:10196F00038CE024FFFF90038BE034FFFE9003878E
:10197F00E0FAA3E0FBC39FEE6480F8EA648098402E
:10198F001590038DE0FEA3E0FF4E600AEF9401EE89
:10199F0064809480404D90038FE0FFC007AE02EB50
:1019AF007803C333CE33CED8F9FF1215B890038323
:1019BF00E0FBA3E0FAA3E02FF9EA3EFA900389E0F7
:1019CF00FEA3E029F9EA3EFA12153EFF900386E0E6
:1019DF00FEEFD39E40047E0180027E00D0E04E9049
:1019EF00038FF090038CE024FFFF90038BE034FF14
:1019FF00FE900387E0FCA3E0FDC39FEE6480F8EC4C
:101A0F00648098401590038DE0FEA3E0FF4E600ABE
:101A1F00EF9402EE64809480406390038FE0FFC0E8
:101A2F0007AE04ED7803C333CE33CED8F9FF90035E
:101A3F0081E0FCA3E0FD1215B8A3E0FBA3E0FAA33D
:101A4F00E02FF9EA3EFA900389E0FEA3E029F9EAD4
:101A5F003EFA900381E0FEA3E029F9EA3EFA12155F
:101A6F003EFF900386E0FEEFD39E40047F0180028D
:101A7F007F00EF25E0FED0E04E90038FF090038CB7
:101A8F00E024FFFF90038BE034FFFE900387E0FC20
:101A9F00A3E0FDC39FEE6480F8EC6480984015903E
:101AAF00038DE0FEA3E0FF4E600AEF9403EE648027
:101ABF009480406C90038FE0FFC007AE04ED780375
:101ACF00C333CE33CED8F9FF900381E0FCA3E0FD02
:101ADF001215B8A3E0FBA3E0FAA3E02FF9EA3EFA50
:101AEF00900389E0FEA3E029F9EA3EFA900382E031
:101AFF0025E0FF900381E033FEE92FF9EA3EFA1269
:101B0F00153EFF900386E0FEEFD39E40047F0180D9
:101B1F00027F00EF25E025E0FED0E04E90038FF02E
:101B2F0090038CE024FFFF90038BE034FFFE9003C3
:101B3F0087E0FCA3E0FDC39FEE6480F8EC6480981F
:101B4F00401590038DE0FEA3E0FF4E600AEF940472
:101B5F00EE64809480406A90038FE0FFC007AE046C
:101B6F00ED7803C333CE33CED8F9FF900381E0FC79
:101B7F00A3E0FD1215B8A3E0FBA3E0FAA3E02FF951
:101B8F00EA3EFA900389E0FEA3E029F9EA3EFA90D3
:101B9F000381E0FEA3E0F5828E8374031217F41223
:101BAF001557FF900386E0FEEFD39E40047F018020
:101BBF00027F00EF33333354F8FED0E04E90038FA3
:101BCF00F090038CE024FFFF90038BE034FFFE9036
:101BDF000387E0FCA3E0FDC39FEE6480F8EC648014
:101BEF0098401590038DE0FEA3E0FF4E600AEF943E
:101BFF0005EE64809480406D90038FE0FFC007AEC8
:101C0F0004ED7803C333CE33CED8F9FF900381E0D0
:101C1F00FCA3E0FD1215B8A3E0FBA3E0FAA3E02FAD
:101C2F00F9EA3EFA900389E0FEA3E029F9EA3EFAC9
:101C3F00900381E0FEA3E07802C333CE33CED8F910
:101C4F0029F9EA3EFA12153EFF900386E0FEEFD324
:101C5F009E40047F0180027F00EFC454F0FED0E06D
:101C6F004E90038FF090038CE024FFFF90038BE0E6
:101C7F0034FFFE900387E0FCA3E0FDC39FEE64807A
:101C8F00F8EC648098401590038DE0FEA3E0FF4EC2
:101C9F00600AEF9406EE64809480406990038FE0B1
:101CAF00FFC007AE04ED7803C333CE33CED8F9FFB0
:101CBF00900381E0FCA3E0FD1215B8A3E0FBA3E0C5
:101CCF00FAA3E02FF9EA3EFA900389E0FEA3E02998
:101CDF00F9EA3EFA900381E0FEA3E0F5828E837469
:101CEF00051217F4121557FF900386E0FEEFD39EEF
:101CFF0040047F0180027F00EFC43354E0FED0E048
:101D0F004E90038FF090038CE024FFFF90038BE045
:101D1F0034FFFE900387E0FCA3E0FDC39FEE6480D9
:101D2F00F8EC648098401590038DE0FEA3E0FF4E21
:101D3F00600AEF9407EE64809480406A90038FE00E
:101D4F00FFC007AE04ED7803C333CE33CED8F9FF0F
:101D5F00900381E0FCA3E0FD1215B8A3E0FBA3E024
:101D6F00FAA3E02FF9EA3EFA900389E0FEA3E029F7
:101D7F00F9EA3EFA900381E0FEA3E0F5828E8374C8
:101D8F00061217F4121557FF900386E0FEEFD39E4D
:101D9F0040047F0180027F00EFC4333354C0FED074
:101DAF00E04E90038FF090038CE024FFFF90038BA5
:101DBF00E034FFFE900387E0FCA3E0FDC39FEE64D9
:101DCF0080F8EC648098401590038DE0FEA3E0FF4F
:101DDF004E600AEF9408EE64809480406B90038FFE
:101DEF00E0FFC007AE04ED7803C333CE33CED8F98E
:101DFF00FF900381E0FCA3E0FD1215B8A3E0FBA365
:101E0F00E0FAA3E02FF9EA3EFA900389E0FEA3E09F
:101E1F0029F9EA3EFA900381E0FEA3E0F5828E8372
:101E2F0074071217F4121557FF900386E0FEEFD3D5
:101E3F009E40047F0180027F00EFC4333333548010
:101E4F00FED0E04E90038FF090038FE0FF126055AD
:101E5F0090038AE004F07006900389E004F0021901
:101E6F0051900388E004F07006900387E004F002BD
:021E7F00192820
:011E8100223E
:0B4664009003A0EFF0A3EDF0A3EBF03B
:10466F00E49003A7F0A3F09003A6E0FFC39003A884
:10467F00E09F7480F89003A7E0648098400302479E
:10468F0032E49003A9F0A3F09003A2E0FF131313F9
:10469F00541FFD9003A9E0FAA3E0FBC39D7480F8BB
:1046AF00EA64809850699003A7A3E08FF0A4FF906D
:1046BF0003A0E02FFFA3E02BFD1264F5E49003AB02
:1046CF00F0A3F09003A3E0FBA3E0FAA3E0F9121527
:1046DF003EFF1260559003A4E475F0011216559039
:1046EF0003ACE004F070069003ABE004F0C390035A
:1046FF00ACE094109003ABE06480948040C59003CD
:10470F00AAE004F070829003A9E004F002469790AB
:10471F0003A8E004F060030246769003A7E004F0DC
:03472F00024676C9
:014732002264
:10653000EF1FAA0670011E4A60087D091DED60F07C
:0265400080FADF
:016542002236
:0B5FCD00C2A4EF4480FF125FD8AF05B4
:105FD800E4FEEEC39408748094805015EF3392A5C4
:105FE800EF25E0FFC2A7D2A7A2A6E4334FFF0E8099
:015FF800E1C7
:015FF9002285
:06664F00125FCDD2A4226F
:1064B800C2A4EF4440FF125FD8E4FF125FD8EF1286
:0564C8001584D2A4229E
:1062CE00125FCDD2A4C2A4E4FF125FD8AC07E4FFE4
:1062DE00125FD8D2A4AF04ED6F60037F01227F005E
:0162EE00228D
:105DA900900551EBF0A3EAF0A3E9F0C2A4EF444057
:105DB900FF125FD8E4FF125FD8D2A47F017E0012E0
:105DC9006530C2A4E4FF125FD8900551E0FBA3E05F
:105DD900FAA3E0F9EF121584E4FF125FD8D2A422E6
:10611B00AB07AA06C3E49BFB74109AFAEBC4F854C2
:10612B000FC868FBEAC454F048FAAD03E4FF1262EF
:08613B00CEEAFD7F010262CEF5
:1061DC00C2A4E4FF125FD8AD07ED7D00FCE4FF1212
:1061EC005FD8D2A4AE04EEC4F854F0C868FEEFC475
:0461FC00540F48FFF5
:01620000227B
:106509007B017A0579747F06125DA9900574E064B0
:036519001C70ED06
:01651C00225C
:1065C900126509E4FD7F091262CEE4FFFE02611B38
:0E644900EBF0A3EAF0A3E9F0C2A2EF4440FF9B
:09645700AB07E4FD7F0202586F5F
:10643000900575EDF0C2A2EF4480FF1264579005FD
:0964400075E0FF126457D2A2229C
:1063C000900554126449E4FF125FD8900554E0FB35
:0D63D000A3E0FAA3E0F9EF121584D2A22297
:055DE900900562EDF0E1
:105DEE00C2A2EF4480FF126457900562E0FF126476
:105DFE0057D2A2C2A2E4FF126457900563EFF0E4FB
:105E0E00FF126457D2A2900563E0FF900562E06F27
:075E1E0060037F01227F00F9
:015E2500225A
:10602500900557126449E4FF126457D2A2C2A2E454
:10603500FF126457900557E0FBA3E0FAA3E0F9EFE0
:0B604500121584E4FF126457D2A2225F
:105E6100900564EEF0A3EFF0C3E49FF074109E90F0
:105E71000564F0A3E0C4F8540FC868FF900564E01E
:105E8100C454F048F0A3EFF0FDE4FF125DE9900582
:085E910064E0FD7F01025DE900
:105D2800E4900566F0A3F0C2A2FF126457900566DE
:105D3800E4F0A3EFF0E0F8E4F0E8900566F0E4FFA3
:105D4800126457900566E0F0A3E04FF0D2A29005E8
:105D580066E0C4F854F0C868FEA3E0C4540F48FFD6
:015D68002218
:1062EF007B017A0579767F06126025900576E0FBB3
:1062FF00E4FDFCFFFE1250A5900576E0641C70E0F3
:01630F00226B
:106201009004DF7420F0E4A3F0A3F07B207D207FD5
:10621100021256EC1262EFE4FD7F09125DE9E4FF20
:04622100FE025E61BA
:1065430090022D1217C30001C2007B117D107F033F
:0365530002371FED
:104969009004CEEBF0A3EAF0A3E9F0A38062E47F20
:104979001EFEFDFC9004D1E0F8A3E0F9A3E0FAA340
:10498900E0FBD3121773404D308402804B9004CE64
:10499900E0FBA3E0FAA3E0F99004ECE4F0A3741EB1
:1049A900F07F031260A39004CFE475F01E12165530
:1049B9009004D1E0FCA3E0FDA3E0FEA3E0C3941EB4
:1049C900FFEE9400FEED9400FDEC9400FC9004D100
:1049D9001217B7809930840F9004D1E0FCA3E0FD51
:1049E900A3E0FEA3E0FF229004CEE0FBA3E0FAA33C
:1049F900E0F9A3A3A3E0FFA3E09004ECCFF0A3EFB9
:0C4A0900F07F031260A3E4FFFEFDFC221E
:0E4C8E009004D5EBF0A3EAF0A3E9F0A3EDF05B
:104C9C0074FFA3F0A3F0E4A3F09004D8E0FF900419
:104CAC00DBE0FEC39F50639004D5E0FBA3E0FAA3C6
:104CBC00E0F98E82758300121557FF9004D9E0F04D
:104CCC00A3E06FF0E4FDEDC394087480948050323F
:104CDC009004D9E0FEA3E0FF30E019EEC313FEEF21
:104CEC0013FFEE64A0FEEF6401FF9004D9EEF0A375
:104CFC00EFF0800B9004D9E0C313F0A3E013F00D98
:104D0C0080C49004DBE004F0808F9004D9E0FEA313
:024D1C00E0FFB6
:014D1E002272
:104ABB00900419ECF0A3EDF0A3EAF0A3EBF0900453
:064ACB0017EEF0A3EFF06E
:104AD100E4FC90041FE0FBA3E0FAA3E0F9EF121558
:104AE10084900417E0FEEEFF90041FE0FBA3E0FAC0
:104AF100A3E0F9900001EF121596900419A3E0903C
:104B01000002121596900419E0FEEE9000031215B2
:104B11009690041BA3E090000412159690041BE0EC
:104B2100FEEE90000512159690041DA3E09000067C
:104B310012159690041DE0FEEE9000071215967D69
:104B410008124C8E90041FE0FBA3E0FAA3E0F99059
:0D4B51000008EF121596EE9000090215966F
:102F5E00900200E0FBA3E475F00412166BA9F0FAE0
:102F6E001217979002251217B7900225E0FCA3E0E6
:102F7E00FDA3E0FEA3E0FF7B017A027904E4900357
:062F8E0073F0A37410F0C3
:102F940090036C1217B7900370EBF0A3EAF0A3E967
:012FA400F03C
:102FA500E490037DF0A3F0900373E07003023063B7
:102FB50090036CE0FCA3E0FDA3E0FEA3E0FF90031B
:102FC500751217B7900375E0FCA3E0FDA3E0FEA31F
:102FD500E0FFEC335010900375A3A3A3E012174F45
:102FE5009003751217B7900374E0FBE4FAF9F8A3A0
:102FF500E0FCA3E0FDA3E0FEA3E0FF125C1EEB24D2
:1030050030FF900370E0FBA3E0FAA3E0F9EF12159F
:1030150084900375E0FCA3E0FDA3E0FEA3E0FFC000
:1030250007900374E0FBE4FAF9F8D007125C1E90F0
:1030350003751217B790037EE004F0900375E0FC6A
:10304500A3E0FDA3E0FEA3E0FFEC4D4E4F700302AD
:10305500310E900371E475F00112165580889003C6
:103065006CE0FCA3E0FDA3E0FEA3E0FF9003791272
:1030750017B7900374E0FBE4FAF9F8900379E0FCE4
:10308500A3E0FDA3E0FEA3E0FF1216BDAF0390038E
:103095007DEFF0D3740A9F7480F8985006E02437CA
:1030A500F0800790037DE02430F090037DE0FF90F1
:1030B5000370E0FBA3E0FAA3E0F9EF121584900397
:1030C50079E0FCA3E0FDA3E0FEA3E0FFC0079003C9
:1030D50074E0FBE4FAF9F8D0071216BD90037912F3
:1030E50017B790037EE004F0900379E0FCA3E0FDC0
:1030F500A3E0FEA3E0FFEC4D4E4F600D900371E49D
:0E31050075F00112165502307790037EE0FF40
:013113002299
:103E5E00900229EFF07B017A027904E0FFE4FCFD89
:013E6E00FE55
:0F3E6F009003F5EBF0A3EAF0A3E9F0A31217B765
:103E7E009003FC1217C300000000E47B02FAF9F86D
:103E8E009003F8E0FCA3E0FDA3E0FEA3E0FF121612
:103E9E00BD9003FCE0F8A3E0F9A3E0FAA3E0FBC3B6
:103EAE001217734003023F569003F8A3A3E0FEA33C
:103EBE00E024FFFBEE34FFFAA3A3A3E0FEA3E0FF92
:103ECE00C3EB9FFDEA9EFC9003F5E0FBA3E0FAA393
:103EDE00E0F98D828C83121557900400F08F828E3C
:103EEE0083121557FFC0079003F8A3A3E0FEA3E0CB
:103EFE0024FFFBEE34FFFAA3A3A3E0FEA3E0FDAC88
:103F0E0006C3EB9DFFEA9CFE9003F5E0FBA3E0FAEF
:103F1E008F828E83D0E0121596900400E0FFEF8D15
:103F2E00828C831215969003FCE0FCA3E0FDA3E0C7
:103F3E00FEA3E02401FFE43EFEE43DFDE43CFC90E4
:083F4E0003FC1217B7023E88C4
:013F56002248
:0B1E82009001CEEBF0A3EAF0A3E9F022
:101E8D009001FC1217C3000000009002007401F0D5
:101E9D00A37401F0A374D4F09001D1E0FBA3E0FA98
:0B1EAD00A3E0F912153E700302240CA4
:101EB800900203F0642560030223B89001D1A3E4E3
:101EC80075F001121655A9F0FA12153E121845239D
:101ED80084251F8646225E581EFF631F1B641F86CB
:101EE800661F1B6921E36F232B7022B273215D7576
:071EF800225E78000023FFC9
:101EFF00900200E0FBA3E475F00412166BA9F0FA50
:091F0F00121797900204EFF0E0B4
:031F18000223C6DB
:101F1B00900200E0FBA3E475F00412166BA9F0FA33
:101F2B001217979002251217B7900225E0FCA3E039
:101F3B00FDA3E0FEA3E0FF7B017A0279049003731B
:101F4B007401F0A3740AF0122F94900229EFF09011
:101F5B000225E0FCA3A3A3EC335014A3E02404F567
:101F6B0082E43402F583742DF0900229E004F07BB7
:081F7B00017A027904900229A9
:031F83000221A197
:101F8600900200E0FBA3E475F00412166BA9F0FAC8
:101F96001217979002251217B7900225E0FCA3E0CE
:101FA600FDA3E0FEA3E0FF1211F37B017A027904A0
:101FB6009003737401F0A3740AF0122F949002290F
:101FC600EFF0E4FFFEFDFC900225E0F8A3E0F9A3A4
:101FD600E0FAA3E0FB12113C5016900229E024041B
:101FE600F582E43402F583742DF0900229E004F0C2
:101FF6007B017A027904900229123E69900229E057
:10200600FF7E009001CEE0FBA3E0FAA3E0F8AC026D
:10201600AD037B017A0279041214F6900229E0FFDF
:10202600FD9001CFE48DF01216559001FCE0F8A367
:10203600E0F9A3E0FAA3E0FBE4FCFDFEEB2FFFEEE4
:102046003AFEED39FDEC38FC9001FC1217B7900210
:1020560025E0FCA3E0FDA3E0FEA3E0FF1211F3ECF4
:102066001211B5A804A905AA06AB07900225E0FC43
:10207600A3E0FDA3E0FEA3E0FF120EA17B007A24FD
:1020860079747849120F969002251217B790022597
:10209600E0FCA3E0FDA3E0FEA3E0FFEC4D4E4F60A5
:1020A60024900225A3A3A3E01211F37B017A0279FF
:1020B600049003737401F0A3740AF0122F94900233
:1020C60029EFF080209002097430F0900208F09019
:1020D6000207F0900206F0900205F0900204F090DC
:1020E60002297406F0900229E0FFFDD374069D7460
:1020F60080F898401574042FF582E43402F5837451
:1021060030F0900229E004F080DB900229E02404FC
:10211600F582E43402F583742EF0900229E004126D
:102126003E62900229E0FF7E009001CEE0FBA3E034
:10213600FAA3E0F8AC02AD037B017A02790412142B
:10214600F69001FCE0F8A3E0F9A3E0FAA3E0FB9027
:072156000229E0FF0222A0B4
:10215D00900200E0FBA3E475F00412166BA9F0FAEF
:10216D001217979002251217B7900225E0FCA3E0F5
:10217D00FDA3E0FEA3E0FF7B017A027904E4900366
:10218D0073F0A3740AF0122F94900229EFF07B01E3
:10219D007A027904123E69900229E0FF7E009001D7
:1021AD00CEE0FBA3E0FAA3E0F8AC02AD037B017A2D
:1021BD000279041214F6900229E0FFFD9001CFE49C
:1021CD008DF01216559001FCE0F8A3E0F9A3E0FAAA
:0321DD00A3E0FB81
:0321E0000222A038
:1021E300900200E0FBA3E475F00412166BA9F0FA69
:1021F3001217979002251217B7900225E0FCA3E06F
:10220300FDA3E0FEA3E0FF7B017A027904E49003DF
:1022130073F0A37408F0122F94123E5E900229E02B
:10222300FF7E009001CEE0FBA3E0FAA3E0F8AC024E
:10223300AD037B017A0279041214F6900229E0FFC0
:10224300FD9001CFE48DF01216559001FCE0F8A348
:08225300E0F9A3E0FAA3E0FBAF
:03225B000222A0BC
:10225E00122F5E123E5E900229E0FF7E009001CEAC
:10226E00E0FBA3E0FAA3E0F8AC02AD037B017A0237
:10227E0079041214F6900229E0FFFD9001CFE48D4F
:10228E00F01216559001FCE0F8A3E0F9A3E0FAA3D2
:10229E00E0FBE4FCFDFEEB2FFFEE3AFEED39FDEC2C
:0122AE0038F7
:0322AF000223F80F
:1022B200900200E0FBA3E475F00312166BA9F0FA9A
:1022C200121825900204EBF0A3EAF0A3E9F09002C1
:1022D20004E0FBA3E0FAA3E0F912153E7003022327
:1022E200FF12153EFF9001CEE0FBA3E0FAA3E0F956
:1022F200EF1215849001CFE475F00112165590018A
:10230200FCE0FCA3E0FDA3E0FEA3E02401FFE43E29
:10231200FEE43DFDE43CFC9001FC1217B79002057F
:09232200E475F00112165580A5C6
:10232B00122F5E900229EFF07B017A0279047F086D
:10233B007E007D007C00123E6F9001CEE0FBA3E09F
:10234B00FAA3E0F8AC02AD037B017A0279047E00BC
:10235B007F081214F69001CFE475F0081216559011
:10236B0001FCE0FCA3E0FDA3E0FEA3E02408FFE4F6
:07237B003EFEE43DFDE43CE1
:1023820080749001CEE0FBA3E0FAA3E0F974251279
:1023920015849001CFE475F0011216559001FCE00E
:1023A200FCA3E0FDA3E0FEA3E02401FFE43EFEE483
:1023B2003DFDE43C80409001D1E0FBA3E0FAA3E0C4
:1023C200F912153EFF9001CEE0FBA3E0FAA3E0F97B
:1023D200EF1215849001CFE475F0011216559001A9
:1023E200FCE0FCA3E0FDA3E0FEA3E02401FFE43E49
:1023F200FEE43DFDE43CFC9001FC1217B79001D2D3
:07240200E475F0011216550C
:10240900021EA5900200E4F0A3F0A3F09001FCE005
:0A241900FCA3E0FDA3E0FEA3E0FF3A
:012423002296
:030023000255F68D
:0F55F600C0E0C083C082C0D075D000C005C00720
:10560500309907C2999001CAE4F030982AC298AF40
:1056150099EFFD647F6005ED64807016900577E075
:10562500FF04F0D3EF941474809480400A75C7602A
:075635008005900577E4F009
:0D563C00D007D005D0D0D082D083D0E0328E
:030043000262470F
:10624700C0E0C083C082E59A30E108539AFD90010F
:10625700CBE4F0E59A30E003539AFED082D083D0A6
:02626700E03223
:03008B00026269A5
:10626900C0E0C083C082E5AC30E10853ACFD9001C9
:10627900CCE4F0E5AC30E00353ACFED082D083D05F
:02628900E03201
:0300930002628B7B
:10628B00C0E0C083C082E58430E1085384FD9001F7
:10629B00CDE4F0E58430E0035384FED082D083D08C
:0262AB00E032DF
:03003B000253C6A7
:1053C600C0E0C083C082C0D075D000C006C0073020
:1053D600D822C2D89003BFE0FEA3E0F5EAEEF5FAC4
:1053E6009003B9E0FEA3E0FF9003C0E02FF0900326
:1053F600BFE03EF030D922C2D99003C1E0FEA3E05F
:10540600F5EBEEF5FB9003BBE0FEA3E0FF9003C2D5
:10541600E02FF09003C1E03EF0D007D006D0D0D008
:0654260082D083D0E032C9
:03000300020042B6
:01004200328B
:0300130002005098
:01005000327D
:0300530002005157
:01005100327C
:03005B000200524E
:01005200327B
:0300830002005622
:010056003277
:106143005345454B46524545205072696E7466204F
:10615300546573740D0A0042415544203D2031318A
:0861630035323030200D0A0036
:05638000420568000069
:1063DD0012002012590512003E7BFF7A617943129B
:0D63ED00248F7BFF7A61795A12248F80EC97
:100E9E0002125FE86480F8E933E83360110460F011
:100EAE00ED33EC337009E8FCE9FDEAFEEBFF2204BA
:100EBE0060DED3EB9FEA9EE99DE8C2E78CF0C2F7B5
:100ECE0095F0400CE8CCF8E9CDF9EACEFAEBCFFB81
:100EDE0012122A85D0F05804700320D5B3E804709E
:100EEE00075002B2D502126992D5EC0460F7E4CC39
:100EFE00C0E0C398F8603B94186008400DD0E0FB4A
:100F0E00021241E4FBFAC9FC8028E830E406E4C989
:100F1E00FBE4CAFCE830E305E4C9CACBFCE854079D
:100F2E006010F8C3E913F9EA13FAEB13FBEC13FCA8
:100F3E00D8F130F52FC3E49CFCEF9BFFEE9AFEED4B
:100F4E0099FDD0E0FBEF4E4D4C701222DB030212E6
:100F5E0066EC2CFCEF33FFEE33FEED33FDED30E7A8
:100F6E00EB021241EF2BFFEE3AFEED39FDD0E0FB26
:100F7E0050130BBB0003021269ED13FDEE13FEEFCF
:080F8E0013FFEC13FC021241F9
:100F9600EC4D6011E8497017ED33EC3304600DE455
:100FA600FCFFFEFD22E933E8330470F802125F12FB
:100FB600122A58046009E4CC2481500628500902FC
:100FC6001269284003021266C0E0EB4A7044B980F9
:100FD60006D0E0FB021255EF4E701CBD8008EBFFF9
:100FE600EAFEE9FD80EBE98DF0A4FEE5F002107F54
:100FF600E9CDF9EAFEEBFFEF89F0A4FCE5F0CE8936
:10100600F0A42EFFE435F0CD89F0A42DFEE435F0F2
:101016008067EF4E7005BD80D780C3EF8BF0A4AC20
:10102600F0EE8BF0A42CFCE435F0F8EF8AF0A42C5B
:10103600E5F038FCE433CB8DF0A42CFCE5F03BF86E
:10104600EE8AF0A42CFCE5F038F8E433CF89F0A45E
:101056002CFCE5F038CF3400CE89F0A42FFFE5F064
:101066003EFEE433C98DF0A42EFEE5F039CD8AF0BC
:10107600A42FFFE5F03EFEE43DFD33D0E0FB500734
:101086000BBB000F021269EC2CFCEF33FFEE33FEB4
:06109600ED33FD021241E2
:10109C00021269EC5D046005E85904700302125FEA
:1010AC0012122A580460F6EC4860F2EC7004FDFE53
:1010BC00FF22C860DB2481C85009C3986002500627
:1010CC000212669850CAF582E9294B4A7005AB8228
:1010DC0002125575F0007C1A7880C3EF9BEE9AEDE6
:1010EC0099400DC3EF9BFFEE9AFEED99FDE842F09F
:1010FC00DC23ACF0D0E0FFD0E0FED0E0FDAB8220F2
:10110C00E7101BEB60BAEC2CFCEF33FFEE33FEED7B
:10111C0033FD021241E803F830E705C0F075F0002A
:10112C00EF2FFFEE33FEED33FD40B830E7C280AA5F
:10113C0074F8CC6480CCC86480C8F58204604FC35A
:10114C00EB9FF5F0EA9E42F0E99D42F0E89C45F0F9
:10115C00603C501DE5825FFFE582D313CB5BCBF483
:10116C002B5582FB50280ABA002409B900200880AC
:10117C001DE5825BFBE582D313CF5FCFF4C3132F46
:10118C005582FF50090EBE00050DBD00010CC3EBCE
:10119C009FF5F0EA9E42F0E99D42F0E89C45F06034
:0911AC0007CC4820E701B3EC2256
:1011B50075F020800E75F010800575F0087D007EB5
:1011C500007F003392D530D50312174FEC33401012
:1011D500EF33FFEE33FEED33FDEC33FCD5F0ED22BE
:0E11E500E5F0247EA2D513CC92E7CDCEFF22FA
:1011F300EDD2E7CD33EC3392D524814006E4FFFEF4
:10120300FDFC22FCE4CFCECDCC24E0501174FF8052
:10121300EDC3CC13CCCD13CDCE13CECF13CF0470EF
:07122300F030D5DE02174F89
:10242400E508242DF582E43402F583E005082290C2
:10243400022A30070390022DE475F00112180502F8
:10244400153E2000E97F2ED2008018EF540F24900F
:10245400D43440D4FF30040BEF24BFB41A0050032B
:102464002461FFE50960021509050CE50C700205FD
:102474000B30070E90022AE475F001121805EF02E2
:1024840015840265687403D2078003E4C207F50863
:1024940090022A12181CE4F509F50BF50CE5096005
:1024A400077F2012246780F5750AFFC201C200C2AB
:1024B40002C203C205C206C208122433FF700D30E3
:1024C40007057F00122478AF0CAE0B22B4255FC23F
:1024D400D5C204122433FF24D0B40A00501A75F074
:1024E4000A780930D50508B6FF0106C6A426F620E9
:1024F400D5047002D20380D924CFB41A00EF50045B
:10250400C2E5D20402276AD20180C6D20080C0D2BA
:102514000280BCD2D580BAD20580B47F2012246751
:102524002002077401B5090040F1122424FF12248B
:10253400670224A1D208D2068095122424FB122417
:1025440024FA122424F94A4B700679687A287BFF0E
:1025540020022EE509602A7E008E82758300121502
:102564005760060EEE650A70F0C2D5EBC0E0EAC013
:10257400E0E9C0E0EE1227CBD0E0F9D0E0FAD0E0F9
:10258400FB12153EFF60AAEBC0E0EAC0E0E9C0E040
:10259400122467D0E02401F9D0E03400FAD0E0FB43
:1025A400E50A0460DCD50AD98087D20280A212270A
:1025B400AD60F7E50A700104121274A90A600DE512
:1025C4000A600914F50A122855EF60F3EA30E702AD
:1025D400F404C3995079EAF4250A0430E701E404C9
:1025E400F50A800D1227AD60C1EA050A250A121208
:1025F40074EA900259F030E701E4250A04D50A048C
:10260400200501141227CBE4C0E01228559002598A
:10261400E0601320E70714F012244F802204F0D066
:10262400E014C0E07F0012244FE50A60071224463C
:10263400150A800B300503122446D0E00224A1D0F1
:10264400E00480C41227AD609EE50A04121274905F
:102654000259EAF0E50A2005026001042404122765
:01266400CBAA
:1026650074FF04C0E012285512244FE50A20050224
:102675006003122446D0E0B50AE87F45122459903C
:102685000259E07F2B30E7047F2DF404C0E01224CB
:1026950067D0E075F00A84C0F0122450D0E012240F
:1026A500500224A1791080027908C206C208800868
:1026B500D2D5790A8004790AC2D5E50A047002F5F3
:1026C5000AE4FAFDFEFF122424FC7B082001131204
:1026D5002424FD7B1030000A122424FE122424FF3A
:1026E5007B20EC3382D592D55013C3E43000069F8E
:1026F500FFE49EFEE42001039DFDE49CFCE4CBF891
:10270500C201EC700CCFCECDCCE824F8F870F38084
:1027150017C3EF33FFEE33FEED33FDEC33FCEB3344
:10272500FB994002FB0FD8E9EB300105F8D0E0C476
:1027350048B201C0E00AEC4D4E4F78207B0070C2D4
:10274500EAB50A0040BCC0E01227CDD0F0D0E020A9
:102755000104C4C0E0C4B201C0F0122450D0F0D5C9
:10276500F0EB0224A1121845253E5326A958250F42
:102775004C250B4226AD4F26B54426B549252443A5
:1027850026BB5525E84626484525B24728885025C5
:10279500132D25172E253A2B251B23253820287187
:1027A5002A24D34800002532E50AB4FF03750A063A
:1027B500122424FC122424FD122424FE122424FFB6
:1027C5009002520212B1790AA2D5200314300509EC
:1027D500B910020404B9080104A2D520060250016B
:1027E500042002689202B509005034C0E07F203011
:1027F50003197F30A20272067205500F122824C2F7
:1028050002C206C205C2087F30800F300503E9C049
:10281500E0122467300503D0E0F9D0E0B509CC30EB
:1028250005177F30B9100C1224677F583004077FD5
:10283500788003B908031224673002057F2D02242E
:10284500677F202008F87F2B2006F322920280CF95
:102855007F00B40700500B2452F582E43402F5835F
:10286500E0FF22286E756C6C2900D20112242430F9
:1028750001F8C201780930D50108F60224D32D509C
:102885004349581224242403B405004001E4902848
:102895008393122458743A122458D20375090402FA
:0228A50026A962
:10122A00E9D2E7C933E833F892D5EDD2E7CD33EC0A
:07123A0033FC5002B2D52283
:10124100EC30E7100FBF000C0EBE00080DBD00040E
:101251000BEB6014A2D5EB13FCED92E7FD2274FFBA
:10126100FCFDFEFF22E480F8A2D574FF13FC7D8013
:03127100E480EF27
:10127400F920E73624F950037907E4F42402FBE566
:1012840082158270021583DBF6E024FB501BE960B3
:1012940014E4F0E582158270021583E004F0B40AC8
:0D12A40008E4F0D9EE7401F00A22C2D52250
:1012B100ED33EC3392D5FA602AB4FF33EDC2E77B0C
:1012C100FF60067A1279D6E4227A1279DF20D504FA
:1012D1007A1279DA224E614E002B494E46002D4991
:1012E1004E4600E47A08F0A3DAFC7B00740722C0C2
:1012F10083C082ECC0E0EDC0E0EEC0E0EFC0E0EA08
:1013010075F010A4CAABF075F04DA42BFBE435F0D9
:10131100FCEA2410FAEB34C5FBEC34D9FCEDC2E74E
:10132100FF75F056A4F42411C5F0F434C58FF0A470
:101331002AE5F03BE43CF020E7141213E6D0E0FF8D
:10134100D0E0FED0E0FDD0E0FC12109F8014F40448
:101351001213E6D0E0FFD0E0FED0E0FDD0E0FC12B9
:101361000F96D082D083E0FAEDD2E7CD33EC33246F
:1013710082FBE4C3CF33CFCE33CECD33CD33DBF3DA
:101381007B0775F00A846004F0A31B0AE5F0F0A363
:101391008FF0740AA4FFACF08EF0740AA42CFEAC9A
:1013A100F050010C8DF0740AA42CFDE435F0F0A38B
:0513B100DBDE740722E1
:1013B6003F8000004120000042C80000447A00003F
:1013C600461C400047C35000497424004B189680C1
:1013D6004CBEBC205A0E1BCA6753C21C749DC5AEB8
:1013E600FB60065407601C2323121414EB54386068
:1013F6000912140012140F120F96ECF8EDF9EEFA1A
:10140600EFCB22EB12140F80F1543803241C9013F7
:10141600B6FE93FC0EEE93FD0EEE930ECE93FF22D8
:03000000024DAFFF
:0C4DAF00787FE4F6D8FD758121024DF6F6
:10142600E709F608DFFA8046E709F208DFFA803EA8
:1014360088828C83E709F0A3DFFA8032E309F60895
:10144600DFFA8078E309F208DFFA807088828C83FD
:10145600E309F0A3DFFA806489828A83E0A3F608B1
:10146600DFFA805889828A83E0A3F208DFFA804C8B
:1014760080D280FA80C680D4806980F28033801062
:1014860080A680EA809A80A880DA80E280CA8033CB
:1014960089828A83ECFAE493A3C8C582C8CCC58343
:1014A600CCF0A3C8C582C8CCC583CCDFE9DEE78013
:1014B6000D89828A83E493A3F608DFF9ECFAA9F092
:1014C600EDFB2289828A83ECFAE0A3C8C582C8CCE8
:1014D600C583CCF0A3C8C582C8CCC583CCDFEADE01
:1014E600E880DB89828A83E493A3F208DFF980CC63
:1014F60088F0EF60010E4E60C388F0ED2402B4045C
:101506000050B9F582EB2402B4040050AF23234502
:061516008223901476739D
:10151C00C2D530F707B2D563F0FF05F030E70CB257
:10152C00D5F4048463F0FF05F080018430D502F417
:02153C00042287
:10153E00BB010689828A83E0225002E722BBFE02AB
:09154E00E32289828A83E49322DE
:10155700BB010CE58229F582E5833AF583E0225049
:1015670006E92582F8E622BBFE06E92582F8E22293
:0D157700E58229F582E5833AF583E49322AD
:10158400BB010689828A83F0225002F722BBFE0146
:02159400F32240
:10159600F8BB010DE58229F582E5833AF583E8F08B
:1015A600225006E92582C8F622BBFE05E92582C837
:0215B600F2221F
:1015B800EF8DF0A4A8F0CF8CF0A428CE8DF0A42E47
:0215C800FE2201
:1015CA00BC000BBE0029EF8DF084FFADF022E4CC05
:1015DA00F875F008EF2FFFEE33FEEC33FCEE9DECCE
:1015EA00984005FCEE9DFE0FD5F0E9E4CEFD22ED14
:1015FA00F8F5F0EE8420D21CFEADF075F008EF2F5E
:10160A00FFED33FD4007985006D5F0F222C398FD4E
:05161A000FD5F0EA22EB
:10161F00C2D5EC30E709B2D5E4C39DFDE49CFCEEE6
:10162F0030E715B2D5E4C39FFFE49EFE1215CAC37F
:10163F00E49DFDE49CFC80031215CA30D507C3E47A
:06164F009FFFE49EFE2255
:10165500C5F0F8A3E028F0C5F0F8E5821582700220
:061665001583E038F022BD
:10166B00A3F8E0C5F025F0F0E58215827002158332
:06167B00E0C838F0E8228F
:1016810075F008758200EF2FFFEE33FECD33CDCC20
:1016910033CCC58233C5829BED9AEC99E5829840A3
:1016A1000CF582EE9BFEED9AFDEC99FC0FD5F0D680
:1016B100E4CEFBE4CDFAE4CCF9A88222B800C1B9AA
:1016C1000059BA002DEC8BF084CFCECDFCE5F0CBE8
:1016D100F97818EF2FFFEE33FEED33FDEC33FCEB21
:1016E10033FB10D703994004EB99FB0FD8E5E4F9DC
:1016F100FA227818EF2FFFEE33FEED33FDEC33FCC9
:10170100C933C910D7059BE99A4007EC9BFCE99ABC
:10171100F90FD8E0E4C9FAE4CCFB2275F010EF2F01
:10172100FFEE33FEED33FDCC33CCC833C810D70701
:101731009BEC9AE899400AED9BFDEC9AFCE899F83C
:0E1741000FD5F0DAE4CDFBE4CCFAE4C8F922CF
:105C1E00C2D5E830E70FB2D5E4C39BFBE49AFAE4B1
:105C2E0099F9E498F8EC30E717B2D5125C541216D5
:105C3E00BDE4C39BFBE49AFAE499F9E498F8800377
:105C4E001216BD30D50DE4C39FFFE49EFEE49DFD0C
:045C5E00E49CFC22A4
:0E174F00C3E49FFFE49EFEE49DFDE49CFC22AB
:10175D00EB9FF5F0EA9E42F0E99D42F0EC6480C803
:06176D0064809845F022A3
:10177300EB9FF5F0EA9E42F0E99D42F0E89C45F0CC
:011783002243
:10178400E8600FECC313FCED13FDEE13FEEF13FF43
:03179400D8F12267
:10179700BB010789828A830218775005E9F8021886
:1017A7006BBBFE05E9F802188389828A8302188FCA
:0C17B700ECF0A3EDF0A3EEF0A3EFF022A5
:1017C300A8828583F0D083D0821217DA1217DA1237
:1017D30017DA1217DAE473E493A3C583C5F0C5835C
:1017E300C8C582C8F0A3C583C5F0C583C8C582C870
:0117F30022D3
:1017F400F5F0C582A4C582C5F0C583A42583F5830D
:0118040022C1
:10180500F8E0FBA3A3E0F925F0F0E582158270026C
:071815001583E0FA38F02210
:09181C00EBF0A3EAF0A3E9F022CD
:10182500BB010789828A830218A85005E9F80218C6
:101835009FBBFE05E9F80218B189828A830218BAAE
:10184500D083D082F8E4937012740193700DA3A332
:1018550093F8740193F5828883E473740293686046
:06186500EFA3A3A380DF46
:104DBB000263DDE493A3F8E493A34003F68001F2CE
:104DCB0008DFF48029E493A3F85407240CC8C333F9
:104DDB00C4540F4420C8834004F456800146F6DFC8
:104DEB00E4800B0102040810204080906369E47E8C
:104DFB00019360BCA3FF543F30E509541FFEE493BD
:104E0B00A360010ECF54C025E060A840B8E493A383
:104E1B00FAE493A3F8E493A3C8C582C8CAC583CAAE
:104E2B00F0A3C8C582C8CAC583CADFE9DEE780BE66
:016385000017
:0C186B00E6FC08E6FD08E6FE08E6FF22A9
:0C187700E0FCA3E0FDA3E0FEA3E0FF22E4
:0C188300E2FC08E2FD08E2FE08E2FF22A1
:10188F00E493FC740193FD740293FE740393FF229F
:09189F00E6FB08E6FA08E6F9226E
:0918A800E0FBA3E0FAA3E0F92241
:0918B100E2FB08E2FA08E2F92268
:0C18BA00E493FB740193FA740293F9228A
:00000001FF
