:0775170044054D00000000D7
:102C720043BA80E59D603578FAE6FFAD9FC3ED9FCC
:102C8200FFE49400FE3395E0FDFC7BE07A287901B5
:102C92007800121507E42FFFEE3451FEED3425FDC6
:102CA200EC3402FC90037812168C803278FBE6FF3B
:102CB200AD9FC3ED9FFFE49400FE3395E0FDFCE47D
:102CC2007B807ABBF9F8121507E42FFFEE3436FE4B
:102CD200ED346EFDEC3401FC90037812168C9003F7
:102CE20078E0FCA3E0FDA3E0FEA3E0FFC00790FEB6
:102CF20001E0FFFBE4FAF9F8D0071215929003788D
:102D020012168C7FC07EF67D577C00900378E0F827
:102D1200A3E0F9A3E0FAA3E0FBC312164850097F2F
:102D2200007E607D547C00227FC07E267D827C00F6
:102D3200900378E0F8A3E0F9A3E0FAA3E0FBC31262
:102D4200164850097F807E8D7D5B7C00227F807ECD
:102D5200ED7DAF7C00900378E0F8A3E0F9A3E0FA00
:102D6200A3E0FBC312164850097F007EC07DA87CF9
:102D720000227F807E2D7DE87C00900378E0F8A31E
:102D8200E0F9A3E0FAA3E0FBC312164850097F0062
:102D92007E1B7DB77C00227F807E367D257C019064
:102DA2000378E0F8A3E0F9A3E0FAA3E0FBC312166C
:102DB2004850097F007E407D197C01227F807E562B
:102DC2007D417C01900378E0F8A3E0F9A3E0FAA347
:102DD200E0FBC312164850097F007E2D7D317C0135
:102DE200227F007EDB7D5F7C01900378E0F8A3E028
:102DF200F9A3E0FAA3E0FBC312164850097F007E54
:102E0200807D517C01227F607E197D857C0190034B
:102E120078E0F8A3E0F9A3E0FAA3E0FBC3121648B6
:102E220050097F007E367D6E7C01227F207EE07D10
:102E3200B27C01900378E0F8A3E0F9A3E0FAA3E002
:102E4200FBC312164850097FC07EFC7D9B7C012289
:102E52007FE07EA67DE07C01900378E0F8A3E0F9B4
:102E6200A3E0FAA3E0FBC312164850097F807EC399
:102E72007DC97C01227F607E2B7DFF7C01900378DF
:102E8200E0F8A3E0F9A3E0FAA3E0FBC3121648506E
:102E9200097F007E407DFA7C01227FC07E0E7D1676
:022EA2007C02B0
:012EA400220B
:10652C00122C7290054D12168CE4F594F593F5929D
:10653C00F591F596F595F5B2F5B1F5B4F5B3F5CA57
:10654C00F5C9F5D8F5D9F5DEF58EF598F59AF5ACD3
:10655C00F584F5A2F5BAF5AFF589F5E9F5F91273FD
:10656C004390037B1216980001C20090037F7402C3
:0A657C00F07B01E4FDFF1232E02283
:107638009005E1EFF0E0FFFDE4FF1263C09005E183
:03764800E0FF223E
:03002000C2AF224A
:03005600D2AF2204
:10406C009004A1EFF0A3EDF0A3EBF09004A2E0F02C
:10407C00A3E0F0A3E0F09004A1E01216FA4099003E
:10408C0040C60140F202411E0300004148E4FD7F9E
:10409C001312257AE4FD7F1412257AE4FD7F1512A4
:1040AC00257A7D017F13125F52E4FD7F14125F525B
:1040BC007D017F15125F52024148E4FD7F231225DA
:1040CC007AE4FD7F2412257AE4FD7F2512257A7D82
:1040DC00017F23125F52E4FD7F24125F527D017F2A
:1040EC0025125F528056E4FD7F4012257AE4FD7F55
:1040FC004112257AE4FD7F4312257A7D017F40121F
:10410C005F52E4FD7F41125F527D017F43125F528B
:10411C00802AE4FD7F3412257AE4FD7F3312257A60
:10412C00E4FD7F3212257A7D017F34125F52E4FD6B
:10413C007F33125F527D017F32125F5253A2F39094
:10414C0004A1E01216FA4162004164014169024186
:10415C006E0300004171800D43A204800843A20845
:10416C00800343A20C53CEF39004A5E01216FA413F
:10417C009800418B01419002419503000041984306
:10418C00CE04800843CE08800343CE0C9004A7E0F5
:10419C0042CE9004A6E0700643CE8043CE1043CEB0
:0241AC004022AF
:10764B009005E2EFF0E0F5CFE5CD30E7FB75CDC06F
:03765B00AFCF228C
:10496200900551EFF0A3EDF0A3EBF0900552E0F0CB
:10497200A3E0F0A3E0F053A2F3900551E01216FA7F
:1049820049920049BF0149EB024A170300004A411C
:10499200E4FD7F1312257AE4FD7F1412257AE4FDEB
:1049A2007F1512257A7D017F13125F52E4FD7F1479
:1049B200125F527D017F15125F52024A41E4FD7F70
:1049C2002312257AE4FD7F2412257AE4FD7F251245
:1049D200257A7D017F23125F52E4FD7F24125F520C
:1049E2007D017F25125F528056E4FD7F4012257AB9
:1049F200E4FD7F4112257AE4FD7F4312257A7D0191
:104A02007F40125F52E4FD7F41125F527D017F437E
:104A1200125F52802AE4FD7F3412257AE4FD7F334F
:104A220012257AE4FD7F3212257A7D017F34125FEE
:104A320052E4FD7F33125F527D017F32125F52904A
:104A42000551E01216FA4A58004A59014A5D024AD3
:104A5200610300004A642243A2042243A2082243C3
:034A6200A20C2281
:107395009005E3EFF053CEF7E01216FA73BC0073D5
:1073A500B10173B50273B903000073BC43CE042267
:0873B50043CE082243CE0C2256
:08731A00900585EEF0A3EFF0F1
:1073220090058574FFF5F01214B945F060129005CE
:10733200877409F0900587E014F060E480F680E03D
:017342002228
:106E9200E4900588F0A3F0A3F090FE82E020E622C1
:106EA2007F017E0012731A900588E475F0011214B6
:106EB200B9FEC3E5F0941EEE940040DD90058A749D
:0E6EC20001F090FE82E054BFF090058AE0FFE0
:016ED000229F
:1076940090FE817401F0126E929005E4EFF0E0FF29
:0176A40022C3
:0575AD009005A9EFF0BC
:1075B200E090FE86F090FE817402F0126E929005C9
:0575C200AAEFF0E0FF5C
:0175C70022A1
:1076A50090FE817403F0126E929005E5EFF0E0FF15
:0176B50022B2
:0F773D0090FE817404F0126E9290FE87E0FF229E
:1075FA0090FE82E4F090FE817405F0126E9290057E
:05760A00E6EFF0E0FFD7
:01760F002258
:10772D0090FE827401F090FE817405F0126E92222B
:1076B60090FE817406F0126E929005E7EFF0E0FFFF
:0176C60022A1
:106039009004A8EFF0A3EDF0A3EBF09004A9E0F031
:10604900A3E0F053BACF43BA809004A8E01216FA3D
:10605900606900606B016070026075030000607820
:10606900800D43BA10800843BA20800343BA3090A8
:10607900FE80E04440F0E04480F0C083C082E0FB51
:106089009004ABE0A3E0A3E0A3E0FFEB4FD082D004
:0860990083F090FE82E4F02286
:10588200900555EFF0A3EDF0A3EBF053BACF9005DE
:1058920055E01216FA58A70058A90158AE0258B39B
:1058A20003000058B6800D43BA10800843BA208026
:1058B2000343BA30127694EF60037F0122900556BB
:1058C200E0FF25E0FF1275ADEF60037F0122127643
:1058D200A5EF60037F0122900557E0FF1275ADEF3F
:1058E20060037F01221276A5EF60037F01229005FB
:1058F20058E0FF1275ADEF60037F01221276A5EF2B
:1059020060037F01221276B6EF60037F01227F00DF
:015912002272
:105690009004D9EFF0A3EDF0A3EBF053BACF900450
:1056A000D9E01216FA56B50056B70156BC0256C1DB
:1056B00003000056C4800D43BA10800843BA20800E
:1056C0000343BA30127694EF60037F01229004DA2C
:1056D000E0FF25E0FF1275ADEF60037F0122127637
:1056E000A5EF60037F01229004DBE0FF1275ADEFB0
:1056F00060037F01221276A5EF60037F01229004F0
:10570000DAE0FF25E04401FF1275ADEF60037F0191
:10571000221276A5EF60037F012212773D9004DC10
:10572000E0FBA3E0FAA3E0F9EF1213D21275FAEF4F
:1057300060037F01221276B6EF60037F01227F00B3
:015740002246
:1051C6009004AFEFF0A3EDF0A3EBF053BACF900449
:1051D600AFE01216FA51EB0051ED0151F20251F710
:1051E60003000051FA800D43BA10800843BA2080AC
:1051F6000343BA30127694EF60037F01229004B025
:10520600E0FF25E0FF1275ADEF60037F0122127605
:10521600A5EF60037F01229004B1E0FF1275ADEFA8
:1052260060037F01221276A5EF60037F01229004BE
:10523600B0E0FF25E04401FF1275ADEF60037F018A
:10524600221276A5EF60037F01229004B5E014F0E8
:10525600602712773D9004B2E0FBA3E0FAA3E0F9E1
:10526600EF1213D21275FAEF60037F01229004B396
:10527600E475F0011214A380D112773D9004B2E0D8
:10528600FBA3E0FAA3E0F9EF1213D21275FAEF606E
:10529600037F01221276B6EF60037F01227F002290
:106E0C0090058BEFF0A3EDF0A3EBF090058CE0F088
:106E1C00A3E0F043BA8053BACF90058BE01216FA78
:106E2C006E3C006E3E016E43026E480300006E4BDA
:106E3C00800D43BA10800843BA20800343BA305304
:036E4C00BA7F22E8
:0B32E000900378EFF0A3EDF0A3EBF0FB
:1032EB00A3E0F8A3E0F9A3E0FAA3E0FB90054DE01F
:1032FB00FCA3E0FDA3E0FEA3E0FF121592E47B0428
:10330B00FAF9F8121592C3E49FFFE49E900380F044
:10331B00A3EFF0900378E01216FA33350033CA01AD
:10332B00341502348003000034EF90037FE0640116
:10333B00701F439850A3E0A3E0F58B900380E0FE51
:10334B00A3E0EEF58D438E40D28EE49001CAF0805F
:10335B001E90037FE064027016439850A3E0A3E035
:10336B00F5D7900380E0FEA3E0EEF5D6438E155320
:10337B00A23F900379E07008A3E0640170028037EC
:10338B00900379E06402700BA3E06403700543A221
:10339B00408024900379E06404700BA3E064057013
:1033AB000543A2808011900379E064067009A3E0C5
:1033BB006407700343A2C0E49001CAF0D2AC229020
:1033CB00037FE064027016439A10A3E0A3E0F5D7E5
:1033DB00900380E0FEA3E0EEF5D6438E1453BAFEC5
:1033EB00900379E064087008A3E06409700280110F
:1033FB00900379E0640A7009A3E0640B700343BA8D
:10340B000143AF01E49001CBF02290037FE0640213
:10341B007018439A10A3E0A3E0F5D7900380E0FE69
:10342B00A3E0EEF5D6438E14801E90037FE0640379
:10343B00701643AC50A3E0A3E0F5D5900380E0FEFB
:10344B00A3E0EEF5D443D10A53BAFD900379E064BF
:10345B000C7008A3E0640D70028011900379E06496
:10346B000E7009A3E0640F700343BA0243AF08E484
:10347B009001CCF02290037FE0640270184384101B
:10348B00A3E0A3E0F5D7900380E0FEA3E0EEF5D632
:10349B00438E14801E90037FE064047016438450A7
:1034AB00A3E0A3E0F5D3900380E0FEA3E0EEF5D21A
:1034BB0043D1A053BAFB900379E064107008A3E0EA
:1034CB00641170028016900379E06412700EA3E011
:1034DB0064137008F5CA75C90443BA0443AF10E40A
:0434EB009001CDF08F
:0134EF0022BA
:1063C0009005ABEFF0A3EDF09005ABE01216FA6389
:1063D000DF0063EE0163FD02640C030000641A90A9
:1063E00001CAE070FA04F09005ACE0F59922900142
:1063F000CBE070FA04F09005ACE0F59B229001CC64
:10640000E070FA04F09005ACE0F5AD229001CDE02B
:0B64100070FA04F09005ACE0F5852266
:106FBE009004DFEFF0A3EBF0A3EAF0A3E9F0900466
:106FCE00E374FFF5F01214B945F0601C9004DFE095
:106FDE00FFA3E0FBA3E475F0011214B9A9F0FA12B5
:096FEE00138CFD1263C080D62251
:106F8400900559EFF0A3EBF0A3EAF0A3E9F0900524
:106F94005AE0FBA3E0FAA3E0F912138C601B9005FE
:106FA40059E0FFA3E0A3E475F0011214B9A9F0FAC3
:0A6FB40012138CFD1263C080D52279
:105DED009005ADEFF0A3EDF043BC809005ADE01351
:105DFD001313541F64017026E05407FFF874010853
:105E0D008002C333D8FCF452949005ADE05407FFE3
:105E1D00F87401088002C333D8FC4293802F90059B
:105E2D00ADE0131313541F7024E05407FFF87401F1
:105E3D00088002C333D8FCF452929005ADE05407AC
:105E4D00FFF87401088002C333D8FC42919005AE6F
:095E5D00E0540F42DE43DE202276
:085EDD00900374EFF0A3EDF057
:105EE50053BCF0900374E042BC43BC40E5BC30E5D4
:105EF500FB53BCDFAFBD900376E4F0A3EFF0900356
:105F050076E0A3E0900376F0A3E4F0900376E0FE5C
:105F1500A3E0FFADBEEEEF4DFF900376EEF0A3EFED
:105F2500F0900376E0FEA3E0FF900375E0FDEFA897
:105F350005088005CEC313CE13D8F9FF900376EE7E
:0C5F4500F0A3EFF0900376E0FEA3E0FF75
:015F5100222D
:106A4E009005E8EFF0E01216FA6A6A006A75016ABC
:106A5E0080026A89036A920400006A9AE4F58AF554
:106A6E008C438904D28C22E4F58BF58D438940D278
:106A7E008E22E4F5D7F5D6438E1822E4F5D5F5D45B
:0D6A8E0043D10C22E4F5D3F5D243D1C02250
:0553850090058EEFF021
:10538A00E01216FA53A10053C50153E802540B0365
:10539A00542E040000544FAF8CEF90058FF0A3E415
:1053AA00F0AF8A90058FE0FCA3E0FDECFEEF4DFF25
:1053BA0090058FEEF0A3EFF002544FAF8DEF9005FA
:1053CA008FF0A3E4F0AF8B90058FE0FCA3E0FDEC37
:1053DA00FEEF4DFF90058FEEF0A3EFF08067AFD69A
:1053EA00EF90058FF0A3E4F0AFD790058FE0FCA310
:1053FA00E0FDECFEEF4DFF90058FEEF0A3EFF0809D
:10540A0044AFD4EF90058FF0A3E4F0AFD590058FA9
:10541A00E0FCA3E0FDECFEEF4DFF90058FEEF0A35C
:10542A00EFF08021AFD2EF90058FF0A3E4F0AFD375
:10543A0090058FE0FCA3E0FDECFEEF4DFF90058F99
:0D544A00EEF0A3EFF090058FE0FEA3E0FF71
:015457002232
:106634009005E9EFF0E01216FA665000665A01661A
:106644006402667003667C0400006687C28CE4F50D
:106654008CF58AD28C22C28EE4F58DF58BD28E22F3
:10666400538EEFE4F5D6F5D7438E102253D1F7E4D9
:10667400F5D4F5D543D1082253D17FE4F5D2F5D32F
:0466840043D180225C
:0B4F1F00900539EFF0A3ECF0A3EDF0DB
:104F2A0090053AE0FCA3E0FD7E037FE81214187CAA
:104F3A00007D0C121406AB07AA06E4F9F890054D99
:104F4A00E0FCA3E0FDA3E0FEA3E0FF121592C3E498
:104F5A009FFFE49E90053CF0A3EFF0900539E070C6
:104F6A001790053CE0A3E0F58A90053CE0FEA3E03B
:104F7A00EEF58CD28CD2A922900539E06401701723
:104F8A0090053CE0A3E0F58B90053CE0FEA3E0EE43
:104F9A00F58DD28ED2AB22900539E0640270199059
:104FAA00053CE0A3E0F5D790053CE0FEA3E0EEF572
:104FBA00D6438E1043AF0422900539E0640370197A
:104FCA0090053CE0A3E0F5D590053CE0FEA3E0EEB9
:104FDA00F5D443D10843AF2022900539E064047028
:104FEA001890053CE0A3E0F5D390053CE0FEA3E071
:094FFA00EEF5D243D18043AF4033
:01500300228A
:0529FE0090039CEFF0C6
:102A0300E49003A7F090039CE0FF7D0112257A90E8
:102A1300039CE0FFC4540FFFF87401088002C33322
:102A2300D8FC42F143BA8090039DE0F8A3E0F9A3F8
:102A3300E0FAA3E0FB90054DE0FCA3E0FDA3E0FE7C
:102A4300A3E0FF121592780F1216599003A7EFF027
:102A530090039DE0F8A3E0F9A3E0FAA3E0FB90055F
:102A63004DE0FCA3E0FDA3E0FEA3E0FF121592C03E
:102A730006C0079003A7E02401FFE433FEAB07FA87
:102A83003395E0F9F8D007D0061215929003A5EE1E
:102A9300F0A3EFF09003A1E0FCA3E0FDE41211BA70
:102AA3007B007A40791C784612109FC004C005C091
:102AB30006C0079003A5E0FCA3E0FDE41211BAA849
:102AC30004A905AA06AB07D007D006D005D0041287
:102AD3000F961211F39003A3EEF0A3EFF090039C73
:102AE300E0C39430748094804003022B8E9003A73C
:102AF300E0FD90039CE0FFC4540F75F050A4240242
:102B0300FFE5F034FF8F82F583EDF09003A5E0FC41
:102B1300A3E0FD90039CE0FFC4540F75F050A42480
:102B230000FFE5F034FF8F82F583ECF0A3EDF09026
:102B330003A3E0FCA3E0FD90039CE0FFC4540F75E6
:102B4300F050A42410FBE5F034FFFAE0540F75F0C5
:102B530008A42BFFE5F03A8F82F583ECF0A3EDF0A8
:102B630090039CE0FFC4540F75F050A42414FDE5BA
:102B7300F034FFFCE0540F75F008A42DFFE5F03CA2
:102B83008F82F583E04480F0022C319003A7E0FDAF
:102B930090039CE024D0FFC4540F75F050A424028A
:102BA300FFE5F034FC8F82F583EDF09003A5E0FCA4
:102BB300A3E0FD90039CE024D0FFC4540F75F050B4
:102BC300A42400FFE5F034FC8F82F583ECF0A3ED41
:102BD300F09003A3E0FCA3E0FD90039CE024D0FF6E
:102BE300C4540F75F050A42410FBE5F034FCFAE054
:102BF300540F75F008A42BFFE5F03A8F82F583ECB0
:102C0300F0A3EDF090039CE024D0FFC4540F75F0C3
:102C130050A42414FDE5F034FCFCE0540F75F008D7
:102C2300A42DFFE5F03C8F82F583E04480F0900310
:102C33009CE0FFC4540F1216FA2C52002C57012C9F
:102C43005C022C61032C66042C6B0500002C6E4384
:102C5300F601801743F610801243F701800D43F706
:0E2C630010800843FE01800343FE1053BA7F29
:012C71002240
:0B3F290090053EEFF0A3ECF0A3EDF0DC
:103F340043BA8090053EE0C394307480948040037B
:103F4400023FD6A3E0FCA3E0FDE41211BA7B007AA1
:103F540040791C784612109FC004C005C006C007F3
:103F640090053EE0FFC4540F75F050A42400FFE513
:103F7400F034FF8F82F583E0FCA3E0FDE41211BA74
:103F8400A804A905AA06AB07D007D006D005D0041B
:103F9400120F961211F3900541EEF0A3EFF0900585
:103FA40041E0FCA3E0FD90053EE0FFC4540F75F032
:103FB40050A42410FBE5F034FFFAE0540F75F00828
:103FC400A42BFFE5F03A8F82F583ECF0A3EDF00229
:103FD400406890053FE0FCA3E0FDE41211BA7B00C9
:103FE4007A40791C784612109FC004C005C006C0F0
:103FF4000790053EE024D0FFC4540F75F050A4246C
:1040040000FFE5F034FC8F82F583E0FCA3E0FDE4DF
:104014001211BAA804A905AA06AB07D007D006D086
:1040240005D004120F961211F3900541EEF0A3EFA0
:10403400F0900541E0FCA3E0FD90053EE024D0FFB4
:10404400C4540F75F050A42410FBE5F034FCFAE0DE
:10405400540F75F008A42BFFE5F03A8F82F583EC3A
:07406400F0A3EDF053BA7F59
:01406B002232
:0530C300900362EFF034
:1030C800E4900371F0900363E0F8A3E0F9A3E0FA59
:1030D800A3E0FB90054DE0FCA3E0FDA3E0FEA3E028
:1030E800FF121592780F121659900371EFF09003A2
:1030F80063E0F8A3E0F9A3E0FAA3E0FB90054DE054
:10310800FCA3E0FDA3E0FEA3E0FF121592C006C0F9
:1031180007900371E02401FFE433FEAB07FA33950F
:10312800E0F9F8D007D00612159290036D12168CAC
:10313800900367E0FCA3E0FDE41211BA7B007A403B
:10314800791C784612109FC004C005C006C00790BD
:10315800036DE0FCA3E0FDA3E0FEA3E0FFE4121191
:10316800B5A804A905AA06AB07D007D006D005D094
:1031780004120F961211F390036912168C43BA8049
:10318800900362E0C3943074809480400302321A42
:10319800900371E0FD900362E0FFC4540F75F05096
:1031A800A42402FFE5F034FF8F82F583EDF090034D
:1031B8006DE0A3E0A3E0FEA3E0FDAC06900362E0AF
:1031C800FFC4540F75F050A42400FFE5F034FF8FBE
:1031D80082F583ECF0A3EDF0900369E0A3E0A3E0AF
:1031E800FEA3E0FDAC06900362E0FFC4540F75F047
:1031F80050A42410FBE5F034FFFAE0540F75F008F2
:10320800A42BFFE5F03A8F82F583ECF0A3EDF002F2
:10321800329F900371E0FD900362E024D0FFC45414
:103228000F75F050A42402FFE5F034FC8F82F5837B
:10323800EDF090036DE0A3E0A3E0FEA3E0FDAC0693
:10324800900362E024D0FFC4540F75F050A424000A
:10325800FFE5F034FC8F82F583ECF0A3EDF09003EA
:1032680069E0A3E0A3E0FEA3E0FDAC06900362E002
:1032780024D0FFC4540F75F050A42410FBE5F0349B
:10328800FCFAE0540F75F008A42BFFE5F03A8F82A2
:10329800F583ECF0A3EDF0900362E0FFC4540F1245
:1032A80016FA32C00032C50132CA0232CF0332D414
:1032B8000432D905000032DC43F601801743F610CA
:1032C800801243F701800D43F710800843FE018008
:0732D8000343FE1053BA7F0F
:0132DF0022CC
:10751E004603AE0000000000004603A80000000075
:02752E0000005B
:1060A1009005AFEFF0A3EDF0E4F5D875D9069005B2
:1060B100AFE064017050A3E01216FA60DE0060E206
:1060C1000160E60260EA0360EE0460F20560F60634
:1060D10060FA0760FE0861040900006107E4F5DA6F
:1060E1002275DA422275DA632275DA532275DA7380
:1060F1002275DA202275DA102275DA302275DA4932
:07610100D2DE2275DA4C2208
:0571A000900591EFF0E5
:1071A500E06401701FAFFAEFA3F0A3E4F0AFEA903B
:1071B5000592E0FCA3E0FDECFEEF4DFF900592EE9D
:0C71C500F0A3EFF0900592E0FEA3E0FFC5
:0171D100229B
:0F774C009005EAEFF0E064017004F5F9F5E92229
:0B453B00900543EFF0A3ECF0A3EDF0BF
:10454600C2DEAFF9EFFEADE9EDFFA3EEF0A3EFF0AB
:10455600900543E07075A3E0FCA3E0FD7E037FE8D1
:104566001214187C007D0C121406AB07AA06E4F997
:10457600F890054DE0FCA3E0FDA3E0FEA3E0FF12EA
:104586001592900544EEF0A3EFF0900544E0FEA3EB
:10459600E0FF9003A8EEF0A3EFF075DA49E5E90431
:1045A600F5EA85F9FA9003A8E0FEA3E0FF9003AED2
:1045B600E0FCA3E02FFFEC3EFE900546E0FCA3E006
:1045C6002FFFEE3C9003AEF0A3EFF0900543E064BE
:1045D600017075A3E0FCA3E0FD7E037FE8121418CA
:1045E6007C007D0C121406AB07AA06E4F9F89005C8
:1045F6004DE0FCA3E0FDA3E0FEA3E0FF12159290C0
:104606000544EEF0A3EFF0900544E0FEA3E0FF9032
:1046160003AAEEF0A3EFF075DB49E5E904F5EA85B8
:10462600F9FA9003AAE0FEA3E0FF9003B0E0FCA332
:10463600E02FFFEC3EFE900546E0FCA3E02FFFEEE8
:0A4646003C9003B0F0A3EFF0D2DEC9
:014650002247
:105BDD00900373EFF0E070269003AEE0A3E0F5EADA
:105BED009003AEE0FEA3E0EEF5FA9003A8E0FEA36D
:105BFD00E0FF9003AFE02FF09003AEE03EF0900396
:105C0D0073E0640170269003B0E0A3E0F5EB900320
:105C1D00B0E0FEA3E0EEF5FB9003AAE0FEA3E0FFEB
:105C2D009003B1E02FF09003B0E03EF0900373E0ED
:105C3D00640270269003B2E0A3E0F5EC9003B2E0AD
:105C4D00FEA3E0EEF5FC9003ACE0FEA3E0FF9003B5
:0B5C5D00B3E02FF09003B2E03EF02215
:106CA9009005B1EFF0A3EDF09005B1E07008A3E015
:106CB90024FF9288D2A89005B1E064017008A3E08E
:106CC90024FF928AD2AA9005B1E064027003758FFD
:106CD900109005B1E064037003758F209005B1E051
:086CE90064047003758F402262
:057530004205B7000058
:10734300E47BE07A2EF9F890054DE0FCA3E0FDA381
:10735300E0FEA3E0FF1215929005B7EEF0A3EFF065
:0973630075DC48E4F5D9D2DE2204
:1071D200AFF9EFFEADE9EDFF9005B7E0FCA3E02FBC
:1071E200FFEE3C9005B3F0A3EFF09005B3E0A3E00F
:1071F200F5EC9005B3E0FEA3E0EEF5FC30DAFDC25B
:01720200DAB1
:017203002268
:107591009005B5EEF0A3EFF09005B574FFF5F0128C
:0C75A10014B945F060051271D280ED2293
:105F52009005B9EFF0A3EDF0E0640170309005B95F
:105F6200E0FFC4540F2410FFE434FE8F82F583C097
:105F720083C082E0FF9005B9E0540FFEF874010877
:105F82008002C333D8FC4FD082D083F0229005BA6E
:105F9200E070309005B9E0FFC4540F2410FFE434E0
:105FA200FE8F82F583C083C082E0FF9005B9E05482
:105FB2000FFEF87401088002C333D8FCF45FD0826C
:045FC200D083F02276
:10257A009005BBEFF0A3EDF0E060030226A49005FE
:10258A00BBE054F07025E0540FFFF8740108800294
:10259A00C333D8FCF452939005BBE0540FFFF87490
:1025AA0001088002C333D8FCF452949005BBE0546E
:1025BA00F064107025E0540FFFF87401088002C31C
:1025CA0033D8FCF452919005BBE0540FFFF8740124
:1025DA00088002C333D8FCF452929005BBE054F051
:1025EA0064207025E0540FFFF87401088002C33399
:1025FA00D8FCF452959005BBE0540FFFF87401081B
:10260A008002C333D8FCF452969005BBE054F064C0
:10261A00307025E0540FFFF87401088002C333D8E4
:10262A00FCF452B19005BBE0540FFFF87401088026
:10263A0002C333D8FCF452B29005BBE054F06440B4
:10264A007025E0540FFFF87401088002C333D8FCE8
:10265A00F452B39005BBE0540FFFF87401088002EE
:10266A00C333D8FCF452B49005BBE054F064506014
:10267A00030229FDE0540FFFF87401088002C333F6
:10268A00D8FCF452C99005BBE0540FFFF874010856
:10269A008002C333D8FCF452CA229005BCE064011C
:1026AA0060030227C59005BBE054F07024E0540F84
:1026BA00FFF87401088002C333D8FCF452939005E2
:1026CA00BBE0540FFFF87401088002C333D8FC4200
:1026DA00949005BBE054F064107024E0540FFFF8A6
:1026EA007401088002C333D8FCF452919005BBE010
:1026FA00540FFFF87401088002C333D8FC42929049
:10270A0005BBE054F064207024E0540FFFF8740114
:10271A00088002C333D8FCF452959005BBE0540FED
:10272A00FFF87401088002C333D8FC42969005BBB7
:10273A00E054F064307024E0540FFFF8740108800C
:10274A0002C333D8FCF452B19005BBE0540FFFF832
:10275A007401088002C333D8FC42B29005BBE0542E
:10276A00F064407024E0540FFFF87401088002C33B
:10277A0033D8FCF452B39005BBE0540FFFF8740150
:10278A00088002C333D8FC42B49005BBE054F0641D
:10279A005060030229FDE0540FFFF874010880021B
:1027AA00C333D8FCF452C99005BBE0540FFFF87448
:1027BA0001088002C333D8FC42CA229005BCE064F7
:1027CA000260030228E69005BBE054F07024E0544E
:1027DA000FFFF87401088002C333D8FC42939005B6
:1027EA00BBE0540FFFF87401088002C333D8FCF42D
:1027FA0052949005BBE054F064107024E0540FFF2B
:10280A00F87401088002C333D8FC42919005BBE0FA
:10281A00540FFFF87401088002C333D8FCF45292B3
:10282A009005BBE054F064207024E0540FFFF87464
:10283A0001088002C333D8FC42959005BBE0540FCF
:10284A00FFF87401088002C333D8FCF4529690054D
:10285A00BBE054F064307024E0540FFFF8740108B0
:10286A008002C333D8FC42B19005BBE0540FFFF895
:10287A007401088002C333D8FCF452B29005BBE05D
:10288A0054F064407024E0540FFFF8740108800289
:10289A00C333D8FC42B39005BBE0540FFFF8740170
:1028AA00088002C333D8FCF452B49005BBE054F05C
:1028BA00645060030229FDE0540FFFF87401088098
:1028CA0002C333D8FC42C99005BBE0540FFFF87429
:1028DA0001088002C333D8FCF452CA229005BCE036
:1028EA00640360030229FD9005BBE054F07023E005
:1028FA00540FFFF87401088002C333D8FC42939046
:10290A0005BBE0540FFFF87401088002C333D8FCFA
:10291A0042949005BBE054F064107023E0540FFF1A
:10292A00F87401088002C333D8FC42919005BBE0D9
:10293A00540FFFF87401088002C333D8FC42929006
:10294A0005BBE054F064207023E0540FFFF87401D3
:10295A00088002C333D8FC42959005BBE0540FFFB0
:10296A00F87401088002C333D8FC42969005BBE094
:10297A0054F064307023E0540FFFF87401088002A9
:10298A00C333D8FC42B19005BBE0540FFFF8740181
:10299A00088002C333D8FC42B29005BBE054F0640D
:1029AA00407023E0540FFFF87401088002C333D843
:1029BA00FC42B39005BBE0540FFFF8740108800293
:1029CA00C333D8FC42B49005BBE054F06450702382
:1029DA00E0540FFFF87401088002C333D8FC42C9DF
:1029EA009005BBE0540FFFF87401088002C333D886
:0429FA00FC42CA22AF
:0700460043C7801274092278
:04003E0053C77F2203
:0F775B00E5C75401640170047F0180027F0022A2
:107409007B407A42790F780090054DE0FCA3E0FDBE
:10741900A3E0FEA3E0FF121592EF049005EBF0E064
:02742900F5F577
:01742B00223E
:10641B009004E5EEF0A3EFF0A3EBF0A3EAF0A3E911
:10642B00F075C5019004EAE0FF14F0EF603C9004B6
:10643B00E5E0A3E0F5C49004E5E0FEA3E0EEF5C3D0
:10644B0075C65A75C6A5A3E0FBA3E475F00112143B
:10645B00B9A9F0FAE5C21213D29004E6E004F07089
:0B646B00069004E5E004F00080BA2277
:106476009004EBEEF0A3EFF0A3EBF0A3EAF0A3E9B0
:10648600F075C5029004F0E0FF14F0EF603C900454
:10649600EBE0A3E0F5C49004EBE0FEA3E0EEF5C369
:1064A600A3E0FBA3E475F0011214B9A9F0FA1213E4
:1064B6008CF5C29004ECE004F070069004EBE00466
:0B64C600F075C65A75C6A50080BA220A
:10005E009005BDEEF0A3EFF075C5039005BDE0A3CE
:10006E00E0F5C49005BDE0FEA3E0EEF5C375C65AFB
:05007E0075C6A500227B
:06004D0025640025660099
:1076C7009005ECEFF0C2B5C2B3E0FF12764BD2B52E
:0176D7002290
:1076D8009005EDEFF0C2B5D2B3E0FF12764BD2B50C
:0176E800227F
:0872040090055DEEF0A3EFF030
:10720C0090055DE0FEA3E0EEA3F090055DA3E09099
:10721C000560F0C2B5D2B390055FE0FF12764B90DB
:09722C000560E0FF12764BD2B5BB
:017235002236
:10616F00900469EEF0A3EFF0A3ECF0A3EDF0A3EA37
:10617F00F0A3EBF07F2A1276C7E4FF1276D89004D3
:10618F0069E0A3E02402FF1276D8E4FF1276D890DC
:10619F00046DE0A3E02402FF1276D87F2B1276C79E
:1061AF00E4FF1276D890046BE0A3E004FF1276D8D8
:1061BF00E4FF1276D890046FE0A3E004FF1276D8C4
:0661CF007F2C1276C722AE
:0864D100900561EEF0A3EFF06D
:1064D90090046FE4F0A3749FF07B7F7A00E4FDFCE5
:1064E900FFFE12616FE4900563F0900563E0C394C9
:1064F900A074809480502BE4A3F0900564E0C394C9
:1065090080748094805013900561E0FEA3E0FF122F
:106519007204900564E004F080E0900563E004F003
:0265290080C828
:01652B00224D
:102EA5009004A47412F0E4A3F0A3F0A3F07B117DC9
:102EB500107F0112406CC2B27F0A7E00127591D25A
:102EC500B27F787E001275917F111276C77F787E6A
:102ED500001275917FB11276C77F011276D87F2CCB
:102EE5001276D87F2D1276D87FB21276C77F01125F
:102EF50076D87F2C1276D87F2D1276D87FB31276AE
:102F0500C77F011276D87F2C1276D87F2D1276D8FE
:102F15007F011276D87F2C1276D87F2D1276D87F36
:102F2500B41276C77F071276D87FC01276C77FA204
:102F35001276D87F021276D87F841276D87FC11296
:102F450076C77FC51276D87FC21276C77F0A1276FA
:102F5500D8E4FF1276D87FC31276C77F8A1276D857
:102F65007F2A1276D87FC41276C77F8A1276D87FD9
:102F7500EE1276D87FC51276C77F0E1276D87F36C9
:102F85001276C7E4F5F01217202FA200002FA90032
:102F9500012FB000022FB7000300002FBC7FC01225
:102FA50076D88013E4FF1276D8800C7FA01276D8ED
:102FB50080057F601276D87FE01276C77F0F127684
:102FC500D87F1A1276D87F0F1276D87F181276D846
:102FD5007F2F1276D87F281276D87F201276D87F59
:102FE500221276D87F1F1276D87F1B1276D87F23C0
:102FF5001276D87F371276D8E4FF1276D87F07127B
:1030050076D87F021276D87F101276D87FE11276B5
:10301500C77F0F1276D87F1B1276D87F0F1276D80E
:103025007F171276D87F331276D87F2C1276D87F09
:10303500291276D87F2E1276D87F301276D87F3037
:103045001276D87F391276D87F3F1276D8E4FF12F0
:1030550076D87F071276D87F031276D87F1012763E
:10306500D87F2A1276C7E4FF1276D87F021276D867
:10307500E4FF1276D87F821276D87F2B1276C7E4CA
:10308500FF1276D87F031276D8E4FF1276D87F83B5
:103095001276D87FF01276C77F011276D87FF612A6
:1030A50076C7E4FF1276D87F3A1276C77F05127687
:0E30B500D87F291276C774FFFFFE1264D12265
:106912009004F1EEF0A3EFF0A3ECF0A3EDF0A3EA04
:10692200F0A3EBF09004F1E0FEA3E0FFC006C00785
:10693200A3E0FCA3E0FD9004F1E0FAA3E0FBA3E0F6
:10694200FEA3E0FF90046FEEF0A3EFF0D007D006B5
:0F69520012616F9004F5E0FEA3E0FF12720422C1
:104A6500900471EEF0A3EFF0A3ECF0A3EDF0A3EB4F
:014A7500F050
:104A7600E4A3F0900476E0C394107480948040031D
:104A8600024B57900471E0FEA3E0FFC006C00790FA
:104A96000476E0FF900473E0FCA3E0FDEF2DFDE457
:104AA6003CFCC004C005900471E0A3E02407FBE4CD
:104AB6003EFA900476E0900473E0FCA3E0FDEF2D4F
:104AC600FFE43C90046FF0A3EFF0D005D004D007CC
:104AD600D00612616F900475E0FF3395E0FEEFC4D7
:104AE600F8540FC868FFEEC454F048FE74962FF5CC
:104AF6008274FE3EF583C083C082900476E0D08245
:104B0600D0832582F582E43583F583E49390047897
:104B1600F0E4900477F0900477E0C39408748094EE
:104B2600805025A3E030E0097F007EF812720480F1
:104B36000774FFFFFE127204900478E0FFC313F0BF
:104B4600900477E004F080CE900476E004F0024A08
:014B560079E5
:014B5700223B
:10591300900433EEF0A3EFF0A3ECF0A3EDF0A3EBD0
:07592300F0A3EAF0A3E9F094
:10592A00E4A3F0A3F0900437E0FBA3E0FAA3E0F9C4
:10593A00A3E0FEA3E0F5828E831213A5605B9004B8
:10594A003AE0A3E07803C333CE33CED8F9FF90040C
:10595A0033E0FCA3E02FFFEE3CFEC006A3E0FEA36B
:10596A00E0C4F8540FC868FDEEC454F048FCA3E044
:10597A00FBA3E0FAA3E0F9A3E0FEA3E0F5828E839D
:10598A001213A5FBD006124A6590043BE004F0709E
:09599A000690043AE004F0808C50
:0159A30022E1
:1046510090043CEEF0A3EFF0A3ECF0A3EDF0A3EB9C
:01466100F068
:10466200E03395E0C364809480502C90043CE0FEDB
:10467200A3E0FFC006A3E0FEA3E0C4F8540FC8689D
:10468200FDEEC454F048FCD0067B2D124A6590041E
:1046920040E0F404F0802390043CE0FEA3E0FFC07D
:1046A20006A3E0FEA3E0C4F8540FC868FDEEC454AC
:1046B200F048FCD0067B20124A65900440E0FF756A
:1046C200F06412136A900441F0900440E0FF75F028
:1046D2000A12136AFF75F00A12136AAFF0900442CD
:1046E200EFF0900440E0FF75F00A12136AAFF09009
:1046F2000443EFF0E4A3F0900444E0C39403748015
:1047020094805050E02401FFE433FEEF7803C3337A
:10471200CE33CED8F9FF90043CE0FCA3E02FFFEEAD
:104722003CFEC006A3E0FEA3E0C4F8540FC868FD37
:10473200EEC454F048FC900444E02441F582E43491
:1047420004F583E02430FBD006124A65900444E06D
:0447520004F080A34C
:014756002240
:105A3500900445EEF0A3EFF0A3ECF0A3EDF0A3EB9B
:015A4500F070
:105A4600E075F06484A3F0900449E075F00A84756B
:105A5600F00A8490044BE5F0F0900449E075F00AF2
:105A66008490044CE5F0F0E4A3F090044DE0C39478
:105A760003748094805045E075F008A4FF900445B7
:105A8600E0FCA3E02FFFE5F03CFEC006A3E0FEA38A
:105A9600E0C4F8540FC868FDEEC454F048FC900406
:105AA6004DE0244AF582E43404F583E02430FBD04B
:0C5AB60006124A6590044DE004F080AE3A
:015AC20022C1
:103C79009003B4EEF0A3EFF0A3ECF0A3EDF0A3EA08
:043C8900F0A3EBF0C9
:103C8D009003B8E0FEA3E0C3EE64809480503A90B8
:103C9D0003B4E0FEA3E0FFC006A3E0FEA3E0C4F87A
:103CAD00540FC868FDEEC454F048FCD0067B2D12AD
:103CBD004A659003B8E0FEA3E0FFC3E49FFFE49ED6
:103CCD009003B8F0A3EFF080239003B4E0FEA3E0DF
:103CDD00FFC006A3E0FEA3E0C4F8540FC868FDEED4
:103CED00C454F048FCD0067B20124A659003B8E01E
:103CFD00FEA3E0FF7C277D1012146DA3EFF090035F
:103D0D00B8E0FEA3E0FF7C037DE812146D7C007D1E
:103D1D000A12146D9003BBEDF09003B8E0FEA3E022
:103D2D00FF7C007D6412146D7C007D0A12146D9071
:103D3D0003BCEDF09003B8E0FEA3E0FF7C007D0A2C
:103D4D0012146D7C007D0A12146D9003BDEDF09080
:103D5D0003B8E0FEA3E0FF7C007D0A12146D900312
:103D6D00BEEDF0E4A3F09003BFE0C394057480941E
:103D7D00805050E02401FFE433FEEF7803C333CECF
:103D8D0033CED8F9FF9003B4E0FCA3E02FFFEE3C57
:103D9D00FEC006A3E0FEA3E0C4F8540FC868FDEE14
:103DAD00C454F048FC9003BFE024BAF582E4340318
:103DBD00F583E02430FBD006124A659003BFE00482
:033DCD00F080A3E0
:013DD00022D0
:105004009003C0EEF0A3EFF0A3ECF0A3EDF0A3EA5D
:04501400F0A3EBF02A
:105018009003C4E0FEA3E0FF7C277D10121418A3C0
:10502800EFF09003C4E0FEA3E0FF7C037DE81214D8
:10503800187C007D0A1214189003C7EDF09003C481
:10504800E0FEA3E0FF7C007D641214187C007D0A5A
:105058001214189003C8EDF09003C4E0FEA3E0FF1B
:105068007C007D0A1214187C007D0A121418900323
:10507800C9EDF09003C4E0FEA3E0FF7C007D0A12B6
:1050880014189003CAEDF0E4A3F09003CBE0C394A6
:1050980005748094805045E075F008A4FF9003C023
:1050A800E0FCA3E02FFFE5F03CFEC006A3E0FEA372
:1050B800E0C4F8540FC868FDEEC454F048FC9003EF
:1050C800CBE024C6F582E43403F583E02430FBD03A
:0C50D80006124A659003CBE004F080AEA5
:0150E40022A9
:0E4C4B009002BAEEF0A3EFF0A3ECF0A3EDF0B0
:104C59009002C2E0FFC3740A9F7480F898500374ED
:104C69000AF09002C2E004F09002BEE0FCA3E0FD6D
:104C7900A3E0FEA3E0FFE4FBFAF9F8D312163240F1
:104C8900310B7A0279C39001D174FFF0A37400F05B
:104C9900A3744DF09002BEE0FCA3E0FDA3E0FEA3E7
:104CA900E0FF9001D412168C1217A89002E5EFF0DC
:104CB90080399002C37420F07B017A0279C4900193
:104CC900D174FFF0A37400F0A3744DF09002BEE01C
:104CD900FCA3E0FDA3E0FEA3E0FF9001D412168C33
:104CE9001217A89002E5EFF0E004F09002C2E0FF8D
:104CF9009002E5E0C39F5015E024C3F582E4340235
:104D0900F5837420F09002E5E004F080DE9002C2A1
:104D1900E024C3F582E43402F583E4F09002BAE0BA
:104D2900FEA3E0FFA3E0FCA3E0FD7B017A0279C3C7
:034D3900125913F9
:014D3C002254
:0E36820090022AEEF0A3EFF0A3ECF0A3EDF01F
:10369000900233E0FFC374069F7480F8985003745F
:1036A00006F0900232E0FFC3740A9F7480F89850CD
:1036B00003740AF090022EE0FCA3E0FDA3E0FEA359
:1036C000E0FFE4FBFAF9F812113C603440327B0170
:1036D0007A0279359001D174FFF0A37400F0A374DD
:1036E00050F090022EE0FCA3E0FDA3E0FEA3E0FF7B
:1036F0009001D412168C1217A8900234EFF0803388
:103700007B017A0279369001D174FFF0A37400F046
:10371000A37450F090022EE0FCA3E0FDA3E0FEA312
:10372000E0FF9001D412168C1217A8900234EFF02B
:10373000E004F0900234E024F9900259F090023253
:10374000E0FF900259E0C39F14900257F0900233BB
:10375000E0FF900259E02F04900258F0900257E0E9
:10376000FF3395E0FED3E49FEE6480F874809840C8
:1037700022A3E0FF3395E0FE74352FF58274023EFC
:10378000F5837420F0900258E004F0900257E004B2
:10379000F080C990022EE0FCA3E0FDA3E0FEA3E0D0
:1037A000FFE4FBFAF9F812113C601A401890025736
:1037B000E0FF3395E0FE74352FF58274023EF58309
:1037C000742DF08016900257E0FF3395E0FE7435BB
:1037D0002FF58274023EF5837420F0900258E0FFCA
:1037E0003395E0FE74352FF58274023EF583E4F0E4
:1037F00090022AE0FEA3E0FFA3E0FCA3E0FD7B0132
:073800007A02793512591319
:01380700229E
:0B41AE00900408EBF0A3EAF0A3E9F096
:1041B90074FFFFFE1264D1E490040FF0A3F09004A1
:1041C9000FE0FEA3E0C39404EE64809480400302F0
:1041D90042E3E490040DF0A3F090040DE0FEA3E0A7
:1041E900C39403EE6480948040030242D290040D8C
:1041F900E0A3E0FF7C007D28121406C006C007A3D7
:10420900E0FEA3E0FF121406C006C00790040DE00B
:10421900FEA3E0FF121406EF2427FBE43EFAA3E015
:10422900FEA3E0FF121406EF2427FFE43E90046F7B
:10423900F0A3EFF0D005D004D007D00612616FE4E7
:1042490090040BF0A3F090040BE0FEA3E0C39440AC
:10425900EE64809486506190040BE0A3E025E0FFB2
:10426900EE33FE900408E0FBA3E0FAA3E0F98F82A5
:104279008E831213A5900412F090040BE0FEA3E0C4
:1042890025E0FFEE33FE900408E0A3E0A3E02FF958
:10429900EA3EFA9000011213A5900411F0E0FEA382
:1042A900E0FDEEEDFF12720490040CE004F07006DC
:1042B90090040BE004F0808E90040EE004F0700688
:1042C90090040DE004F00241E2900410E004F07063
:0A42D9000690040FE004F00241C754
:0142E30022B8
:10009600000000000000000000000000000000005A
:1000A6000000000808080808080800000808000002
:1000B6000048242412000000000000000000000098
:1000C6000000004848487E2424247E24242400007E
:1000D6000000103C5252121C30505052523C10102C
:1000E600000000222515150D2A58545452220000EE
:1000F6000000000C1212120A76252919916E0000D2
:1001060000060404020000000000000000000000D9
:1001160000402010100808080808081010204000A9
:10012600000204080810101010101008080402003D
:100136000000000008086B1C1C6B0808000000008B
:100146000000000000101010FE101010000000004B
:100156000000000000000000000000000604040289
:1001660000000000000000007E000000000000000B
:10017600000000000000000000000000060600006D
:100186000000402020201010080808040402020085
:100196000000001824424242424242422418000013
:1001A600000000101C10101010101010107C000021
:1001B6000000003C4242424020100804427E0000FB
:1001C6000000003C4242402018204042423C0000D1
:1001D60000000020303028242422FE2020F80000D1
:1001E6000000007E0202021E22404042221C000045
:1001F600000000182402023A4642424244380000F7
:100206000000007E422020101008080808080000A0
:100216000000003C4242422418244242423C000074
:100226000000001C22424242625C4040241800004A
:100236000000000000001818000000001818000058
:100246000000000000000008000000000008080888
:10025600000000402010080402040810204000009E
:100266000000000000007E00007E0000000000008C
:1002760000000002040810204020100804020000BC
:100286000000003C424246201010100018180000E2
:100296000000001C225A55555555553A423C00005F
:1002A6000000000808181414243C224242E700000B
:1002B6000000001F2222221E22424242221F00006C
:1002C6000000007C4242010101010142221C0000A3
:1002D6000000001F2242424242424242221F0000C8
:1002E6000000003F4212121E12120242423F00005C
:1002F6000000003F4212121E121202020207000004
:100306000000003C2222010101712122221C000072
:10031600000000E7424242427E42424242E700007B
:100326000000003E0808080808080808083E000003
:100336000000007C10101010101010101010110F7B
:100346000000007722120A0E0A12122222770000FB
:10035600000000070202020202020202427F0000BF
:100366000000007736363636362A2A2A2A6B0000EF
:10037600000000E346464A4A525252626247000073
:100386000000001C2241414141414141221C000024
:100396000000003F424242423E02020202070000C3
:1003A6000000001C224141414141414D321C600088
:1003B6000000003F4242423E1212222242C7000083
:1003C6000000007C4242020418204042423E0000E7
:1003D6000000007F4908080808080808081C0000F3
:1003E600000000E74242424242424242423C000092
:1003F600000000E7424222242414141808080000D2
:100406000000006B2A2A2A2A2A3614141414000023
:10041600000000E7422424181818242442E70000AC
:10042600000000772222141408080808081C00009F
:100436000000007E2120101008040442423F000004
:100446000078080808080808080808080808780056
:100456000000020404040808081010202020404070
:10046600001E1010101010101010101010101E008A
:10047600001824000000000000000000000000003A
:1004860000000000000000007E00000000000000E8
:100496000006080000000000000000000000000048
:1004A600000000000000001C22302C22326C0000EC
:1004B600000000000302021A26424242261A0000E9
:1004C6000000000000000038440202024438000028
:1004D600000000006040407C4242424262DC000074
:1004E600000000000000003C42427E02423C000048
:1004F600000000003048083E08080808083E0000D2
:10050600000000000000007C22221C023C42423C0B
:10051600000000000302023A4642424242E700005F
:100526000000000C0C00000E08080808083E000039
:100536000000003030000038202020202020221E1D
:100546000000000003020272120A0E122277000057
:10055600000000080E08080808080808083E000001
:10056600000000000000007F9292929292B7000075
:10057600000000000000003B4642424242E7000005
:10058600000000000000003C42424242423C0000A3
:10059600000000000000001B26424242261A020705
:1005A600000000000000005864424242645840E0E7
:1005B60000000000000000774C040404041F000043
:1005C600000000000000007C42023C40423E000069
:1005D600000000000008083E08080808483000002F
:1005E60000000000000000634242424262DC00005C
:1005F6000000000000000077222214140808000002
:1006060000000000000000DB91525A2A242400005A
:10061600000000000000006E241818182476000060
:1006260000000000000000E742242418180808060D
:10063600000000000000007E22100808447E000032
:1006460000C0202020202020102020202020C000B4
:100656001010101010101010101010101010101094
:10066600000304040404040408040404040403004A
:10067600045A2000000000000000000000000000F6
:100686000000000000000000002F0000000007002E
:10069600070000147F147F1400242A7F2A120062A8
:1006A6006408132300364955225000000503000054
:1006B60000001C224100000041221C000014083EDC
:1006C60008140008083E0808000000A060000008A2
:1006D60008080808000060600000002010080402F6
:1006E600003E5149453E0000427F400000426151B4
:1006F6004946002141454B31001814127F1000274E
:1007060045454539003C4A49493000017109050310
:1007160000364949493600064949291E0000363641
:1007260000000000563600000008142241000014A4
:100736001414141400004122140800020151090681
:1007460000324959513E007C1211127C007F494902
:100756004936003E41414122007F4141221C007F33
:1007660049494941007F09090901003E4149497A41
:10077600007F0808087F0000417F410000204041BB
:100786003F01007F08142241007F40404040007F27
:10079600020C027F007F0408107F003E4141413E6B
:1007A600007F09090906003E4151215E007F0919B3
:1007B60029460046494949310001017F0101003FB0
:1007C6004040403F001F2040201F003F4038403F30
:1007D6000063140814630007087008070061514994
:1007E600454300007F41410000552A552A55000027
:1007F60041417F00000402010204004040404040A5
:10080600000001020400002054545478007F48443C
:10081600443800384444442000384444487F003873
:100826005454541800087E0901020018A4A4A47C9C
:10083600007F080404780000447D40000040808466
:100846007D00007F102844000000417F4000007CAE
:1008560004180478007C08040478003844444438BA
:1008660000FC242424180018242418FC007C080406
:10087600040800485454542000043F444020003CDF
:100886004040207C001C2040201C003C4030403C66
:10089600004428102844001CA0A0A07C00446454F6
:1008A6004C4414141414141400000000000000003A
:1008B6000000000000000000000000F8000000003A
:1008C600000000333000000000100C06100C06007B
:1008D600000000000000000040C07840C0784000E2
:1008E600043F04043F040400007088FC0830000044
:1008F600001820FF211E0000F008F000E01800009C
:1009060000211C031E211E0000F008887000000054
:100916001E2123241927211010160E0000000000A6
:100926000000000000000000000000E018040200C3
:10093600000000071820400000020418E000000034
:100946000040201807000000404080F08040400032
:100956000202010F01020200000000F00000000088
:100966000101011F0101010000000000000000005C
:1009760080B07000000000000000000000000000D1
:10098600000101010101010100000000000000005A
:1009960000303000000000000000000080601804F5
:1009A600006018060100000000E010080810E000D2
:1009B600000F102020100F00001010F8000000009B
:1009C6000020203F202000000070080808887000E2
:1009D6000030282422213000003008888848300062
:1009E6000018202020110E000000C02010F8000082
:1009F60000070424243F240000F80888880808001B
:100A06000019212020110E0000E01088881800002F
:100A1600000F112020110E0000380808C838080001
:100A26000000003F00000000007088080888700081
:100A3600001C222121221C0000E010080810E00002
:100A46000000312222110F00000000C0C00000008B
:100A560000000030300000000000008000000000B0
:100A660000008060000000000000804020100800A8
:100A76000001020408102000404040404040400071
:100A8600040404040404040000081020408000004C
:100A96000020100804020100007048080808F00051
:100AA6000000003036010000C030C828E810E00021
:100AB6000718272423140B000000C038E0000000AC
:100AC600203C23020227382008F888888870000016
:100AD600203F202020110E00C030080808083800EA
:100AE600071820202010080008F808080810E00061
:100AF600203F202020100F0008F88888E808100002
:100B0600203F20202320180008F88888E8081000D5
:100B1600203F200003000000C0300808083800000D
:100B260007182020221E020008F808000008F8080E
:100B3600203F210101213F20000808F80808000095
:100B46000020203F2020000000000808F8080800C8
:100B5600C08080807F00000008F888C02818080040
:100B6600203F20012638200008F808000000000079
:100B7600203F20202020300008F8F800F8F8080070
:100B8600203F003F003F200008F830C00008F8086A
:100B9600203F200007183F00E01008080810E0007A
:100BA6000F10202020100F0008F808080808F00091
:100BB600203F210101010000E01008080810E000B4
:100BC6000F18242438504F0008F888888888700049
:100BD600203F2000030C30200070880808083800E9
:100BE6000038202121221C00180808F808081800DF
:100BF6000000203F2000000008F808000008F80860
:100C0600001F202020201F000878880000C8380810
:100C1600000007380E010000F80800F80008F80088
:100C2600033C0700073C0300081868808068180822
:100C360020302C03032C30200838C800C8380800A0
:100C46000000203F2000000010080808C8380800EF
:100C56002038262120201800000000FE0202020093
:100C66000000007F40404000000C30C00000000043
:100C7600000000010638C00000020202FE0000006B
:100C8600004040407F000000000004020202040011
:100C9600000000000000000000000000000000004E
:100CA6008080808080808080000202040000000036
:100CB600000000000000000000008080808000002E
:100CC6000019242222223F2008F80080800000001C
:100CD600003F112020110E000000008080800000DF
:100CE600000E112020201100000000808088F800EE
:100CF600000E112020103F20000080808080000020
:100D0600001F222222221300008080F08888881883
:100D16000020203F2020000000008080808080008E
:100D2600006B94949493600008F800808080000023
:100D3600203F210000203F200080989800000000FE
:100D46000020203F2020000000000080989800002E
:100D560000C08080807F000008F80000808080004E
:100D6600203F24022D302000000808F80000000073
:100D76000020203F2020000080808080808080002E
:100D8600203F20003F20003F8080008080800000C0
:100D9600203F210000203F2000008080808000004E
:100DA600001F202020201F0080800080800000007F
:100DB60080FFA12020110E000000008080808000AE
:100DC600000E112020A0FF8080808000808080009F
:100DD60020203F21200001000000808080808000CC
:100DE6000033242424241900008080E08080000041
:100DF6000000001F2020000080800000008080008E
:100E0600001F202020103F208080800000808080EE
:100E160000010E300806010080800080008080807E
:100E26000F300C030C300F000080800080808000A3
:100E36000020312E0E3120008080800000808080CE
:100E460080818E701806010000808080808080007E
:100E56000021302C2221300000000000807C02029C
:100E660000000000003F404000000000FF000000BE
:100E760000000000FF0000000002027C800000006D
:100E86000040403F00000000000601010202040489
:080E9600000000000000000054
:1073E400E49005EEF09005EEE064126017E4FB7D96
:1073F400757F691269619005EEEFF07F0A7E0012D5
:04740400759180E11D
:017408002261
:106108007F0A7E001275911273E47B807D6B7F6934
:106118001272997F027E00127591E4FB7D6B7F6994
:10612800126961EF20E7F37B017D6B7F6912729939
:10613800E4FB7D6C7F691272997B017D1A7F69127D
:1061480072997B077D197F691272997B187D1B7F75
:10615800691272997B107D1C7F691272997B037D8D
:076168001D7F6912729922EC
:1067D2007B017A0479F79004C97406F0E4A3F07D92
:1067E2003B7F69125CEC9004F7E0FEA3E0FDEEED66
:1067F200FF9003CCEEF0A3EFF09004F9E0FEA3E0EB
:10680200FDEEEDFF9003CEEEF0A3EFF09004FBE07F
:0F681200FEA3E0FDEEEDFF9003D0EEF0A3EFF05C
:016821002254
:106822007B017A0479FD9004C97406F0E4A3F07D3B
:10683200437F69125CEC9004FDE0FEA3E0FDEEED07
:10684200FF9003D2EEF0A3EFF09004FFE0FEA3E08E
:10685200FDEEEDFF9003D4EEF0A3EFF0900501E022
:0F686200FEA3E0FDEEEDFF9003D6EEF0A3EFF006
:016871002204
:056F0E009005BFEFF04B
:106F1300E4A3F09005C0E0C39408748094805020EB
:106F23009005BFE03392A3E0FF25E0F0C2A5D2A510
:106F3300E0FFA2A4E433FEEF4EF0A3E004F080D31D
:056F43009005BFE0FF16
:016F48002226
:107536009005C1EFF0A3EDF0C2A79005C1E0F0E021
:0F754600FF126F0E9005C2E0FF126F0ED2A72248
:1070D400900565EFF0A3EBF0A3EAF0A3E9F0C2A7F3
:1070E400900565E04480F0E0FF126F0EE4FF126F3C
:1070F4000E900566E0FBA3E0FAA3E0F9EF1213D2C9
:03710400D2A722ED
:0E61D5009004B6EFF0A3EBF0A3EAF0A3E9F01C
:1061E300C2A79004B6E04480F0E0FF126F0EE49083
:1061F30004BBF0A3F09004BAE0FFA3E0FCA3E0C368
:106203009FEC9400502FE4FF126F0E9004B7E0FB55
:10621300A3E0FAA3E0F99004BBE0FCA3E0F5828CD1
:1062230083EF1213E49004BCE004F070069004BB07
:07623300E004F080C0D2A7D7
:01623A002241
:100026007B017A0579EF7F751270D49005EFE06455
:030036001270ED58
:0100390022A4
:1065DF001200267D807F6B1275367F027E0012754A
:1065EF00917B017A0579F07F6B1270D49005F0E002
:1065FF00644170ED7D017F6B127536E41D7F6C1267
:10660F0075360D7F1A1275367D077F191275367D17
:10661F00187F1B1275367D107F1C1275367D037F18
:04662F001D1275368D
:016633002244
:106B33007B017A0579039004BA7406F07F3B1261F6
:106B4300D5900503E0FEA3E0FDEEEDFF9003CCEE50
:106B5300F0A3EFF0900505E0FEA3E0FDEEEDFF905E
:106B630003CEEEF0A3EFF0900507E0FEA3E0FDEE09
:0A6B7300EDFF9003D0EEF0A3EFF069
:016B7D0022F5
:106B7E007B017A0579099004BA7406F07F4312619D
:106B8E00D5900509E0FEA3E0FDEEEDFF9003D2EEF9
:106B9E00F0A3EFF090050BE0FEA3E0FDEEEDFF900D
:106BAE0003D4EEF0A3EFF090050DE0FEA3E0FDEEB2
:0A6BBE00EDFF9003D6EEF0A3EFF018
:016BC80022AA
:10765E009005F1EFF0E0FF12764B9005F1EFF0E0C0
:02766E00FF22F9
:107555009005C3EFF0A3EDF0C2A79005C3E0F0E0FE
:0F756500FF12765E9005C4E0FF12765ED2A72279
:10710700900569EFF0A3EBF0A3EAF0A3E9F0C2A7BB
:10711700900569E04480F0E0FF12765EE4FF1276A6
:107127005E90056AE0FBA3E0FAA3E0F9EF1213D241
:03713700D2A722BA
:0E623B009004BDEFF0A3EBF0A3EAF0A3E9F0AE
:10624900C2A79004BDE04480F0E0FF12765EE490BE
:1062590004C2F0A3F09004C1E0FFA3E0FCA3E0C3F3
:106269009FEC9400502FE4FF12765E9004BEE0FB91
:10627900A3E0FAA3E0F99004C2E0FCA3E0F5828C64
:1062890083EF1213E49004C3E004F070069004C293
:07629900E004F080C0D2A771
:0162A00022DB
:10742C00E49005F2F09005F2E0641260147B017AAE
:10743C000579F27F751271077F0A7E0012759180B3
:01744C00E45B
:01744D00221C
:105E6600E49005F3F07F0AFE1275919004A4741273
:105E7600F0E4A3F0A3F0A3F07B117D107F011240A4
:105E86006C12742C7D807F6B1275557F027E00121A
:105E960075917B017A0579F37F6B1271079005F393
:105EA600E0644170ED7D017F6B127555E4FD7F6CFA
:105EB6001275557D017F1A1275557D077F1912756A
:105EC600557D187F1B1275557D107F1C1275557DEB
:065ED600037F1D1275554B
:015EDC0022A3
:106BC9007B017A05790F9004C17406F07F3B12624C
:106BD9003B90050FE0FEA3E0FDEEEDFF9003CCEE48
:106BE900F0A3EFF0900511E0FEA3E0FDEEEDFF90BC
:106BF90003CEEEF0A3EFF0900513E0FEA3E0FDEE67
:0A6C0900EDFF9003D0EEF0A3EFF0D2
:016C1300225E
:106C14007B017A0579159004C17406F07F431262F2
:106C24003B900515E0FEA3E0FDEEEDFF9003D2EEF0
:106C3400F0A3EFF0900517E0FEA3E0FDEEEDFF906A
:106C440003D4EEF0A3EFF0900519E0FEA3E0FDEE0F
:0A6C5400EDFF9003D6EEF0A3EFF081
:016C5E002213
:0100120022CB
:1075E2009005C5E4F0A37414F09005C574FFF5F09E
:0775F2001214B945F070F21C
:0175F900226F
:0F776A00D2A3D2A51275E2C2A31275E2C2A52264
:10767000C2A3C2A51275E2D2A51275E2D2A31275F9
:02768000E22204
:1074B4009005F4EFF0C2A51275E29005F4E06004C3
:1074C400C2A38002D2A3D2A51275E2C2A51275E2AC
:0174D4002295
:10757400C2A51275E2D2A51275E230A306C2A5E433
:0D758400FEFF22C2A51275E27E007F0122EB
:056FF7009005C7EFF05A
:106FFC00A37408F09005C8E0FF14F0EF6021900531
:10700C00C7E030E704D2A38002C2A39005C7E0FF1B
:10701C0025E0F01275E2D2A51275E2C2A580D51258
:02702C00757479
:01702E00223F
:05658600900594EFF008
:10658B00E4900596F0C2A51275E2D2A3E4900595AE
:10659B00F0900595E0C39408748094805023127595
:1065AB00E2C2A51275E2D2A51275E2900596E0FF44
:1065BB0025E0F030A303E004F0900595E004F080B3
:1065CB00D0C2A51275E2900594E0FF1274B4900549
:0365DB0096E0FF48
:0165DE00229A
:10729900900597EFF0A3EDF0A3EBF012776A900554
:1072A90097E0FF25E0FF126FF7900598E0FF126F56
:0D72B900F7900599E0FF126FF71276702232
:0B69610090056DEFF0A3EDF0A3EBF04C
:10696C0012776A90056DE0FF25E0FF126FF7900536
:10697C006EE0FF126FF790056FE064017003127602
:10698C007012776A90056DE0FF25E04401FF126FED
:10699C00F7E4FF126586900570EFF01276709005A3
:0369AC0070E0FF99
:0169AF0022C5
:105CEC009004C4EFF0A3EDF0A3EBF0A3EAF0A3E96A
:105CFC00F012776A9004C4E0FF25E0FF126FF79072
:105D0C0004C5E0FF126FF79004CAE064017003123F
:105D1C00767012776A9004C4E0FF25E04401FF120C
:105D2C006FF79004C9E014F060207F011265869033
:105D3C0004C6E0FBA3E0FAA3E0F9EF1213D290043F
:105D4C00C7E475F0011214A380D8E4FF12658690A5
:105D5C0004C6E0FBA3E0FAA3E0F9EF1213D212762B
:025D6C007022A3
:1076E9007D017F0E125DED7D0A7C00E4FF12453BB2
:0176F900226E
:0E57E800900548EFF0A3EBF0A3EAF0A3E9F080
:1057F600E4A3F0900548E0FFE4FD1263C09005487D
:10580600E0FF7DFF1263C0900548E0FF7D01126353
:10581600C0900548E0FFE4FD1263C0E490054CF03B
:1058260090054CE0C3948074809480504E90054956
:10583600E0FBA3E0FAA3E0F9A3E075F002A4F58289
:1058460085F0831214CFFF7D00900548E0FF1263B8
:10585600C0900549E0FBA3E0FAA3E0F9A3E075F0E8
:1058660002A4F58285F0831214CFFD900548E0FF6F
:0B5876001263C090054CE004F080A518
:015881002204
:106D8100E4900373F0D2A0C2A1C2A0D2A1D2A0C24A
:106D9100A1F0900373E0C39480748094805027C263
:106DA100A0E4FD7F0E125EDD900373E025E0240177
:106DB100F582E43400F583EEF0A3EFF0D2A0900366
:066DC10073E004F080CC39
:016DC70022A9
:06777900256400256600F6
:1076FA009005F5EFF0C2B5C2B3E0FF12764BD2B5F2
:01770A00225C
:10770B009005F6EFF0C2B5D2B3E0FF12764BD2B5CF
:01771B00224B
:08723600900571EEF0A3EFF0EA
:10723E00900571E0FEA3E0EEA3F0900571A3E0903F
:10724E000574F0C2B5D2B3900573E0FF12764B9081
:09725E000574E0FF12764BD2B575
:017267002204
:103B12009004A47412F0E4A3F0A3F0A3F07B117D4F
:103B2200107F0112406CD2B6C2B3C2B27FC87E000F
:103B3200127591D2B27F647E001275917F36127631
:103B4200FA7FA012770B7F3A1276FA7F0512770B73
:103B52007FB21276FA7F0C12770B7F0C12770BE48E
:103B6200FF12770B7F3312770B7F3312770B7FB7FE
:103B72001276FA7F3512770B7FBB1276FA7F3712F5
:103B8200770B7FC01276FA7F2C12770B7FC21276E8
:103B9200FA7F0112770B7FC31276FA7F1212770B2C
:103BA2007FC41276FA7F2012770B7FC61276FA7FD5
:103BB2000F12770B7FD01276FA7FA412770B7FA1B8
:103BC20012770B7FE01276FA7FD012770B7F041206
:103BD200770B7F0D12770B7F1112770B7F13127702
:103BE2000B7F2B12770B7F3F12770B7F5412770BD1
:103BF2007F4C12770B7F1812770B7F0D12770B7F9A
:103C02000B12770B7F1F12770B7F2312770B7FE14B
:103C12001276FA7FD012770B7F0412770B7F0C1289
:103C2200770B7F1112770B7F1312770B7F2C127792
:103C32000B7F3F12770B7F4412770B7F5112770B6A
:103C42007F2F12770B7F1F12770B7F1F12770B7F4D
:103C52002012770B7F2312770B7F211276FA7F11C6
:103C62001276FA7F787E001275917F291276FA74A5
:073C7200FFFFFE125FC622F6
:1062A100900479EEF0A3EFF0A3ECF0A3EDF0A3EAF4
:1062B100F0A3EBF07F2A1276FA900479E0FEA3E0D6
:1062C1002428FFE43EFE12723690047DE0FEA3E036
:1062D1002428FFE43EFE1272367F2B1276FA9004D8
:1062E1007BE0FEA3E02434FFE43EFE12723690040C
:1062F1007FE0FEA3E02434FFE43EFE1272367F2CE1
:046301001276FA22F4
:085FC600900521EEF0A3EFF0BD
:105FCE0090047FE4F0A37486F07BEF7A00E4FDFC8E
:105FDE00FFFE1262A1E4900523F0A3F0900523E0EA
:105FEE00FEA3E0C394F0EE9400503FE4A3F0A3F0C0
:105FFE00900525E0FEA3E0C39487EE9400501B901D
:10600E000521E0FEA3E0FF127236900526E004F0B3
:10601E007006900525E004F080D6900524E004F08B
:0A602E007006900523E004F080B234
:016038002245
:1069B000900527EEF0A3EFF0A3ECF0A3EDF0A3EA2F
:1069C000F0A3EBF0900527E0FEA3E0FFC006C007B0
:1069D000A3E0FCA3E0FD900527E0FAA3E0FBA3E021
:1069E000FEA3E0FF90047FEEF0A3EFF0D007D00607
:0F69F0001262A190052BE0FEA3E0FF1272362287
:104B5800900481EEF0A3EFF0A3ECF0A3EDF0A3EB4B
:014B6800F05C
:104B6900E4A3F0900486E0C3941074809480400319
:104B7900024C4A900481E0FEA3E0FFC006C0079002
:104B89000486E0FF900483E0FCA3E0FDEF2DFDE443
:104B99003CFCC004C005900481E0A3E02407FBE4C9
:104BA9003EFA900486E0900483E0FCA3E0FDEF2D3B
:104BB900FFE43C90047FF0A3EFF0D005D004D007C8
:104BC900D0061262A1900485E0FF3395E0FEEFC4A0
:104BD900F8540FC868FFEEC454F048FE74962FF5D8
:104BE9008274FE3EF583C083C082900486E0D08241
:104BF900D0832582F582E43583F583E49390048894
:104C0900F0E4900487F0900487E0C39408748094DA
:104C1900805025A3E030E0097F007EF812723680CB
:104C29000774FFFFFE127236900488E0FFC313F089
:104C3900900487E004F080CE900486E004F0024BF3
:014C49006CFE
:014C4A002247
:1059A40090044EEEF0A3EFF0A3ECF0A3EDF0A3EB24
:0759B400F0A3EAF0A3E9F003
:1059BB00E4A3F0A3F0900452E0FBA3E0FAA3E0F918
:1059CB00A3E0FEA3E0F5828E831213A5605B900427
:1059DB0055E0A3E07803C333CE33CED8F9FF900460
:1059EB004EE0FCA3E02FFFEE3CFEC006A3E0FEA3BF
:1059FB00E0C4F8540FC868FDEEC454F048FCA3E0B3
:105A0B00FBA3E0FAA3E0F9A3E0FEA3E0F5828E830B
:105A1B001213A5FBD006124B58900456E004F070FD
:095A2B0006900455E004F0808CA3
:015A3400224F
:10475700900457EEF0A3EFF0A3ECF0A3EDF0A3EB7A
:01476700F061
:10476800E03395E0C364809480502C900457E0FEB9
:10477800A3E0FFC006A3E0FEA3E0C4F8540FC86896
:10478800FDEEC454F048FCD0067B2D124B58900423
:104798005BE0F404F08023900457E0FEA3E0FFC040
:1047A80006A3E0FEA3E0C4F8540FC868FDEEC454A5
:1047B800F048FCD0067B20124B5890045BE0FF7554
:1047C800F06412136A90045CF090045BE0FF75F0EB
:1047D8000A12136AFF75F00A12136AAFF090045DAB
:1047E800EFF090045BE0FF75F00A12136AAFF090E7
:1047F800045EEFF0E4A3F090045FE0C394037480D8
:1048080094805050E02401FFE433FEEF7803C33373
:10481800CE33CED8F9FF900457E0FCA3E02FFFEE8B
:104828003CFEC006A3E0FEA3E0C4F8540FC868FD30
:10483800EEC454F048FC90045FE0245CF582E43454
:1048480004F583E02430FBD006124B5890045FE057
:0448580004F080A345
:01485C002239
:105AC300900460EEF0A3EFF0A3ECF0A3EDF0A3EBF2
:015AD300F0E2
:105AD400E075F06484A3F0900464E075F00A8475C2
:105AE400F00A84900466E5F0F0900464E075F00A2E
:105AF40084900467E5F0F0E4A3F0900468E0C394B4
:105B040003748094805045E075F008A4FF9004600D
:105B1400E0FCA3E02FFFE5F03CFEC006A3E0FEA3FB
:105B2400E0C4F8540FC868FDEEC454F048FC900477
:105B340068E02465F582E43404F583E02430FBD086
:0C5B440006124B58900468E004F080AE9C
:015B50002232
:103DD1009003D8EEF0A3EFF0A3ECF0A3EDF0A3EA8B
:043DE100F0A3EBF070
:103DE5009003DCE0FEA3E0C3EE64809480503A903B
:103DF50003D8E0FEA3E0FFC006A3E0FEA3E0C4F8FD
:103E0500540FC868FDEEC454F048FCD0067B2D1253
:103E15004B589003DCE0FEA3E0FFC3E49FFFE49E64
:103E25009003DCF0A3EFF080239003D8E0FEA3E03D
:103E3500FFC006A3E0FEA3E0C4F8540FC868FDEE7A
:103E4500C454F048FCD0067B20124B589003DCE0AC
:103E5500FEA3E0FF7C277D1012146DA3EFF0900305
:103E6500DCE0FEA3E0FF7C037DE812146D7C007DA1
:103E75000A12146D9003DFEDF09003DCE0FEA3E081
:103E8500FF7C007D6412146D7C007D0A12146D9018
:103E950003E0EDF09003DCE0FEA3E0FF7C007D0A8B
:103EA50012146D7C007D0A12146D9003E1EDF09003
:103EB50003DCE0FEA3E0FF7C007D0A12146D900395
:103EC500E2EDF0E4A3F09003E3E0C394057480947D
:103ED500805050E02401FFE433FEEF7803C333CE76
:103EE50033CED8F9FF9003D8E0FCA3E02FFFEE3CDA
:103EF500FEC006A3E0FEA3E0C4F8540FC868FDEEBB
:103F0500C454F048FC9003E3E024DEF582E4340376
:103F1500F583E02430FBD006124B589003E3E00410
:033F2500F080A386
:013F28002276
:1050E5009003E4EEF0A3EFF0A3ECF0A3EDF0A3EA58
:0450F500F0A3EBF049
:1050F9009003E8E0FEA3E0FF7C277D10121418A3BB
:10510900EFF09003E8E0FEA3E0FF7C037DE81214D2
:10511900187C007D0A1214189003EBEDF09003E857
:10512900E0FEA3E0FF7C007D641214187C007D0A78
:105139001214189003ECEDF09003E8E0FEA3E0FFF1
:105149007C007D0A1214187C007D0A121418900341
:10515900EDEDF09003E8E0FEA3E0FF7C007D0A128C
:1051690014189003EEEDF0E4A3F09003EFE0C3947C
:1051790005748094805045E075F008A4FF9003E41D
:10518900E0FCA3E02FFFE5F03CFEC006A3E0FEA390
:10519900E0C4F8540FC868FDEEC454F048FC90030D
:1051A900EFE024EAF582E43403F583E02430FBD010
:0C51B90006124B589003EFE004F080AEAB
:0151C50022C7
:0E4D3D009002E6EEF0A3EFF0A3ECF0A3EDF091
:104D4B009002EEE0FFC3740A9F7480F898500374CE
:104D5B000AF09002EEE004F09002EAE0FCA3E0FD22
:104D6B00A3E0FEA3E0FFE4FBFAF9F8D312163240FE
:104D7B00310B7A0279EF9001D174FFF0A37477F0C5
:104D8B00A37479F09002EAE0FCA3E0FDA3E0FEA39C
:104D9B00E0FF9001D412168C1217A8900311EFF0BC
:104DAB0080399002EF7420F07B017A0279F0900148
:104DBB00D174FFF0A37477F0A37479F09002EAE05A
:104DCB00FCA3E0FDA3E0FEA3E0FF9001D412168C40
:104DDB001217A8900311EFF0E004F09002EEE0FF41
:104DEB00900311E0C39F5015E024EFF582E43402E9
:104DFB00F5837420F0900311E004F080DE9002EE56
:104E0B00E024EFF582E43402F583E4F09002E6E06F
:104E1B00FEA3E0FFA3E0FCA3E0FD7B017A0279EFA8
:034E2B001259A475
:014E2E002261
:0E38080090025AEEF0A3EFF0A3ECF0A3EDF067
:10381600900263E0FFC374069F7480F898500374A7
:1038260006F0900262E0FFC3740A9F7480F8985015
:1038360003740AF090025EE0FCA3E0FDA3E0FEA3A1
:10384600E0FFE4FBFAF9F812113C603440327B01E8
:103856007A0279659001D174FFF0A37477F0A374AE
:103866007CF090025EE0FCA3E0FDA3E0FEA3E0FF97
:103876009001D412168C1217A8900264EFF08033D0
:103886007B017A0279669001D174FFF0A37477F018
:10389600A3747CF090025EE0FCA3E0FDA3E0FEA32F
:1038A600E0FF9001D412168C1217A8900264EFF074
:1038B600E004F0900264E024F9900289F09002623C
:1038C600E0FF900289E0C39F14900287F0900263A4
:1038D600E0FF900289E02F04900288F0900287E0D2
:1038E600FF3395E0FED3E49FEE6480F87480984041
:1038F60022A3E0FF3395E0FE74652FF58274023E45
:10390600F5837420F0900288E004F0900287E004CA
:10391600F080C990025EE0FCA3E0FDA3E0FEA3E018
:10392600FFE4FBFAF9F812113C601A40189002877E
:10393600E0FF3395E0FE74652FF58274023EF58351
:10394600742DF08016900287E0FF3395E0FE7465D3
:103956002FF58274023EF5837420F0900288E0FF12
:103966003395E0FE74652FF58274023EF583E4F02C
:1039760090025AE0FEA3E0FFA3E0FCA3E0FD7B017A
:073986007A0279651259A4D1
:01398D002217
:1072C600E4FB7D6B7F681272997B077D197F6812DC
:1072D6007299E4FB7D197F68126961EF64076009A2
:0A72E6007F017E0012759180E922FD
:106C5F007F647E001275911272C6E4FB7D6B7F68B4
:106C6F001272997B077D197F681272997B047D1AC6
:106C7F007F681272997B187D1B7F681272997B1047
:106C8F007D1C7F68127299E4FB7D6A7F681272998E
:0A6C9F007B027D377F681272992294
:106872007B017A05792D9004C97406F0E4A3F07DBA
:106882003B7F68125CEC90052DE0FEA3E0FDEEED8F
:10689200FF9003F0EEF0A3EFF090052FE0FEA3E0EF
:1068A200FDEEEDFF9003F2EEF0A3EFF0900531E084
:0F68B200FEA3E0FDEEEDFF9003F4EEF0A3EFF098
:0168C10022B4
:1068C2007B017A0579339004C97406F0E4A3F07D64
:1068D200437F68125CEC900533E0FEA3E0FDEEED31
:1068E200FF9003F6EEF0A3EFF0900535E0FEA3E093
:1068F200FDEEEDFF9003F8EEF0A3EFF0900537E028
:0F690200FEA3E0FDEEEDFF9003FAEEF0A3EFF041
:016911002263
:0A0016002D0020002564002566007F
:05702F009005C9EFF01F
:10703400A37408F0C2B5D2B3C2A59005CAE0FF1488
:10704400F0EF601B9005C9E030E704D2A38002C2D0
:10705400A3D2A5C2A59005C9E0FF25E0F080DBD24C
:01706400B576
:017065002208
:057066009005CBEFF0E6
:10706B00A37406F0C2B5D2B3C2A59005CCE0FF1451
:10707B00F0EF601B9005CBE030E704D2A38002C297
:10708B00A3D2A5C2A59005CBE0FF25E0F080DBD213
:01709B00B53F
:01709C0022D1
:05709D009005CDEFF0AD
:1070A200A37408F0C2B5C2B3C2A59005CEE0FF1426
:1070B200F0EF601B9005CDE030E704D2A38002C25E
:1070C200A3D2A5C2A59005CDE0FF25E0F080DBD2DA
:0170D200B508
:0170D300229A
:105C68009004CBEEF0A3EFF0A3EBF0A3EAF0A3E9E6
:015C7800F03B
:105C79009004D17406F09004CDE0FBA3E0FAA3E010
:105C8900F99004D1E0F582758300E41213E49004DD
:105C9900D1E0604E14F09004CBE0FEA3E0FF7C005D
:105CA9007D0A1214189004D0EDF09004CBE0FEA305
:105CB900E0FF7C007D0A1214189004CBEEF0A3EFEC
:105CC900F09004D0E02430FF9004CDE0FBA3E0FA8B
:105CD900A3E0F99004D1E0F582758300EF1213E493
:025CE90080AC8D
:015CEB002296
:10574100D2B5D2A5C2B27F327E00127591D2B27F9C
:10575100AE12709DE4FF12709D7F1012709D7F400C
:1057610012709D7F8112709D7F7F12709D7FA112AB
:10577100709D7FC812709D7FA612709D7FA81270C8
:105781009D7F3F12709D7FD312709DE4FF12709D2B
:105791007FD512709D7F8012709D7FD912709D7F81
:1057A100F112709D7FDA12709D7F1212709D7FDB66
:1057B10012709D7F4012709D7F2012709D7F02129A
:1057C100709D7F8D12709D7F1412709D7FA4127049
:1057D1009D7FA612709D7FAF12709DE4FF126781BD
:0757E100E4FDFF1272F0224B
:1072F0009005CFEFF0A3EDF0E024B0FF12709D9069
:1073000005CFE054F0FFC4540F4410FF12709D905D
:0A73100005CFE0540FFF12709D221C
:0567810090059AEFF005
:10678600E4A3F090059BE0C3940874809480503B8A
:10679600E024B0FF12709D7F0112709D7F10127071
:1067A6009DE490059CF090059CE0C39480748094D1
:1067B60080501090059AE0FF12702F90059CE0041F
:0B67C600F080E390059BE004F080B839
:0167D10022A5
:106E4F0090059DEFF0A3EDF0A3EBF090059DE0FF13
:106E5F00A3E0FD1272F090059EE024B0FF12709D2A
:106E6F0090059DE054F0FFC4540F4410FF12709D25
:106E7F0090059DE0540FFF12709D90059FE0FF124B
:036E8F00702F223F
:106ED1009005D1EFF0A3EDF09005D1E0FFA3E0FD27
:106EE1001272F09005D2E024B0FF12709D9005D18E
:106EF100E054F0FFC4540F4410FF12709D9005D16F
:0D6F0100E0540FFF12709DE4FF12702F226C
:1055D500900489EFF0A3EDF0A3EBF0A3EAF0A3E9C3
:0155E500F0D5
:1055E600E4A3F0A3F0A3F090048BE0FBA3E0FAA3FE
:1055F600E0F9900490E0F5827583001213A570031C
:1056060002568F90048BE0A3E0A3E0900490E0F5AF
:10561600827583001213A524E090048EF09004890D
:10562600E0D3947E748094804006E4F0A3E004F016
:10563600900489E0FFA3E0FD1272F0E490048FF07D
:1056460090048FE0C3940674809480502CE0FF9001
:10565600048EE075F006A42486F582E5F03406F59E
:1056660083E5822FF582E43583F583E493FF127098
:105676002F90048FE004F080C7900489E02406F0A0
:09568600900490E004F00255EDDF
:01568F0022F8
:10485D00900491EFF0A3EDF0A3EBF0A3EAF0A3E940
:01486D00F05A
:10486E00E4A3F0A3F0A3F0900493E0FBA3E0FAA37B
:10487E00E0F9900498E0F5827583001213A5700399
:10488E00024961900493E0A3E0A3E0900498E0F560
:10489E00827583001213A524E0900496F090049183
:1048AE00E0D39478748094804006E4F0A3E004F0A2
:1048BE00900491E0FFA3E0FD1272F0E4900497F0F3
:1048CE00900497E0C3940874809480502CE0FF907D
:1048DE000496E075F010A42FF582E435F0F583E52B
:1048EE008224AEF582E5833408F583E493FF1270DB
:1048FE002F900497E004F080C7900491E0FFA3E0AE
:10490E0004FD1272F0E4900497F0900497E0C394C3
:10491E000874809480502CE0FF900496E075F0109F
:10492E00A42FF582E435F0F583E58224B6F582E511
:10493E00833408F583E493FF12702F900497E004FC
:10494E00F080C7900491E02408F0900498E004F001
:03495E0002487597
:014961002233
:0E726800900413EFF0A3EDF0A3EAF0A3EBF017
:10727600900415E0FEA3E0FF7B017A047917125C07
:1072860068900413E0FFA3E0FD7B017A04791812ED
:0272960055D5CC
:0172980022D3
:0E5D6E0090041EEFF0A3EDF0A3EAF0A3EBF01B
:105D7C00900420E0FEA3E0C3EE6480948050279052
:105D8C000420E0A3E0FFC3E49FFFE49E900420F016
:105D9C00A3EFF090041EE0FFA3E0FD7BFF7A0079F7
:105DAC00161255D5801190041EE0FFA3E0FD7BFF79
:105DBC007A0079181255D590041EE02406F0900450
:105DCC0020E0FEA3E0FF7B017A047922125C68904C
:105DDC00041EE0FFA3E0FD7B017A0479231255D564
:015DEC002294
:0E4E2F00900312EEF0A3EFF0A3ECF0A3EDF071
:104E3D0090031AE0FFC3740A9F7480F898500374AE
:104E4D000AF090031AE004F0900316E0FCA3E0FDD5
:104E5D00A3E0FEA3E0FFE4FBFAF9F8D3121632400B
:104E6D00310B7A03791B9001D174FFF0A37400F01C
:104E7D00A3741AF0900316E0FCA3E0FDA3E0FEA3DB
:104E8D00E0FF9001D412168C1217A890033DEFF09D
:104E9D00803990031B7420F07B017A03791C9001FB
:104EAD00D174FFF0A37400F0A3741AF0900316E010
:104EBD00FCA3E0FDA3E0FEA3E0FF9001D412168C4D
:104ECD001217A890033DEFF0E004F090031AE0FFF5
:104EDD0090033DE0C39F5015E0241BF582E434039D
:104EED00F5837420F090033DE004F080DE90031A0A
:104EFD00E0241BF582E43403F583E4F0900312E023
:104F0D00A3E0FFA3E0A3E0FD7B017A03791B12551B
:014F1D00D5BE
:014F1E002270
:0E398E0090028AEEF0A3EFF0A3ECF0A3EDF0B0
:10399C00900293E0FFC374069F7480F898500374F0
:1039AC0006F0900292E0FFC3740A9F7480F898505E
:1039BC0003740AF090028EE0FCA3E0FDA3E0FEA3EA
:1039CC00E0FFE4FBFAF9F812113C603440327B0161
:1039DC007A0279959001D174FFF0A37400F0A3746E
:1039EC001DF090028EE0FCA3E0FDA3E0FEA3E0FF3F
:1039FC009001D412168C1217A8900294EFF0803319
:103A0C007B017A0279969001D174FFF0A37400F0D7
:103A1C00A3741DF090028EE0FCA3E0FDA3E0FEA3D6
:103A2C00E0FF9001D412168C1217A8900294EFF0BC
:103A3C00E004F0900294E024F99002B9F090029224
:103A4C00E0FF9002B9E0C39F149002B7F09002938C
:103A5C00E0FF9002B9E02F049002B8F09002B7E0BA
:103A6C00FF3395E0FED3E49FEE6480F874809840B9
:103A7C0022A3E0FF3395E0FE74952FF58274023E8D
:103A8C00F5837420F09002B8E004F09002B7E004E3
:103A9C00F080C990028EE0FCA3E0FDA3E0FEA3E061
:103AAC00FFE4FBFAF9F812113C601A40189002B7C7
:103ABC00E0FF3395E0FE74952FF58274023EF5839A
:103ACC00742DF080169002B7E0FF3395E0FE7495EC
:103ADC002FF58274023EF5837420F09002B8E0FF5B
:103AEC003395E0FE74952FF58274023EF583E4F075
:103AFC0090028AE0A3E0FFA3E0A3E0FD7B017A0241
:053B0C0079951255D56A
:013B11002291
:101F6C00900351EEF0A3EFF0A3ECF0A3EDF0A3EB94
:071F7C00F0A3EAF0A3E9F075
:101F8300900351E0A3E05407FF90035FE4F0A3EF55
:101F9300F090035FE0FEA3E04E701B900351E0FE60
:101FA300A3E07803CEC313CE13D8F9FF90035DEEFD
:101FB300F0A3EFF0801C900351E0FEA3E07803CE82
:101FC300C313CE13D8F92401FFE43E90035DF0A3BD
:101FD300EFF0E4900359F0A3F090035DE0FEA3E07B
:101FE300FF900359E0FCA3E0C39FEE6480F8EC6428
:101FF30080984003022579900359E0A3E0FDE4FFB4
:102003001272F0E490035BF0A3F0900353E0FEA39D
:10201300E0FF90035BE0FCA3E0C39FEC9E40030260
:102023002568E4900361F090035DE0FEA3E024FFE4
:10203300FFEE34FFFE900359E0FCA3E0C39FEE6480
:1020430080F8EC648098401990035FE0FEA3E04EB3
:10205300600F90035FE0A3E09401EE6480948040FE
:102063005C900361E0FFC007900359E0FEA3E078B2
:1020730003C333CE33CED8F9FF900353E0FCA3E080
:10208300FD121406A3E0FBA3E0FAA3E02FF9EA3E56
:10209300FA90035BE0FEA3E029F9EA3EFA12138CFF
:1020A300FF900358E0FEEFD39E40067F017E018040
:1020B300047F007E00D007EF4E900361F090035D34
:1020C300E0FEA3E024FFFFEE34FFFE900359E0FCA3
:1020D300A3E0C39FEE6480F8EC64809840199003FA
:1020E3005FE0FEA3E04E600F90035FE0A3E0940285
:1020F300EE648094804066900361E0FFC007900324
:1021030059E0FEA3E07803C333CE33CED8F9FF9072
:102113000353E0FCA3E0FD121406A3E0FBA3E0FAE3
:10212300A3E02FF9EA3EFA90035BE0FEA3E029F96E
:10213300EA3EFA900353E0FEA3E029F9EA3EFA12DD
:10214300138CFF900358E0FEEFD39E40047F018081
:10215300027F00EF25E0D0074F900361F090035D0D
:10216300E0FEA3E024FFFFEE34FFFE900359E0FC02
:10217300A3E0C39FEE6480F8EC6480984019900359
:102183005FE0FEA3E04E600F90035FE0A3E09403E3
:10219300EE64809480406F900361E0FFC00790037A
:1021A30059E0FEA3E07803C333CE33CED8F9FF90D2
:1021B3000353E0FCA3E0FD121406A3E0FBA3E0FA43
:1021C300A3E02FF9EA3EFA90035BE0FEA3E029F9CE
:1021D300EA3EFA900353E0FEA3E025E0FFEE33FE70
:1021E300E92FF9EA3EFA12138CFF900358E0FEEF51
:1021F300D39E40047F0180027F00EF25E025E0D0DD
:10220300074F900361F090035DE0FEA3E024FFFF1E
:10221300EE34FFFE900359E0FCA3E0C39FEE64801D
:10222300F8EC648098401990035FE0FEA3E04E60F1
:102233000F90035FE0A3E09404EE64809480406D0C
:10224300900361E0FFC007900359E0FEA3E0780329
:10225300C333CE33CED8F9FF900353E0FCA3E0FDA4
:10226300121406A3E0FBA3E0FAA3E02FF9EA3EFA77
:1022730090035BE0FEA3E029F9EA3EFA900353E002
:10228300FEA3E0F5828E8374031216C91213A5FF11
:10229300900358E0FEEFD39E40047F0180027F004D
:1022A300EF33333354F8D0074F900361F090035D5D
:1022B300E0FEA3E024FFFFEE34FFFE900359E0FCB1
:1022C300A3E0C39FEE6480F8EC6480984019900308
:1022D3005FE0FEA3E04E600F90035FE0A3E0940590
:1022E300EE648094804070900361E0FFC007900328
:1022F30059E0FEA3E07803C333CE33CED8F9FF9081
:102303000353E0FCA3E0FD121406A3E0FBA3E0FAF1
:10231300A3E02FF9EA3EFA90035BE0FEA3E029F97C
:10232300EA3EFA900353E0FEA3E07802C333CE33D0
:10233300CED8F929F9EA3EFA12138CFF900358E03C
:10234300FEEFD39E40047F0180027F00EFC454F070
:10235300D0074F900361F090035DE0FEA3E024FFFC
:10236300FFEE34FFFE900359E0FCA3E0C39FEE644D
:1023730080F8EC648098401990035FE0FEA3E04E80
:10238300600F90035FE0A3E09406EE6480948040C6
:102393006C900361E0FFC007900359E0FEA3E0786F
:1023A30003C333CE33CED8F9FF900353E0FCA3E04D
:1023B300FD121406A3E0FBA3E0FAA3E02FF9EA3E23
:1023C300FA90035BE0FEA3E029F9EA3EFA90035397
:1023D300E0FEA3E0F5828E8374051216C91213A5DD
:1023E300FF900358E0FEEFD39E40047F0180027FFD
:1023F30000EFC43354E0D0074F900361F090035DC6
:10240300E0FEA3E024FFFFEE34FFFE900359E0FC5F
:10241300A3E0C39FEE6480F8EC64809840199003B6
:102423005FE0FEA3E04E600F90035FE0A3E094073C
:10243300EE64809480406D900361E0FFC0079003D9
:1024430059E0FEA3E07803C333CE33CED8F9FF902F
:102453000353E0FCA3E0FD121406A3E0FBA3E0FAA0
:10246300A3E02FF9EA3EFA90035BE0FEA3E029F92B
:10247300EA3EFA900353E0FEA3E0F5828E837406EE
:102483001216C91213A5FF900358E0FEEFD39E4026
:10249300047F0180027F00EFC4333354C0D0074F61
:1024A300900361F090035DE0FEA3E024FFFFEE34B0
:1024B300FFFE900359E0FCA3E0C39FEE6480F8ECB9
:1024C300648098401990035FE0FEA3E04E600F9094
:1024D300035FE0A3E09408EE64809480406E900371
:1024E30061E0FFC007900359E0FEA3E07803C33324
:1024F300CE33CED8F9FF900353E0FCA3E0FD1214D2
:1025030006A3E0FBA3E0FAA3E02FF9EA3EFA900367
:102513005BE0FEA3E029F9EA3EFA900353E0FEA351
:10252300E0F5828E8374071216C91213A5FF900378
:1025330058E0FEEFD39E40047F0180027F00EFC48A
:102543003333335480D0074F900361F0900361E03D
:10255300FF12702F90035CE004F0700690035BE0C1
:1025630004F002200D90035AE004F0700690035922
:06257300E004F0021FDC91
:01257900223F
:0B52A600900382EFF0A3EDF0A3EBF00B
:1052B100E4900389F0A3F0900388E0FFA3E0FCA34E
:1052C100E0C39F7480F8EC6480984003025384E447
:1052D100A3F0A3F0900384E0FF131313541FFF9076
:1052E100038BE0FCA3E0C39F7480F8EC64809840DA
:1052F10003025373900389E0A3E0FF900384E0FE6F
:10530100EF8EF0A4FF900382E02FFF90038BE0A3C8
:10531100E0FE900383E0FDEE2DFD1272F0E49003B8
:105321008DF0A3F090038DE0FEA3E0C39410EE6432
:10533100809480502C900385E0FBA3E0FAA3E0F970
:1053410012138CFF12702F900386E475F001121472
:10535100A390038EE004F0700690038DE004F080CA
:10536100C390038CE004F0700690038BE004F0021C
:1053710052D590038AE004F07006900389E004F0AE
:035381000252B81D
:015384002206
:08736C009005A0EEF0A3EFF084
:107374009005A074FFF5F01214B945F06012900561
:10738400A27409F09005A2E014F060E480F680E0B5
:0173940022D6
:056F49009005D3EFF0FC
:106F4E00E4A3F09005D4E0C394087480948050209C
:106F5E009005D3E03392A5E0FF25E0F0C2A7D2A7BB
:106F6E00E0FFA2A6E433FEEF4EF0A3E004F080D3E0
:056F7E009005D3E0FFC7
:016F830022EB
:1074D5009005D5EFF0A3EDF0C2A49005D5E044806A
:1074E500F0E0FF126F499005D6E0FF126F49D2A474
:0174F5002274
:10713A00900575EFF0A3EBF0A3EAF0A3E9F0C2A47F
:10714A00900575E04440F0E0FF126F49E4FF126FCA
:10715A0049900576E0FBA3E0FAA3E0F9EF1213D217
:03716A00D2A4228A
:086A9B009005A3EFF0A3EDF05C
:106AA300C2A49005A3E04480F0E0FF126F49900573
:106AB300A4E0FF126F49D2A47F017E0012736CC25F
:106AC300A4E41F126F499005A5EFF0E4FF126F498C
:106AD300D2A49005A5E0FF9005A4E06F60037F01B9
:036AE300227F000F
:016AE600228D
:106CF100900579EFF0A3EBF0A3EAF0A3E9F0C2A4C9
:106D0100900579E04440F0E0FF126F49E4FF126F13
:106D110049D2A47F017E0012736CC2A4E41F126FDA
:106D21004990057AE0FBA3E0FAA3E0F9EF1213D250
:086D3100E4FF126F49D2A42215
:106688009005D7EEF0A3EFF09005D7E0FEA3E0FF6A
:10669800C3E49FFF74109E9005D7F0A3EFF0900518
:1066A800D7E0FEA3E0C4F8540FC868FFEEC454F066
:1066B800489005D7F0A3EFF09005D7E0A3E0FDE4FC
:1066C800FF126A9B9005D7E0FEA3E0EEFD7F011262
:0366D8006A9B2298
:1069FF00C2A4E4FF126F499005D9E4F0A3EFF09021
:106A0F0005D9E0A3E09005D9F0A3E4F09005D9E013
:106A1F00FCA3E0FDE4FF126F49ECFEED4FFF900584
:106A2F00D9EEF0A3EFF0D2A49005D9E0FEA3E0FFDA
:0E6A3F00EEC4F854F0C868FEEFC4540F48FFD0
:016A4D002226
:107610007B017A0579F77F06126CF19005F7E0643B
:037620001C70EDEE
:017623002244
:10771C00127610E4FD7F09126A9BE4FFFE12668864
:01772C00223A
:107682009005F8EFF0E0FF12764B9005F8EFF0E08E
:02769200FF22D5
:1074F6009005DBEFF0A3EDF0C2A29005DBE044803F
:10750600F0E0FF1276829005DCE0FF127682D2A2CE
:017516002252
:10716D0090057DEFF0A3EBF0A3EAF0A3E9F0C2A246
:10717D0090057DE04440F0E0FF127682E4FF126F4F
:10718D004990057EE0FBA3E0FAA3E0F9EF1213D2DC
:03719D00D2A22259
:086AE7009005A6EFF0A3EDF00D
:106AEF00C2A29005A6E04480F0E0FF1276829005E6
:106AFF00A7E0FF127682D2A27F017E0012736CC2D2
:106B0F00A2E41F1276829005A8EFF0E4FF127682BE
:106B1F00D2A29005A8E0FF9005A7E06F60037F0168
:036B2F00227F00C2
:016B32002240
:106D3900900581EFF0A3EBF0A3EAF0A3E9F0C2A27A
:106D4900900581E04440F0E0FF127682E4FF12767C
:106D590082D2A27F017E0012736CC2A2E41F127656
:106D690082900582E0FBA3E0FAA3E0F9EF1213D2C7
:086D7900E4FF127682D2A2228F
:1066DB009005DDEEF0A3EFF09005DDE0FEA3E0FF0B
:1066EB00C3E49FFF74109E9005DDF0A3EFF09005BF
:1066FB00DDE0FEA3E0C4F8540FC868FFEEC454F00D
:10670B00489005DDF0A3EFF09005DDE0A3E0FDE49C
:10671B00FF126AE79005DDE0FEA3E0EEFD7F0112BC
:03672B006AE722F8
:10630500E49005DFF0A3F0C2A2FF1276829005DFCC
:10631500E4F0A3EFF09005DFE0A3E09005DFF0A344
:10632500E4F09005DFE0FEA3E0FFC006C007E4FF50
:10633500127682EFFDD007D006EEEF4DFF9005DF18
:10634500EEF0A3EFF0D2A29005DFE0FEA3E0FFEEB2
:0D635500C4F854F0C868FEEFC4540F48FFB0
:016362002218
:107624007B017A0579F97F06126D399005F9E064DA
:037634001C70EDDA
:017637002230
:1073BD009004A47420F0E4A3F0A3F0A3F07B207D4F
:1073CD00207F0212406C127624E4FD7F09126AE7D9
:0773DD00E4FFFE1266DB2253
:1075C80090037B1216980001C20090037F7404F0A8
:0A75D8007B117D107F031232E022C8
:105518009004D2EBF0A3EAF0A3E9F0A312168CE40E
:105528007F1EFEFDFC9004D5E0F8A3E0F9A3E0FAA5
:10553800A3E0FBD3121648405A30870F9004D5E0F9
:10554800FCA3E0FDA3E0FEA3E0FF229004D2E0FB71
:10555800A3E0FAA3E0F99004E3E4F0A3741EF07F5B
:1055680003126FBE9004D3E475F01E1214A39004C6
:10557800D5E0FCA3E0FDA3E0FEA3E0C3941EFFEE8C
:105588009400FEED9400FDEC9400FC9004D51216F6
:105598008C808C30870F9004D5E0FCA3E0FDA3E05D
:1055A800FEA3E0FF229004D2E0FBA3E0FAA3E0F917
:1055B800A3E0A3E0A3E0FEA3E0FF9004E3EEF0A3E2
:0D55C800EFF07F03126FBEE4FFFEFDFC223A
:0E545800900499EBF0A3EAF0A3E9F0A3EDF0C5
:1054660074FFA3F0A3F0E4A3F090049CE0FF900483
:105476009FE0C39F400302550F90049DE0FEA3E00A
:10548600FF900499E0FBA3E0FAA3E0F990049FE003
:10549600F5827583001213A5FDEEEF6DFF90049D56
:1054A600EEF0A3EFF0E49004A0F09004A0E0C39423
:1054B6000874809480504990049DE0A3E030E02178
:1054C60090049DE0FEA3E0FFEEC313FEEF13FFEE94
:1054D60064A0FEEF6401FF90049DEEF0A3EFF08060
:1054E6001790049DE0FEA3E0FFEEC313FEEF13FF4B
:1054F60090049DEEF0A3EFF09004A0E004F080AAE3
:1055060090049FE004F002546F90049DE0FEA3E037
:01551600FF95
:015517002271
:1042E40090038FEEF0A3EFF0A3ECF0A3EDF0A3EABC
:0442F400F0A3EBF058
:1042F800E490039AF0A3F090038FE0A3E0FF90030B
:1043080097E0FBA3E0FAA3E0F9EF1213D290038F32
:10431800E0FEA3E0EEFF900397E0FBA3E0FAA3E042
:10432800F9900001EF1213E4900391E0A3E0FF90ED
:104338000397E0FBA3E0FAA3E0F9900002EF121361
:10434800E4900391E0FEA3E0EEFF900397E0FBA367
:10435800E0FAA3E0F9900003EF1213E4900393E06E
:10436800A3E0FF900397E0FBA3E0FAA3E0F9900035
:1043780004EF1213E4900393E0FEA3E0EEFF900332
:1043880097E0FBA3E0FAA3E0F9900005EF1213E42D
:10439800900395E0A3E0FFA3E0FBA3E0FAA3E0F914
:1043A800900006EF1213E4900395E0FEA3E0EEFF01
:1043B800A3E0FBA3E0FAA3E0F9900007EF1213E4EF
:1043C800900397E0FBA3E0FAA3E0F97D08125458A4
:1043D80090039AEEF0A3EFF090039AE0A3E0FF9029
:1043E8000397E0FBA3E0FAA3E0F9900008EF1213AB
:1043F800E490039AE0FEA3E0EEFF900397E0FBA3AE
:0C440800E0FAA3E0F9900009EF1213E4C1
:014414002285
:1034F00090033E12168C900342EBF0A3EAF0A3E98E
:01350000F0DA
:10350100E490034FF0A3F0900345E070030235CF40
:1035110090033EE0FCA3E0FDA3E0FEA3E0FF9003E7
:103521004712168CE4FFFEFDFC900347E0F8A3E090
:10353100F9A3E0FAA3E0FBC3121632501790034738
:10354100E0FCA3E0FDA3E0FEA3E0FF12162490033C
:103551004712168C900346E0FFFBE4FAF9F8A3E06A
:10356100FCA3E0FDA3E0FEA3E0FF126DC8EB243055
:10357100FF900342E0FBA3E0FAA3E0F9EF1213D2BC
:10358100900347E0FCA3E0FDA3E0FEA3E0FFC0073A
:10359100900346E0FFFBE4FAF9F8D007126DC890FA
:1035A100034712168C900350E004F0900347E0FCAF
:1035B100A3E0FDA3E0FEA3E0FFEC4D4E4F7003023C
:1035C100367C900343E475F0011214A380869003C6
:1035D1003EE0FCA3E0FDA3E0FEA3E0FF90034B125D
:1035E100168C900346E0FFFBE4FAF9F890034BE0F8
:1035F100FCA3E0FDA3E0FEA3E0FF12159290034FB0
:10360100EBF0E0FFD3740A9F7480F8985006E02431
:1036110037F0800790034FE02430F090034FE0FF34
:10362100900342E0FBA3E0FAA3E0F9EF1213D2907A
:10363100034BE0FCA3E0FDA3E0FEA3E0FFC0079085
:103641000346E0FFFBE4FAF9F8D007121592900364
:103651004B12168C900350E004F090034BE0FCA356
:10366100E0FDA3E0FEA3E0FFEC4D4E4F600D9003A3
:1036710043E475F0011214A30235E3900350E0FF17
:013681002226
:0F4415009003FCEBF0A3EAF0A3E9F0A312168CDE
:1044240090040312169800000000E47B02FAF9F8E5
:104434009003FFE0FCA3E0FDA3E0FEA3E0FF121560
:1044440092900403E0F8A3E0F9A3E0FAA3E0FBC32D
:10445400121648400302453A9003FFE0A3E0A3E0AC
:10446400FEA3E024FFFBEE34FFFAA3E0A3E0A3E005
:10447400FEA3E0FFC3EB9FFFEA9EFE9003FCE0FB7C
:10448400A3E0FAA3E0F98F828E831213A5900407A8
:10449400F0900403E0A3E0A3E0FEA3E0FF9003FC9C
:1044A400E0A3E0A3E08F828E831213A5FFC00790E0
:1044B40003FFE0A3E0A3E0FEA3E024FFFBEE34FF50
:1044C400FAA3E0A3E0A3E0FEA3E0FFC3EB9FFFEAAF
:1044D4009EFE9003FCE0FBA3E0FAA3E08F828E83B0
:1044E400D007EF1213E4900407E0FFC00790040321
:1044F400E0A3E0A3E0FEA3E0FF9003FCE0FBA3E065
:10450400FAA3E0F98F828E83D007EF1213E49004AC
:1045140003E0FCA3E0FDA3E0FEA3E0FFE4FAF9F866
:10452400EF2401FFEA3EFEE93DFDE83CFC90040374
:0645340012168C02442E59
:01453A00225E
:0B17A8009001CEEBF0A3EAF0A3E9F003
:1017B3009001FC121698000000009002007401F0E2
:1017C300A37401F0A374D4F09001D1E0FBA3E0FA79
:0B17D300A3E0F912138C7003021F54F6
:1017DE009001D1E0A3E0A3E012138C900203F0E09D
:1017EE0064256003021EFA9001D1E0A3E475F001B6
:1017FE001214A3A9F0FA12138C1216FA1EB7251999
:10180E0071461CE3581F47611835631890641971AF
:10181E00661890691C356F1E18701D91731B8775A5
:07182E001CE37800001F47D6
:10183500900200E0FBA3E475F0041214B9A9F0FAD4
:1018450012166C900204EFF0E0FF9001CEE0FBA3CE
:10185500E0FAA3E0F9EF1213D29001CFE475F0019D
:101865001214A39001FCE0FCA3E0FDA3E0FEA3E0BD
:10187500FFE4FAF9F8EF2401FFEA3EFEE93DFDE851
:081885003CFC9001FC12168CE2
:03188D00021F47F0
:10189000900200E0FBA3E475F0041214B9A9F0FA79
:1018A00012166C90022512168C900225E0FCA3E023
:1018B000FDA3E0FEA3E0FF7B017A027904900345DB
:1018C0007401F0A3740AF01234F0900229EFF0E4EE
:1018D000FFFEFDFC900225E0F8A3E0F9A3E0FAA3E7
:1018E000E0FBC31216325016900229E02404F58260
:1018F000E43402F583742DF0900229E004F07B01BA
:101900007A027904900229E0FFE4FCFDFE124415FE
:10191000900229E0FF7E007B017A027904C003C0B7
:10192000029001CEE0FBA3E0FAA3E0F8AC02AD0325
:10193000D002D003121344900229E0FF9001CFE4BB
:101940008FF01214A39001FCE0F8A3E0F9A3E0FAF1
:10195000A3E0FB900229E0FFE4FCFDFEEB2FFFEE8D
:0E1960003AFEED39FDEC38FC9001FC12168CBD
:03196E00021F470E
:10197100900200E0FBA3E475F0041214B9A9F0FA97
:1019810012166C90022512168C900225E0FCA3E041
:10199100FDA3E0FEA3E0FF1211F37B017A027904BB
:1019A1009003457401F0A3740AF01234F0900229F7
:1019B100EFF0E4FFFEFDFC900225E0F8A3E0F9A3BF
:1019C100E0FAA3E0FB12113C5016900229E0240436
:1019D100F582E43402F583742DF0900229E004F0DD
:1019E1007B017A027904900229E0FFE4FCFDFE12FA
:1019F1004415900229E0FF7E007B017A027904C040
:101A010003C0029001CEE0FBA3E0FAA3E0F8AC0230
:101A1100AD03D002D003121344900229E0FF9001DC
:101A2100CFE48FF01214A39001FCE0F8A3E0F9A336
:101A3100E0FAA3E0FB900229E0FFE4FCFDFEEB2FBE
:101A4100FFEE3AFEED39FDEC38FC9001FC12168CEC
:101A5100900225E0FCA3E0FDA3E0FEA3E0FF12114C
:101A6100F3EC1211B5A804A905AA06AB079002254B
:101A7100E0FCA3E0FDA3E0FEA3E0FF120EA17B00CA
:101A81007A2479747849120F9690022512168C9057
:101A91000225E0FCA3E0FDA3E0FEA3E0FFEC4D4E38
:101AA1004F6027900225E0A3E0A3E0A3E01211F329
:101AB1007B017A0279049003457401F0A3740AF062
:101AC1001234F0900229EFF080209002097430F076
:101AD100900208F0900207F0900206F0900205F0E3
:101AE100900204F09002297406F0900229E0FFD3DD
:101AF10074069F7480F8984015E02404F582E4345C
:101B010002F5837430F0900229E004F080DC900249
:101B110029E02404F582E43402F583742EF0900266
:101B210029E004F07B017A027904E0FFE4FCFDFE88
:101B3100124415900229E0FF7E007B017A027904AC
:101B4100C003C0029001CEE0FBA3E0FAA3E0F8AC31
:101B510002AD03D002D0031213449001FCE0F8A3BC
:101B6100E0F9A3E0FAA3E0FB900229E0FFE4FCFD29
:101B7100FEEB2FFFEE3AFEED39FDEC38FC9001FC57
:061B810012168C021F4742
:101B8700900200E0FBA3E475F0041214B9A9F0FA7F
:101B970012166C90022512168C900225E0FCA3E029
:101BA700FDA3E0FEA3E0FF7B017A027904E4900342
:101BB70045F0A3740AF01234F0900229EFF07B018C
:101BC7007A027904E0FFE4FCFDFE12441590022935
:101BD700E0FF7E007B017A027904C003C002900116
:101BE700CEE0FBA3E0FAA3E0F8AC02AD03D002D04D
:101BF70003121344900229E0FF9001CFE48FF01203
:101C070014A39001FCE0F8A3E0F9A3E0FAA3E0FB3A
:101C1700900229E0FFE4FCFDFEEB2FFFEE3AFEED1C
:0B1C270039FDEC38FC9001FC12168C1B
:031C3200021F4747
:101C3500900200E0FBA3E475F0041214B9A9F0FAD0
:101C450012166C90022512168C900225E0FCA3E07A
:101C5500FDA3E0FEA3E0FF7B017A027904E4900393
:101C650045F0A37408F01234F0900229EFF07B01DF
:101C75007A027904E0FFE4FCFDFE12441590022986
:101C8500E0FF7E007B017A027904C003C002900167
:101C9500CEE0FBA3E0FAA3E0F8AC02AD03D002D09E
:101CA50003121344900229E0FF9001CFE48FF01254
:101CB50014A39001FCE0F8A3E0F9A3E0FAA3E0FB8C
:101CC500900229E0FFE4FCFDFEEB2FFFEE3AFEED6E
:0B1CD50039FDEC38FC9001FC12168C6D
:031CE000021F4799
:101CE300900200E0FBA3E475F0041214B9A9F0FA22
:101CF30012166C90022512168C900225E0FCA3E0CC
:101D0300FDA3E0FEA3E0FF7B017A027904E49003E4
:101D130045F0A37410F01234F0900229EFF07B0128
:101D23007A027904E0FFE4FCFDFE124415900229D7
:101D3300E0FF7E007B017A027904C003C0029001B8
:101D4300CEE0FBA3E0FAA3E0F8AC02AD03D002D0EF
:101D530003121344900229E0FF9001CFE48FF012A5
:101D630014A39001FCE0F8A3E0F9A3E0FAA3E0FBDD
:101D7300900229E0FFE4FCFDFEEB2FFFEE3AFEEDBF
:0B1D830039FDEC38FC9001FC12168CBE
:031D8E00021F47EA
:101D9100900200E0FBA3E475F0031214B9A9F0FA74
:101DA1001216DA900204EBF0A3EAF0A3E9F0900234
:101DB10004E0FBA3E0FAA3E0F912138C7003021F05
:101DC10047900204E0A3E0A3E012138CFF9001CE40
:101DD100E0FBA3E0FAA3E0F9EF1213D29001CFE404
:101DE10075F0011214A39001FCE0FCA3E0FDA3E057
:101DF100FEA3E0FFE4FAF9F8EF2401FFEA3EFEE971
:101E01003DFDE83CFC9001FC12168C900205E47546
:071E1100F0011214A38097F9
:101E1800900200E0FBA3E475F0041214B9A9F0FAEB
:101E280012166C90022512168C900225E0FCA3E095
:101E3800FDA3E0FEA3E0FF7B017A027904E49003AE
:101E480045F0A37410F01234F0900229EFF07B01F2
:101E58007A0279047F087E007D007C001244157B9D
:101E6800017A027904C003C0029001CEE0FBA3E02E
:101E7800FAA3E0F8AC02AD03D002D0037E007F08DD
:101E88001213449001CFE475F0081214A39001FCDA
:101E9800E0FCA3E0FDA3E0FEA3E02408FFE43EFE8F
:0C1EA800E43DFDE43CFC9001FC12168CB3
:101EB400021F479001CEE0FBA3E0FAA3E0F97425EA
:101EC4001213D29001CFE475F0011214A39001FC17
:101ED400E0FCA3E0FDA3E0FEA3E0FFE4FAF9F8EFE1
:101EE4002401FFEA3EFEE93DFDE83CFC9001FC12C2
:101EF400168C804F804D9001D1E0FBA3E0FAA3E063
:101F0400F912138CFF9001CEE0FBA3E0FAA3E0F9F1
:101F1400EF1213D29001CFE475F0011214A39001D3
:101F2400FCE0FCA3E0FDA3E0FEA3E0FFE4FAF9F883
:101F3400EF2401FFEA3EFEE93DFDE83CFC9001FC94
:0D1F440012168C9001D2E475F0011214A366
:101F51000217CB900200E4F0A3F0A3F09001FCE0A3
:0A1F6100FCA3E0FDA3E0FEA3E0FFF7
:011F6B002253
:0300230002672E43
:0D672E00C0E0C083C082C0D075D000C0079D
:10673B00E59830E1085398FD9001CAE4F0E59830F4
:10674B00E0295398FE900372E599F0E0647F701690
:10675B009005FAE0FF04F0D3EF941474809480401A
:0B676B000A75C76080059005FAE4F095
:0B677600D007D0D0D082D083D0E0321A
:0300430002744EF6
:10744E00C0E0C083C082E59A30E108539AFD9001F6
:10745E00CBE4F0E59A30E003539AFED082D083D08D
:02746E00E0320A
:03008B000274708C
:10747000C0E0C083C082E5AC30E10853ACFD9001B0
:10748000CCE4F0E5AC30E00353ACFED082D083D046
:02749000E032E8
:0300930002749262
:10749200C0E0C083C082E58430E1085384FD9001DE
:1074A200CDE4F0E58430E0035384FED082D083D073
:0274B200E032C6
:03003B00026363FA
:10636300C0E0C0F0C083C082C0D075D000C000C000
:1063730001C002C003C004C005C006C00730D81165
:1063830075D8FEE4FF125BDD126D8190000074018D
:10639300F030D90875D8FD7F01125BDD30DA037563
:1063A300D8FBD007D006D005D004D003D002D0014B
:0D63B300D000D0D0D082D083D0F0D0E03226
:0300030002003ABE
:01003A003293
:03001300020042A6
:01004200328B
:030053000200594F
:010059003274
:03005B0002005A46
:01005A003273
:03008300020086F2
:010086003247
:0C00060012002012652C12005680FE2211
:100E9E0002125FE86480F8E933E83360110460F011
:100EAE00ED33EC337009E8FCE9FDEAFEEBFF2204BA
:100EBE0060DED3EB9FEA9EE99DE8C2E78CF0C2F7B5
:100ECE0095F0400CE8CCF8E9CDF9EACEFAEBCFFB81
:100EDE0012122A85D0F05804700320D5B3E804709E
:100EEE00075002B2D502126992D5EC0460F7E4CC39
:100EFE00C0E0C398F8603B94186008400DD0E0FB4A
:100F0E00021241E4FBFAC9FC8028E830E406E4C989
:100F1E00FBE4CAFCE830E305E4C9CACBFCE854079D
:100F2E006010F8C3E913F9EA13FAEB13FBEC13FCA8
:100F3E00D8F130F52FC3E49CFCEF9BFFEE9AFEED4B
:100F4E0099FDD0E0FBEF4E4D4C701222DB030212E6
:100F5E0066EC2CFCEF33FFEE33FEED33FDED30E7A8
:100F6E00EB021241EF2BFFEE3AFEED39FDD0E0FB26
:100F7E0050130BBB0003021269ED13FDEE13FEEFCF
:080F8E0013FFEC13FC021241F9
:100F9600EC4D6011E8497017ED33EC3304600DE455
:100FA600FCFFFEFD22E933E8330470F802125F12FB
:100FB600122A58046009E4CC2481500628500902FC
:100FC6001269284003021266C0E0EB4A7044B980F9
:100FD60006D0E0FB021255EF4E701CBD8008EBFFF9
:100FE600EAFEE9FD80EBE98DF0A4FEE5F002107F54
:100FF600E9CDF9EAFEEBFFEF89F0A4FCE5F0CE8936
:10100600F0A42EFFE435F0CD89F0A42DFEE435F0F2
:101016008067EF4E7005BD80D780C3EF8BF0A4AC20
:10102600F0EE8BF0A42CFCE435F0F8EF8AF0A42C5B
:10103600E5F038FCE433CB8DF0A42CFCE5F03BF86E
:10104600EE8AF0A42CFCE5F038F8E433CF89F0A45E
:101056002CFCE5F038CF3400CE89F0A42FFFE5F064
:101066003EFEE433C98DF0A42EFEE5F039CD8AF0BC
:10107600A42FFFE5F03EFEE43DFD33D0E0FB500734
:101086000BBB000F021269EC2CFCEF33FFEE33FEB4
:06109600ED33FD021241E2
:10109C00021269EC5D046005E85904700302125FEA
:1010AC0012122A580460F6EC4860F2EC7004FDFE53
:1010BC00FF22C860DB2481C85009C3986002500627
:1010CC000212669850CAF582E9294B4A7005AB8228
:1010DC0002125575F0007C1A7880C3EF9BEE9AEDE6
:1010EC0099400DC3EF9BFFEE9AFEED99FDE842F09F
:1010FC00DC23ACF0D0E0FFD0E0FED0E0FDAB8220F2
:10110C00E7101BEB60BAEC2CFCEF33FFEE33FEED7B
:10111C0033FD021241E803F830E705C0F075F0002A
:10112C00EF2FFFEE33FEED33FD40B830E7C280AA5F
:10113C0074F8CC6480CCC86480C8F58204604FC35A
:10114C00EB9FF5F0EA9E42F0E99D42F0E89C45F0F9
:10115C00603C501DE5825FFFE582D313CB5BCBF483
:10116C002B5582FB50280ABA002409B900200880AC
:10117C001DE5825BFBE582D313CF5FCFF4C3132F46
:10118C005582FF50090EBE00050DBD00010CC3EBCE
:10119C009FF5F0EA9E42F0E99D42F0E89C45F06034
:0911AC0007CC4820E701B3EC2256
:1011B50075F020800E75F010800575F0087D007EB5
:1011C500007F003392D530D503121624EC3340103E
:1011D500EF33FFEE33FEED33FDEC33FCD5F0ED22BE
:0E11E500E5F0247EA2D513CC92E7CDCEFF22FA
:1011F300EDD2E7CD33EC3392D524814006E4FFFEF4
:10120300FDFC22FCE4CFCECDCC24E0501174FF8052
:10121300EDC3CC13CCCD13CDCE13CECF13CF0470EF
:07122300F030D5DE021624B5
:10122A00E9D2E7C933E833F892D5EDD2E7CD33EC0A
:07123A0033FC5002B2D52283
:10124100EC30E7100FBF000C0EBE00080DBD00040E
:101251000BEB6014A2D5EB13FCED92E7FD2274FFBA
:10126100FCFDFEFF22E480F8A2D574FF13FC7D8013
:03127100E480EF27
:03000000025B514F
:0C5B5100787FE4F6D8FD758107025B98B0
:10127400E709F608DFFA8046E709F208DFFA803E5C
:1012840088828C83E709F0A3DFFA8032E309F60849
:10129400DFFA8078E309F208DFFA807088828C83B1
:1012A400E309F0A3DFFA806489828A83E0A3F60865
:1012B400DFFA805889828A83E0A3F208DFFA804C3F
:1012C40080D280FA80C680D4806980F28033801016
:1012D40080A680EA809A80A880DA80E280CA80337F
:1012E40089828A83ECFAE493A3C8C582C8CCC583F7
:1012F400CCF0A3C8C582C8CCC583CCDFE9DEE780C7
:101304000D89828A83E493A3F608DFF9ECFAA9F045
:10131400EDFB2289828A83ECFAE0A3C8C582C8CC9B
:10132400C583CCF0A3C8C582C8CCC583CCDFEADEB4
:10133400E880DB89828A83E493A3F208DFF980CC16
:1013440088F0EF60010E4E60C388F0ED2402B4040F
:101354000050B9F582EB2402B4040050AF232345B6
:0613640082239012C47305
:10136A00C2D530F707B2D563F0FF05F030E70CB20B
:10137A00D5F4048463F0FF05F080018430D502F4CB
:02138A0004223B
:10138C00BB010689828A83E0225002E722BBFE025F
:09139C00E32289828A83E4932292
:1013A500BB010CE58229F582E5833AF583E02250FD
:1013B50006E92582F8E622BBFE06E92582F8E22247
:0D13C500E58229F582E5833AF583E4932261
:1013D200BB010689828A83F0225002F722BBFE01FA
:0213E200F322F4
:1013E400F8BB010DE58229F582E5833AF583E8F03F
:1013F400225006E92582C8F622BBFE05E92582C8EB
:02140400F222D2
:10140600EF8DF0A4A8F0CF8CF0A428CE8DF0A42EFA
:02141600FE22B4
:10141800BC000BBE0029EF8DF084FFADF022E4CCB8
:10142800F875F008EF2FFFEE33FEEC33FCEE9DEC81
:10143800984005FCEE9DFE0FD5F0E9E4CEFD22EDC7
:10144800F8F5F0EE8420D21CFEADF075F008EF2F11
:10145800FFED33FD4007985006D5F0F222C398FD02
:051468000FD5F0EA229F
:10146D00C2D5EC30E709B2D5E4C39DFDE49CFCEE9A
:10147D0030E715B2D5E4C39FFFE49EFE121418C3E6
:10148D00E49DFDE49CFC800312141830D507C3E4E1
:06149D009FFFE49EFE2209
:1014A300C5F0F8A3E028F0C5F0F8E58215827002D4
:0614B3001583E038F02271
:1014B900A3F8E0C5F025F0F0E582158270021583E6
:0614C900E0C838F0E82243
:1014CF00BB0110E58229F582E5833AF583E0F5F05B
:1014DF00A3E0225009E92582F886F008E622BBFE38
:1014EF000AE92582F8E2F5F008E222E5832AF5837E
:0814FF00E993F5F0A3E9932243
:10150700E88FF0A4CC8BF0A42CFCE98EF0A42CFC83
:101517008AF0EDA42CFCEA8EF0A4CDA8F08BF0A401
:101527002DCC3825F0FDE98FF0A42CCD35F0FCEB60
:101537008EF0A4FEA9F0EB8FF0A4CFC5F02ECD3925
:0F154700FEE43CFCEAA42DCE35F0FDE43CFC2292
:1015560075F008758200EF2FFFEE33FECD33CDCC4C
:1015660033CCC58233C5829BED9AEC99E5829840CF
:101576000CF582EE9BFEED9AFDEC99FC0FD5F0D6AC
:10158600E4CEFBE4CDFAE4CCF9A88222B800C1B9D6
:101596000059BA002DEC8BF084CFCECDFCE5F0CB14
:1015A600F97818EF2FFFEE33FEED33FDEC33FCEB4D
:1015B60033FB10D703994004EB99FB0FD8E5E4F908
:1015C600FA227818EF2FFFEE33FEED33FDEC33FCF5
:1015D600C933C910D7059BE99A4007EC9BFCE99AE9
:1015E600F90FD8E0E4C9FAE4CCFB2275F010EF2F2E
:1015F600FFEE33FEED33FDCC33CCC833C810D7072E
:101606009BEC9AE899400AED9BFDEC9AFCE899F868
:0E1616000FD5F0DAE4CDFBE4CCFAE4C8F922FB
:106DC800C2D5E830E70FB2D5E4C39BFBE49AFAE4F6
:106DD80099F9E498F8EC30E717B2D5126DFE121560
:106DE80092E4C39BFBE49AFAE499F9E498F88003E7
:106DF80012159230D50DE4C39FFFE49EFEE49DFD7D
:046E0800E49CFC22E8
:0E162400C3E49FFFE49EFEE49DFDE49CFC22D7
:10163200EB9FF5F0EA9E42F0E99D42F0EC6480C82F
:0616420064809845F022CF
:10164800EB9FF5F0EA9E42F0E99D42F0E89C45F0F8
:01165800226F
:10165900E8600FECC313FCED13FDEE13FEEF13FF6F
:03166900D8F12293
:10166C00BB010789828A830217595005E9F80217D2
:10167C004DBBFE05E9F802176589828A8302177152
:0C168C00ECF0A3EDF0A3EEF0A3EFF022D1
:10169800A8828583F0D083D0821216AF1216AF12BB
:1016A80016AF1216AFE473E493A3C583C5F0C583E0
:1016B800C8C582C8F0A3C583C5F0C583C8C582C89C
:0116C80022FF
:1016C900F5F0C582A4C582C5F0C583A42583F58339
:0116D90022EE
:1016DA00BB010789828A8302178A5005E9F8021733
:1016EA0081BBFE05E9F802179389828A8302179C57
:1016FA00D083D082F8E4937012740193700DA3A37F
:10170A0093F8740193F5828883E473740293686092
:06171A00EFA3A3A380DF92
:10172000D083D082F8E4937012740193700DA3A358
:1017300093F8740193F5828883E473740293B5F08F
:0D174000067403936860E9A3A3A3A380D8F7
:105B5D00020006E493A3F8E493A34003F68001F258
:105B6D0008DFF48029E493A3F85407240CC8C33349
:105B7D00C4540F4420C8834004F456800146F6DF18
:105B8D00E4800B0102040810204080907517E47E1C
:105B9D00019360BCA3FF543F30E509541FFEE4930D
:105BAD00A360010ECF54C025E060A840B8E493A3D4
:105BBD00FAE493A3F8E493A3C8C582C8CAC583CAFF
:105BCD00F0A3C8C582C8CAC583CADFE9DEE780BEB7
:017535000055
:0C174D00E6FC08E6FD08E6FE08E6FF22C8
:0C175900E0FCA3E0FDA3E0FEA3E0FF2203
:0C176500E2FC08E2FD08E2FE08E2FF22C0
:10177100E493FC740193FD740293FE740393FF22BE
:09178100E6FB08E6FA08E6F9228D
:09178A00E0FBA3E0FAA3E0F92260
:09179300E2FB08E2FA08E2F92287
:0C179C00E493FB740193FA740293F922A9
:00000001FF
