:104C7700E4F594F593F592F591F596F595F5B2F57A
:104C8700B1F5B4F5B3F5CAF5C9F5D8F5D9F5DEF53B
:104C97008EF598F59AF5ACF584F5A2F5BAF5AFF56A
:104CA70089F5E9F5F9125A4C90044B1216FC0001EC
:0B4CB700C200E490044FF0FF02341C28
:10597A00900486EFF0FDE4FF124D1C900486E0FFD0
:01598A0022FA
:03005000C2AF221A
:03005600D2AF2204
:104D580053A2F3EF14601214601714602624037032
:104D6800285392C35391C380205396C35395C3804D
:104D780018E5F0F452B4E5F0F452B353CAEF53C94E
:104D8800EF800653B2C353B1C3EB42CEED70064376
:094D9800CE8043CE1043CE402230
:104CC20053A2F3EF14600A14600C14600E240380E4
:104CD2000D43A204800843A208800343A20C53CED2
:104CE200FCED14600A14600C14600E2403800D4362
:104CF200CE01800843CE02800343CE03AF038FCFA1
:0B4D0200E5CD30E7FB75CDC0AFCF2240
:10523B00E4900467F0A3F0A3F090FE82E020E62256
:10524B007F017E00125943900467E475F00112153B
:10525B0075FEC3E5F0941EEE940040DD9004697476
:0E526B0001F090FE82E054BFF0900469E0FF75
:015279002212
:095A310090FE817401F002523B69
:04595600E025E0FF69
:0E595A0090FE86EFF090FE817402F002523B48
:095A3A0090FE817403F002523B5E
:0F59EB0090FE817404F012523B90FE87E0FF2281
:0F5761009003C1E0FBA3E0FAA3E0F9EF12148E6E
:0E57700090FE82E4F090FE817405F002523B40
:0F59FA0090FE827401F090FE817405F002523B22
:095A430090FE817406F002523B52
:104F9C0053BACF43BA80EF14600A14600C14600E3D
:104FAC002403800D43BA10800843BA20800343BA0F
:104FBC003090FE80E04440F0E04480F0C083C0823A
:104FCC00E0FB900451A3A3A3E0FFEB4FD082D0836E
:074FDC00F090FE82E4F022D8
:1043E700900460EDF0A3EBF053BACFEF14600A141A
:1043F700600C14600E2403800D43BA10800843BA82
:1044070020800343BA30125A31EF60037F012290B4
:104417000460125956EF60037F0122125A3AEF6087
:10442700037F0122900461E0FF12595AEF60037F76
:104437000122125A3AEF60037F0122900462E0FFE3
:1044470012595AEF60037F0122125A3AEF60037F35
:0E4457000122125A43EF60037F01227F0022F0
:104127009003F7EDF0A3EBF053BACFEF14600A1446
:10413700600C14600E2403800D43BA10800843BA44
:1041470020800343BA30125A31EF60037F01229077
:1041570003F7125956EF60037F0122125A3AEF60B4
:10416700037F01229003F8E0FF12595AEF60037FA3
:104177000122125A3AEF60037F01229003F7E025EC
:10418700E04401FF12595AEF60037F0122125A3AA5
:10419700EF60037F01221259EB9003F9125764EF86
:1041A70060037F0122125A43EF60037F01227F00E1
:0141B70022E5
:103D55009003BFEDF0A3EBF053BACFEF14600A1454
:103D6500600C14600E2403800D43BA10800843BA1A
:103D750020800343BA30125A31EF60037F0122904D
:103D850003BF125956EF60037F0122125A3AEF60C2
:103D9500037F01229003C0E0FF12595AEF60037FB1
:103DA5000122125A3AEF60037F01229003BFE025FA
:103DB500E04401FF12595AEF60037F0122125A3A7B
:103DC500EF60037F01229003C4E014F060181259DC
:103DD500EB125761EF60037F01229003C2E475F097
:103DE5000112155F80E01259EB125761EF60037FF6
:0E3DF5000122125A43EF60037F01227F002259
:05341C0090044AEFF0EE
:10342100A3E0F8A3E0F9A3E0FAA3E0FB7FC07E0EDE
:103431007D167C02121616E47B04FAF9F8121616B0
:10344100C3E49FFFE49EAD07FC90044AE014605280
:103451001460791470030234FB2403600302352CD9
:103461004398508D8BECF58D438E4053A23F9004D1
:103471004FE0FF7E007002801FEF64014E70054334
:10348100A2408014EF64024E700543A2808009EFD0
:1034910064034E700343A2C0D28EE49001CAF002CD
:1034A100352C439A108DD7ECF5D6438E1453BAFEC2
:1034B10090044FE0FF7E006404EF64054E70034307
:1034C100BA0143AF01E49001CBF0805F43AC508D72
:1034D100D5ECF5D443D10A53BAFD90044FE0FF7EF9
:1034E10000640670028009EF64074E700343BA025C
:1034F10043AF08E49001CCF080314384508DD3EC8C
:10350100F5D243D1A053BAFB90044FE0FF7E006493
:10351100087002800EEF64094E7008F5CA75C9047F
:0D35210043BA0443AF10E49001CDF0D2ACEA
:01352E00227A
:0F4D0D00A3E475F001121575A9F0FA121448FD10
:104D1C00EF14601514601D1460252403702D900190
:104D2C00CAE070FA04F08D99229001CBE070FA047D
:104D3C00F08D9B229001CCE070FA04F08DAD2290A6
:0C4D4C0001CDE070FA04F0AF058F852265
:105504009003FDEBF0A3EAF0A3E9F0AE07900400EA
:1055140074FFF5F012157545F0600CAF069003FDAD
:08552400E0FB124D0D80E622B0
:10552C0090046AEBF0A3EAF0A3E9F0AE0790046AEA
:10553C00E0FBA3E0FAA3E0F9121448600AAF06906E
:08554C00046A124D0D80E622F5
:10585900EF1FAC0670011E4C600C00007D2C7C1300
:06586900DCFEDDFC80EA1C
:01586F002216
:10594300EF1FAA0670011E4A60087D091DED60F075
:0259530080FAD8
:01595500222F
:104DA10043BC80EF131313541FFB7A006401701787
:104DB100EF5407FEF87401088002C333D8FCFEF4F7
:104DC1005294EE42938019EB4A7015EF5407FEF8A6
:104DD1007401088002C333D8FCFEF45292EE429172
:094DE100ED540F42DE43DE2022F6
:02548400A90578
:1054860053BCF0EF42BC43BC40E5BC30E5FB53BC2B
:10549600DFAFBDEFFEADBEEDFFAD01A8050880058F
:0854A600CEC313CE13D8F9FFA9
:0154AE0022DB
:1050B400EF14601814602014602614602C2404700B
:1050C40030E4F58AF58C438904D28C22E4F58BF51F
:1050D4008D438940D28E22E4F5D7F5D6438E18222B
:1050E400E4F5D5F5D443D10C22E4F5D3F5D243D17C
:0250F400C022D8
:10502A00EF14601714601E14602514602C24047099
:10503A0030AF8CEFFCAF8AEFFD8026AF8DEFFCAF6F
:10504A008BEFFD801CAFD6EFFCAFD7EFFD8012AF20
:10505A00D4EFFCAFD5EFFD8008AFD2EFFCAFD3EFB2
:05506A00FDAF05AE04DE
:01506F00221E
:104DEA00EF14601714601E146027146030240470D6
:104DFA0037C28CE4F58CF58AD28C22C28EE4F58D0A
:104E0A00F58BD28E22538EEFE4F5D6F5D7438E106A
:104E1A002253D1F7E4F5D4F5D543D1082253D17FF3
:094E2A00E4F5D2F5D343D1802256
:0523CA009002E6EFF0B7
:1023CF00E49002F1F09002E6E0C4540FFFF87401BC
:1023DF00088002C333D8FC42F143BA809002E7E091
:1023EF00F8A3E0F9A3E0FAA3E0FB7FC07E0E7D1611
:1023FF007C02121616780F1216DD9002F1EFF09094
:10240F0002E7E0F8A3E0F9A3E0FAA3E0FB7FC07EC8
:10241F000E7D167C02121616C006C0079002F1E060
:10242F002401FFE433AB07FA3395E0F9F8D007D076
:10243F00061216169002EFEEF0A3EFF09002EBE00B
:10244F00FCA3E0FDE41210C27B007A40791C7846B1
:10245F00120FA7C004C005C006C0079002EFE0FC32
:10246F00A3E0FDE41210C2D003D002D001D00012BD
:10247F000E9E1210FB9002EDEEF0A3EFF09002E62D
:10248F00E0FFC39430748094809002F1E0FD506AB5
:10249F00EFC4540FF975F050A4FFAEF02402FBEE19
:1024AF0034FF8B82F583EDF09002EFE0FCA3E0FDAB
:1024BF00E42FFFEE34FF8F82F583ECF0A3EDF09065
:1024CF0002EDE0FCA3E0FDE975F050A42410FBE55C
:1024DF00F034FFFA9002E6E0540F75F008A42BFFDA
:1024EF00E5F03A8F82F583ECF0A3EDF0E975F0504B
:1024FF00A42414FDE5F034FF806D9002E6E024D0B3
:10250F00C4540FF975F050A4FFAEF02402FBEE3463
:10251F00FC8B82F583EDF09002EFE0FCA3E0FDE48D
:10252F002FFFEE34FC8F82F583ECF0A3EDF09002D9
:10253F00EDE0FCA3E0FDE975F050A42410FBE5F0FD
:10254F0034FCFA9002E6E0540F75F008A42BFFE577
:10255F00F03A8F82F583ECF0A3EDF0E975F050A41B
:10256F002414FDE5F034FCFC9002E6E0540F75F006
:10257F0008A42DFFE5F03C8F82F583E04480F090B6
:10258F0002E6E0C4540F1460151460171460191498
:10259F00601B14601D2405701C43F601801743F661
:1025AF0010801243F701800D43F710800843FE019E
:0825BF00800343FE1053BA7FB4
:0125C70022F1
:0B330500900455EFF0A3ECF0A3EDF0F6
:1033100043BA80900455E0C3943074809480506F19
:10332000A3E0FCA3E0FDE41210C27B007A40791C0C
:103330007846120FA7C004C005C006C00790045508
:10334000E0C4540F75F050A42400FFE5F034FF8F63
:1033500082F583E0FCA3E0FDE41210C2D003D002AA
:10336000D001D000120E9E1210FB900458EEF0A374
:10337000EFF0900458E0FCA3E0FD900455E0F9C4A0
:10338000540F75F050A42410FBE5F034FF807390C7
:103390000456E0FCA3E0FDE41210C27B007A407901
:1033A0001C7846120FA7C004C005C006C0079004D1
:1033B00055E024D0C4540F75F050A42400FFE5F06C
:1033C00034FC8F82F583E0FCA3E0FDE41210C2D050
:1033D00003D002D001D000120E9E1210FB900458B0
:1033E000EEF0A3EFF0900458E0FCA3E0FD9004554C
:1033F000E0F924D0C4540F75F050A42410FBE5F07C
:1034000034FCFAE9540F75F008A42BFFE5F03A8F6D
:0B34100082F583ECF0A3EDF053BA7FCF
:01341B00228E
:05299A009002AEEFF019
:10299F00E49002BDF09002AFE0F8A3E0F9A3E0FAF3
:1029AF00A3E0FB7FC07E0E7D167C02121616780FF9
:1029BF001216DD9002BDEFF09002AFE0F8A3E0F940
:1029CF00A3E0FAA3E0FB7FC07E0E7D167C021216F9
:1029DF0016C006C0079002BDE02401FFE433AB0729
:1029EF00FA3395E0F9F8D007D0061216169002B90F
:1029FF001216F09002B3E0FCA3E0FDE41210C27BCC
:102A0F00007A40791C7846120FA7C004C005C00693
:102A1F00C0079002B9E0FCA3E0FDA3E0FEA3E0FF36
:102A2F00E41210BDD003D002D001D000120E9E12BE
:102A3F0010FB9002B51216F043BA809002AEE0C3BD
:102A4F009430748094809002BDE0FD9002AEE0500F
:102A5F004AC4540FF975F050A4FBAAF02402FFEA00
:102A6F0034FF8F82F583EDF09002B9A3A3E0FEA3AC
:102A7F00E0FFE42BFDEA34FF8D82F583EEF0A3EF48
:102A8F00F09002B5A3A3E0FEA3E0FDAC06E975F05C
:102A9F0050A42410FBE5F034FF804A24D0C4540F17
:102AAF00F975F050A4FBAAF02402FFEA34FC8F82E0
:102ABF00F583EDF09002B9A3A3E0FEA3E0FFE42BB2
:102ACF00FDEA34FC8D82F583EEF0A3EFF09002B5B2
:102ADF00A3A3E0FEA3E0FDAC06E975F050A424101B
:102AEF00FBE5F034FCFA9002AEE0540F75F008A449
:102AFF002BFFE5F03A8F82F583ECF0A3EDF0900217
:102B0F00AEE0C4540F1460151460171460191460EC
:102B1F001B14601D2405701C43F601801743F6102B
:102B2F00801243F701800D43F710800843FE0180A8
:072B3F000343FE1053BA7FAF
:012B4600226C
:10579B004602C60000000000004602BE00000000EA
:0757AB0000004202C40B6480
:10494400E4F5D875D906EF64017054EDB40A00504B
:104954004E90495CF828287302497A02497E02493C
:104964008202498602498A02498E02499202499684
:1049740002499A0249A0E4F5DA2275DA422275DA8C
:10498400632275DA532275DA732275DA202275DA16
:10499400102275DA302275DA49D2DE2275DA4C2219
:10596800EF64017008AFFAEFFCAFEAEFFDAF05AEE8
:01597800042A
:01597900220B
:0A004600EF64017004F5F9F5E922FA
:103FF800900487EFF070467E037FE81214D47C00AB
:104008007D0C1214C2AB07AA06E4F9F87FC07E0E35
:104018007D167C02125070AC06AD079002BEECF023
:10402800FAA3EDF0FB75DA499002C6E0FEA3E0F5CD
:10403800EAEEF5FAE02BF09002C6E03AF090048739
:10404800E0640170447E037FE81214D47C007D0C88
:104058001214C2AB07AA06E4F9F87FC07E0E7D16DB
:104068007C02125070AC06AD079002C0EEF0A3EFD0
:10407800F075DB499002C8E0FEA3E0F5EBEEF5FB36
:0C408800E02DF09002C8E03CF0D2DE22F7
:095A4C0075DC49E4F5D9D2DE2233
:10577E00AFF9EFFEADE9EDFF9002C5E02FFF90020D
:0C578E00C4E03E8FECF5FC30DAFDC2DA1E
:01579A0022EC
:1058F300AB07AA06EB1BAE0270011A4E60051257E6
:045903007E80F1228F
:10539600EF7007ED24FF9288D2A8EF64017007ED45
:1053A60024FF928AD2AAEFFD7C0064027003758FF7
:1053B60010ED64034C7003758F20ED64044C70038C
:0453C600758F40227D
:10598B00C2A2C2A1AB07E4FD7F01124CC2D2A2227C
:10599B00C2A2D2A1AB07E4FD7F01124CC2D2A2225C
:0753CA004BFFEEF0A3EFF032
:0253D100AC0628
:1053D300EC90047CF0A3EFF0C2A2D2A190047CE095
:1053E300FBE4FD7F01124CC290047DE0FBE4FD7FF2
:0653F30001124CC2D2A21F
:0153F9002291
:10472D0024FFFEE034FF900394F0A3CEF0E4FDFCF3
:02473D00FFFE7D
:10473F0090038EEEF0A3EFF0A3ECF0A3EDF0A3EA5D
:10474F00F0A3EBF07F2A12598BE4FF12599B9003D1
:10475F008EA3E02402FF12599BE4FF12599B900392
:10476F0092A3E02402FF12599B7F2B12598BE4FF77
:10477F0012599B900390A3E004FF12599BE4FF1280
:10478F00599B900394A3E004FF12599B7F2C02596D
:01479F008B8E
:0849A400900463EEF0A3EFF0B4
:1049AC00900394E4F0A3749FF07B7F7A0012473A53
:1049BC00E4900465F0900465E0C394A07480948046
:1049CC00502BE4A3F0900466E0C394807480948030
:1049DC005013900463E0FEA3E0FF1253D1900466E1
:0D49EC00E004F080E0900465E004F080C875
:0149F900229B
:1025C800E4FBFD7F01124D58C2A07F0A7E0012581D
:1025D80059D2A07F787E001258597F1112598B7FEB
:1025E800787E001258597FB112598B7F0112599B7E
:1025F8007F2C12599B7F2D12599B7FB212598B7FCA
:102608000112599B7F2C12599B7F2D12599B7FB326
:1026180012598B7F0112599B7F2C12599B7F2D12C7
:10262800599B7F0112599B7F2C12599B7F2D125960
:102638009B7FB412598B7F0712599B7FC012598B0D
:102648007FA212599B7F0212599B7F8412599B7F4C
:10265800C112598B7FC512599B7FC212598B7F0AB1
:1026680012599BE4FF12599B7FC312598B7F8A1220
:10267800599B7F2A12599B7FC412598B7F8A125902
:102688009B7FEE12599B7FC512598B7F0E12599B67
:102698007F3612598BE4701E14600E14600F14609C
:1026A80010240370117FC0800AE4FF80067FA08099
:1026B800027F6012599B7FE012598B7F0F12599B42
:1026C8007F1A12599B7F0F12599B7F1812599B7FB3
:1026D8002F12599B7F2812599B7F2012599B7F22CA
:1026E80012599B7F1F12599B7F1B12599B7F2312E4
:1026F800599B7F3712599BE4FF12599B7F07125948
:102708009B7F0212599B7F1012599B7FE112598BB4
:102718007F0F12599B7F1B12599B7F0F12599B7F6A
:102728001712599B7F3312599B7F2C12599B7F2973
:1027380012599B7F2E12599B7F3012599B7F301262
:10274800599B7F3912599B7F3F12599BE4FF1259BD
:102758009B7F0712599B7F0312599B7F1012599B2D
:102768007F2A12598BE4FF12599B7F0212599BE46E
:10277800FF12599B7F8212599B7F2B12598BE4FFC2
:1027880012599B7F0312599BE4FF12599B7F8312B6
:10279800599B7FF012598B7F0112599B7FF6125972
:1027A8008BE4FF12599B7F3A12598B7F0512599B74
:0C27B8007F2912598B74FFFFFE0249A418
:1050F600900402EEF0A3EFF0900406EAF0A3EBF0C2
:10510600900404ECF0A3EDF0900402E0FAA3E0FBB7
:10511600FFAE02C007A3E0FFA3E0900394CFF0A385
:10512600EFF0D00712473F900406E0FEA3E0FF022F
:0251360053D153
:063B2000F583E02430FBF8
:103B2600900396EEF0A3EFF0A3ECF0A3EDF0A3EB79
:013B3600F09E
:103B3700E4A3F090039BE0F9C39410748094804051
:103B470003023BEAE9FF900399E02FFD900398E019
:103B57003400FC900397E02407FB900396E03400C1
:103B6700FA7E00900398E0F8A3E02FFFEE38900369
:103B770094F0A3EFF0900396E0FEA3E0FF12473F17
:103B870090039BE0FF90039AE075F010A42496F54C
:103B970082E5F034FEF583E5822FF582E43583F57F
:103BA70083E49390039DF0E490039CF090039CE0E2
:103BB700C39408748094805021A3E030E0067F000E
:103BC7007EF8800474FFFFFE1253D190039DE0C37B
:103BD70013F090039CE004F080D290039BE004F084
:033BE700023B3A64
:013BEA0022B8
:1045CC00900361EEF0A3EFF0A3ECF0A3EDF0A3EBFE
:0745DC00F0A3EAF0A3E9F0EF
:1045E300E4A3F0A3F0900365E0FBA3E0FAA3E0F9F2
:1045F300A3E0FEA3E0FFF5828E83121461FB603E0D
:10460300EF7803C333CE33CED8F9FF900362E02FA4
:10461300FF900361E03EFE900364E0C4F8540FC8CA
:1046230068FD900363E0C454F048FC123B269003FA
:0E46330069E004F070AF900368E004F080A727
:014641002256
:1036FD0090036AEEF0A3EFF0A3ECF0A3EDF0A3EBD3
:01370D00F0CB
:10370E003395E0C36480948090036DE0C4F8540F49
:10371E00C868FD90036CE0C454F048FC90036AE066
:10372E00FEA3E0FF40077B20123B26800C7B2D1270
:10373E003B2690036EE0F404F090036EE0FF75F00C
:10374E006412142690036FF0EF75F00A121426FF20
:10375E0075F00A121426AFF0900370EFF090036E1E
:10376E00E0FF75F00A121426AFF0900371EFF0E44B
:10377E00A3F0900372E0FBFF7E00C3940374809469
:10378E00805045EF2401FFEE33FEEF7803C333CEB6
:10379E0033CED8F9FF90036BE02FFF90036AE03E23
:1037AE00FE90036DE0C4F8540FC868FD90036CE002
:1037BE00C454F048FC746F2BF582E43403123B20A2
:0837CE00900372E004F080AAF0
:0137D60022D0
:0E44DE0090039EEEF0A3EFF0A3ECF0A3EDF040
:1044EC00EB75F06484A3F0EB75F00A8475F00A8424
:1044FC00A3E5F0F0EB75F00A84A3E5F0F0E4A3F08B
:10450C009003A5E0C3940374809480503BE0FB754A
:10451C00F008A4FF90039FE02FFF90039EE035F07E
:10452C00FE9003A1E0C4F8540FC868FD9003A0E00E
:10453C00C454F048FC74A22BF582E43403123B20E3
:08454C009003A5E004F080B823
:014554002244
:102FA8009002F2EEF0A3EFF0A3ECF0A3EDF0A3EAA9
:042FB800F0A3EBF0A7
:102FBC00C3EA648094809002F5E0C4F8540FC868AA
:102FCC00FD9002F4E0C454F048FC9002F2E0FEA341
:102FDC00E0FF501C7B2D123B269002F6E0FEA3E096
:102FEC00FFC3E49FFFE49E9002F6F0A3EFF0800590
:102FFC007B20123B269002F6E0FAA3E0FB7C277DB7
:10300C0010FFAE02121529A3EFF07C037DE8AF038D
:10301C00AE021215297C007D0A121529A3EDF09041
:10302C0002F6A3E07C007D64FFAE021215297C0041
:10303C007D0A1215299002FAEDF07C007D0AAF038F
:10304C00AE021215297C007D0A121529A3EDF09011
:10305C0002F6E0FEA3E0FF7C007D0A121529900227
:10306C00FCEDF0E4A3F09002FDE0FBFF7E00C394C6
:10307C0005748094805045EF2401FFEE33FEEF7809
:10308C0003C333CE33CED8F9FF9002F3E02FFF9079
:10309C0002F2E03EFE9002F5E0C4F8540FC868FD61
:1030AC009002F4E0C454F048FC74F82BF582E4343C
:0C30BC0002123B209002FDE004F080AA0C
:0130C80022E5
:0E3BEB00900343EEF0A3EFF0A3ECF0A3EDF097
:103BF9007C277D10AF03AE021214D4A3EFF07C032F
:103C09007DE8AF03AE021214D47C007D0A1214D4ED
:103C1900A3EDF07C007D64AF03AE021214D47C00E6
:103C29007D0A1214D4A3EDF07C007D0AAF03AE0225
:103C39001214D47C007D0A1214D4A3EDF0AE02AFA5
:103C4900037C007D0A1214D4A3EDF0E4A3F09003E1
:103C59004CE0C3940574809480503BE0FB75F008F8
:103C6900A4FF900344E02FFF900343E035F0FE905A
:103C79000346E0C4F8540FC868FD900345E0C454F6
:103C8900F048FC74472BF582E43403123B2090037F
:063C99004CE004F080B8CD
:013C9F002202
:0B31EA00900322EBF0A3EAF0A3E9F051
:1031F50074FFFFFE1249A4E4900329F0A3F0E490C4
:103205000327F0A3F0900327E0FAA3E0FB7C007D01
:1032150028FFAE021214C2C006C007A3E0FEA3E059
:10322500FF1214C2C006C007AF03AE021214C2EFEC
:103235002427FBE43EFA900329E0FEA3E0FF1214E5
:10324500C2EF2427FFE43E900394F0A3EFF0D005EE
:10325500D004D007D00612473FE4900325F0A3F031
:10326500900326E025E0FF900325E033FE9003223E
:10327500E0FBA3E0FAA3E0F98F828E83121461903C
:10328500032CF0E92FF9EA3EFA900001121461903F
:10329500032BF0FEA3E0FDEDFF1253D1900326E0D2
:1032A50004F07006900325E004F0C3900326E09433
:1032B50040900325E06480948640A5900328E004AF
:1032C500F07006900327E004F0C3900328E0940310
:1032D500900327E064809480500302320A90032A09
:1032E500E004F07006900329E004F0C390032AE09F
:0F32F5009404900329E064809480500302320314
:0133040022A6
:1021C300900259EBF0A3EAF0A3E9F0A3ECF0A3ED3E
:0121D300F01B
:1021D400E4900268F0A3F0A3F0A3F0A3F0A3F0A3AB
:1021E400F0A3F090025EE0FEA3E0FFD39480EE94AF
:1021F40000400A7C007D807E007F80800090026C1D
:10220400EEF0A3EFF090025CE0FEA3E0FFD394A015
:10221400EE9400400A7C007DA07E007FA0800090A8
:10222400026EEEF0A3EFF09002641216FC000000C0
:102234000090026EE0FEA3E0FFE4FCFD900264E087
:10224400F8A3E0F9A3E0FAA3E0FBC31216CC400321
:102254000223C9900264A3A3E0FEA3E0FDAC0690B0
:10226400026DE024FFFB90026CE034FFFA900264FC
:10227400A3A3A3E0FF900394EEF0A3EFF0E4FFFE2A
:1022840012473F9002601216FC0000000090026C9E
:10229400E0FEA3E0FFE4FCFD900260E0F8A3E0F9B7
:1022A400A3E0FAA3E0FBC31216CC40030223A790D9
:1022B400025CE0FEA3E0FFE4FCFD900260E0F8A312
:1022C400A3A3E012158B900259E0FBA3E0FAA3E06C
:1022D4002FF9EA3EFAEB3DFBC003C002C001A3E0C4
:1022E400FEA3E0FFE4FCFD900264E0F8A3E0F9A3A0
:1022F400E0FAA3E0FB12158BC006C00790026EE063
:10230400FEA3E0FBAA06E4F9F8D007D006121616DD
:10231400D001D002D003E92FF9EA3EFAEB3DFB12DB
:102324001448FF90026AE4F0A3EFF090026AE0FC24
:10233400A3E0FDAE047803CEC313CE13D8F97A001C
:10234400541FFB33333354F8900268F0A3E4F0AE27
:1023540004ED7802CEC313CE13D8F97E00543F782F
:1023640005C333CE33CED8F9FF900268E04EF0A314
:10237400E04FF0900268E04AFEA3E0900268125336
:10238400CA900260E0FCA3E0FDA3E0FEA3E0240108
:10239400FFE43EFEE43DFDE43CFC9002601216F0D6
:1023A400022291900264E0FCA3E0FDA3E0FEA3E01E
:1023B4002401FFE43EFEE43DFDE43CFC9002641293
:0523C40016F0022235B5
:0123C90022F1
:1027C400900270EBF0A3EAF0A3E9F0A3ECF0A3ED20
:0127D400F014
:1027D500E4900283F0A3F0A3F0A3F0900278E02444
:1027E500FFFB900277E034FFFA90027AE0900279DD
:1027F50012472D90027F1216FC000000009002790E
:10280500E0FEA3E0FFE4FCFD90027FE0F8A3E0F921
:10281500A3E0FAA3E0FBC31216CC4003022999906A
:10282500027B1216FC00000000900277E0FEA3E098
:10283500FFE4FCFD90027BE0F8A3E0F9A3E0FAA336
:10284500E0FBC31216CC4003022977900275E0FE27
:10285500A3E0FFE4FCFD90027FE0F8A3E0F9A3E02C
:10286500FAA3E0FB12158BC006C007900279E0FEC3
:10287500A3E0FBAA06E4F9F8D007D006121616A8BD
:1028850004A905AA06AB07900273E0FEA3E0FFE4E6
:10289500FCFD12158B900270E0FBA3E0FAA3E02F7C
:1028A500F9EA3EFAEB3DFBC003C002C001A3E0FE1E
:1028B500A3E0FFE4FCFD90027BE0F8A3E0F9A3E0D0
:1028C500FAA3E0FB12158BC006C007900277E0FE65
:1028D500A3E0FBAA06E4F9F8D007D006121616D035
:1028E50001D002D003E92FF9EA3EFAEB3DFB1214C1
:1028F50048FF900285E4F0A3EFF0900285E0FCA389
:10290500E0FDAE047803CEC313CE13D8F97A005494
:102915001FFB33333354F8900283F0A3E4F0AE0485
:10292500ED7802CEC313CE13D8F97E00543F780557
:10293500C333CE33CED8F9FF900283E04EF0A3E047
:102945004FF0900283E04AFEA3E09002831253CA3F
:1029550090027BE0FCA3E0FDA3E0FEA3E02401FFE1
:10296500E43EFEE43DFDE43CFC90027B1216F002E1
:10297500282E90027FE0FCA3E0FDA3E0FEA3E02467
:1029850001FFE43EFEE43DFDE43CFC90027F1216AF
:04299500F002280222
:01299900221B
:1038B1009002CCEBF0A3EAF0A3E9F0A3ECF0A3EDC6
:0138C100F016
:1038C200E49002D7F0A3F0ED24FFFBEC34FFFA9072
:1038D20002D2E09002D112472DE49002D3F0A3F07D
:1038E2009002CFE0FEA3E07803CEC313CE13D8F943
:1038F200FF9002D1E0FCA3E0FD1214C2C39002D4F7
:10390200E09F9002D3E09E50799002CCE0FBA3E0CE
:10391200FAA3E0F9121448FF9002D7E4F0A3EFF003
:103922009002CDE475F00112155FE49002D5F0A388
:10393200F09002D5E0FEA3E0FFC39408EE64809409
:1039420080502EA3E0FEA3E0A807088005C333CE73
:1039520033CED8F930E70474FF8001E4FFFE12533E
:10396200D19002D6E004F070C89002D5E004F08055
:10397200C09002D4E004F070069002D3E004F0029A
:0239820038E229
:013984002220
:10009600000000000000000000000000000000005A
:1000A6000000000808080808080800000808000002
:1000B6000048242412000000000000000000000098
:1000C6000000004848487E2424247E24242400007E
:1000D6000000103C5252121C30505052523C10102C
:1000E600000000222515150D2A58545452220000EE
:1000F6000000000C1212120A76252919916E0000D2
:1001060000060404020000000000000000000000D9
:1001160000402010100808080808081010204000A9
:10012600000204080810101010101008080402003D
:100136000000000008086B1C1C6B0808000000008B
:100146000000000000101010FE101010000000004B
:100156000000000000000000000000000604040289
:1001660000000000000000007E000000000000000B
:10017600000000000000000000000000060600006D
:100186000000402020201010080808040402020085
:100196000000001824424242424242422418000013
:1001A600000000101C10101010101010107C000021
:1001B6000000003C4242424020100804427E0000FB
:1001C6000000003C4242402018204042423C0000D1
:1001D60000000020303028242422FE2020F80000D1
:1001E6000000007E0202021E22404042221C000045
:1001F600000000182402023A4642424244380000F7
:100206000000007E422020101008080808080000A0
:100216000000003C4242422418244242423C000074
:100226000000001C22424242625C4040241800004A
:100236000000000000001818000000001818000058
:100246000000000000000008000000000008080888
:10025600000000402010080402040810204000009E
:100266000000000000007E00007E0000000000008C
:1002760000000002040810204020100804020000BC
:100286000000003C424246201010100018180000E2
:100296000000001C225A55555555553A423C00005F
:1002A6000000000808181414243C224242E700000B
:1002B6000000001F2222221E22424242221F00006C
:1002C6000000007C4242010101010142221C0000A3
:1002D6000000001F2242424242424242221F0000C8
:1002E6000000003F4212121E12120242423F00005C
:1002F6000000003F4212121E121202020207000004
:100306000000003C2222010101712122221C000072
:10031600000000E7424242427E42424242E700007B
:100326000000003E0808080808080808083E000003
:100336000000007C10101010101010101010110F7B
:100346000000007722120A0E0A12122222770000FB
:10035600000000070202020202020202427F0000BF
:100366000000007736363636362A2A2A2A6B0000EF
:10037600000000E346464A4A525252626247000073
:100386000000001C2241414141414141221C000024
:100396000000003F424242423E02020202070000C3
:1003A6000000001C224141414141414D321C600088
:1003B6000000003F4242423E1212222242C7000083
:1003C6000000007C4242020418204042423E0000E7
:1003D6000000007F4908080808080808081C0000F3
:1003E600000000E74242424242424242423C000092
:1003F600000000E7424222242414141808080000D2
:100406000000006B2A2A2A2A2A3614141414000023
:10041600000000E7422424181818242442E70000AC
:10042600000000772222141408080808081C00009F
:100436000000007E2120101008040442423F000004
:100446000078080808080808080808080808780056
:100456000000020404040808081010202020404070
:10046600001E1010101010101010101010101E008A
:10047600001824000000000000000000000000003A
:1004860000000000000000007E00000000000000E8
:100496000006080000000000000000000000000048
:1004A600000000000000001C22302C22326C0000EC
:1004B600000000000302021A26424242261A0000E9
:1004C6000000000000000038440202024438000028
:1004D600000000006040407C4242424262DC000074
:1004E600000000000000003C42427E02423C000048
:1004F600000000003048083E08080808083E0000D2
:10050600000000000000007C22221C023C42423C0B
:10051600000000000302023A4642424242E700005F
:100526000000000C0C00000E08080808083E000039
:100536000000003030000038202020202020221E1D
:100546000000000003020272120A0E122277000057
:10055600000000080E08080808080808083E000001
:10056600000000000000007F9292929292B7000075
:10057600000000000000003B4642424242E7000005
:10058600000000000000003C42424242423C0000A3
:10059600000000000000001B26424242261A020705
:1005A600000000000000005864424242645840E0E7
:1005B60000000000000000774C040404041F000043
:1005C600000000000000007C42023C40423E000069
:1005D600000000000008083E08080808483000002F
:1005E60000000000000000634242424262DC00005C
:1005F6000000000000000077222214140808000002
:1006060000000000000000DB91525A2A242400005A
:10061600000000000000006E241818182476000060
:1006260000000000000000E742242418180808060D
:10063600000000000000007E22100808447E000032
:1006460000C0202020202020102020202020C000B4
:100656001010101010101010101010101010101094
:10066600000304040404040408040404040403004A
:10067600045A2000000000000000000000000000F6
:100686000000000000000000002F0000000007002E
:10069600070000147F147F1400242A7F2A120062A8
:1006A6006408132300364955225000000503000054
:1006B60000001C224100000041221C000014083EDC
:1006C60008140008083E0808000000A060000008A2
:1006D60008080808000060600000002010080402F6
:1006E600003E5149453E0000427F400000426151B4
:1006F6004946002141454B31001814127F1000274E
:1007060045454539003C4A49493000017109050310
:1007160000364949493600064949291E0000363641
:1007260000000000563600000008142241000014A4
:100736001414141400004122140800020151090681
:1007460000324959513E007C1211127C007F494902
:100756004936003E41414122007F4141221C007F33
:1007660049494941007F09090901003E4149497A41
:10077600007F0808087F0000417F410000204041BB
:100786003F01007F08142241007F40404040007F27
:10079600020C027F007F0408107F003E4141413E6B
:1007A600007F09090906003E4151215E007F0919B3
:1007B60029460046494949310001017F0101003FB0
:1007C6004040403F001F2040201F003F4038403F30
:1007D6000063140814630007087008070061514994
:1007E600454300007F41410000552A552A55000027
:1007F60041417F00000402010204004040404040A5
:10080600000001020400002054545478007F48443C
:10081600443800384444442000384444487F003873
:100826005454541800087E0901020018A4A4A47C9C
:10083600007F080404780000447D40000040808466
:100846007D00007F102844000000417F4000007CAE
:1008560004180478007C08040478003844444438BA
:1008660000FC242424180018242418FC007C080406
:10087600040800485454542000043F444020003CDF
:100886004040207C001C2040201C003C4030403C66
:10089600004428102844001CA0A0A07C00446454F6
:1008A6004C4414141414141400000000000000003A
:1008B6000000000000000000000000F8000000003A
:1008C600000000333000000000100C06100C06007B
:1008D600000000000000000040C07840C0784000E2
:1008E600043F04043F040400007088FC0830000044
:1008F600001820FF211E0000F008F000E01800009C
:1009060000211C031E211E0000F008887000000054
:100916001E2123241927211010160E0000000000A6
:100926000000000000000000000000E018040200C3
:10093600000000071820400000020418E000000034
:100946000040201807000000404080F08040400032
:100956000202010F01020200000000F00000000088
:100966000101011F0101010000000000000000005C
:1009760080B07000000000000000000000000000D1
:10098600000101010101010100000000000000005A
:1009960000303000000000000000000080601804F5
:1009A600006018060100000000E010080810E000D2
:1009B600000F102020100F00001010F8000000009B
:1009C6000020203F202000000070080808887000E2
:1009D6000030282422213000003008888848300062
:1009E6000018202020110E000000C02010F8000082
:1009F60000070424243F240000F80888880808001B
:100A06000019212020110E0000E01088881800002F
:100A1600000F112020110E0000380808C838080001
:100A26000000003F00000000007088080888700081
:100A3600001C222121221C0000E010080810E00002
:100A46000000312222110F00000000C0C00000008B
:100A560000000030300000000000008000000000B0
:100A660000008060000000000000804020100800A8
:100A76000001020408102000404040404040400071
:100A8600040404040404040000081020408000004C
:100A96000020100804020100007048080808F00051
:100AA6000000003036010000C030C828E810E00021
:100AB6000718272423140B000000C038E0000000AC
:100AC600203C23020227382008F888888870000016
:100AD600203F202020110E00C030080808083800EA
:100AE600071820202010080008F808080810E00061
:100AF600203F202020100F0008F88888E808100002
:100B0600203F20202320180008F88888E8081000D5
:100B1600203F200003000000C0300808083800000D
:100B260007182020221E020008F808000008F8080E
:100B3600203F210101213F20000808F80808000095
:100B46000020203F2020000000000808F8080800C8
:100B5600C08080807F00000008F888C02818080040
:100B6600203F20012638200008F808000000000079
:100B7600203F20202020300008F8F800F8F8080070
:100B8600203F003F003F200008F830C00008F8086A
:100B9600203F200007183F00E01008080810E0007A
:100BA6000F10202020100F0008F808080808F00091
:100BB600203F210101010000E01008080810E000B4
:100BC6000F18242438504F0008F888888888700049
:100BD600203F2000030C30200070880808083800E9
:100BE6000038202121221C00180808F808081800DF
:100BF6000000203F2000000008F808000008F80860
:100C0600001F202020201F000878880000C8380810
:100C1600000007380E010000F80800F80008F80088
:100C2600033C0700073C0300081868808068180822
:100C360020302C03032C30200838C800C8380800A0
:100C46000000203F2000000010080808C8380800EF
:100C56002038262120201800000000FE0202020093
:100C66000000007F40404000000C30C00000000043
:100C7600000000010638C00000020202FE0000006B
:100C8600004040407F000000000004020202040011
:100C9600000000000000000000000000000000004E
:100CA6008080808080808080000202040000000036
:100CB600000000000000000000008080808000002E
:100CC6000019242222223F2008F80080800000001C
:100CD600003F112020110E000000008080800000DF
:100CE600000E112020201100000000808088F800EE
:100CF600000E112020103F20000080808080000020
:100D0600001F222222221300008080F08888881883
:100D16000020203F2020000000008080808080008E
:100D2600006B94949493600008F800808080000023
:100D3600203F210000203F200080989800000000FE
:100D46000020203F2020000000000080989800002E
:100D560000C08080807F000008F80000808080004E
:100D6600203F24022D302000000808F80000000073
:100D76000020203F2020000080808080808080002E
:100D8600203F20003F20003F8080008080800000C0
:100D9600203F210000203F2000008080808000004E
:100DA600001F202020201F0080800080800000007F
:100DB60080FFA12020110E000000008080808000AE
:100DC600000E112020A0FF8080808000808080009F
:100DD60020203F21200001000000808080808000CC
:100DE6000033242424241900008080E08080000041
:100DF6000000001F2020000080800000008080008E
:100E0600001F202020103F208080800000808080EE
:100E160000010E300806010080800080008080807E
:100E26000F300C030C300F000080800080808000A3
:100E36000020312E0E3120008080800000808080CE
:100E460080818E701806010000808080808080007E
:100E56000021302C2221300000000000807C02029C
:100E660000000000003F404000000000FF000000BE
:100E760000000000FF0000000002027C800000006D
:100E86000040403F00000000000601010202040489
:080E9600000000000000000054
:10005E00E4900488F0900488E064126017E4FB7D5D
:10006E00757F691252B7900488EFF07F0A7E0012F6
:04007E00585980E16C
:01008200225B
:104878007F0A7E0012585912005E7B807D6B7F692B
:104888001257F27F027E00125859E4FB7D6B7F6954
:104898001252B7EF20E7F37B017D6B7F691257F265
:1048A800E4FB7D6C7F691257F27B017D1A7F6912E8
:1048B80057F27B077D197F691257F27B187D1B7FA2
:1048C800691257F27B107D1C7F691257F27B037DBA
:0648D8001D7F690257F28A
:104B43007B017A0479089003D17406F0E4A3F07D25
:104B53003B7F69124465900408E0FEA3E0FDEDFF8E
:104B63009002FEEEF0A3EFF090040AE0FEA3E0FD56
:104B7300EDFF900300EEF0A3EFF090040CE0FEA332
:0C4B8300E0FDEDFF900302EEF0A3EFF068
:014B8F002203
:104B90007B017A04790E9003D17406F0E4A3F07DD2
:104BA000437F6912446590040EE0FEA3E0FDEDFF33
:104BB000900304EEF0A3EFF0900410E0FEA3E0FDFC
:104BC000EDFF900306EEF0A3EFF0900412E0FEA3D9
:0C4BD000E0FDEDFF900308EEF0A3EFF015
:014BDC0022B6
:06555400C292EF4480FF4B
:10555A00E4FEEEC39408748094805015EF3392935E
:10556A00EF25E0FFC295D295A294E4334FFF0E8057
:01557A00E14F
:01557B00220D
:0D000600C29212555AAF0512555AD29222DD
:0F5A0900125554E4FF12555AEF12148ED2922206
:0B51BB0090045BEBF0A3EAF0A3E9F026
:1051C600125554E4FDFC90045EE0FFC3ED9FEC94A1
:1051D60000501FE4FF12555A90045BE0FBA3E0FA6F
:1051E600A3E0F98D828C83EF1214A00DBD00010C93
:0451F60080D4D292FD
:0151FA002292
:105907007B017A0479897F75125A09900489E064CA
:035917001270ED1E
:01591A00226A
:1049FA001259077D807F6B1200067F027E001258D3
:104A0A00597B017A04798A7F6B125A0990048AE0E9
:104A1A00644170ED7D017F6B1200061D7F6C1200F0
:104A2A00060D7F1A1200067D077F191200067D18EF
:104A3A007F1B1200067D107F1C1200067D037F1D5E
:034A4A0002000661
:104E7C007B017A04791490045E7406F07F3B125126
:104E8C00BB900414E0FEA3E0FDEDFF9002FEEEF0FB
:104E9C00A3EFF0900416E0FEA3E0FDEDFF900300FD
:104EAC00EEF0A3EFF0900418E0FEA3E0FDEDFF9010
:074EBC000302EEF0A3EFF08A
:014EC30022CC
:104EC4007B017A04791A90045E7406F07F431251D0
:104ED400BB90041AE0FEA3E0FDEDFF900304EEF0A6
:104EE400A3EFF090041CE0FEA3E0FDEDFF900306A9
:104EF400EEF0A3EFF090041EE0FEA3E0FDEDFF90C2
:074F04000308EEF0A3EFF03B
:014F0B002283
:0E588700EBF0A3EAF0A3E9F0C292EF4480FF39
:08589500AB07E4FDFF024CC269
:1000260090048BEDF0C29212589590048BE0FF126B
:050036005895D2922252
:1057B80090046D125887E4FF12589590046DE0FB31
:0D57C800A3E0FAA3E0F9EF12148ED29222B2
:034AA0009003C6BA
:104AA300125887E49003CAF0A3F09003C9E0FFC350
:104AB3009003CBE09F9003CAE09400502FE4FF12D1
:104AC30058959003C6E0FBA3E0FAA3E0F99003CA6C
:104AD300E0FCA3E0F5828C83EF1214A09003CBE0FB
:0E4AE30004F070C69003CAE004F080BED292C8
:014AF10022A2
:10563A00E490048CF090048CE0641260147B017A8C
:10564A0004798C7F751257B87F0A7E0012585980E8
:01565A00E46B
:01565B00222C
:10481100E490048DF07F0AFE125859E4FBFDFF126B
:104821004D5812563A7D807F6B1200267F027E0022
:104831001258597B017A04798D7F6B1257B8900415
:104841008DE0644170ED7D017F6B120026E4FD7FF8
:104851006C1200267D017F1A1200267D077F191236
:1048610000267D187F1B1200267D107F1C1200265A
:074871007D037F1D020026FC
:104F0C007B017A0479209003C97406F07F3B124A26
:104F1C00A0900420E0FEA3E0FDEDFF9002FEEEF079
:104F2C00A3EFF0900422E0FEA3E0FDEDFF90030060
:104F3C00EEF0A3EFF0900424E0FEA3E0FDEDFF9073
:074F4C000302EEF0A3EFF0F9
:014F5300223B
:104F54007B017A0479269003C97406F07F43124AD0
:104F6400A0900426E0FEA3E0FDEDFF900304EEF024
:104F7400A3EFF0900428E0FEA3E0FDEDFF9003060C
:104F8400EEF0A3EFF090042AE0FEA3E0FDEDFF9025
:074F94000308EEF0A3EFF0AB
:014F9B0022F3
:0100210022BC
:07589D00C2951258A4D29538
:0E58A4007F647E00EF1FAC0670011E4C70F694
:0158B20022D3
:0F5A1800D293D2951258A4C2931258A4C29522C9
:0A5A2700C29312589DD2930258A4B6
:10580E00AD07C2951258A4ED6004C2938002D293E4
:0A581E00D2951258A4C2950258A4B6
:1058B30012589D309306C295E4FEFF22C2951258FA
:0658C300A47E007F01221B
:0455A400E025E0FF1F
:0255A800AD074D
:1055AA007B08AF031BEF6015ED30E704D29380024E
:1055BA00C293ED25E0FD12589FC29580E50258B3CB
:02536100AD0796
:10536300E4FBC2951258A4D293E4FAEAC3940874F6
:1053730080948050111258A412589DEB25E0FB3005
:1053830093010B0A80E5C2951258A4AF0512580E7B
:02539300AF0366
:0153950022F5
:1057F20090048EEFF0AA03A905125A181255A4AF0D
:0C580200011255A8AF021255A8025A2747
:0952B70090048FEDF0AA07A90391
:1052C000125A18EA25E0FF1255A8E0FF1255A8E986
:1052D00064017003125A27125A18AF02EF25E044F6
:1052E00001FF1255A8E4FF125361AD07125A27AF10
:0152F00005B8
:0152F100229A
:104465009003CCEFF0A3EDF0A3EBF0A3EAF0A3E902
:10447500F0125A189003CC1255A4A3E0FF1255A8C8
:104485009003D2E064017003125A27125A18900360
:10449500CCE025E04401FF1255A89003D1E014F0CB
:1044A50060207F011253619003CEE0FBA3E0FAA3E5
:1044B500E0F9EF12148E9003CFE475F00112155F49
:1044C50080D8E4FF1253619003CEE0FBA3E0FAA38A
:0944D500E0F9EF12148E025A27DF
:1059AB00E4FD7F0D124DA17D0A7C00E4FF023FF860
:10409400E4900490F0FDFF124D1C7DFFE4FF124DEF
:1040A4001C7D01E4FF124D1CE4FDFF124D1CE49045
:1040B4000490F0900490E0FDC39480748094805048
:1040C40061ED25E02401F582E43400F583C083C06A
:1040D40082A3E0C4F8540FC868FF0582D582021594
:1040E400831582E0C454F048D082D083F0A3EFF06B
:1040F400ED25E02401F582E43400F583E0FDE4FFDE
:10410400124D1C900490E025E02401F582E4340073
:10411400F583A3E0FDE4FF124D1C900490E004F04D
:02412400809188
:014126002276
:104FE300E4900491F0D2B6C2B7C2B6D2B7D2B6C279
:104FF300B7F0900491E0C39480748094805027C2EA
:10500300B6E4FD7F0D125484900491E025E0240161
:10501300F582E43400F583EEF0A3EFF0D2B690040A
:0650230091E004F080CCD6
:015029002264
:065A550025640025660037
:1059BB00C2A2C2A1AB07E4FD7F01124CC2D2A2224C
:1059CB00C2A2D2A1AB07E4FD7F01124CC2D2A2222C
:0753FA002428FFE03400FE4F
:02540100AC06F7
:10540300EC90047EF0A3EFF0C2A2D2A190047EE060
:10541300FBE4FD7F01124CC290047FE0FBE4FD7FBF
:0654230001124CC2D2A2EE
:015429002260
:102E5000E4FBFD7F01124D58D2A4C2A1C2A07FC8DD
:102E60007E00125859D2A07F647E001258597F36D6
:102E70001259BB7FA01259CB7F3A1259BB7F051262
:102E800059CB7FB21259BB7F0C1259CB7F0C125910
:102E9000CBE4FF1259CB7F331259CB7F331259CB7E
:102EA0007FB71259BB7F351259CB7FBB1259BB7FFD
:102EB000371259CB7FC01259BB7F2C1259CB7FC21E
:102EC0001259BB7F011259CB7FC31259BB7F12121B
:102ED00059CB7FC41259BB7F201259CB7FC61259E0
:102EE000BB7F0F1259CB7FD01259BB7FA41259CB95
:102EF0007FA11259CB7FE01259BB7FD01259CB7FF3
:102F0000041259CB7F0D1259CB7F111259CB7F136D
:102F10001259CB7F2B1259CB7F3F1259CB7F5412C2
:102F200059CB7F4C1259CB7F181259CB7F0D1259B8
:102F3000CB7F0B1259CB7F1F1259CB7F231259CB5A
:102F40007FE11259BB7FD01259CB7F041259CB7F3E
:102F50000C1259CB7F111259CB7F131259CB7F2CF6
:102F60001259CB7F3F1259CB7F441259CB7F51125C
:102F700059CB7F2F1259CB7F1F1259CB7F1F12596C
:102F8000CB7F201259CB7F231259CB7F211259BB03
:102F90007F111259BB7F787E001258597F29125930
:082FA000BB74FFFFFE0247A015
:104AF2009003A6EEF0A3EFF0A3ECF0A3EDF0A3EA8F
:104B0200F0A3EBF07F2A1259BB9003A7E09003A613
:104B12001253FA9003ABE09003AA1253FA7F2B12BE
:104B220059BB9003A9E02434FF9003A81253FD90CF
:104B320003ADE02434FF9003AC1253FD7F2C0259E5
:014B4200BBB7
:0847A000900432EEF0A3EFF0EB
:1047A8009003ACE4F0A37486F07BEF7A00E4FDFCA0
:1047B800FFFE124AF2E4900434F0A3F0E4900436C9
:1047C800F0A3F0900432E0FEA3E0FF12540190043D
:1047D80037E004F07006900436E004F0C390043724
:1047E800E09487900436E0940040D8900435E004C3
:1047F800F07006900434E004F0C3900435E094F0BF
:08480800900434E0940040B478
:014810002285
:10513800900438EEF0A3EFF090043CEAF0A3EBF013
:1051480090043AECF0A3EDF0900438E0FAA3E0FB09
:10515800FFAE02C007A3E0FFA3E09003ACCFF0A32B
:10516800EFF0D007124AF290043CE0FEA3E0FF0201
:025178005401E0
:06361D00F583E02430FB00
:103623009003AEEEF0A3EFF0A3ECF0A3EDF0A3EB69
:01363300F0A6
:10363400E4A3F09003B3E0F9C39410748094804041
:10364400030236FCE9FF9003B1E02FFD9003B0E0E4
:103654003400FC9003AFE02407FB9003AEE0340099
:10366400FA7E009003B0E0F8A3E02FFFEE38900359
:10367400ACF0A3EFF09003AEE0FEA3E0FF124AF239
:103684009003B2E0FF3395E0FEEFC4F8540FC8682E
:10369400FFEEC454F048FE74962FF58274FE3EF596
:1036A40083C083C0829003B3E0D082D0832582F5A7
:1036B40082E43583F583E4939003B5F0E49003B496
:1036C400F09003B4E0C39408748094805021A3E084
:1036D40030E0067F007EF8800474FFFFFE12540180
:1036E4009003B5E0C313F09003B4E004F080D290EB
:0836F40003B3E004F0023637D5
:0136FC0022AB
:10464200900373EEF0A3EFF0A3ECF0A3EDF0A3EB75
:07465200F0A3EAF0A3E9F078
:10465900E4A3F0A3F0900377E0FBA3E0FAA3E0F969
:10466900A3E0FEA3E0FFF5828E83121461FB603E96
:10467900EF7803C333CE33CED8F9FF900374E02F1C
:10468900FF900373E03EFE900376E0C4F8540FC830
:1046990068FD900375E0C454F048FC12362390037A
:0E46A9007BE004F070AF90037AE004F080A78D
:0146B70022E0
:1037D70090037CEEF0A3EFF0A3ECF0A3EDF0A3EBE6
:0137E700F0F1
:1037E8003395E0C36480948090037FE0C4F8540F5D
:1037F800C868FD90037EE0C454F048FC90037CE068
:10380800FEA3E0FF500E7B2D123623900380E0F4D8
:1038180004F080057B20123623900380E0FF75F0CA
:1038280064121426900381F0EF75F00A121426FF33
:1038380075F00A121426AFF0900382EFF09003801F
:10384800E0FF75F00A121426AFF0900383EFF0E45E
:10385800A3F0900384E0FBFF7E00C394037480947C
:10386800805045EF2401FFEE33FEEF7803C333CEDB
:1038780033CED8F9FF90037DE02FFF90037CE03E24
:10388800FE90037FE0C4F8540FC868FD90037EE003
:10389800C454F048FC74812BF582E4340312361DBD
:0838A800900384E004F080AA03
:0138B00022F5
:0E4555009003B6EEF0A3EFF0A3ECF0A3EDF0B0
:10456300EB75F06484A3F0EB75F00A8475F00A84AC
:10457300A3E5F0F0EB75F00A84A3E5F0F0E4A3F013
:104583009003BDE0C3940374809480503BE0FB75BB
:10459300F008A4FF9003B7E02FFF9003B6E035F0D7
:1045A300FE9003B9E0C4F8540FC868FD9003B8E067
:1045B300C454F048FC74BA2BF582E4340312361D5C
:0845C3009003BDE004F080B894
:0145CB0022CD
:1030C90090030AEEF0A3EFF0A3ECF0A3EDF0A3EA6E
:0430D900F0A3EBF085
:1030DD00C3EA6480948090030DE0C4F8540FC8686F
:1030ED00FD90030CE0C454F048FC90030AE0FEA3ED
:1030FD00E0FF501C7B2D12362390030EE0FEA3E063
:10310D00FFC3E49FFFE49E90030EF0A3EFF0800554
:10311D007B2012362390030EE0FAA3E0FB7C277D83
:10312D0010FFAE02121529A3EFF07C037DE8AF036B
:10313D00AE021215297C007D0A121529A3EDF0901F
:10314D00030EA3E07C007D64FFAE021215297C0006
:10315D007D0A121529900312EDF07C007D0AAF0354
:10316D00AE021215297C007D0A121529A3EDF090EF
:10317D00030EE0FEA3E0FF7C007D0A1215299003EB
:10318D0014EDF0E4A3F0900315E0FBFF7E00C39473
:10319D0005748094805045EF2401FFEE33FEEF78E7
:1031AD0003C333CE33CED8F9FF90030BE02FFF903E
:1031BD00030AE03EFE90030DE0C4F8540FC868FD0D
:1031CD0090030CE0C454F048FC74102BF582E434E9
:0C31DD000312361D900315E004F080AAD8
:0131E90022C3
:0E3CA00090034DEEF0A3EFF0A3ECF0A3EDF0D7
:103CAE007C277D10AF03AE021214D4A3EFF07C0379
:103CBE007DE8AF03AE021214D47C007D0A1214D438
:103CCE00A3EDF07C007D64AF03AE021214D47C0031
:103CDE007D0A1214D4A3EDF07C007D0AAF03AE0270
:103CEE001214D47C007D0A1214D4A3EDF0AE02AFF0
:103CFE00037C007D0A1214D4A3EDF0E4A3F090032C
:103D0E0056E0C3940574809480503BE0FB75F00838
:103D1E00A4FF90034EE02FFF90034DE035F0FE9090
:103D2E000350E0C4F8540FC868FD90034FE0C4542C
:103D3E00F048FC74512BF582E4340312361D9003C7
:063D4E0056E004F080B80D
:013D5400224C
:0E352F0090022DEEF0A3EFF0A3ECF0A3EDF070
:10353D00900235E0FFC3740A9F7480F898500374AD
:10354D000AF0900235E004F0900231E0FCA3E0FDBA
:10355D00A3E0FEA3E0FFE4FBFAF9F8D31216B640A0
:10356D00319001D174FFF0A3745AF0A37455F0900B
:10357D000231E0FCA3E0FDA3E0FEA3E0FF9001D447
:10358D001216F00B7A027936121DA5900258EFF043
:10359D0080389002367420F09001D174FFF0A3743E
:1035AD005AF0A37455F0900231E0FCA3E0FDA3E0C6
:1035BD00FEA3E0FF9001D41216F07B017A02793759
:1035CD00121DA5900258EFF0801E900235E0FF907D
:1035DD000258E0FEC39F501574362EF582E4340276
:1035ED00F5837420F0900258E004F080DD74362FDE
:1035FD00F582E43402F583E4F090022DE0FEA3E0C1
:10360D00FFA3E0FCA3E0FD7B017A0279360246427E
:0E2CDA009001FEEEF0A3EFF0A3ECF0A3EDF0FE
:102CE800900207E0FFC374069F7480F8985003743D
:102CF80006F0900206E0FFC3740A9F7480F89850AB
:102D080003740AF0900202E0FCA3E0FDA3E0FEA336
:102D1800E0FFE4FBFAF9F81210449001D160314069
:102D28002F74FFF0A3745AF0A37458F0900202E0D5
:102D3800FCA3E0FDA3E0FEA3E0FF9001D41216F08F
:102D48007B017A027909121DA5900208EFF0803004
:102D580074FFF0A3745AF0A37458F0900202E0FCD8
:102D6800A3E0FDA3E0FEA3E0FF9001D41216F07BE0
:102D7800017A02790A121DA5900208EFF0E004F02A
:102D8800900208E024F9FD900206E0FEC3ED9E14CF
:102D980090022BF0900207E0AE052E0490022CF072
:102DA80090022BE0FF3395E0FED3E49FEE6480F8B9
:102DB8007480984022A3E0FF3395E0FE74092FF554
:102DC8008274023EF5837420F090022CE004F090A7
:102DD800022BE004F080C9900202E0FCA3E0FDA30E
:102DE800E0FEA3E0FFE4FBFAF9F812104490022B8E
:102DF80060174015E0FF3395E0FE74092FF58274E3
:102E0800023EF583742DF08013E0FF3395E0FE74E5
:102E1800092FF58274023EF5837420F090022CE0AD
:102E2800FF3395E0FE74092FF58274023EF583E4C2
:102E3800F09001FEE0FEA3E0FFA3E0FCA3E0FD7B31
:082E4800017A027909024642F9
:102B4700900287EEF0A3EFF0A3ECF0A3EDF0A3EB78
:022B5700F0F993
:102B5900E0FF131313541F900299F090028FE08F36
:102B6900F0A424FFFDE5F034FFFC900287E0FEA30A
:102B7900E0FF2DFBEE3CFAC002C003C006A3E0FC57
:102B8900A3E0FDE9FB7A00900289E0F8A3E02BFBC2
:102B9900EA38CB24FFFEEB34FF9003ACF0A3CEF070
:102BA900D006D003D002124AF2E4900292F0A3F0C8
:102BB90090028BE0FF900292E0FCA3E0FDC39F74BA
:102BC90080F8EC6480984003022CD990028FE09041
:102BD9000298F0A3E0FF7E001214C290028CE0FB81
:102BE900A3E0FAA3E02FF9EA3E022CB9900298E09B
:102BF900FF14F0EF7003022CC8E4900296F0A3F0E2
:102C0900900299E0FFC3900297E09F7480F89002C8
:102C190096E06480985076900294E4F0A37408F0EA
:102C2900900294E0FEA3E0FFD39400EE64809480C8
:102C3900404090029AE0FBA3E0FAA3E0F91214489D
:102C4900FDEF14FFF8ED088002C313D8FC540160AE
:102C59000A900290E0FEA3E0FF800474FFFFFE12D9
:102C69005401900295E024FFF0900294E034FFF0C3
:102C790080AE90029BE475F00112155F900297E017
:102C890004F07006900296E004F0022C0990029973
:102C9900E0FFFDA3E0FBA3E0FAA3E0C39DF9EA94FA
:102CA90000FA90028BE0FEEF8EF0A429F9EA35F0E4
:102CB900FA90029AEBF0A3EAF0A3E9F0022BF5905F
:102CC9000293E004F07006900292E004F0022BB93E
:012CD90022D8
:1056C200E4FB7D6B7F681257F27B077D197F6812BE
:1056D20057F2E4FB7D197F681252B7EF640770F24C
:0156E20022A5
:104E33007F647E001258591256C2E4FB7D6B7F6873
:104E43001257F27B077D197F681257F27B047D1A94
:104E53007F681257F27B187D1B7F681257F27B1015
:104E63007D1C7F681257F2E4FB7D6A7F681257F25C
:094E73007B027D377F680257F2D3
:104BDD007B017A04793E9003D17406F0E4A3F07D55
:104BED003B7F6812446590043EE0FEA3E0FDEDFFBF
:104BFD00900316EEF0A3EFF0900440E0FEA3E0FD6D
:104C0D00EDFF900318EEF0A3EFF0900442E0FEA349
:0C4C1D00E0FDEDFF90031AEEF0A3EFF0B5
:014C29002268
:104C2A007B017A0479449003D17406F0E4A3F07D01
:104C3A00437F68124465900444E0FEA3E0FDEDFF63
:104C4A0090031CEEF0A3EFF0900446E0FEA3E0FD13
:104C5A00EDFF90031EEEF0A3EFF0900448E0FEA3F0
:0C4C6A00E0FDEDFF900320EEF0A3EFF062
:014C7600221B
:04003E002D00200071
:0554DA00F583E493FFDF
:1054DF007E08C2A2D2A1C2A5AD061EED6014EF30A8
:1054EF00E704D2A38002C2A3D2A5C2A5EF25E0FF95
:0454FF0080E6D2A2CF
:015503002285
:1055F0007E06C2A2D2A1C2A5AD061EED6014EF3098
:10560000E704D2A38002C2A3D2A5C2A5EF25E0FF82
:0456100080E6D2A2BC
:015614002273
:08542A0054F0C4540F4410FFBC
:105432007E08C2A2C2A1C2A5AD061EED6014EF3065
:10544200E704D2A38002C2A3D2A5C2A5EF25E0FF42
:0454520080E6D2A27C
:015456002233
:104365009003D3EEF0A3EFF0A3EBF0A3EAF0A3E9FB
:01437500F057
:104376009003D97406F09003D5E0FBA3E0FAA3E01E
:10438600F99003D9E0F582758300E4804E9003D955
:10439600E0604D14F09003D3E0FAA3E0FB7C007DCF
:1043A6000AFFAE021214D49003D8EDF07C007D0A09
:1043B600AF03AE021214D49003D3EEF0A3EFF09045
:1043C60003D8E02430FF9003D5E0FBA3E0FAA3E096
:1043D600F99003D9E0F582758300EF1214A080AD41
:0143E60022B4
:103EAF00D2A2D2A5C2A07F327E00125859D2A07FD3
:103EBF00AE125432E4FF1254327F101254327F404C
:103ECF001254327F811254327F7F1254327FA112EB
:103EDF0054327FC81254327FA61254327FA8125424
:103EEF00327F3F1254327FD3125432E4FF125432D6
:103EFF007FD51254327F801254327FD91254327FC1
:103F0F00F11254327FDA1254327F121254327FDBA5
:103F1F001254327F401254327F201254327F0212D9
:103F2F0054327F8D1254327F141254327FA41254A4
:103F3F00327FA61254327FAF125432E4FF12532A4B
:063F4F00E4FDFF02591B16
:10591B00AC07ED24B0FF125432EC12542AEC540FA6
:04592B00FF025432F1
:02532A00AC07CE
:10532C00E4FBEBC39408748094805028EB24B0FF0A
:10533C001254327F011254327F10125432E4FAEAC2
:10534C00C39480748094805008AF041254DF0A8098
:04535C00EE0B80CE06
:01536000222A
:10572500AA07A90512591BE924B0FF125432EA123F
:0E573500542AEA540FFF125432AF030254DF1D
:10574300AB07AA0512591BEA24B0FF125432EB121D
:0E575300542AEB540FFF125432E4FF0254DFCD
:104249009003DAEFF0A3EDF0A3EBF0A3EAF0A3E912
:01425900F074
:10425A00E4A3F0FCA3F09003DCE0FBA3E0FAA3E004
:10426A00F99003E0E0F582758300121461605F241F
:10427A00E09003DFF09003DAE0D3947E74809480B8
:10428A004006E4F0A3E004F09003DAE0FFA3E0FDC7
:10429A0012591BE4FCECC39406748094805020905D
:1042AA0003DFE075F006A42486F582E5F03406F50E
:1042BA0083E5822CF582E435831254DA0C80D69099
:0E42CA0003DAE02406F09003E0E004F08088C0
:0142D80022C3
:103A54009003E1EFF0A3EDF0A3EBF0A3EAF0A3E908
:013A6400F071
:103A6500E4A3F0FCA3F09003E3E0FBA3E0FAA3E0FA
:103A7500F99003E7E0F58275830012146170030283
:103A85003B1F24E09003E6F09003E1E0D3947874C3
:103A95008094804006E4F0A3E004F09003E1E0FFA9
:103AA500A3E0FD12591BE4FCECC3940874809480D8
:103AB50050209003E6E075F010A42CF582E435F073
:103AC500F583E58224AEF582E58334081254DA0CD9
:103AD50080D69003E1E0FFA3E004FD12591BE4FC4E
:103AE500ECC394087480948050209003E6E075F050
:103AF50010A42CF582E435F0F583E58224B6F58231
:103B0500E58334081254DA0C80D69003E1E02408EA
:0A3B1500F09003E7E004F0023A6BC1
:013B1F002283
:0855CA00900385EFF0A3EDF062
:1055D200AE02AF037B017A0379871243659003859C
:0E55E200E0FFA3E0FD7B017A037988024249D5
:0E46B80090032DEFF0A3EDF0A3EAF0A3EBF0DA
:1046C600C3EA64809480502590032FE0FEA3E0FFA8
:1046D600C3E49FFFE49E90032FF0A3EFF090032D19
:1046E600E0FFA3E0FD7BFF7A00793E800E90032D6C
:1046F600E0FFA3E0FD7BFF7A007940124249900378
:104706002DE02406F090032FE0FEA3E0FF7B017A64
:1047160003793112436590032DE0FFA3E0FD7B0191
:074726007A037932024249D7
:1017840090029FECF0A3EDF0A3EBF0A3EAF0A3E941
:09179400F090029DEEF0A3EFF0CD
:10179D007E005407FF9002ABEEF0A3EFF0701790B0
:1017AD00029DE0FEA3E07803CEC313CE13D8F9FF5C
:1017BD009002A9EE801890029DE0FEA3E07803CE82
:1017CD00C313CE13D8F92401FFE43E9002A9F0A370
:1017DD00EFF0E49002A5F0A3F09002A9E0FEA3E0E3
:1017ED00FF9002A5E0FCA3E0FDC39FEE6480F8EC42
:1017FD006480984003021D3FE4FF12591BE4A3F0DF
:10180D00A3F090029FE0FCA3E0FDC39002A8E09D31
:10181D009002A7E09C4003021D2EE49002ADF090D3
:10182D0002AAE024FFFF9002A9E034FFFE9002A57A
:10183D00E0FAA3E0FBC39FEE6480F8EA6480984071
:10184D00159002ABE0FEA3E0FF4E600AEF9401EEAF
:10185D0064809480404D9002ADE0FFC007AE02EB76
:10186D007803C333CE33CED8F9FF1214C29002A140
:10187D00E0FBA3E0FAA3E02FF9EA3EFA9002A7E01D
:10188D00FEA3E029F9EA3EFA121448FF9002A4E003
:10189D00FEEFD39E40047E0180027E00D0E04E908C
:1018AD0002ADF09002AAE024FFFF9002A9E034FF00
:1018BD00FE9002A5E0FCA3E0FDC39FEE6480F8EC72
:1018CD0064809840159002ABE0FEA3E0FF4E600AE5
:1018DD00EF9402EE6480948040639002ADE0FFC00F
:1018ED0007AE04ED7803C333CE33CED8F9FF9002A3
:1018FD009FE0FCA3E0FD1214C2A3E0FBA3E0FAA35A
:10190D00E02FF9EA3EFA9002A7E0FEA3E029F9EAFA
:10191D003EFA90029FE0FEA3E029F9EA3EFA121486
:10192D0048FF9002A4E0FEEFD39E40047F018002A9
:10193D007F00EF25E0FED0E04E9002ADF09002AAC0
:10194D00E024FFFF9002A9E034FFFE9002A5E0FC29
:10195D00A3E0FDC39FEE6480F8EC64809840159081
:10196D0002ABE0FEA3E0FF4E600AEF9403EE64804D
:10197D009480406C9002ADE0FFC007AE04ED78039B
:10198D00C333CE33CED8F9FF90029FE0FCA3E0FD28
:10199D001214C2A3E0FBA3E0FAA3E02FF9EA3EFA8A
:1019AD009002A7E0FEA3E029F9EA3EFA9002A0E03A
:1019BD0025E0FF90029FE033FEE92FF9EA3EFA128F
:1019CD001448FF9002A4E0FEEFD39E40047F0180F7
:1019DD00027F00EF25E025E0FED0E04E9002ADF055
:1019ED009002AAE024FFFF9002A9E034FFFE9002CE
:1019FD00A5E0FCA3E0FDC39FEE6480F8EC64809845
:101A0D0040159002ABE0FEA3E0FF4E600AEF940498
:101A1D00EE64809480406A9002ADE0FFC007AE0492
:101A2D00ED7803C333CE33CED8F9FF90029FE0FC9F
:101A3D00A3E0FD1214C2A3E0FBA3E0FAA3E02FF98B
:101A4D00EA3EFA9002A7E0FEA3E029F9EA3EFA90F9
:101A5D00029FE0FEA3E0F5828E83740312172D1210
:101A6D001461FF9002A4E0FEEFD39E40047F01803D
:101A7D00027F00EF33333354F8FED0E04E9002ADC9
:101A8D00F09002AAE024FFFF9002A9E034FFFE903F
:101A9D0002A5E0FCA3E0FDC39FEE6480F8EC64803A
:101AAD009840159002ABE0FEA3E0FF4E600AEF9464
:101ABD0005EE64809480406D9002ADE0FFC007AEEE
:101ACD0004ED7803C333CE33CED8F9FF90029FE0F7
:101ADD00FCA3E0FD1214C2A3E0FBA3E0FAA3E02FE8
:101AED00F9EA3EFA9002A7E0FEA3E029F9EA3EFAF0
:101AFD0090029FE0FEA3E07802C333CE33CED8F937
:101B0D0029F9EA3EFA121448FF9002A4E0FEEFD341
:101B1D009E40047F0180027F00EFC454F0FED0E0B0
:101B2D004E9002ADF09002AAE024FFFF9002A9E0D2
:101B3D0034FFFE9002A5E0FCA3E0FDC39FEE6480A0
:101B4D00F8EC64809840159002ABE0FEA3E0FF4EE8
:101B5D00600AEF9406EE6480948040699002ADE0D7
:101B6D00FFC007AE04ED7803C333CE33CED8F9FFF3
:101B7D0090029FE0FCA3E0FD1214C2A3E0FBA3E0E2
:101B8D00FAA3E02FF9EA3EFA9002A7E0FEA3E029BE
:101B9D00F9EA3EFA90029FE0FEA3E0F5828E83748F
:101BAD000512172D121461FF9002A4E0FEEFD39ED3
:101BBD0040047F0180027F00EFC43354E0FED0E08B
:101BCD004E9002ADF09002AAE024FFFF9002A9E032
:101BDD0034FFFE9002A5E0FCA3E0FDC39FEE648000
:101BED00F8EC64809840159002ABE0FEA3E0FF4E48
:101BFD00600AEF9407EE64809480406A9002ADE035
:101C0D00FFC007AE04ED7803C333CE33CED8F9FF52
:101C1D0090029FE0FCA3E0FD1214C2A3E0FBA3E041
:101C2D00FAA3E02FF9EA3EFA9002A7E0FEA3E0291D
:101C3D00F9EA3EFA90029FE0FEA3E0F5828E8374EE
:101C4D000612172D121461FF9002A4E0FEEFD39E31
:101C5D0040047F0180027F00EFC4333354C0FED0B7
:101C6D00E04E9002ADF09002AAE024FFFF9002A991
:101C7D00E034FFFE9002A5E0FCA3E0FDC39FEE64FF
:101C8D0080F8EC64809840159002ABE0FEA3E0FF75
:101C9D004E600AEF9408EE64809480406B9002AD24
:101CAD00E0FFC007AE04ED7803C333CE33CED8F9D1
:101CBD00FF90029FE0FCA3E0FD1214C2A3E0FBA382
:101CCD00E0FAA3E02FF9EA3EFA9002A7E0FEA3E0C6
:101CDD0029F9EA3EFA90029FE0FEA3E0F5828E8399
:101CED00740712172D121461FF9002A4E0FEEFD3BA
:101CFD009E40047F0180027F00EFC4333333548054
:101D0D00FED0E04E9002ADF09002ADE0FF1254DF38
:101D1D009002A8E004F070069002A7E004F002180B
:101D2D000F9002A6E004F070069002A5E004F00208
:021D3D0017E6A7
:011D3F002281
:0B3985009002D9EFF0A3EDF0A3EBF0EF
:10399000E49002E0F0A3F09002DFE0FFC39002E1C8
:1039A000E09F7480F89002E0E06480984003023A5F
:1039B00053E49002E2F0A3F09002DBE0FF13131354
:1039C000541FFD9002E2E0FAA3E0FBC39D7480F86F
:1039D000EA64809850699002E0A3E08FF0A4FF9021
:1039E00002D9E02FFFA3E02BFD12591BE49002E463
:1039F000F0A3F09002DCE0FBA3E0FAA3E0F91214DC
:103A000048FF1254DF9002DDE475F00112155F905B
:103A100002E5E004F070069002E4E004F0C39002D6
:103A2000E5E094109002E4E06480948040C5900248
:103A3000E3E004F070829002E2E004F00239B89012
:103A400002E1E004F060030239979002E0E004F044
:033A5000023997A1
:013A53002250
:0B545700C2CCEF4480FF125462AF058E
:10546200E4FEEEC39408748094805015EF3392C02A
:10547200EF25E0FFC2C3D2C3A2C1E4334FFF0E80C7
:01548200E148
:015483002206
:065A5B00125457D2CC22C8
:1058C900C2CCEF4440FF125462E4FF125462EF125B
:0558D900148ED2CC2268
:1056E300125457D2CCC2CCE4FF125462AC07E4FF8D
:1056F300125462D2CCAF04ED6F60037F01227F00AE
:015703002283
:1051FB00900470EBF0A3EAF0A3E9F0C2CCEF4440CB
:10520B00FF125462E4FF125462D2CC7F017E001273
:10521B005943C2CCE4FF125462900470E0FBA3E04C
:10522B00FAA3E0F9EF12148EE4FF125462D2CC22EF
:10557C00AB07AA06C3E49BFB74109AFAEBC4F8546D
:10558C000FC868FBEAC454F048FAAD03E4FF1256A6
:08559C00E3EAFD7F010256E382
:10561500C2CCE4FF125462AD07ED7D00FCE4FF123D
:105625005462D2CCAE04EEC4F854F0C868FEEFC4A0
:04563500540F48FFC7
:01563900224E
:10592F007B017A0479927F061251FB900492E06416
:03593F001C70EDEC
:015942002242
:1059DB0012592FE4FD7F091256E3E4FFFE02557CBA
:0E587000EBF0A3EAF0A3E9F0C2CCEF4440FF56
:09587E00AB07E4FD7F02024CC2FD
:10582800900493EDF0C2CCEF4480FF12587E9004B0
:0958380093E0FF12587ED2CC224D
:1057D500900473125870E4FF125462900473E0FB56
:0D57E500A3E0FAA3E0F9EF12148ED2CC225B
:05527A00900480EDF03E
:10527F00C2CCEF4480FF12587E900480E0FF12589A
:10528F007ED2CCC2CCE4FF12587E900481EFF0E4C2
:10529F00FF12587ED2CC900481E0FF900480E06F23
:0752AF0060037F01227F0074
:0152B60022D5
:1054AF00900476125870E4FF12587ED2CCC2CCE42E
:1054BF00FF12587E900476E0FBA3E0FAA3E0F9EF29
:0B54CF0012148EE4FF12587ED2CC2293
:1052F200900482EEF0A3EFF0C3E49FF074109E904E
:105302000482F0A3E0C4F8540FC868FF900482E05E
:10531200C454F048F0A3EFF0FDE4FF12527A900477
:0853220082E0FD7F0102527AD6
:10517A00E4900484F0A3F0C2CCFF12587E90048419
:10518A00E4F0A3EFF0E0F8E4F0E8900484F0E4FF40
:10519A0012587E900484E0F0A3E04FF0D2CC900441
:1051AA0084E0C4F854F0C868FEA3E0C4540F48FF72
:0151BA0022D2
:105704007B017A0479947F061254AF900494E0FBF1
:10571400E4FDFCFFFE124555900494E0641C70E027
:015724002262
:10584100E4FBFD7F02124D58125704E4FD7F09125B
:08585100527AE4FFFE0252F25C
:1058DE0090044B1216FC0001C20090044F7408F0A5
:0558EE007F0302341CE1
:103E03009003E8EBF0A3EAF0A3E9F0A38062E47F78
:103E13001EFEFDFC9003EBE0F8A3E0F9A3E0FAA398
:103E2300E0FBD31216CC404D308402804B9003E864
:103E3300E0FBA3E0FAA3E0F9900400E4F0A3741E0E
:103E4300F07F031255049003E9E475F01E12155F29
:103E53009003EBE0FCA3E0FDA3E0FEA3E0C3941E0C
:103E6300FFEE9400FEED9400FDEC9400FC9003EB58
:103E73001216F0809930840F9003EBE0FCA3E0FD71
:103E8300A3E0FEA3E0FF229003E8E0FBA3E0FAA394
:103E9300E0F9A3A3A3E0FFA3E0900400CFF0A3EF16
:0C3EA300F07F03125504E4FFFEFDFC223A
:0E41B8009003EFEBF0A3EAF0A3E9F0A3EDF023
:1041C60074FFA3F0A3F0E4A3F09003F2E0FF9003E2
:1041D600F5E0FEC39F50639003EFE0FBA3E0FAA374
:1041E600E0F98E82758300121461FF9003F3E0F00C
:1041F600A3E06FF0E4FDEDC3940874809480503220
:104206009003F3E0FEA3E0FF30E019EEC313FEEFE8
:1042160013FFEE64A0FEEF6401FF9003F3EEF0A33C
:10422600EFF0800B9003F3E0C313F0A3E013F00D5F
:1042360080C49003F5E004F0808F9003F3E0FEA3C2
:02424600E0FF97
:014248002253
:103F550090033AECF0A3EDF0A3EAF0A3EBF09003A5
:063F650038EEF0A3EFF0BE
:103F6B00E4FC900340E0FBA3E0FAA3E0F9EF1214AA
:103F7B008E900338E0FEEEFF900340E0FBA3E0FAE7
:103F8B00A3E0F9900001EF1214A090033AA3E09084
:103F9B0000021214A090033AE0FEEE9000031214FC
:103FAB00A090033CA3E09000041214A090033CE00B
:103FBB00FEEE9000051214A090033EA3E0900006C5
:103FCB001214A090033EE0FEEE9000071214A07DA9
:103FDB00081241B8900340E0FBA3E0FAA3E0F9908C
:0D3FEB000008EF1214A0EE9000090214A0CF
:0557B20042047A000032
:03002300024A4D41
:0F4A4D00C0E0C083C082C0D075D000C005C007D4
:104A5C00309907C2999001CAE4F030982AC298AFF5
:104A6C0099EFFD647F6005ED64807016900479E029
:104A7C00FF04F0D3EF941474809480400A75C760DF
:074A8C008005900479E4F0BD
:0D4A9300D007D005D0D0D082D083D0E03243
:0300430002565C06
:10565C00C0E0C083C082E59A30E108539AFD900106
:10566C00CBE4F0E59A30E003539AFED082D083D09D
:02567C00E0321A
:03008B0002567E9C
:10567E00C0E0C083C082E5AC30E10853ACFD9001C0
:10568E00CCE4F0E5AC30E00353ACFED082D083D056
:02569E00E032F8
:030093000256A072
:1056A000C0E0C083C082E58430E1085384FD9001EE
:1056B000CDE4F0E58430E0035384FED082D083D083
:0256C000E032D6
:03003B000248DE9A
:0F48DE00C0E0C083C082C0D075D000C006C00744
:1048ED0030D822C2D89002C6E0FEA3E0F5EAEEF57C
:1048FD00FA9002BEE0FEA3E0FF9002C7E02FF09019
:10490D0002C6E03EF030D922C2D99002C8E0FEA323
:10491D00E0F5EBEEF5FB9002C0E0FEA3E0FF9002A8
:0A492D00C9E02FF09002C8E03EF050
:0D493700D007D006D0D0D082D083D0E0329F
:03000300020022D6
:0100220032AB
:03001300020042A6
:01004200328B
:030053000200594F
:010059003274
:03005B0002005A46
:01005A003273
:03008300020086F2
:010086003247
:0B001600120050124C7712005680FEC2
:100E9E00EC4D6011E8497017ED33EC3304600DE44E
:100EAE00FCFFFEFD22E933E8330470F802116712ED
:100EBE00113258046009E4CC2481500628500902EE
:100ECE00117128400302116EC0E0EB4A7044B980E4
:100EDE0006D0E0FB02115DEF4E701CBD8008EBFFEB
:100EEE00EAFEE9FD80EBE98DF0A4FEE5F0020F8746
:100EFE00E9CDF9EAFEEBFFEF89F0A4FCE5F0CE892F
:100F0E00F0A42EFFE435F0CD89F0A42DFEE435F0EB
:100F1E008067EF4E7005BD80D780C3EF8BF0A4AC19
:100F2E00F0EE8BF0A42CFCE435F0F8EF8AF0A42C54
:100F3E00E5F038FCE433CB8DF0A42CFCE5F03BF867
:100F4E00EE8AF0A42CFCE5F038F8E433CF89F0A457
:100F5E002CFCE5F038CF3400CE89F0A42FFFE5F05D
:100F6E003EFEE433C98DF0A42EFEE5F039CD8AF0B5
:100F7E00A42FFFE5F03EFEE43DFD33D0E0FB50072D
:100F8E000BBB000F021171EC2CFCEF33FFEE33FEA6
:060F9E00ED33FD021149D4
:100FA400021171EC5D046005E859047003021167D5
:100FB400121132580460F6EC4860F2EC7004FDFE45
:100FC400FF22C860DB2481C85009C3986002500620
:100FD40002116E9850CAF582E9294B4A7005AB821A
:100FE40002115D75F0007C1A7880C3EF9BEE9AEDD8
:100FF40099400DC3EF9BFFEE9AFEED99FDE842F098
:10100400DC23ACF0D0E0FFD0E0FED0E0FDAB8220EA
:10101400E7101BEB60BAEC2CFCEF33FFEE33FEED74
:1010240033FD021149E803F830E705C0F075F0001C
:10103400EF2FFFEE33FEED33FD40B830E7C280AA58
:1010440074F8CC6480CCC86480C8F58204604FC353
:10105400EB9FF5F0EA9E42F0E99D42F0E89C45F0F2
:10106400603C501DE5825FFFE582D313CB5BCBF47C
:101074002B5582FB50280ABA002409B900200880A5
:101084001DE5825BFBE582D313CF5FCFF4C3132F3F
:101094005582FF50090EBE00050DBD00010CC3EBC7
:1010A4009FF5F0EA9E42F0E99D42F0E89C45F0602D
:0910B40007CC4820E701B3EC224F
:1010BD0075F020800E75F010800575F0087D007EAE
:1010CD00007F003392D530D5031216A8EC334010B3
:1010DD00EF33FFEE33FEED33FDEC33FCD5F0ED22B7
:0E10ED00E5F0247EA2D513CC92E7CDCEFF22F3
:1010FB00EDD2E7CD33EC3392D524814006E4FFFEED
:10110B00FDFC22FCE4CFCECDCC24E0501174FF804B
:10111B00EDC3CC13CCCD13CDCE13CECF13CF0470E8
:07112B00F030D5DE0216A82A
:101D4000E50824D1F582E43401F583E0050822900A
:101D500001CE3007039001D1E475F00112173E0265
:101D600014482000E97F2ED2008018EF540F2490F1
:101D7000D43440D4FF30040BEF24BFB41A00500316
:101D80002461FFE50960021509050CE50C700205E8
:101D90000B30070E9001CEE475F00112173EEF02F2
:101DA000148E02597A7403D2078003E4C207F5083F
:101DB0009001CE121755E4F509F50BF50CE5096015
:101DC000077F20121D8380F5750AFFC201C200C281
:101DD00002C203C205C206C208121D4FFF700D30B9
:101DE00007057F00121D94AF0CAE0B22B4255FC215
:101DF000D5C204121D4FFF24D0B40A00501A75F04A
:101E00000A780930D50508B6FF0106C6A426F620D3
:101E1000D5047002D20380D924CFB41A00EF500445
:101E2000C2E5D204022086D20180C6D20080C0D290
:101E30000280BCD2D580BAD20580B47F20121D8327
:101E40002002077401B5090040F1121D40FF121D68
:101E500083021DBDD208D2068095121D40FB121DC3
:101E600040FA121D40F94A4B700679847A217BFFB3
:101E700020022EE509602A7E008E827583001214EE
:101E80006160060EEE650A70F0C2D5EBC0E0EAC0F4
:101E9000E0E9C0E0EE1220E7D0E0F9D0E0FAD0E0CF
:101EA000FB121448FF60AAEBC0E0EAC0E0E9C0E022
:101EB000121D83D0E02401F9D0E03400FAD0E0FB19
:101EC000E50A0460DCD50AD98087D20280A21220FC
:101ED000C960F7E50A70010412117CA90A600DE5DA
:101EE0000A600914F50A122171EF60F3EA30E70283
:101EF000F404C3995079EAF4250A0430E701E404B4
:101F0000F50A800D1220C960C1EA050A250A1211DE
:101F10007CEA9001FDF030E701E4250A04D50A04CB
:101F2000200501141220E7E4C0E01221719001FDA8
:101F3000E0601320E70714F0121D6B802204F0D03C
:101F4000E014C0E07F00121D6BE50A6007121D62FD
:101F5000150A800B300503121D62D0E0021DBDD0B2
:101F6000E00480C41220C9609EE50A0412117C902E
:101F700001FDEAF0E50A20050260010424041220B4
:011F8000E779
:101F810074FF04C0E0122171121D6BE50A200502E5
:101F91006003121D62D0E0B50AE87F45121D7590FD
:101FA10001FDE07F2B30E7047F2DF404C0E0121D1A
:101FB10083D0E075F00A84C0F0121D6CD0E0121DD0
:101FC1006C021DBD791080027908C206C208800822
:101FD100D2D5790A8004790AC2D5E50A047002F5DE
:101FE1000AE4FAFDFEFF121D40FC7B0820011312DA
:101FF1001D40FD7B1030000A121D40FE121D40FFE6
:102001007B20EC3382D592D55013C3E43000069F78
:10201100FFE49EFEE42001039DFDE49CFCE4CBF87B
:10202100C201EC700CCFCECDCCE824F8F870F3806F
:1020310017C3EF33FFEE33FEED33FDEC33FCEB332F
:10204100FB994002FB0FD8E9EB300105F8D0E0C461
:1020510048B201C0E00AEC4D4E4F78207B0070C2BF
:10206100EAB50A0040BCC0E01220E9D0F0D0E0207F
:102071000104C4C0E0C4B201C0F0121D6CD0F0D59F
:10208100F0EB021DBD12175E1E5A531FC5581E2BC1
:102091004C1E27421FC94F1FD1441FD1491E404327
:1020A1001FD7551F04461F64451ECE4721A4501E4D
:1020B1002F2D1E332E1E562B1E37231E5420218DED
:1020C1002A1DEF4800001E4EE50AB4FF03750A06FB
:1020D100121D40FC121D40FD121D40FE121D40FF4D
:1020E1009001F60211B9790AA2D52003143005092D
:1020F100B910020404B9080104A2D5200602500156
:10210100042002689202B509005034C0E07F2030FB
:1021110003197F30A20272067205500F122140C2CC
:1021210002C206C205C2087F30800F300503E9C034
:10213100E0121D83300503D0E0F9D0E0B509CC30C1
:1021410005177F30B9100C121D837F583004077FAB
:10215100788003B90803121D833002057F2D021D0B
:10216100837F202008F87F2B2006F322920280CF64
:102171007F00B40700500B24F6F582E43401F583A7
:10218100E0FF22286E756C6C2900D201121D4030CF
:1021910001F8C201780930D50108F6021DEF2D5072
:1021A100434958121D402403B405004001E4902125
:1021B1009F93121D74743A121D74D203750904029F
:0221C1001FC538
:10113200E9D2E7C933E833F892D5EDD2E7CD33EC03
:0711420033FC5002B2D5227C
:10114900EC30E7100FBF000C0EBE00080DBD000407
:101159000BEB6014A2D5EB13FCED92E7FD2274FFB3
:10116900FCFDFEFF22E480F8A2D574FF13FC7D800C
:03117900E480EF20
:10117C00F920E73624F950037907E4F42402FBE55F
:10118C0082158270021583DBF6E024FB501BE960AC
:10119C0014E4F0E582158270021583E004F0B40AC1
:0D11AC0008E4F0D9EE7401F00A22C2D52249
:1011B900ED33EC3392D5FA602AB4FF33EDC2E77B05
:1011C900FF60067A1179DEE4227A1179E720D504E5
:1011D9007A1179E2224E614E002B494E46002D4983
:1011E9004E4600E47A08F0A3DAFC7B00740722C0BB
:1011F90083C082ECC0E0EDC0E0EEC0E0EFC0E0EA01
:1012090075F010A4CAABF075F04DA42BFBE435F0D2
:10121900FCEA2410FAEB34C5FBEC34D9FCEDC2E747
:10122900FF75F056A4F42411C5F0F434C58FF0A469
:101239002AE5F03BE43CF020E7141213E6D0E0FF86
:10124900D0E0FED0E0FDD0E0FC120FA78014F4043A
:101259001213E6D0E0FFD0E0FED0E0FDD0E0FC12B2
:101269000E9ED082D083E0FAEDD2E7CD33EC332461
:1012790082FBE4C3CF33CFCE33CECD33CD33DBF3D3
:101289007B0775F00A846004F0A31B0AE5F0F0A35C
:101299008FF0740AA4FFACF08EF0740AA42CFEAC93
:1012A900F050010C8DF0740AA42CFDE435F0F0A384
:0512B900DBDE740722DA
:1012BE00021167E86480F8E933E83360110460F0E6
:1012CE00ED33EC337009E8FCE9FDEAFEEBFF220496
:1012DE0060DED3EB9FEA9EE99DE8C2E78CF0C2F791
:1012EE0095F0400CE8CCF8E9CDF9EACEFAEBCFFB5D
:1012FE0012113285D0F05804700320D5B3E8047073
:10130E00075002B2D502117192D5EC0460F7E4CC0D
:10131E00C0E0C398F8603B94186008400DD0E0FB25
:10132E00021149E4FBFAC9FC8028E830E406E4C95E
:10133E00FBE4CAFCE830E305E4C9CACBFCE8540779
:10134E006010F8C3E913F9EA13FAEB13FBEC13FC84
:10135E00D8F130F52FC3E49CFCEF9BFFEE9AFEED27
:10136E0099FDD0E0FBEF4E4D4C701222DB030211C3
:10137E006EEC2CFCEF33FFEE33FEED33FDED30E77C
:10138E00EB021149EF2BFFEE3AFEED39FDD0E0FBFB
:10139E0050130BBB0003021171ED13FDEE13FEEFA4
:0813AE0013FFEC13FC021149CE
:1013B6003F8000004120000042C80000447A00003F
:1013C600461C400047C35000497424004B189680C1
:1013D6004CBEBC205A0E1BCA6753C21C749DC5AEB8
:1013E600FB60065407601C2323121414EB54386068
:1013F6000912140012140F120E9EECF8EDF9EEFA13
:10140600EFCB22EB12140F80F1543803241C9013F7
:10141600B6FE93FC0EEE93FD0EEE930ECE93FF22D8
:030000000242D9E0
:0C42D900787FE4F6D8FD758121024320B7
:10142600C2D530F707B2D563F0FF05F030E70CB24E
:10143600D5F4048463F0FF05F080018430D502F40E
:0214460004227E
:10144800BB010689828A83E0225002E722BBFE02A2
:09145800E32289828A83E49322D5
:10146100BB010CE58229F582E5833AF583E0225040
:1014710006E92582F8E622BBFE06E92582F8E2228A
:0D148100E58229F582E5833AF583E49322A4
:10148E00BB010689828A83F0225002F722BBFE013D
:02149E00F32237
:1014A000F8BB010DE58229F582E5833AF583E8F082
:1014B000225006E92582C8F622BBFE05E92582C82E
:0214C000F22216
:1014C200EF8DF0A4A8F0CF8CF0A428CE8DF0A42E3E
:0214D200FE22F8
:1014D400BC000BBE0029EF8DF084FFADF022E4CCFC
:1014E400F875F008EF2FFFEE33FEEC33FCEE9DECC5
:1014F400984005FCEE9DFE0FD5F0E9E4CEFD22ED0B
:10150400F8F5F0EE8420D21CFEADF075F008EF2F54
:10151400FFED33FD4007985006D5F0F222C398FD45
:051524000FD5F0EA22E2
:10152900C2D5EC30E709B2D5E4C39DFDE49CFCEEDD
:1015390030E715B2D5E4C39FFFE49EFE1214D4C36D
:10154900E49DFDE49CFC80031214D430D507C3E468
:061559009FFFE49EFE224C
:10155F00C5F0F8A3E028F0C5F0F8E5821582700217
:06156F001583E038F022B4
:10157500A3F8E0C5F025F0F0E58215827002158329
:06158500E0C838F0E82286
:10158B00E88FF0A4CC8BF0A42CFCE98EF0A42CFCFF
:10159B008AF0EDA42CFCEA8EF0A4CDA8F08BF0A47D
:1015AB002DCC3825F0FDE98FF0A42CCD35F0FCEBDC
:1015BB008EF0A4FEA9F0EB8FF0A4CFC5F02ECD39A1
:0F15CB00FEE43CFCEAA42DCE35F0FDE43CFC220E
:1015DA0075F008758200EF2FFFEE33FECD33CDCCC8
:1015EA0033CCC58233C5829BED9AEC99E58298404B
:1015FA000CF582EE9BFEED9AFDEC99FC0FD5F0D628
:10160A00E4CEFBE4CDFAE4CCF9A88222B800C1B951
:10161A000059BA002DEC8BF084CFCECDFCE5F0CB8F
:10162A00F97818EF2FFFEE33FEED33FDEC33FCEBC8
:10163A0033FB10D703994004EB99FB0FD8E5E4F983
:10164A00FA227818EF2FFFEE33FEED33FDEC33FC70
:10165A00C933C910D7059BE99A4007EC9BFCE99A64
:10166A00F90FD8E0E4C9FAE4CCFB2275F010EF2FA9
:10167A00FFEE33FEED33FDCC33CCC833C810D707A9
:10168A009BEC9AE899400AED9BFDEC9AFCE899F8E4
:0E169A000FD5F0DAE4CDFBE4CCFAE4C8F92277
:10507000C2D5E830E70FB2D5E4C39BFBE49AFAE46B
:1050800099F9E498F8EC30E717B2D51250A6121649
:1050900016E4C39BFBE49AFAE499F9E498F88003D8
:1050A00012161630D50DE4C39FFFE49EFEE49DFD6D
:0450B000E49CFC225E
:0E16A800C3E49FFFE49EFEE49DFDE49CFC2253
:1016B600EB9FF5F0EA9E42F0E99D42F0EC6480C8AB
:0616C60064809845F0224B
:1016CC00EB9FF5F0EA9E42F0E99D42F0E89C45F074
:0116DC0022EB
:1016DD00E8600FECC313FCED13FDEE13FEEF13FFEB
:0316ED00D8F1220F
:0C16F000ECF0A3EDF0A3EEF0A3EFF0226D
:1016FC00A8828583F0D083D082121713121713128D
:10170C001713121713E473E493A3C583C5F0C583B1
:10171C00C8C582C8F0A3C583C5F0C583C8C582C837
:01172C00229A
:10172D00F5F0C582A4C582C5F0C583A42583F583D4
:01173D002289
:10173E00F8E0FBA3A3E0F925F0F0E5821582700234
:07174E001583E0FA38F022D8
:09175500EBF0A3EAF0A3E9F02295
:10175E00D083D082F8E4937012740193700DA3A31A
:10176E0093F8740193F5828883E47374029368602E
:06177E00EFA3A3A380DF2E
:1042E500020016E493A3F8E493A34003F68001F2D9
:1042F50008DFF48029E493A3F85407240CC8C333DA
:10430500C4540F4420C8834004F456800146F6DFA8
:10431500E4800B010204081020408090579BE47E46
:10432500019360BCA3FF543F30E509541FFEE4939D
:10433500A360010ECF54C025E060A840B8E493A364
:10434500FAE493A3F8E493A3C8C582C8CAC583CA8F
:10435500F0A3C8C582C8CAC583CADFE9DEE780BE47
:0157B70000F1
:00000001FF
