:10527900E4F594F593F592F591F596F595F5B2F572
:10528900B1F5B4F5B3F5CAF5C9F5D8F5D9F5DEF533
:105299008EF598F59AF5ACF584F5A2F5BAF5AFF562
:1052A90089F5E9F5F912615D90046F12164900015B
:0F52B900C2009004737401F0FBE4FDFF0229466C
:10607A0090054EEFF0FDE4FF12545A90054EE0FFF2
:01608A0022F3
:03002000C2AF224A
:03003E00D2AF221C
:055E5A0042053C0000C0
:1052C80053A2F3EF146012146017146026240370BD
:1052D800285392C35391C380205396C35395C380D8
:1052E80018E5F0F452B4E5F0F452B353CAEF53C9D9
:1052F800EF800653B2C353B1C39004B8E042CE90D6
:0F53080004B7E0700643CE8043CE1043CE402260
:104F680053A2F3EF14600A14600C14600E2403803B
:104F78000D43A204800843A208800343A20CEDFF5E
:104F880090053CE07003A3E06F602653CEF7ED2454
:104F9800FE600C14600E2402700D43CE048008439A
:104FA800CE08800343CE0CAF0590053CE4F0A3EF98
:0F4FB800F0AF038FCFE5CD30E7FB75CDC0AFCFA6
:014FC70022C7
:10605500EF1FAA0670011E4A60087D091DED60F05C
:0260650080FABF
:016067002216
:1059D900E490053EF0A3F0FC90FE82E020E61E7FF5
:1059E900017E0012605590053EE475F0011214B96C
:1059F900FEC3E5F0941EEE940040DD7C0190FE822A
:065A0900E054BFF0AF0401
:015A0F002274
:0961420090FE817401F00259D9AC
:085F9A00AF01EF25E04401FF17
:0E5FA20090FE86EFF090FE817402F00259D955
:09614B0090FE817403F00259D9A1
:0F60FC0090FE817404F01259D990FE87E0FF22C4
:0F5E770090047EE0FBA3E0FAA3E0F9EF1213D250
:0E5E860090FE82E4F090FE817405F00259D97E
:0F610B0090FE827401F090FE817405F00259D964
:0961540090FE817406F00259D995
:1056910053BACF43BA80EF14600A14600C14600E41
:1056A1002403800D43BA10800843BA20800343BA13
:1056B1003090FE80E04440F0E04480F0C083C0823E
:1056C100E0FB900477A3A3A3E0FFEB4FD082D0834C
:0756D100F090FE82E4F022DC
:104A8F00A90553BACFEF14600A14600C14600E24FA
:104A9F0003800D43BA10800843BA20800343BA3015
:104AAF00126142EF60037F0122AF01EF25E0FF1299
:104ABF005FA2EF60037F012212614BEF60037F0162
:104ACF0022AF03125FA2EF60037F012212614BEF4F
:104ADF0060037F0122900525E0FF125FA2EF6003C4
:104AEF007F012212614BEF60037F0122126154EFAD
:084AFF0060037F01227F002209
:10499600A90553BACFEF14600A14600C14600E24F4
:1049A60003800D43BA10800843BA20800343BA300F
:1049B600126142EF60037F0122E925E0FF125FA248
:1049C600EF60037F012212614BEF60037F0122AF8C
:1049D60003125FA2EF60037F012212614BEF6003B7
:1049E6007F0122125F9AEF60037F012212614BEF73
:1049F60060037F01221260FC9004BC125E7AEF60B5
:104A0600037F0122126154EF60037F01227F00229F
:1045AC00A90553BACFEF14600A14600C14600E24E2
:1045BC0003800D43BA10800843BA20800343BA30FD
:1045CC00126142EF60037F0122E925E0FF125FA236
:1045DC00EF60037F012212614BEF60037F0122AF7A
:1045EC0003125FA2EF60037F012212614BEF6003A5
:1045FC007F0122125F9AEF60037F012212614BEF61
:10460C0060037F0122900481E014F060181260FCBA
:10461C00125E77EF60037F012290047FE475F00156
:10462C001214A380E01260FC125E77EF60037F012E
:0D463C0022126154EF60037F01227F0022F3
:0B29460090046CEFF0A3EDF0A3EBF0A9
:10295100A3E0F8A3E0F9A3E0FAA3E0FB7FC07E0EB9
:102961007D167C02121543E47B04FAF9F812154333
:10297100C3E49FFFE49EAD07FC90046CE014700378
:10298100022A19147003022A5C147003022AB52466
:10299100036003022B12900473E0FB7A0064017060
:1029A100144398508D8BECF58D438E40D28EE4907C
:1029B10001CAF08011EB64024A700B4398508DD725
:1029C100ECF5D6438E1553A23F90046DE0F9FF7EDE
:1029D100007008A3E0640170028035EF64024E705C
:1029E1000D90046EE06403700543A2408022E96407
:1029F10004700D90046EE06405700543A2808010A0
:102A0100E96406700B90046EE06407700343A2C092
:102A1100E49001CAF0D2AC22900473E06402700B1E
:102A2100439A108DD7ECF5D6438E1453BAFE900419
:102A31006DE0FF7E0064087008A3E0640970028005
:102A410011EF640A4E700B90046EE0640B70034347
:102A5100BA0143AF01E49001CBF022900473E0FB93
:102A61007A006402700D439A108DD7ECF5D6438E2F
:102A7100148011EB64034A700B43AC508DD5ECF517
:102A8100D443D10A53BAFD90046DE0FF7E00640C7B
:102A91007008A3E0640D70028011EF640E4E700B9C
:102AA10090046EE0640F700343BA0243AF08E490F0
:102AB10001CCF022900473E0FB7A006402700D43B4
:102AC10084108DD7ECF5D6438E148011EB64044A43
:102AD100700B4384508DD3ECF5D243D1A053BAFB94
:102AE10090046DE0FF7E0064107008A3E064117033
:102AF100028016EF64124E701090046EE064137041
:102B010008F5CA75C90443BA0443AF10E49001CD76
:012B1100F0D3
:012B120022A0
:0F544B00A3E475F0011214B9A9F0FA12138CFD45
:10545A00EF14601514601D1460252403702D90014B
:10546A00CAE070FA04F08D99229001CBE070FA0438
:10547A00F08D9B229001CCE070FA04F08DAD229061
:0C548A0001CDE070FA04F0AF058F852220
:105C43009004C0EBF0A3EAF0A3E9F0AE079004C31D
:105C530074FFF5F01214B945F0600CAF069004C060
:085C6300E0FB12544B80E62225
:105C6B0090052AEBF0A3EAF0A3E9F0AE0790052A22
:105C7B00E0FBA3E0FAA3E0F912138C600AAF0690E5
:085C8B00052A12544B80E622A9
:1054960043BC80EF131313541FFB7A00640170178B
:1054A600EF5407FEF87401088002C333D8FCFEF4FB
:1054B6005294EE42938019EB4A7015EF5407FEF8AA
:1054C6007401088002C333D8FCFEF45292EE429176
:0954D600ED540F42DE43DE2022FA
:025B9B00A9055A
:105B9D0053BCF0EF42BC43BC40E5BC30E5FB53BC0D
:105BAD00DFAFBDEFFEADBEEDFFAD01A80508800571
:085BBD00CEC313CE13D8F9FF8B
:015BC50022BD
:1057A900EF14601814602014602614602C2404700F
:1057B90030E4F58AF58C438904D28C22E4F58BF523
:1057C9008D438940D28E22E4F5D7F5D6438E18222F
:1057D900E4F5D5F5D443D10C22E4F5D3F5D243D180
:0257E900C022DC
:10571F00EF14601714601E14602514602C2404709D
:10572F0030AF8CEFFCAF8AEFFD8026AF8DEFFCAF73
:10573F008BEFFD801CAFD6EFFCAFD7EFFD8012AF24
:10574F00D4EFFCAFD5EFFD8008AFD2EFFCAFD3EFB6
:05575F00FDAF05AE04E2
:015764002222
:1054DF00EF14601714601E146027146030240470DA
:1054EF0037C28CE4F58CF58AD28C22C28EE4F58D0E
:1054FF00F58BD28E22538EEFE4F5D6F5D7438E106F
:10550F002253D1F7E4F5D4F5D543D1082253D17FF7
:09551F00E4F5D2F5D343D180225A
:05488D0090054FEFF063
:104892007E037FE81214187C007D0C121406AB070D
:1048A200AA06E4F9F87FC07E0E7D167C02125765D7
:1048B200C3E49FFFE49EFE90054FE0F9FD7C00708B
:1048C2000A8F8AEEF58CD28CD2A922ED64014C704B
:1048D2000A8F8BEEF58DD28ED2AB22E9FD7C00647D
:1048E20002700C8FD7EEF5D6438E1043AF0422ED43
:1048F20064034C700C8FD5EEF5D443D10843AF203E
:1049020022E96404700B8FD3EEF5D243D18043AF1A
:014912004064
:014913002281
:0527430090037CEFF0A3
:10274800E4900387F07D0112228A90037CE0C45450
:102758000FFFF87401088002C333D8FC42F143BA72
:102768008090037DE0F8A3E0F9A3E0FAA3E0FB7F03
:10277800C07E0E7D167C02121543780F12160A9041
:102788000387EFF090037DE0F8A3E0F9A3E0FAA354
:10279800E0FB7FC07E0E7D167C02121543C006C08A
:1027A80007900387E02401FFE433AB07FA3395E091
:1027B800F9F8D007D006121543900385EEF0A3EF81
:1027C800F0900381E0FCA3E0FDE41211BA7B007AEB
:1027D80040791C784612109FC004C005C006C00787
:1027E800900385E0FCA3E0FDE41211BAD003D00207
:1027F800D001D000120F961211F3900383EEF0A3CC
:10280800EFF090037CE0FFC39430748094809003D1
:1028180087E0FD506AEFC4540FF975F050A4FFAE7D
:10282800F02402FBEE34FF8B82F583EDF0900385F4
:10283800E0FCA3E0FDE42FFFEE34FF8F82F583EC8C
:10284800F0A3EDF0900383E0FCA3E0FDE975F05000
:10285800A42410FBE5F034FFFA90037CE0540F75D4
:10286800F008A42BFFE5F03A8F82F583ECF0A3ED96
:10287800F0E975F050A42414FDE5F034FF806D9064
:10288800037CE024D0C4540FF975F050A4FFAEF0D7
:102898002402FBEE34FC8B82F583EDF0900385E097
:1028A800FCA3E0FDE42FFFEE34FC8F82F583ECF00F
:1028B800A3EDF0900383E0FCA3E0FDE975F050A4DC
:1028C8002410FBE5F034FCFA90037CE0540F75F01B
:1028D80008A42BFFE5F03A8F82F583ECF0A3EDF026
:1028E800E975F050A42414FDE5F034FCFC90037C59
:1028F800E0540F75F008A42DFFE5F03C8F82F583B6
:10290800E04480F090037CE0C4540F146015146018
:102918001714601914601B14601D2405701C43F6FD
:1029280001801743F610801243F701800D43F7101A
:0D293800800843FE01800343FE1053BA7F68
:01294500226F
:0B379500900513EFF0A3ECF0A3EDF0A3
:1037A00043BA80900513E0C3943074809480506FC6
:1037B000A3E0FCA3E0FDE41211BA7B007A40791C7F
:1037C000784612109FC004C005C006C007900513BC
:1037D000E0C4540F75F050A42400FFE5F034FF8FCF
:1037E00082F583E0FCA3E0FDE41211BAD003D0021D
:1037F000D001D000120F961211F3900516EEF0A32F
:10380000EFF0900516E0FCA3E0FD900513E0F9C48D
:10381000540F75F050A42410FBE5F034FF80739032
:103820000514E0FCA3E0FDE41211BA7B007A4079B4
:103830001C784612109FC004C005C006C007900542
:1038400013E024D0C4540F75F050A42400FFE5F019
:1038500034FC8F82F583E0FCA3E0FDE41211BAD0C2
:1038600003D002D001D000120F961211F39005166A
:10387000EEF0A3EFF0900516E0FCA3E0FD90051339
:10388000E0F924D0C4540F75F050A42410FBE5F0E7
:1038900034FCFAE9540F75F008A42BFFE5F03A8FD9
:0B38A00082F583ECF0A3EDF053BA7F3B
:0138AB0022FA
:052CC90090035FEFF035
:102CCE00E490036EF0900360E0F8A3E0F9A3E0FA5D
:102CDE00A3E0FB7FC07E0E7D167C02121543780F9B
:102CEE0012160A90036EEFF0900360E0F8A3E0F97D
:102CFE00A3E0FAA3E0FB7FC07E0E7D167C021215C8
:102D0E0043C006C00790036EE02401FFE433AB0717
:102D1E00FA3395E0F9F8D007D00612154390036AFE
:102D2E0012163D900364E0FCA3E0FDE41211BA7BA1
:102D3E00007A40791C784612109FC004C005C00668
:102D4E00C00790036AE0FCA3E0FDA3E0FEA3E0FF52
:102D5E00E41211B5D003D002D001D000120F96129A
:102D6E0011F390036612163D43BA8090035FE0C3E1
:102D7E0094307480948090036EE0FD90035FE05079
:102D8E004AC4540FF975F050A4FBAAF02402FFEACE
:102D9E0034FF8F82F583EDF090036AA3A3E0FEA3C8
:102DAE00E0FFE42BFDEA34FF8D82F583EEF0A3EF16
:102DBE00F0900366A3A3E0FEA3E0FDAC06E975F078
:102DCE0050A42410FBE5F034FF804A24D0C4540FE5
:102DDE00F975F050A4FBAAF02402FFEA34FC8F82AE
:102DEE00F583EDF090036AA3A3E0FEA3E0FFE42BCE
:102DFE00FDEA34FC8D82F583EEF0A3EFF0900366CE
:102E0E00A3A3E0FEA3E0FDAC06E975F050A42410E8
:102E1E00FBE5F034FCFA90035FE0540F75F008A464
:102E2E002BFFE5F03A8F82F583ECF0A3EDF09003E3
:102E3E005FE0C4540F146015146017146019146009
:102E4E001B14601D2405701C43F601801743F610F9
:102E5E00801243F701800D43F710800843FE018076
:072E6E000343FE1053BA7F7D
:012E7500223A
:105E5F0046038E000000000000460388000000008B
:025E6F00000031
:104FC800E4F5D875D906EF64017054EDB40A0050C1
:104FD8004E904FE0F8282873024FFE02500202500C
:104FE8000602500A02500E02501202501602501ABF
:104FF80002501E025024E4F5DA2275DA422275DAEC
:10500800632275DA532275DA732275DA202275DA8B
:10501800102275DA302275DA49D2DE2275DA4C228E
:10606800EF64017008AFFAEFFCAFEAEFFDAF05AEE1
:016078000423
:016079002204
:0A001600EF64017004F5F9F5E9222A
:053FDF0090052DEFF03C
:103FE400C2DEAFF9EFFFABE9EBA3CFF0A3EFF090A4
:103FF400052DE0705D7E037FE81214187C007D0CB3
:10400400121406AB07AA06E4F9F87FC07E0E7D16EB
:104014007C02125765AC06AD07900388ECF0A3ED63
:10402400F075DA49E5E904F5EA85F9FA900388E0E0
:10403400FEA3E0FF90038FE02FFF90038EE03EFE8F
:1040440090052FE02FFF90052EE03E90038EF0A305
:10405400EFF090052DE0640170517E037FE81214A7
:10406400187C007D0C121406AB07AA06E4F9F87F4D
:10407400C07E0E7D167C0212576590038AEEF0A373
:10408400EFF075DB49E5E904F5EA85F9FA90039167
:10409400E02FFF900390E03EFE90052FE02FFF906D
:0D40A400052EE03E900390F0A3EFF0D2DE79
:0140B10022EC
:105A7C00EF7007ED24FF9288D2A8EF64017007ED58
:105A8C0024FF928AD2AAEFFD7C0064027003758F0A
:105A9C0010ED64034C7003758F20ED64044C70039F
:045AAC00758F402290
:055E71004205400B6436
:09615D0075DC48E4F5D9D2DE221C
:105E9400AFF9EFFEADE9EDFF900541E02FFF90056E
:0C5EA40040E03E8FECF5FC30DAFDC2DA85
:015EB00022CF
:105FF100AB07AA06EB1BAE0270011A4E6005125EDA
:046001009480F12274
:10502800EDFB7A0064017025EFC4540F2410FDE4F1
:1050380034FE8D82F583C083C082E0FEEF540FFFFB
:10504800F87401088002C333D8FC4E8028EB4A70FC
:1050580029EFC4540F2410FDE434FE8D82F583C07B
:1050680083C082E0FEEF540FFFF87401088002C38A
:0B50780033D8FCF45ED082D083F0221D
:10228A00ED600302232DEF54F0F9FB7A007013EF8F
:10229A00540FFEF87401088002C333D8FCF4529339
:1022AA005294EB64104A7013EF540FFEF87401084D
:1022BA008002C333D8FCF452915292E9642070131D
:1022CA00EF540FFEF87401088002C333D8FCF452AD
:1022DA00955296E9FB7A0064307013EF540FFEF8BA
:1022EA007401088002C333D8FCF452B152B2EB64D1
:1022FA00404A7013EF540FFEF87401088002C3338A
:10230A00D8FCF452B352B4E96450600302253AEFA0
:10231A00540FFEF87401088002C333D8FCF452C982
:10232A0052CA22ED640160030223DDEF54F0F9FB87
:10233A007A007015EF540FFEF87401088002C33357
:10234A00D8FCFEF45293EE4294EB64104A7015EFF7
:10235A00540FFEF87401088002C333D8FCFEF4520D
:10236A0091EE4292E964207015EF540FFEF8740161
:10237A00088002C333D8FCFEF45295EE4296E9FB7C
:10238A007A0064307015EF540FFEF8740108800269
:10239A00C333D8FCFEF452B1EE42B2EB64404A7049
:1023AA0015EF540FFEF87401088002C333D8FCFEFF
:1023BA00F452B3EE42B4E96450600302253AEF5492
:1023CA000FFEF87401088002C333D8FCFEF452C928
:1023DA00022537ED6402600302248EEF54F0F9FB04
:1023EA007A007015EF540FFEF87401088002C333A7
:1023FA00D8FCFE4293EEF45294EB64104A7015EF47
:10240A00540FFEF87401088002C333D8FCFE4291CF
:10241A00EEF45292E964207015EF540FFEF874013D
:10242A00088002C333D8FCFE4295EEF45296E9FBCB
:10243A007A0064307015EF540FFEF87401088002B8
:10244A00C333D8FCFE42B1EEF452B2EB64404A7098
:10245A0015EF540FFEF87401088002C333D8FCFE4E
:10246A0042B3EEF452B4E96450600302253AEF54E1
:10247A000FFEF87401088002C333D8FCFE42C9EE8D
:10248A00F452CA22ED6403600302253AEF54F0FDC8
:10249A007C007014EF540FFEF87401088002C333F5
:1024AA00D8FCFE4293EE4294ED64104C7014EF5443
:1024BA000FFEF87401088002C333D8FCFE4291EE85
:1024CA004292EF54F064207014EF540FFEF8740136
:1024DA00088002C333D8FCFE4295EE4296EF54F0D0
:1024EA00FD7C0064307014EF540FFEF8740108800C
:1024FA0002C333D8FCFE42B1EE42B2ED64404C70E6
:10250A0014EF540FFEF87401088002C333D8FCFE9E
:10251A0042B3EE42B4EF54F064507014EF540FFE1D
:10252A00F87401088002C333D8FCFE42C9EE42CADD
:01253A00227E
:066166002564002566001F
:10609C00C2B5C2B3AB07E4FD7F01124F68D2B52283
:1060AC00C2B5D2B3AB07E4FD7F01124F68D2B52263
:025C1A00AC06D6
:105C1C00EC900542F0A3EFF0C2B5D2B3900542E090
:105C2C00FBE4FD7F01124F68900543E0FBE4FD7F30
:065C3C0001124F68D2B511
:015C4200223F
:104F070090043CEEF0A3EFF0A3ECF0A3EDF0A3EADE
:104F1700F0A3EBF07F2A12609CE4FF1260AC9004D0
:104F27003CA3E02402FF1260ACE4FF1260AC9004E3
:104F370040A3E02402FF1260AC7F2B12609CE4FFC9
:104F47001260AC90043EA3E004FF1260ACE4FF12D1
:104F570060AC900442A3E004FF1260AC7F2C0260B7
:014F67009CAD
:08508300900526EEF0A3EFF00A
:10508B00900442E4F0A3749FF07B7F7A00E4FDFC74
:10509B00FFFE124F07E4900528F0900528E0C3941B
:1050AB00A074809480502BE4A3F0900529E0C39466
:1050BB0080748094805013900526E0FEA3E0FF12CD
:1050CB005C1A900529E004F080E0900528E004F0DC
:0250DB0080C88B
:0150DD0022B0
:10253B009004B67412F0E4A3F0A3F07B117D107F2E
:10254B00011252C8C2B27F0A7E00125FF1D2B27F73
:10255B00787E00125FF17F1112609C7F787E0012F3
:10256B005FF17FB112609C7F011260AC7F2C126017
:10257B00AC7F2D1260AC7FB212609C7F011260ACFD
:10258B007F2C1260AC7F2D1260AC7FB312609C7FEE
:10259B00011260AC7F2C1260AC7F2D1260AC7F01FE
:1025AB001260AC7F2C1260AC7F2D1260AC7FB4122A
:1025BB00609C7F071260AC7FC012609C7FA2126090
:1025CB00AC7F021260AC7F841260AC7FC112609C46
:1025DB007FC51260AC7FC212609C7F0A1260ACE4B4
:1025EB00FF1260AC7FC312609C7F8A1260AC7F2AA3
:1025FB001260AC7FC412609C7F8A1260AC7FEE12BB
:10260B0060AC7FC512609C7F0E1260AC7F3612608F
:10261B009CE4701E14600E14600F14601024037081
:10262B00117FC0800AE4FF80067FA080027F6012CA
:10263B0060AC7FE012609C7F0F1260AC7F1A12605F
:10264B00AC7F0F1260AC7F181260AC7F2F1260ACA6
:10265B007F281260AC7F201260AC7F221260AC7FAF
:10266B001F1260AC7F1B1260AC7F231260AC7F37F4
:10267B001260ACE4FF1260AC7F071260AC7F0212F9
:10268B0060AC7F101260AC7FE112609C7F0F126018
:10269B00AC7F1B1260AC7F0F1260AC7F171260AC6B
:1026AB007F331260AC7F2C1260AC7F291260AC7F41
:1026BB002E1260AC7F301260AC7F301260AC7F3971
:1026CB001260AC7F3F1260ACE4FF1260AC7F07126C
:1026DB0060AC7F031260AC7F101260AC7F2A12607B
:1026EB009CE4FF1260AC7F021260ACE4FF1260ACA2
:1026FB007F821260AC7F2B12609CE4FF1260AC7F78
:10270B00031260ACE4FF1260AC7F831260AC7FF00D
:10271B0012609C7F011260AC7FF612609CE4FF128A
:10272B0060AC7F3A12609C7F051260AC7F2912600F
:08273B009C74FFFFFE025083B5
:1057EB009004C5EEF0A3EFF09004C9EAF0A3EBF040
:1057FB009004C7ECF0A3EDF09004C5E0FAA3E0FB36
:10580B00FFAE02C007A3E0FFA3E0900442CFF0A3DA
:10581B00EFF0D007124F079004C9E0FEA3E0FF02A0
:02582B005C1A05
:063C6B00F583E02430FBAC
:103C7100900444EEF0A3EFF0A3ECF0A3EDF0A3EB7E
:013C8100F052
:103C8200E4A3F0900449E0F9C39410748094804056
:103C920003023D4AE9FF900447E02FFD900446E00D
:103CA2003400FC900445E02407FB900444E0340017
:103CB200FA7E00900446E0F8A3E02FFFEE3890046D
:103CC20042F0A3EFF0900444E0FEA3E0FF124F079E
:103CD200900448E0FF3395E0FEEFC4F8540FC86843
:103CE200FFEEC454F048FE74962FF58274FE3EF542
:103CF20083C083C082900449E0D082D0832582F5BC
:103D020082E43583F583E49390044BF0E490044A13
:103D1200F090044AE0C39408748094805021A3E098
:103D220030E0067F007EF8800474FFFFFE125C1A0A
:103D320090044BE0C313F090044AE004F080D29068
:083D42000449E004F0023C8595
:013D4A002256
:104BF50090040FEEF0A3EFF0A3ECF0A3EDF0A3EB20
:074C0500F0A3EAF0A3E9F0BF
:104C0C00E4A3F0A3F0900413E0FBA3E0FAA3E0F913
:104C1C00A3E0FEA3E0FFF5828E831213A5FB603E9A
:104C2C00EF7803C333CE33CED8F9FF900410E02FC6
:104C3C00FF90040FE03EFE900412E0C4F8540FC83D
:104C4C0068FD900411E0C454F048FC123C719004CF
:0E4C5C0017E004F070AF900416E004F080A79B
:014C6A002227
:103E2B00900418EEF0A3EFF0A3ECF0A3EDF0A3EBEE
:013E3B00F096
:103E3C003395E0C36480948090041BE0C4F8540F65
:103E4C00C868FD90041AE0C454F048FC900418E0D3
:103E5C00FEA3E0FF500E7B2D123C7190041CE0F48D
:103E6C0004F080057B20123C7190041CE0FF75F07F
:103E7C006412136A90041DF0EF75F00A12136AFFB6
:103E8C0075F00A12136AAFF090041EEFF090041C48
:103E9C00E0FF75F00A12136AAFF090041FEFF0E424
:103EAC00A3F0900420E0FBFF7E00C3940374809485
:103EBC00805045EF2401FFEE33FEEF7803C333CE81
:103ECC0033CED8F9FF900419E02FFF900418E03E90
:103EDC00FE90041BE0C4F8540FC868FD90041AE06F
:103EEC00C454F048FC741D2BF582E43404123C6B72
:083EFC00900420E004F080AA0C
:013F0400229A
:0E4B070090044CEEF0A3EFF0A3ECF0A3EDF061
:104B1500EB75F06484A3F0EB75F00A8475F00A84F4
:104B2500A3E5F0F0EB75F00A84A3E5F0F0E4A3F05B
:104B3500900453E0C3940374809480503BE0FB756C
:104B4500F008A4FF90044DE02FFF90044CE035F0F1
:104B5500FE90044FE0C4F8540FC868FD90044EE081
:104B6500C454F048FC74502BF582E43404123C6BB9
:084B7500900453E004F080B845
:014B7D002215
:10343800900394EEF0A3EFF0A3ECF0A3EDF0A3EA71
:04344800F0A3EBF012
:10344C00C3EA64809480900397E0C4F8540FC86872
:10345C00FD900396E0C454F048FC900394E0FEA366
:10346C00E0FF501C7B2D123C71900398E0FEA3E012
:10347C00FFC3E49FFFE49E900398F0A3EFF0800558
:10348C007B20123C71900398E0FAA3E0FB7C277D33
:10349C0010FFAE0212146DA3EFF07C037DE8AF03B6
:1034AC00AE0212146D7C007D0A12146DA3EDF09027
:1034BC000398A3E07C007D64FFAE0212146D7C00C7
:1034CC007D0A12146D90039CEDF07C007D0AAF0315
:1034DC00AE0212146D7C007D0A12146DA3EDF090F7
:1034EC000398E0FEA3E0FF7C007D0A12146D9003AC
:1034FC009EEDF0E4A3F090039FE0FBFF7E00C394ED
:10350C0005748094805045EF2401FFEE33FEEF7874
:10351C0003C333CE33CED8F9FF900395E02FFF9041
:10352C000394E03EFE900397E0C4F8540FC868FD86
:10353C00900396E0C454F048FC749A2BF582E43462
:0C354C0003123C6B90039FE004F080AA87
:013558002250
:0E424D009003F1EEF0A3EFF0A3ECF0A3EDF080
:10425B007C277D10AF03AE02121418A3EFF07C0382
:10426B007DE8AF03AE021214187C007D0A121418FD
:10427B00A3EDF07C007D64AF03AE021214187C003A
:10428B007D0A121418A3EDF07C007D0AAF03AE0279
:10429B001214187C007D0A121418A3EDF0AE02AFB5
:1042AB00037C007D0A121418A3EDF0E4A3F0900335
:1042BB00FAE0C3940574809480503BE0FB75F008E2
:1042CB00A4FF9003F2E02FFF9003F1E035F0FE9096
:1042DB0003F4E0C4F8540FC868FD9003F3E0C45432
:1042EB00F048FC74F52BF582E43403123C6B90031D
:0642FB00FAE004F080B8B7
:014301002299
:0E39A5009002B7EEF0A3EFF0A3ECF0A3EDF06C
:1039B3009002BFE0FFC3740A9F7480F898500374A9
:1039C3000AF09002BFE004F09002BBE0FCA3E0FD2C
:1039D300A3E0FEA3E0FFE4FBFAF9F8D31215E340FA
:1039E300319001D174FFF0A37461F0A37466F09079
:1039F30002BBE0FCA3E0FDA3E0FEA3E0FF9001D443
:103A030012163D0B7A0279C0121CE89002E2EFF025
:103A130080389002C07420F09001D174FFF0A37439
:103A230061F0A37466F09002BBE0FCA3E0FDA3E0A9
:103A3300FEA3E0FF9001D412163D7B017A0279C107
:103A4300121CE89002E2EFF0801E9002BFE0FF90AC
:103A530002E2E0FEC39F501574C02EF582E43402E7
:103A6300F5837420F09002E2E004F080DD74C02F4F
:103A7300F582E43402F583E4F09002B7E0FEA3E0BC
:103A8300FFA3E0FCA3E0FD7B017A0279C0024BF5C2
:0E2E760090022AEEF0A3EFF0A3ECF0A3EDF033
:102E8400900233E0FFC374069F7480F89850037473
:102E940006F0900232E0FFC3740A9F7480F89850E1
:102EA40003740AF090022EE0FCA3E0FDA3E0FEA36D
:102EB400E0FFE4FBFAF9F812113C9001D1603140D3
:102EC4002F74FFF0A37461F0A37469F090022EE0F4
:102ED400FCA3E0FDA3E0FEA3E0FF9001D412163DA5
:102EE4007B017A027935121CE8900234EFF08030CD
:102EF40074FFF0A37461F0A37469F090022EE0FCF7
:102F0400A3E0FDA3E0FEA3E0FF9001D412163D7BF5
:102F1400017A027936121CE8900234EFF0E004F0F2
:102F2400900234E024F9FD900232E0FEC3ED9E14D9
:102F3400900257F0900233E0AE052E04900258F050
:102F4400900257E0FF3395E0FED3E49FEE6480F8EF
:102F54007480984022A3E0FF3395E0FE74352FF58A
:102F64008274023EF5837420F0900258E004F090DD
:102F74000257E004F080C990022EE0FCA3E0FDA318
:102F8400E0FEA3E0FFE4FBFAF9F812113C900257CB
:102F940060174015E0FF3395E0FE74352FF5827419
:102FA400023EF583742DF08013E0FF3395E0FE7448
:102FB400352FF58274023EF5837420F0900258E0B8
:102FC400FF3395E0FE74352FF58274023EF583E4F9
:102FD400F090022AE0FEA3E0FFA3E0FCA3E0FD7B67
:082FE400017A027935024BF578
:0B367A009003D0EBF0A3EAF0A3E9F00E
:1036850074FFFFFE125083E49003D7F0A3F0E4909B
:1036950003D5F0A3F09003D5E0FAA3E0FB7C007D11
:1036A50028FFAE02121406C006C007A3E0FEA3E081
:1036B500FF121406C006C007AF03AE02121406EFD0
:1036C5002427FBE43EFA9003D7E0FEA3E0FF1214A3
:1036D50006EF2427FFE43E900442F0A3EFF0D00567
:1036E500D004D007D006124F07E49003D3F0A3F01F
:1036F5009003D4E025E0FF9003D3E033FE9003D0A0
:10370500E0FBA3E0FAA3E0F98F828E831213A59064
:1037150003DAF0E92FF9EA3EFA9000011213A590B9
:1037250003D9F0FEA3E0FDEDFF125C1A9003D4E08F
:1037350004F070069003D3E004F0C39003D4E09442
:10374500409003D3E06480948640A59003D6E004BE
:10375500F070069003D5E004F0C39003D6E094031F
:103765009003D5E064809480500302369A9003D884
:10377500E004F070069003D7E004F0C39003D8E0AE
:0F37850094049003D7E06480948050030236933D
:013794002212
:10009600000000000000000000000000000000005A
:1000A6000000000808080808080800000808000002
:1000B6000048242412000000000000000000000098
:1000C6000000004848487E2424247E24242400007E
:1000D6000000103C5252121C30505052523C10102C
:1000E600000000222515150D2A58545452220000EE
:1000F6000000000C1212120A76252919916E0000D2
:1001060000060404020000000000000000000000D9
:1001160000402010100808080808081010204000A9
:10012600000204080810101010101008080402003D
:100136000000000008086B1C1C6B0808000000008B
:100146000000000000101010FE101010000000004B
:100156000000000000000000000000000604040289
:1001660000000000000000007E000000000000000B
:10017600000000000000000000000000060600006D
:100186000000402020201010080808040402020085
:100196000000001824424242424242422418000013
:1001A600000000101C10101010101010107C000021
:1001B6000000003C4242424020100804427E0000FB
:1001C6000000003C4242402018204042423C0000D1
:1001D60000000020303028242422FE2020F80000D1
:1001E6000000007E0202021E22404042221C000045
:1001F600000000182402023A4642424244380000F7
:100206000000007E422020101008080808080000A0
:100216000000003C4242422418244242423C000074
:100226000000001C22424242625C4040241800004A
:100236000000000000001818000000001818000058
:100246000000000000000008000000000008080888
:10025600000000402010080402040810204000009E
:100266000000000000007E00007E0000000000008C
:1002760000000002040810204020100804020000BC
:100286000000003C424246201010100018180000E2
:100296000000001C225A55555555553A423C00005F
:1002A6000000000808181414243C224242E700000B
:1002B6000000001F2222221E22424242221F00006C
:1002C6000000007C4242010101010142221C0000A3
:1002D6000000001F2242424242424242221F0000C8
:1002E6000000003F4212121E12120242423F00005C
:1002F6000000003F4212121E121202020207000004
:100306000000003C2222010101712122221C000072
:10031600000000E7424242427E42424242E700007B
:100326000000003E0808080808080808083E000003
:100336000000007C10101010101010101010110F7B
:100346000000007722120A0E0A12122222770000FB
:10035600000000070202020202020202427F0000BF
:100366000000007736363636362A2A2A2A6B0000EF
:10037600000000E346464A4A525252626247000073
:100386000000001C2241414141414141221C000024
:100396000000003F424242423E02020202070000C3
:1003A6000000001C224141414141414D321C600088
:1003B6000000003F4242423E1212222242C7000083
:1003C6000000007C4242020418204042423E0000E7
:1003D6000000007F4908080808080808081C0000F3
:1003E600000000E74242424242424242423C000092
:1003F600000000E7424222242414141808080000D2
:100406000000006B2A2A2A2A2A3614141414000023
:10041600000000E7422424181818242442E70000AC
:10042600000000772222141408080808081C00009F
:100436000000007E2120101008040442423F000004
:100446000078080808080808080808080808780056
:100456000000020404040808081010202020404070
:10046600001E1010101010101010101010101E008A
:10047600001824000000000000000000000000003A
:1004860000000000000000007E00000000000000E8
:100496000006080000000000000000000000000048
:1004A600000000000000001C22302C22326C0000EC
:1004B600000000000302021A26424242261A0000E9
:1004C6000000000000000038440202024438000028
:1004D600000000006040407C4242424262DC000074
:1004E600000000000000003C42427E02423C000048
:1004F600000000003048083E08080808083E0000D2
:10050600000000000000007C22221C023C42423C0B
:10051600000000000302023A4642424242E700005F
:100526000000000C0C00000E08080808083E000039
:100536000000003030000038202020202020221E1D
:100546000000000003020272120A0E122277000057
:10055600000000080E08080808080808083E000001
:10056600000000000000007F9292929292B7000075
:10057600000000000000003B4642424242E7000005
:10058600000000000000003C42424242423C0000A3
:10059600000000000000001B26424242261A020705
:1005A600000000000000005864424242645840E0E7
:1005B60000000000000000774C040404041F000043
:1005C600000000000000007C42023C40423E000069
:1005D600000000000008083E08080808483000002F
:1005E60000000000000000634242424262DC00005C
:1005F6000000000000000077222214140808000002
:1006060000000000000000DB91525A2A242400005A
:10061600000000000000006E241818182476000060
:1006260000000000000000E742242418180808060D
:10063600000000000000007E22100808447E000032
:1006460000C0202020202020102020202020C000B4
:100656001010101010101010101010101010101094
:10066600000304040404040408040404040403004A
:10067600045A2000000000000000000000000000F6
:100686000000000000000000002F0000000007002E
:10069600070000147F147F1400242A7F2A120062A8
:1006A6006408132300364955225000000503000054
:1006B60000001C224100000041221C000014083EDC
:1006C60008140008083E0808000000A060000008A2
:1006D60008080808000060600000002010080402F6
:1006E600003E5149453E0000427F400000426151B4
:1006F6004946002141454B31001814127F1000274E
:1007060045454539003C4A49493000017109050310
:1007160000364949493600064949291E0000363641
:1007260000000000563600000008142241000014A4
:100736001414141400004122140800020151090681
:1007460000324959513E007C1211127C007F494902
:100756004936003E41414122007F4141221C007F33
:1007660049494941007F09090901003E4149497A41
:10077600007F0808087F0000417F410000204041BB
:100786003F01007F08142241007F40404040007F27
:10079600020C027F007F0408107F003E4141413E6B
:1007A600007F09090906003E4151215E007F0919B3
:1007B60029460046494949310001017F0101003FB0
:1007C6004040403F001F2040201F003F4038403F30
:1007D6000063140814630007087008070061514994
:1007E600454300007F41410000552A552A55000027
:1007F60041417F00000402010204004040404040A5
:10080600000001020400002054545478007F48443C
:10081600443800384444442000384444487F003873
:100826005454541800087E0901020018A4A4A47C9C
:10083600007F080404780000447D40000040808466
:100846007D00007F102844000000417F4000007CAE
:1008560004180478007C08040478003844444438BA
:1008660000FC242424180018242418FC007C080406
:10087600040800485454542000043F444020003CDF
:100886004040207C001C2040201C003C4030403C66
:10089600004428102844001CA0A0A07C00446454F6
:1008A6004C4414141414141400000000000000003A
:1008B6000000000000000000000000F8000000003A
:1008C600000000333000000000100C06100C06007B
:1008D600000000000000000040C07840C0784000E2
:1008E600043F04043F040400007088FC0830000044
:1008F600001820FF211E0000F008F000E01800009C
:1009060000211C031E211E0000F008887000000054
:100916001E2123241927211010160E0000000000A6
:100926000000000000000000000000E018040200C3
:10093600000000071820400000020418E000000034
:100946000040201807000000404080F08040400032
:100956000202010F01020200000000F00000000088
:100966000101011F0101010000000000000000005C
:1009760080B07000000000000000000000000000D1
:10098600000101010101010100000000000000005A
:1009960000303000000000000000000080601804F5
:1009A600006018060100000000E010080810E000D2
:1009B600000F102020100F00001010F8000000009B
:1009C6000020203F202000000070080808887000E2
:1009D6000030282422213000003008888848300062
:1009E6000018202020110E000000C02010F8000082
:1009F60000070424243F240000F80888880808001B
:100A06000019212020110E0000E01088881800002F
:100A1600000F112020110E0000380808C838080001
:100A26000000003F00000000007088080888700081
:100A3600001C222121221C0000E010080810E00002
:100A46000000312222110F00000000C0C00000008B
:100A560000000030300000000000008000000000B0
:100A660000008060000000000000804020100800A8
:100A76000001020408102000404040404040400071
:100A8600040404040404040000081020408000004C
:100A96000020100804020100007048080808F00051
:100AA6000000003036010000C030C828E810E00021
:100AB6000718272423140B000000C038E0000000AC
:100AC600203C23020227382008F888888870000016
:100AD600203F202020110E00C030080808083800EA
:100AE600071820202010080008F808080810E00061
:100AF600203F202020100F0008F88888E808100002
:100B0600203F20202320180008F88888E8081000D5
:100B1600203F200003000000C0300808083800000D
:100B260007182020221E020008F808000008F8080E
:100B3600203F210101213F20000808F80808000095
:100B46000020203F2020000000000808F8080800C8
:100B5600C08080807F00000008F888C02818080040
:100B6600203F20012638200008F808000000000079
:100B7600203F20202020300008F8F800F8F8080070
:100B8600203F003F003F200008F830C00008F8086A
:100B9600203F200007183F00E01008080810E0007A
:100BA6000F10202020100F0008F808080808F00091
:100BB600203F210101010000E01008080810E000B4
:100BC6000F18242438504F0008F888888888700049
:100BD600203F2000030C30200070880808083800E9
:100BE6000038202121221C00180808F808081800DF
:100BF6000000203F2000000008F808000008F80860
:100C0600001F202020201F000878880000C8380810
:100C1600000007380E010000F80800F80008F80088
:100C2600033C0700073C0300081868808068180822
:100C360020302C03032C30200838C800C8380800A0
:100C46000000203F2000000010080808C8380800EF
:100C56002038262120201800000000FE0202020093
:100C66000000007F40404000000C30C00000000043
:100C7600000000010638C00000020202FE0000006B
:100C8600004040407F000000000004020202040011
:100C9600000000000000000000000000000000004E
:100CA6008080808080808080000202040000000036
:100CB600000000000000000000008080808000002E
:100CC6000019242222223F2008F80080800000001C
:100CD600003F112020110E000000008080800000DF
:100CE600000E112020201100000000808088F800EE
:100CF600000E112020103F20000080808080000020
:100D0600001F222222221300008080F08888881883
:100D16000020203F2020000000008080808080008E
:100D2600006B94949493600008F800808080000023
:100D3600203F210000203F200080989800000000FE
:100D46000020203F2020000000000080989800002E
:100D560000C08080807F000008F80000808080004E
:100D6600203F24022D302000000808F80000000073
:100D76000020203F2020000080808080808080002E
:100D8600203F20003F20003F8080008080800000C0
:100D9600203F210000203F2000008080808000004E
:100DA600001F202020201F0080800080800000007F
:100DB60080FFA12020110E000000008080808000AE
:100DC600000E112020A0FF8080808000808080009F
:100DD60020203F21200001000000808080808000CC
:100DE6000033242424241900008080E08080000041
:100DF6000000001F2020000080800000008080008E
:100E0600001F202020103F208080800000808080EE
:100E160000010E300806010080800080008080807E
:100E26000F300C030C300F000080800080808000A3
:100E36000020312E0E3120008080800000808080CE
:100E460080818E701806010000808080808080007E
:100E56000021302C2221300000000000807C02029C
:100E660000000000003F404000000000FF000000BE
:100E760000000000FF0000000002027C800000006D
:100E86000040403F00000000000601010202040489
:080E9600000000000000000054
:10005E00E4900550F0900550E064126017E4FB7DCB
:10006E00757F6912592E900550EFF07F0A7E0012AF
:04007E005FF180E1CD
:01008200225B
:104E3B007F0A7E00125FF112005E7B807D6B7F69C3
:104E4B00125EEB7F027E00125FF1E4FB7D6B7F69EC
:104E5B0012592EEF20E7F37B017D6B7F69125EEB1E
:104E6B00E4FB7D6C7F69125EEB7B017D1A7F69121F
:104E7B005EEB7B077D197F69125EEB7B187D1B7FD9
:104E8B0069125EEB7B107D1C7F69125EEB7B037DF1
:064E9B001D7F69025EEBC1
:105317007B017A0479CB90048E7406F0E4A3F07DC8
:105327003B7F69124A169004CBE0FEA3E0FDEDFF38
:105337009003A0EEF0A3EFF09004CDE0FEA3E0FD14
:10534700EDFF9003A2EEF0A3EFF09004CFE0FEA3F1
:0C535700E0FDEDFF9003A4EEF0A3EFF0EA
:015363002227
:105364007B017A0479D190048E7406F0E4A3F07D75
:10537400437F69124A169004D1E0FEA3E0FDEDFFDD
:105384009003A6EEF0A3EFF09004D3E0FEA3E0FDBB
:10539400EDFF9003A8EEF0A3EFF09004D5E0FEA398
:0C53A400E0FDEDFF9003AAEEF0A3EFF097
:0153B00022DA
:065C9300C2A7EF4480FFF0
:105C9900E4FEEEC39408748094805015EF3392A308
:105CA900EF25E0FFC2A5D2A5A2A4E4334FFF0E80E1
:015CB900E109
:015CBA0022C7
:0D000600C2A7125C99AF05125C99D2A72227
:0F611A00125C93E4FF125C99EF1213D2D2A7220A
:0B58B000900519EBF0A3EAF0A3E9F06B
:1058BB00125C93E4FDFC90051CE0FFC3ED9FEC94A0
:1058CB0000501FE4FF125C99900519E0FBA3E0FA6E
:1058DB00A3E0F98D828C83EF1213E40DBD00010C54
:0458EB0080D4D2A7EC
:0158EF002296
:106005007B017A0579517F7512611A900551E0641B
:036015001270ED19
:016018002265
:1050DE001260057D807F6B1200067F027E00125FDC
:1050EE00F17B017A0579527F6B12611A900552E0BD
:1050FE00644170ED7D017F6B1200061D7F6C120006
:10510E00060D7F1A1200067D077F191200067D1804
:10511E007F1B1200067D107F1C1200067D037F1D73
:03512E0002000676
:105571007B017A0479D790051C7406F07F3B1258A1
:10558100B09004D7E0FEA3E0FDEDFF9003A0EEF0A4
:10559100A3EFF09004D9E0FEA3E0FDEDFF9003A29C
:1055A100EEF0A3EFF09004DBE0FEA3E0FDEDFF9051
:0755B10003A4EEF0A3EFF0EC
:0155B80022D0
:1055B9007B017A0479DD90051C7406F07F4312584B
:1055C900B09004DDE0FEA3E0FDEDFF9003A6EEF050
:1055D900A3EFF09004DFE0FEA3E0FDEDFF9003A848
:1055E900EEF0A3EFF09004E1E0FEA3E0FDEDFF9003
:0755F90003AAEEF0A3EFF09E
:015600002287
:0E5F6C00EBF0A3EAF0A3E9F0C2A7EF4480FF38
:095F7A00AB07E4FD7F01024F6852
:10002600900553EDF0C2A7125F7A900553E0FF12D8
:050036005F7AD2A72251
:105EB100900530125F6CE4FF125F7A900530E0FBD1
:0D5EC100A3E0FAA3E0F9EF1213D2D2A7225A
:0351840090048311
:10518700125F6CE4900487F0A3F0900486E0FFC3FD
:10519700900488E09F900487E09400502FE4FF126A
:1051A7005F7A900483E0FBA3E0FAA3E0F990048719
:1051B700E0FCA3E0F5828C83EF1213E4900488E00F
:0E51C70004F070C6900487E004F080BED2A70A
:0151D50022B7
:105D7500E4900554F0900554E0641260147B017AB8
:105D85000579547F75125EB17F0A7E00125FF1803E
:015D9500E429
:015D960022EA
:104D5600E4900555F07F0AFE125FF19004B67412D6
:104D6600F0E4A3F0A3F07B117D107F011252C8126C
:104D76005D757D807F6B1200267F027E00125FF1DB
:104D86007B017A0579557F6B125EB1900555E0641B
:104D96004170ED7D017F6B120026E4FD7F6C1200F1
:104DA600267D017F1A1200267D077F191200267DB7
:104DB600187F1B1200267D107F1C1200267D037FA4
:044DC6001D020026A4
:105601007B017A0479E39004867406F07F3B1251A2
:10561100849004E3E0FEA3E0FDEDFF9003A0EEF033
:10562100A3EFF09004E5E0FEA3E0FDEDFF9003A2FF
:10563100EEF0A3EFF09004E7E0FEA3E0FDEDFF90B4
:0756410003A4EEF0A3EFF05B
:01564800223F
:105649007B017A0479E99004867406F07F4312514C
:10565900849004E9E0FEA3E0FDEDFF9003A6EEF0DF
:10566900A3EFF09004EBE0FEA3E0FDEDFF9003A8AB
:10567900EEF0A3EFF09004EDE0FEA3E0FDEDFF9066
:0756890003AAEEF0A3EFF00D
:0156900022F7
:01004100229C
:075FB000C2A5125FB7D2A5E4
:0E5FB7007F147E00EF1FAC0670011E4C70F6CA
:015FC50022B9
:0F612900D2A3D2A5125FB7C2A3125FB7C2A5223D
:0A004600C2A3125FB0D2A3025FB79D
:105F0700AD07C2A5125FB7ED6004C2A38002D2A39A
:0A5F1700D2A5125FB7C2A5025FB762
:105FC600125FB030A306C2A5E4FEFF22C2A5125F8F
:065FD600B77E007F0122EE
:045CBB00E025E0FF01
:025CBF00AD072F
:105CC1007B08AF031BEF6015ED30E704D2A3800220
:105CD100C2A3ED25E0FD125FB2C2A580E5025FC659
:025A4700AD07A9
:105A4900E4FBC2A5125FB7D2A3E4FAEAC3940874CF
:105A59008094805011125FB7125FB0EB25E0FB30E4
:105A6900A3010B0A80E5C2A5125FB7AF05125F0754
:025A7900AF0379
:015A7B002208
:105EEB00900556EFF0AA03A905126129125CBBAF0E
:0C5EFB0001125CBFAF02125CBF02004647
:09592E00900557EDF0AA07A9034A
:10593700126129EA25E0FF125CBFE0FF125CBFE9B4
:1059470064017003120046126129AF02EF25E0449B
:1059570001FF125CBFE4FF125A47AD07120046AFC2
:01596700053A
:01596800221C
:104A1600900489EFF0A3EDF0A3EBF0A3EAF0A3E98D
:104A2600F0126129900489125CBBA3E0FF125CBFFF
:104A360090048FE06401700312004612612990040D
:104A460089E025E04401FF125CBF90048EE014F07B
:104A560060207F01125A4790048BE0FBA3E0FAA383
:104A6600E0F9EF1213D290048CE475F0011214A34E
:104A760080D8E4FF125A4790048BE0FBA3E0FAA328
:094A8600E0F9EF1213D202004620
:1060BC007D017F0E1254967D0A7C00E4FF023FDFC7
:1046490090051EEBF0A3EAF0A3E9F090051DEFF049
:10465900E4900521F0FD12545A90051DE0FF7DFFFD
:1046690012545A90051DE0FF7D0112545A90051D00
:10467900E0FFE4FD12545AE4900521F0900521E091
:10468900FFC3948074809480504C90051EE0FBA376
:10469900E0FAA3E0F975F002EFA4F58285F0831240
:1046A90014CF7D0090051DE0FF12545A90051EE0BD
:1046B900FBA3E0FAA3E0F9A3E075F002A4F5828573
:1046C900F0831214CFFD90051DE0FF12545A900596
:0646D90021E004F080A6C0
:0146DF0022B8
:1056D800E4900558F0D2A0C2A1C2A0D2A1D2A0C223
:1056E800A1F0900558E0C39480748094805027C23C
:1056F800A0E4FD7F0E125B9B900558E025E0240195
:10570800F582E43400F583EEF0A3EFF0D2A0900523
:0657180058E004F080CC13
:01571E002268
:06616C0025640025660019
:1060CC00C2B5C2B3AB07E4FD7F01124F68D2B52253
:1060DC00C2B5D2B3AB07E4FD7F01124F68D2B52233
:075AE2002428FFE03400FE60
:025AE900AC0609
:105AEB00EC900544F0A3EFF0C2B5D2B3900544E0BF
:105AFB00FBE4FD7F01124F68900545E0FBE4FD7F61
:065B0B0001124F68D2B543
:015B11002271
:1032D4009004B67412F0E4A3F0A3F07B117D107F88
:1032E400011252C8D2B6C2B3C2B27FC87E00125F06
:1032F400F1D2B27F647E00125FF17F361260CC7F20
:10330400A01260DC7F3A1260CC7F051260DC7FB2D1
:103314001260CC7F0C1260DC7F0C1260DCE4FF12C4
:1033240060DC7F331260DC7F331260DC7FB71260B5
:10333400CC7F351260DC7FBB1260CC7F371260DC3F
:103344007FC01260CC7F2C1260DC7FC21260CC7F05
:10335400011260DC7FC31260CC7F121260DC7FC478
:103364001260CC7F201260DC7FC61260CC7F0F120B
:1033740060DC7FD01260CC7FA41260DC7FA112607D
:10338400DC7FE01260CC7FD01260DC7F041260DC52
:103394007F0D1260DC7F111260DC7F131260DC7F12
:1033A4002B1260DC7F3F1260DC7F541260DC7F4CA8
:1033B4001260DC7F181260DC7F0D1260DC7F0B1260
:1033C40060DC7F1F1260DC7F231260DC7FE112600F
:1033D400CC7FD01260DC7F041260DC7F0C1260DCD6
:1033E4007F111260DC7F131260DC7F2C1260DC7FA3
:1033F4003F1260DC7F441260DC7F511260DC7F2F5F
:103404001260DC7F1F1260DC7F1F1260DC7F2012E1
:1034140060DC7F231260DC7F211260CC7F1112609C
:10342400CC7F787E00125FF17F291260CC74FFFF9D
:04343400FE024DCA7D
:10522800900454EEF0A3EFF0A3ECF0A3EDF0A3EAA2
:10523800F0A3EBF07F2A1260CC900455E090045460
:10524800125AE2900459E0900458125AE27F2B1245
:1052580060CC900457E02434FF900456125AE5902D
:10526800045BE02434FF90045A125AE57F2C026054
:01527800CC69
:084DCA009004F5EEF0A3EFF0F8
:104DD20090045AE4F0A37486F07BEF7A00E4FDFCC1
:104DE200FFFE125228E49004F7F0A3F0E49004F9D5
:104DF200F0A3F09004F5E0FEA3E0FF125AE990045C
:104E0200FAE004F070069004F9E004F0C39004FAAA
:104E1200E094879004F9E0940040D89004F8E0040C
:104E2200F070069004F7E004F0C39004F8E094F008
:084E32009004F7E0940040B485
:014E3A002255
:10582D009004FBEEF0A3EFF09004FFEAF0A3EBF091
:10583D009004FDECF0A3EDF09004FBE0FAA3E0FB87
:10584D00FFAE02C007A3E0FFA3E090045ACFF0A380
:10585D00EFF0D0071252289004FFE0FEA3E0FF0204
:02586D005AE9F6
:063D4B00F583E02430FBCB
:103D510090045CEEF0A3EFF0A3ECF0A3EDF0A3EB85
:013D6100F071
:103D6200E4A3F0900461E0F9C3941074809480405D
:103D720003023E2AE9FF90045FE02FFD90045EE01B
:103D82003400FC90045DE02407FB90045CE0340006
:103D9200FA7E0090045EE0F8A3E02FFFEE38900474
:103DA2005AF0A3EFF090045CE0FEA3E0FF12522869
:103DB200900460E0FF3395E0FEEFC4F8540FC8684A
:103DC200FFEEC454F048FE74962FF58274FE3EF561
:103DD20083C083C082900461E0D082D0832582F5C3
:103DE20082E43583F583E493900463F0E490046203
:103DF200F0900462E0C39408748094805021A3E0A0
:103E020030E0067F007EF8800474FFFFFE125AE95C
:103E1200900463E0C313F0900462E004F080D29057
:083E22000461E004F0023D65BB
:013E2A002275
:104C6B00900421EEF0A3EFF0A3ECF0A3EDF0A3EB97
:074C7B00F0A3EAF0A3E9F049
:104C8200E4A3F0A3F0900425E0FBA3E0FAA3E0F98B
:104C9200A3E0FEA3E0FFF5828E831213A5FB603E24
:104CA200EF7803C333CE33CED8F9FF900422E02F3E
:104CB200FF900421E03EFE900424E0C4F8540FC8A3
:104CC20068FD900423E0C454F048FC123D51900466
:0E4CD20029E004F070AF900428E004F080A701
:014CE00022B1
:103F050090042AEEF0A3EFF0A3ECF0A3EDF0A3EB01
:013F1500F0BB
:103F16003395E0C36480948090042DE0C4F8540F78
:103F2600C868FD90042CE0C454F048FC90042AE0D4
:103F3600FEA3E0FF500E7B2D123D5190042EE0F4BF
:103F460004F080057B20123D5190042EE0FF75F0B1
:103F56006412136A90042FF0EF75F00A12136AFFC9
:103F660075F00A12136AAFF0900430EFF090042E49
:103F7600E0FF75F00A12136AAFF0900431EFF0E437
:103F8600A3F0900432E0FBFF7E00C3940374809498
:103F9600805045EF2401FFEE33FEEF7803C333CEA6
:103FA60033CED8F9FF90042BE02FFF90042AE03E91
:103FB600FE90042DE0C4F8540FC868FD90042CE070
:103FC600C454F048FC742F2BF582E43404123D4BA4
:083FD600900432E004F080AA1F
:013FDE0022C0
:0E4B7E00900464EEF0A3EFF0A3ECF0A3EDF0D2
:104B8C00EB75F06484A3F0EB75F00A8475F00A847D
:104B9C00A3E5F0F0EB75F00A84A3E5F0F0E4A3F0E4
:104BAC0090046BE0C3940374809480503BE0FB75DD
:104BBC00F008A4FF900465E02FFF900464E035F04A
:104BCC00FE900467E0C4F8540FC868FD900466E0DA
:104BDC00C454F048FC74682BF582E43404123D4B49
:084BEC0090046BE004F080B8B6
:014BF400229E
:103559009003ACEEF0A3EFF0A3ECF0A3EDF0A3EA37
:04356900F0A3EBF0F0
:10356D00C3EA648094809003AFE0C4F8540FC86838
:10357D00FD9003AEE0C454F048FC9003ACE0FEA314
:10358D00E0FF501C7B2D123D519003B0E0FEA3E0F7
:10359D00FFC3E49FFFE49E9003B0F0A3EFF080051E
:1035AD007B20123D519003B0E0FAA3E0FB7C277D18
:1035BD0010FFAE0212146DA3EFF07C037DE8AF0394
:1035CD00AE0212146D7C007D0A12146DA3EDF09005
:1035DD0003B0A3E07C007D64FFAE0212146D7C008D
:1035ED007D0A12146D9003B4EDF07C007D0AAF03DB
:1035FD00AE0212146D7C007D0A12146DA3EDF090D5
:10360D0003B0E0FEA3E0FF7C007D0A12146D900371
:10361D00B6EDF0E4A3F09003B7E0FBFF7E00C3949A
:10362D0005748094805045EF2401FFEE33FEEF7852
:10363D0003C333CE33CED8F9FF9003ADE02FFF9007
:10364D0003ACE03EFE9003AFE0C4F8540FC868FD34
:10365D009003AEE0C454F048FC74B22BF582E43410
:0C366D0003123D4B9003B7E004F080AA6C
:01367900222E
:0E4302009003FBEEF0A3EFF0A3ECF0A3EDF0C0
:104310007C277D10AF03AE02121418A3EFF07C03CC
:104320007DE8AF03AE021214187C007D0A12141847
:10433000A3EDF07C007D64AF03AE021214187C0084
:104340007D0A121418A3EDF07C007D0AAF03AE02C3
:104350001214187C007D0A121418A3EDF0AE02AFFF
:10436000037C007D0A121418A3EDF0E4A3F090047E
:1043700004E0C3940574809480503BE0FB75F00822
:10438000A4FF9003FCE02FFF9003FBE035F0FE90CC
:1043900003FEE0C4F8540FC868FD9003FDE0C45468
:1043A000F048FC74FF2BF582E43403123D4B90047B
:0643B00004E004F080B8F7
:0143B60022E4
:0E3A93009002E3EEF0A3EFF0A3ECF0A3EDF051
:103AA1009002EBE0FFC3740A9F7480F8985003748E
:103AB1000AF09002EBE004F09002E7E0FCA3E0FDE5
:103AC100A3E0FEA3E0FFE4FBFAF9F8D31215E3400B
:103AD100319001D174FFF0A37461F0A3746CF09084
:103AE10002E7E0FCA3E0FDA3E0FEA3E0FF9001D428
:103AF10012163D0B7A0279EC121CE890030EEFF0DE
:103B010080389002EC7420F09001D174FFF0A3741E
:103B110061F0A3746CF09002E7E0FCA3E0FDA3E088
:103B2100FEA3E0FF9001D412163D7B017A0279EDEC
:103B3100121CE890030EEFF0801E9002EBE0FF9064
:103B4100030EE0FEC39F501574EC2EF582E434029F
:103B5100F5837420F090030EE004F080DD74EC2F07
:103B6100F582E43402F583E4F09002E3E0FEA3E0A1
:103B7100FFA3E0FCA3E0FD7B017A0279EC024C6B30
:0E2FEC00900259EEF0A3EFF0A3ECF0A3EDF08D
:102FFA00900262E0FFC374069F7480F898500374CD
:10300A0006F0900261E0FFC3740A9F7480F898503A
:10301A0003740AF090025DE0FCA3E0FDA3E0FEA3C6
:10302A00E0FFE4FBFAF9F812113C9001D16031405B
:10303A002F74FFF0A37461F0A3746FF090025DE047
:10304A00FCA3E0FDA3E0FEA3E0FF9001D412163D2D
:10305A007B017A027964121CE8900263EFF08030F7
:10306A0074FFF0A37461F0A3746FF090025DE0FC4A
:10307A00A3E0FDA3E0FEA3E0FF9001D412163D7B7E
:10308A00017A027965121CE8900263EFF0E004F01D
:10309A00900263E024F9FD900261E0FEC3ED9E1404
:1030AA00900286F0900262E0AE052E04900287F04C
:1030BA00900286E0FF3395E0FED3E49FEE6480F849
:1030CA007480984022A3E0FF3395E0FE74642FF5E4
:1030DA008274023EF5837420F0900287E004F09037
:1030EA000286E004F080C990025DE0FCA3E0FDA343
:1030FA00E0FEA3E0FFE4FBFAF9F812113C90028625
:10310A0060174015E0FF3395E0FE74642FF5827472
:10311A00023EF583742DF08013E0FF3395E0FE74D0
:10312A00642FF58274023EF5837420F0900287E0E2
:10313A00FF3395E0FE74642FF58274023EF583E452
:10314A00F0900259E0FEA3E0FFA3E0FCA3E0FD7BC0
:08315A00017A027964024C6B5A
:105BC600E4FB7D6B7F68125EEB7B077D197F6812B5
:105BD6005EEBE4FB7D197F6812592EEF64076009BE
:0A5BE6007F017E00125FF180E922CA
:105528007F647E00125FF1125BC6E4FB7D6B7F68CF
:10553800125EEB7B077D197F68125EEB7B047D1A98
:105548007F68125EEB7B187D1B7F68125EEB7B1019
:105558007D1C7F68125EEBE4FB7D6A7F68125EEB60
:095568007B027D377F68025EEBD7
:1053B1007B017A05790190048E7406F0E4A3F07DF7
:1053C1003B7F68124A16900501E0FEA3E0FDEDFF68
:1053D1009003B8EEF0A3EFF0900503E0FEA3E0FD2B
:1053E100EDFF9003BAEEF0A3EFF0900505E0FEA308
:0C53F100E0FDEDFF9003BCEEF0A3EFF038
:0153FD00228D
:1053FE007B017A05790790048E7406F0E4A3F07DA4
:10540E00437F68124A16900507E0FEA3E0FDEDFF0C
:10541E009003BEEEF0A3EFF0900509E0FEA3E0FDD1
:10542E00EDFF9003C0EEF0A3EFF090050BE0FEA3AE
:0C543E00E0FDEDFF9003C2EEF0A3EFF0E4
:01544A00223F
:0A6138002D002000256400256600FC
:055BF000F583E493FFC2
:105BF5007E08C2B5D2B3C2A5AD061EED6014EF3066
:105C0500E704D2A38002C2A3D2A5C2A5EF25E0FF77
:045C150080E6D2B59E
:015C19002268
:105D07007E06C2B5D2B3C2A5AD061EED6014EF3054
:105D1700E704D2A38002C2A3D2A5C2A5EF25E0FF64
:045D270080E6D2B58B
:015D2B002255
:085B420054F0C4540F4410FF9D
:105B4A007E08C2B5C2B3C2A5AD061EED6014EF3021
:105B5A00E704D2A38002C2A3D2A5C2A5EF25E0FF23
:045B6A0080E6D2B54A
:015B6E002214
:10491400900490EEF0A3EFF0A3EBF0A3EAF0A3E988
:01492400F0A2
:104925009004967406F0900492E0FBA3E0FAA3E0ED
:10493500F9900496E0F582758300E4804E90049624
:10494500E0604D14F0900490E0FAA3E0FB7C007D5C
:104955000AFFAE02121418900495EDF07C007D0A52
:10496500AF03AE02121418900490EEF0A3EFF0908E
:104975000495E02430FF900492E0FBA3E0FAA3E065
:10498500F9900496E0F582758300EF1213E480AD8B
:0149950022FF
:10446300D2B5D2A5C2B27F327E00125FF1D2B27F43
:10447300AE125B4AE4FF125B4A7F10125B4A7F4035
:10448300125B4A7F81125B4A7F7F125B4A7FA112D4
:104493005B4A7FC8125B4A7FA6125B4A7FA8125B06
:1044A3004A7F3F125B4A7FD3125B4AE4FF125B4AA7
:1044B3007FD5125B4A7F80125B4A7FD9125B4A7FAA
:1044C300F1125B4A7FDA125B4A7F12125B4A7FDB8F
:1044D300125B4A7F40125B4A7F20125B4A7F0212C3
:1044E3005B4A7F8D125B4A7F14125B4A7FA4125B87
:1044F3004A7FA6125B4A7FAF125B4AE4FF125A104F
:06450300E4FDFF02601957
:10601900AC07ED24B0FF125B4AEC125B42EC540F63
:04602900FF025B4ACD
:025A1000AC07E1
:105A1200E4FBEBC39408748094805028EB24B0FF1D
:105A2200125B4A7F01125B4A7F10125B4AE4FAEA78
:105A3200C39480748094805008AF04125BF50A808E
:045A4200EE0B80CE19
:015A4600223D
:105E1E00AA07A905126019E924B0FF125B4AEA121B
:0E5E2E005B42EA540FFF125B4AAF03025BF5C2
:105E3C00AB07AA05126019EA24B0FF125B4AEB12F9
:0E5E4C005B42EB540FFF125B4AE4FF025BF572
:10477100900497EFF0A3EDF0A3EBF0A3EAF0A3E927
:01478100F047
:10478200E4A3F0FCA3F0900499E0FBA3E0FAA3E019
:10479200F990049DE0F5827583001213A5605F24F1
:1047A200E090049CF0900497E0D3947E748094800F
:1047B2004006E4F0A3E004F0900497E0FFA3E0FDDC
:1047C200126019E4FCECC39406748094805020902B
:1047D200049CE075F006A42486F582E5F03406F523
:1047E20083E5822CF582E43583125BF00C80D6904F
:0E47F2000497E02406F090049DE004F0808817
:014800002295
:1041810090049EEFF0A3EDF0A3EBF0A3EAF0A3E916
:01419100F03D
:10419200E4A3F0FCA3F09004A0E0FBA3E0FAA3E008
:1041A200F99004A4E0F5827583001213A57003024E
:1041B200424C24E09004A3F090049EE0D3947874DF
:1041C2008094804006E4F0A3E004F090049EE0FFB7
:1041D200A3E0FD126019E4FCECC39408748094809F
:1041E20050209004A3E075F010A42CF582E435F081
:1041F200F583E58224AEF582E5833408125BF00C88
:1042020080D690049EE0FFA3E004FD126019E4FC56
:10421200ECC394087480948050209004A3E075F05D
:1042220010A42CF582E435F0F583E58224B6F582FC
:10423200E5833408125BF00C80D690049EE02408DB
:0A424200F09004A4E004F00241989B
:01424C00224F
:085CE100900433EFF0A3EDF095
:105CE900AE02AF037B017A0479351249149004336B
:0E5CF900E0FFA3E0FD7B017A047936024771DB
:0E4CE1009003DBEFF0A3EDF0A3EAF0A3EBF0FD
:104CEF00C3EA6480948050259003DDE0FEA3E0FFCB
:104CFF00C3E49FFFE49E9003DDF0A3EFF09003DB8E
:104D0F00E0FFA3E0FD7BFF7A617938800E9003DB33
:104D1F00E0FFA3E0FD7BFF7A61793A1247719003C0
:104D2F00DBE02406F09003DDE0FEA3E0FF7B017AD9
:104D3F000379DF1249149003DBE0FFA3E0FD7B0151
:074D4F007A0379E0024771CD
:0E3B810090030FEEF0A3EFF0A3ECF0A3EDF035
:103B8F00900317E0FFC3740A9F7480F89850037472
:103B9F000AF0900317E004F0900313E0FCA3E0FD9C
:103BAF00A3E0FEA3E0FFE4FBFAF9F8D31215E3401C
:103BBF00319001D174FFF0A37461F0A3743CF090C5
:103BCF000313E0FCA3E0FDA3E0FEA3E0FF9001D40C
:103BDF0012163D0B7A037918121CE890033AEFF096
:103BEF0080389003187420F09001D174FFF0A37403
:103BFF0061F0A3743CF0900313E0FCA3E0FDA3E09D
:103C0F00FEA3E0FF9001D412163D7B017A037919D0
:103C1F00121CE890033AEFF0801E900317E0FF901C
:103C2F00033AE0FEC39F501574182EF582E4340357
:103C3F00F5837420F090033AE004F080DD74182FC0
:103C4F00F582E43403F583E4F090030FA3E0FFA3C0
:0C3C5F00A3E0FD7B017A03791802477195
:0E316200900288EEF0A3EFF0A3ECF0A3EDF0E6
:10317000900291E0FFC374069F7480F89850037426
:1031800006F0900290E0FFC3740A9F7480F8985094
:1031900003740AF090028CE0FCA3E0FDA3E0FEA320
:1031A000E0FFE4FBFAF9F812113C9001D1603140E4
:1031B0002F74FFF0A37461F0A3743FF090028CE0D1
:1031C000FCA3E0FDA3E0FEA3E0FF9001D412163DB6
:1031D0007B017A027993121CE8900292EFF0803022
:1031E00074FFF0A37461F0A3743FF090028CE0FCD4
:1031F000A3E0FDA3E0FEA3E0FF9001D412163D7B07
:10320000017A027994121CE8900292EFF0E004F047
:10321000900292E024F9FD900290E0FEC3ED9E142E
:103220009002B5F0900291E0AE052E049002B6F047
:103230009002B5E0FF3395E0FED3E49FEE6480F8A2
:103240007480984022A3E0FF3395E0FE74932FF53D
:103250008274023EF5837420F09002B6E004F09090
:1032600002B5E004F080C990028CE0FCA3E0FDA36D
:10327000E0FEA3E0FFE4FBFAF9F812113C9002B57E
:1032800060174015E0FF3395E0FE74932FF58274CC
:10329000023EF583742DF08013E0FF3395E0FE7459
:1032A000932FF58274023EF5837420F09002B6E00D
:1032B000FF3395E0FE74932FF58274023EF583E4AC
:1032C000F0900288A3E0FFA3A3E0FD7B017A0279DE
:0432D00093024771AD
:10172C00900350ECF0A3EDF0A3EBF0A3EAF0A3E9E7
:09173C00F090034EEEF0A3EFF073
:101745007E005407FF90035CEEF0A3EFF070179056
:10175500034EE0FEA3E07803CEC313CE13D8F9FF02
:1017650090035AEE801890034EE0FEA3E07803CE76
:10177500C313CE13D8F92401FFE43E90035AF0A316
:10178500EFF0E4900356F0A3F090035AE0FEA3E0D7
:10179500FF900356E0FCA3E0FDC39FEE6480F8ECE8
:1017A5006480984003021CE7E4FF126019E4A3F08B
:1017B500A3F0900350E0FCA3E0FDC3900359E09D26
:1017C500900358E09C4003021CD6E490035EF09021
:1017D500035BE024FFFF90035AE034FFFE900356BD
:1017E500E0FAA3E0FBC39FEE6480F8EA64809840CA
:1017F5001590035CE0FEA3E0FF4E600AEF9401EE56
:1018050064809480404D90035EE0FFC007AE02EB1C
:101815007803C333CE33CED8F9FF121406900352A2
:10182500E0FBA3E0FAA3E02FF9EA3EFA900358E0C3
:10183500FEA3E029F9EA3EFA12138CFF900355E066
:10184500FEEFD39E40047E0180027E00D0E04E90E4
:10185500035EF090035BE024FFFF90035AE034FF42
:10186500FE900356E0FCA3E0FDC39FEE6480F8EC18
:10187500648098401590035CE0FEA3E0FF4E600A8B
:10188500EF9402EE64809480406390035EE0FFC0B5
:1018950007AE04ED7803C333CE33CED8F9FF9003FA
:1018A50050E0FCA3E0FD121406A3E0FBA3E0FAA3BD
:1018B500E02FF9EA3EFA900358E0FEA3E029F9EAA1
:1018C5003EFA900350E0FEA3E029F9EA3EFA12132E
:1018D5008CFF900355E0FEEFD39E40047F0180020C
:1018E5007F00EF25E0FED0E04E90035EF090035BB5
:1018F500E024FFFF90035AE034FFFE900356E0FC1E
:10190500A3E0FDC39FEE6480F8EC648098401590D9
:10191500035CE0FEA3E0FF4E600AEF9403EE6480F3
:101925009480406C90035EE0FFC007AE04ED780341
:10193500C333CE33CED8F9FF900350E0FCA3E0FDCE
:10194500121406A3E0FBA3E0FAA3E02FF9EA3EFA9E
:10195500900358E0FEA3E029F9EA3EFA900351E02E
:1019650025E0FF900350E033FEE92FF9EA3EFA1235
:10197500138CFF900355E0FEEFD39E40047F01805A
:10198500027F00EF25E025E0FED0E04E90035EF0FB
:1019950090035BE024FFFF90035AE034FFFE9003C1
:1019A50056E0FCA3E0FDC39FEE6480F8EC648098EC
:1019B500401590035CE0FEA3E0FF4E600AEF94043F
:1019C500EE64809480406A90035EE0FFC007AE0439
:1019D500ED7803C333CE33CED8F9FF900350E0FC46
:1019E500A3E0FD121406A3E0FBA3E0FAA3E02FF9A0
:1019F500EA3EFA900358E0FEA3E029F9EA3EFA90A0
:101A05000350E0FEA3E0F5828E83740312167A126A
:101A150013A5FF900355E0FEEFD39E40047F0180A0
:101A2500027F00EF33333354F8FED0E04E90035E6F
:101A3500F090035BE024FFFF90035AE034FFFE9033
:101A45000356E0FCA3E0FDC39FEE6480F8EC6480E0
:101A550098401590035CE0FEA3E0FF4E600AEF940A
:101A650005EE64809480406D90035EE0FFC007AE94
:101A750004ED7803C333CE33CED8F9FF900350E09D
:101A8500FCA3E0FD121406A3E0FBA3E0FAA3E02FFC
:101A9500F9EA3EFA900358E0FEA3E029F9EA3EFA96
:101AA500900350E0FEA3E07802C333CE33CED8F9DD
:101AB50029F9EA3EFA12138CFF900355E0FEEFD3A5
:101AC5009E40047F0180027F00EFC454F0FED0E009
:101AD5004E90035EF090035BE024FFFF90035AE015
:101AE50034FFFE900356E0FCA3E0FDC39FEE648047
:101AF500F8EC648098401590035CE0FEA3E0FF4E8F
:101B0500600AEF9406EE64809480406990035EE07D
:101B1500FFC007AE04ED7803C333CE33CED8F9FF4B
:101B2500900350E0FCA3E0FD121406A3E0FBA3E044
:101B3500FAA3E02FF9EA3EFA900358E0FEA3E02964
:101B4500F9EA3EFA900350E0FEA3E0F5828E837435
:101B55000512167A1213A5FF900355E0FEEFD39EEA
:101B650040047F0180027F00EFC43354E0FED0E0E3
:101B75004E90035EF090035BE024FFFF90035AE074
:101B850034FFFE900356E0FCA3E0FDC39FEE6480A6
:101B9500F8EC648098401590035CE0FEA3E0FF4EEE
:101BA500600AEF9407EE64809480406A90035EE0DB
:101BB500FFC007AE04ED7803C333CE33CED8F9FFAB
:101BC500900350E0FCA3E0FD121406A3E0FBA3E0A4
:101BD500FAA3E02FF9EA3EFA900358E0FEA3E029C4
:101BE500F9EA3EFA900350E0FEA3E0F5828E837495
:101BF5000612167A1213A5FF900355E0FEEFD39E49
:101C050040047F0180027F00EFC4333354C0FED00F
:101C1500E04E90035EF090035BE024FFFF90035AD3
:101C2500E034FFFE900356E0FCA3E0FDC39FEE64A5
:101C350080F8EC648098401590035CE0FEA3E0FF1B
:101C45004E600AEF9408EE64809480406B90035ECA
:101C5500E0FFC007AE04ED7803C333CE33CED8F929
:101C6500FF900350E0FCA3E0FD121406A3E0FBA3E4
:101C7500E0FAA3E02FF9EA3EFA900358E0FEA3E06C
:101C850029F9EA3EFA900350E0FEA3E0F5828E833F
:101C9500740712167A1213A5FF900355E0FEEFD3D1
:101CA5009E40047F0180027F00EFC43333335480AC
:101CB500FED0E04E90035EF090035EE0FF125BF510
:101CC500900359E004F07006900358E004F0021701
:101CD500B7900357E004F07006900356E004F00255
:021CE500178E58
:011CE70022DA
:0B40B20090036FEFF0A3EDF0A3EBF024
:1040BD00E4900376F0A3F0900375E0FFC3900377CF
:1040CD00E09F7480F8900376E0648098400302418D
:1040DD0080E4900378F0A3F0900371E0FF131313C5
:1040ED00541FFD900378E0FAA3E0FBC39D7480F8A4
:1040FD00EA6480985069900376A3E08FF0A4FF9056
:10410D00036FE02FFFA3E02BFD126019E490037AFB
:10411D00F0A3F0900372E0FBA3E0FAA3E0F9121311
:10412D008CFF125BF5900373E475F0011214A390EC
:10413D00037BE004F0700690037AE004F0C3900373
:10414D007BE0941090037AE06480948040C59003E6
:10415D0079E004F07082900378E004F00240E5907D
:10416D000377E004F060030240C4900376E004F0AE
:03417D000240C439
:01418000221C
:065F2100D2A27F017E0008
:105F2700EF1FAA0670011E4A60087D091DED60F08B
:025F370080FAEE
:015F39002245
:105AB000125AC0D2A47F017E00125F27C2A4E4FF65
:105AC000E4FEEEC39408748094805015EF3392A5E1
:105AD000EF25E0FFC2A7D2A7A2A6E4334FFF0E80B6
:015AE000E1E4
:015AE10022A2
:10608B00C2A4EF4480FF125AC0AF05125AC0D2A46B
:01609B0022E2
:105FDC00C2A4EF4440FF125AC0E4FF125AC0EF12A1
:055FEC0013D2D2A42233
:025D2C00AC05C4
:105D2E00C2A4EF4480FF125AC0AF04125AB0AD079E
:105D3E00E4FF125AC0D2A4AF05EC6F60037F0122BC
:025D4E007F00D4
:015D50002230
:105B1200900533EBF0A3EAF0A3E9F0C2A4EF44400E
:105B2200FF125AC0E4FF125AB0900533E0FBA3E023
:105B3200FAA3E0F9EF1213D2E4FF125AC0D2A42260
:10596900900546EEF0A3EFF0C3E49FF074109E900B
:105979000546F0A3E0C4F8540FC868FF900546E057
:10598900C454F048F0A3EFF0FDE4FF125D2C90053C
:0859990046E0FD7F01025D2CD8
:105DFD00125ABCAD07ED7D00FCE4FF125AC0D2A4CF
:105E0D00AE04EEC4F854F0C868FEEFC4540F48FF5A
:015E1D002262
:10602D007B017A0579597F06125B12900559E06460
:03603D001C70EDE7
:01604000223D
:1060EC0012602DE4FD7F09125D2CE4FFFE0259695C
:0E5F8300EBF0A3EAF0A3E9F0C2A2EF4440FF66
:095F9100AB07E4FD7F02024F683A
:105F3A0090055AEDF0C2A2EF4480FF125F919005DE
:095F4A005AE0FF125F91D2A2227D
:105ECE00900536125F83E4FF125AC0900536E0FB50
:0D5EDE00A3E0FAA3E0F9EF1213D2D2A22242
:0558F000900548EDF0F9
:1058F500C2A2EF4480FF125F91900548E0FF125F5E
:1059050091125F21C2A2E4FF125F91900549EFF069
:10591500E4FF125F91D2A2900549E0FF900548E0AF
:085925006F60037F01227F0087
:01592D002257
:105B6F00900539125F83E4FF125F91125F21C2A289
:105B7F00E4FF125F91900539E0FBA3E0FAA3E0F98F
:0C5B8F00EF1213D2E4FF125F91D2A222A9
:1059A10090054AEEF0A3EFF0C3E49FF074109E90CF
:1059B100054AF0A3E0C4F8540FC868FF90054AE017
:1059C100C454F048F0A3EFF0FDE4FF1258F0900545
:0859D1004AE0FD7F010258F0DD
:10586F00E490054CF0A3F0C2A2FF125F9190054C9B
:10587F00E4F0A3EFF0E0F8E4F0E890054CF0E4FF7B
:10588F00125F9190054CE0F0A3E04FF0D2A290058B
:10589F004CE0C4F854F0C868FEA3E0C4540F48FFAE
:0158AF0022D6
:106041007B017A05795B7F06125B6F90055BE064EB
:036051001C70EDD3
:016054002229
:105D51009004B67420F0E4A3F0A3F07B207D207FB3
:105D6100021252C8126041E4FD7F091258F0E4FFAB
:045D7100FE0259A134
:105F530090046F1216490001C2009004737404F098
:095F63007B117D107F0302294629
:1043B7009004A5EBF0A3EAF0A3E9F0A38062E47F01
:1043C7001EFEFDFC9004A8E0F8A3E0F9A3E0FAA321
:1043D700E0FBD31215F9404D308702804B9004A5BE
:1043E700E0FBA3E0FAA3E0F99004C3E4F0A3741E92
:1043F700F07F03125C439004A6E475F01E1214A329
:104407009004A8E0FCA3E0FDA3E0FEA3E0C3941E94
:10441700FFEE9400FEED9400FDEC9400FC9004A8E0
:1044270012163D809930870F9004A8E0FCA3E0FDA9
:10443700A3E0FEA3E0FF229004A5E0FBA3E0FAA31C
:10444700E0F9A3A3A3E0FFA3E09004C3CFF0A3EF99
:0C445700F07F03125C43E4FFFEFDFC223A
:0E46E0009004ACEBF0A3EAF0A3E9F0A3EDF038
:1046EE0074FFA3F0A3F0E4A3F09004AFE0FF9004F6
:1046FE00B2E0FEC39F50639004ACE0FBA3E0FAA3CC
:10470E00E0F98E827583001213A5FF9004B0E0F0DD
:10471E00A3E06FF0E4FDEDC39408748094805032F2
:10472E009004B0E0FEA3E0FF30E019EEC313FEEFFD
:10473E0013FFEE64A0FEEF6401FF9004B0EEF0A351
:10474E00EFF0800B9004B0E0C313F0A3E013F00D74
:10475E0080C49004B2E004F0808F9004B0E0FEA319
:02476E00E0FF6A
:014770002226
:104509009003E8ECF0A3EDF0A3EAF0A3EBF090033D
:06451900E6EEF0A3EFF056
:10451F00E4FC9003EEE0FBA3E0FAA3E0F9EF121343
:10452F00D29003E6E0FEEEFF9003EEE0FBA3E0FA8D
:10453F00A3E0F9900001EF1213E49003E8A3E090D9
:10454F0000021213E49003E8E0FEEE900003121352
:10455F00E49003EAA3E09000041213E49003EAE06E
:10456F00FEEE9000051213E49003ECA3E09000061A
:10457F001213E49003ECE0FEEE9000071213E47DBB
:10458F00081246E09003EEE0FBA3E0FAA3E0F990F7
:0D459F000008EF1213E4EE9000090213E48F
:102B1300900200E0FBA3E475F0041214B9A9F0FAE3
:102B230012161D90022512163D900225E0FCA3E02B
:102B3300FDA3E0FEA3E0FF7B017A027904E49003A6
:062B430042F0A37410F043
:102B490090033B12163D90033FEBF0A3EAF0A3E993
:012B5900F08B
:102B5A00E490034CF0A3F0900342E07003022C18B7
:102B6A0090033BE0FCA3E0FDA3E0FEA3E0FF90039B
:102B7A004412163D900344E0FCA3E0FDA3E0FEA34B
:102B8A00E0FFEC335010900344A3A3A3E01215D541
:102B9A0090034412163D900343E0FBE4FAF9F8A3CC
:102BAA00E0FCA3E0FDA3E0FEA3E0FF125765EB24DF
:102BBA0030FF90033FE0FBA3E0FAA3E0F9EF121322
:102BCA00D2900344E0FCA3E0FDA3E0FEA3E0FFC033
:102BDA0007900343E0FBE4FAF9F8D007125765902F
:102BEA00034412163D90034DE004F0900344E0FCC8
:102BFA00A3E0FDA3E0FEA3E0FFEC4D4E4F700302FD
:102C0A002CC3900340E475F0011214A3808890034A
:102C1A003BE0FCA3E0FDA3E0FEA3E0FF9003481223
:102C2A00163D900343E0FBE4FAF9F8900348E0FC10
:102C3A00A3E0FDA3E0FEA3E0FF121543AF03900358
:102C4A004CEFF0D3740A9F7480F8985006E024374A
:102C5A00F0800790034CE02430F090034CE0FF90A2
:102C6A00033FE0FBA3E0FAA3E0F9EF1213D29003CB
:102C7A0048E0FCA3E0FDA3E0FEA3E0FFC007900349
:102C8A0043E0FBE4FAF9F8D007121543900348121F
:102C9A00163D90034DE004F0900348E0FCA3E0FDEC
:102CAA00A3E0FEA3E0FFEC4D4E4F600D900340E41D
:0E2CBA0075F0011214A3022C2C90034DE0FFC4
:012CC80022E9
:1038AC00900229EFF07B017A027904E0FFE4FCFD41
:0138BC00FE0D
:0F38BD009003C4EBF0A3EAF0A3E9F0A312163DC9
:1038CC009003CB12164900000000E47B02FAF9F8D1
:1038DC009003C7E0FCA3E0FDA3E0FEA3E0FF1215FC
:1038EC00439003CBE0F8A3E0F9A3E0FAA3E0FBC319
:1038FC001215F940030239A49003C7A3A3E0FEA359
:10390C00E024FFFBEE34FFFAA3A3A3E0FEA3E0FF49
:10391C00C3EB9FFDEA9EFC9003C4E0FBA3E0FAA37B
:10392C00E0F98D828C831213A59003CFF08F828ED9
:10393C00831213A5FFC0079003C7A3A3E0FEA3E067
:10394C0024FFFBEE34FFFAA3A3A3E0FEA3E0FDAC3F
:10395C0006C3EB9DFFEA9CFE9003C4E0FBA3E0FAD8
:10396C008F828E83D0E01213E49003CFE0FFEF8DB3
:10397C00828C831213E49003CBE0FCA3E0FDA3E064
:10398C00FEA3E02401FFE43EFEE43DFDE43CFC909C
:08399C0003CB12163D0238D6E0
:0139A4002200
:0B1CE8009001CEEBF0A3EAF0A3E9F0BE
:101CF3009001FC121649000000009002007401F0EC
:101D0300A37401F0A374D4F09001D1E0FBA3E0FA33
:0B1D1300A3E0F912138C70030222728F
:101D1E00900203F06425600302221E9001D1A3E419
:101D2E0075F0011214A3A9F0FA12138C1216AB213E
:101D3E00EA251DEC4620C4581D65631D81641DEC0B
:101D4E00661D816920496F2191702118731FC3751B
:071D5E0020C478000022659B
:101D6500900200E0FBA3E475F0041214B9A9F0FA9F
:091D750012161D900204EFF0E0CB
:031D7E0002222C12
:101D8100900200E0FBA3E475F0041214B9A9F0FA83
:101D910012161D90022512163D900225E0FCA3E0CB
:101DA100FDA3E0FEA3E0FF7B017A027904900342E8
:101DB1007401F0A3740AF0122B49900229EFF090FC
:101DC1000225E0FCA3A3A3EC335014A3E02404F503
:101DD10082E43402F583742DF0900229E004F07B53
:081DE100017A02790490022945
:031DE900022007CE
:101DEC00900200E0FBA3E475F0041214B9A9F0FA18
:101DFC0012161D90022512163D900225E0FCA3E060
:101E0C00FDA3E0FEA3E0FF1211F37B017A0279043B
:101E1C009003427401F0A3740AF0122B499002292A
:101E2C00EFF0E4FFFEFDFC900225E0F8A3E0F9A33F
:101E3C00E0FAA3E0FB12113C5016900229E02404B6
:101E4C00F582E43402F583742DF0900229E004F05D
:101E5C007B017A0279049002291238B7900229E0AA
:101E6C00FF7E009001CEE0FBA3E0FAA3E0F8AC0209
:101E7C00AD037B017A027904121344900229E0FF2E
:101E8C00FD9001CFE48DF01214A39001FCE0F8A3B7
:101E9C00E0F9A3E0FAA3E0FBE4FCFDFEEB2FFFEE80
:101EAC003AFEED39FDEC38FC9001FC12163D900227
:101EBC0025E0FCA3E0FDA3E0FEA3E0FF1211F3EC90
:101ECC001211B5A804A905AA06AB07900225E0FCDF
:101EDC00A3E0FDA3E0FEA3E0FF120EA17B007A2499
:101EEC0079747849120F9690022512163D900225AE
:101EFC00E0FCA3E0FDA3E0FEA3E0FFEC4D4E4F6041
:101F0C0024900225A3A3A3E01211F37B017A02799A
:101F1C00049003427401F0A3740AF0122B4990024E
:101F2C0029EFF080209002097430F0900208F090B4
:101F3C000207F0900206F0900205F0900204F09077
:101F4C0002297406F0900229E0FFFDD374069D74FB
:101F5C0080F898401574042FF582E43402F58374EC
:101F6C0030F0900229E004F080DB900229E0240498
:101F7C00F582E43402F583742EF0900229E0041209
:101F8C0038B0900229E0FF7E009001CEE0FBA3E088
:101F9C00FAA3E0F8AC02AD037B017A0279041213C8
:101FAC00449001FCE0F8A3E0F9A3E0FAA3E0FB9075
:071FBC000229E0FF022106EB
:101FC300900200E0FBA3E475F0041214B9A9F0FA3F
:101FD30012161D90022512163D900225E0FCA3E087
:101FE300FDA3E0FEA3E0FF7B017A027904E4900302
:101FF30042F0A3740AF0122B49900229EFF07B01FF
:102003007A0279041238B7900229E0FF7E0090012A
:10201300CEE0FBA3E0FAA3E0F8AC02AD037B017AC8
:10202300027904121344900229E0FFFD9001CFE4EA
:102033008DF01214A39001FCE0F8A3E0F9A3E0FAF9
:03204300A3E0FB1C
:032046000221066E
:10204900900200E0FBA3E475F0041214B9A9F0FAB8
:1020590012161D90022512163D900225E0FCA3E000
:10206900FDA3E0FEA3E0FF7B017A027904E490037B
:1020790042F0A37408F0122B491238AC900229E0FF
:10208900FF7E009001CEE0FBA3E0FAA3E0F8AC02EA
:10209900AD037B017A027904121344900229E0FF0F
:1020A900FD9001CFE48DF01214A39001FCE0F8A398
:0820B900E0F9A3E0FAA3E0FB4B
:0320C100022106F3
:1020C400122B131238AC900229E0FF7E009001CE4F
:1020D400E0FBA3E0FAA3E0F8AC02AD037B017A02D3
:1020E4007904121344900229E0FFFD9001CFE48D9E
:1020F400F01214A39001FCE0F8A3E0F9A3E0FAA322
:10210400E0FBE4FCFDFEEB2FFFEE3AFEED39FDECC7
:012114003892
:0321150002225E45
:10211800900200E0FBA3E475F0031214B9A9F0FAE9
:1021280012168B900204EBF0A3EAF0A3E9F09002F8
:1021380004E0FBA3E0FAA3E0F912138C7003022277
:102148006512138CFF9001CEE0FBA3E0FAA3E0F93F
:10215800EF1213D29001CFE475F0011214A390018D
:10216800FCE0FCA3E0FDA3E0FEA3E02401FFE43EC5
:10217800FEE43DFDE43CFC9001FC12163D90020596
:09218800E475F0011214A380A516
:10219100122B13900229EFF07B017A0279047F0858
:1021A1007E007D007C001238BD9001CEE0FBA3E0F3
:1021B100FAA3E0F8AC02AD037B017A0279047E0058
:1021C1007F081213449001CFE475F0081214A39014
:1021D10001FCE0FCA3E0FDA3E0FEA3E02408FFE492
:0721E1003EFEE43DFDE43C7D
:1021E80080749001CEE0FBA3E0FAA3E0F974251215
:1021F80013D29001CFE475F0011214A39001FCE012
:10220800FCA3E0FDA3E0FEA3E02401FFE43EFEE41E
:102218003DFDE43C80409001D1E0FBA3E0FAA3E05F
:10222800F912138CFF9001CEE0FBA3E0FAA3E0F9CA
:10223800EF1213D29001CFE475F0011214A39001AC
:10224800FCE0FCA3E0FDA3E0FEA3E02401FFE43EE4
:10225800FEE43DFDE43CFC9001FC12163D9001D2E9
:07226800E475F0011214A35C
:10226F00021D0B900200E4F0A3F0A3F09001FCE03C
:0A227F00FCA3E0FDA3E0FEA3E0FFD6
:012289002232
:0300230002513156
:0F513100C0E0C083C082C0D075D000C005C007E9
:10514000309907C2999001CAE4F030982AC298AF0A
:1051500099EFFD647F6005ED6480701690055CE05A
:10516000FF04F0D3EF941474809480400A75C760F4
:07517000800590055CE4F0EE
:0D517700D007D005D0D0D082D083D0E03258
:03004300025D97C4
:105D9700C0E0C083C082E59A30E108539AFD9001C4
:105DA700CBE4F0E59A30E003539AFED082D083D05B
:025DB700E032D8
:03008B00025DB95A
:105DB900C0E0C083C082E5AC30E10853ACFD90017E
:105DC900CCE4F0E5AC30E00353ACFED082D083D014
:025DD900E032B6
:03009300025DDB30
:105DDB00C0E0C083C082E58430E1085384FD9001AC
:105DEB00CDE4F0E58430E0035384FED082D083D041
:025DFB00E03294
:03003B00024EA1D1
:104EA100C0E0C083C082C0D075D000C006C007304A
:104EB100D822C2D890038EE0FEA3E0F5EAEEF5FA1F
:104EC100900388E0FEA3E0FF90038FE02FF09003B2
:104ED1008EE03EF030D922C2D9900390E0FEA3E0EB
:104EE100F5EBEEF5FB90038AE0FEA3E0FF90039162
:104EF100E02FF0900390E03EF0D007D006D0D0D064
:064F010082D083D0E032F3
:03000300020042B6
:01004200328B
:0300130002005098
:01005000327D
:0300530002005157
:01005100327C
:03005B000200524E
:01005200327B
:0300830002005622
:010056003277
:1051D600120020125279E4FDFF125496E4FD7F017D
:1051E600125496E4FD7F0212549612003EE4FDFF2F
:1051F600125B9B90050DEEF0A3EFF07D017F01128F
:105206005B9B90050FEEF0A3EFF07D027F02125B31
:105216009B900511EEF0A3EFF07F647E00125FF124
:0252260080CB3B
:100E9E0002125FE86480F8E933E83360110460F011
:100EAE00ED33EC337009E8FCE9FDEAFEEBFF2204BA
:100EBE0060DED3EB9FEA9EE99DE8C2E78CF0C2F7B5
:100ECE0095F0400CE8CCF8E9CDF9EACEFAEBCFFB81
:100EDE0012122A85D0F05804700320D5B3E804709E
:100EEE00075002B2D502126992D5EC0460F7E4CC39
:100EFE00C0E0C398F8603B94186008400DD0E0FB4A
:100F0E00021241E4FBFAC9FC8028E830E406E4C989
:100F1E00FBE4CAFCE830E305E4C9CACBFCE854079D
:100F2E006010F8C3E913F9EA13FAEB13FBEC13FCA8
:100F3E00D8F130F52FC3E49CFCEF9BFFEE9AFEED4B
:100F4E0099FDD0E0FBEF4E4D4C701222DB030212E6
:100F5E0066EC2CFCEF33FFEE33FEED33FDED30E7A8
:100F6E00EB021241EF2BFFEE3AFEED39FDD0E0FB26
:100F7E0050130BBB0003021269ED13FDEE13FEEFCF
:080F8E0013FFEC13FC021241F9
:100F9600EC4D6011E8497017ED33EC3304600DE455
:100FA600FCFFFEFD22E933E8330470F802125F12FB
:100FB600122A58046009E4CC2481500628500902FC
:100FC6001269284003021266C0E0EB4A7044B980F9
:100FD60006D0E0FB021255EF4E701CBD8008EBFFF9
:100FE600EAFEE9FD80EBE98DF0A4FEE5F002107F54
:100FF600E9CDF9EAFEEBFFEF89F0A4FCE5F0CE8936
:10100600F0A42EFFE435F0CD89F0A42DFEE435F0F2
:101016008067EF4E7005BD80D780C3EF8BF0A4AC20
:10102600F0EE8BF0A42CFCE435F0F8EF8AF0A42C5B
:10103600E5F038FCE433CB8DF0A42CFCE5F03BF86E
:10104600EE8AF0A42CFCE5F038F8E433CF89F0A45E
:101056002CFCE5F038CF3400CE89F0A42FFFE5F064
:101066003EFEE433C98DF0A42EFEE5F039CD8AF0BC
:10107600A42FFFE5F03EFEE43DFD33D0E0FB500734
:101086000BBB000F021269EC2CFCEF33FFEE33FEB4
:06109600ED33FD021241E2
:10109C00021269EC5D046005E85904700302125FEA
:1010AC0012122A580460F6EC4860F2EC7004FDFE53
:1010BC00FF22C860DB2481C85009C3986002500627
:1010CC000212669850CAF582E9294B4A7005AB8228
:1010DC0002125575F0007C1A7880C3EF9BEE9AEDE6
:1010EC0099400DC3EF9BFFEE9AFEED99FDE842F09F
:1010FC00DC23ACF0D0E0FFD0E0FED0E0FDAB8220F2
:10110C00E7101BEB60BAEC2CFCEF33FFEE33FEED7B
:10111C0033FD021241E803F830E705C0F075F0002A
:10112C00EF2FFFEE33FEED33FD40B830E7C280AA5F
:10113C0074F8CC6480CCC86480C8F58204604FC35A
:10114C00EB9FF5F0EA9E42F0E99D42F0E89C45F0F9
:10115C00603C501DE5825FFFE582D313CB5BCBF483
:10116C002B5582FB50280ABA002409B900200880AC
:10117C001DE5825BFBE582D313CF5FCFF4C3132F46
:10118C005582FF50090EBE00050DBD00010CC3EBCE
:10119C009FF5F0EA9E42F0E99D42F0E89C45F06034
:0911AC0007CC4820E701B3EC2256
:1011B50075F020800E75F010800575F0087D007EB5
:1011C500007F003392D530D5031215D5EC3340108E
:1011D500EF33FFEE33FEED33FDEC33FCD5F0ED22BE
:0E11E500E5F0247EA2D513CC92E7CDCEFF22FA
:1011F300EDD2E7CD33EC3392D524814006E4FFFEF4
:10120300FDFC22FCE4CFCECDCC24E0501174FF8052
:10121300EDC3CC13CCCD13CDCE13CECF13CF0470EF
:07122300F030D5DE0215D505
:10122A00E9D2E7C933E833F892D5EDD2E7CD33EC0A
:07123A0033FC5002B2D52283
:10124100EC30E7100FBF000C0EBE00080DBD00040E
:101251000BEB6014A2D5EB13FCED92E7FD2274FFBA
:10126100FCFDFEFF22E480F8A2D574FF13FC7D8013
:03127100E480EF27
:03000000024801B2
:0C480100787FE4F6D8FD75810702484876
:10127400E709F608DFFA8046E709F208DFFA803E5C
:1012840088828C83E709F0A3DFFA8032E309F60849
:10129400DFFA8078E309F208DFFA807088828C83B1
:1012A400E309F0A3DFFA806489828A83E0A3F60865
:1012B400DFFA805889828A83E0A3F208DFFA804C3F
:1012C40080D280FA80C680D4806980F28033801016
:1012D40080A680EA809A80A880DA80E280CA80337F
:1012E40089828A83ECFAE493A3C8C582C8CCC583F7
:1012F400CCF0A3C8C582C8CCC583CCDFE9DEE780C7
:101304000D89828A83E493A3F608DFF9ECFAA9F045
:10131400EDFB2289828A83ECFAE0A3C8C582C8CC9B
:10132400C583CCF0A3C8C582C8CCC583CCDFEADEB4
:10133400E880DB89828A83E493A3F208DFF980CC16
:1013440088F0EF60010E4E60C388F0ED2402B4040F
:101354000050B9F582EB2402B4040050AF232345B6
:0613640082239012C47305
:10136A00C2D530F707B2D563F0FF05F030E70CB20B
:10137A00D5F4048463F0FF05F080018430D502F4CB
:02138A0004223B
:10138C00BB010689828A83E0225002E722BBFE025F
:09139C00E32289828A83E4932292
:1013A500BB010CE58229F582E5833AF583E02250FD
:1013B50006E92582F8E622BBFE06E92582F8E22247
:0D13C500E58229F582E5833AF583E4932261
:1013D200BB010689828A83F0225002F722BBFE01FA
:0213E200F322F4
:1013E400F8BB010DE58229F582E5833AF583E8F03F
:1013F400225006E92582C8F622BBFE05E92582C8EB
:02140400F222D2
:10140600EF8DF0A4A8F0CF8CF0A428CE8DF0A42EFA
:02141600FE22B4
:10141800BC000BBE0029EF8DF084FFADF022E4CCB8
:10142800F875F008EF2FFFEE33FEEC33FCEE9DEC81
:10143800984005FCEE9DFE0FD5F0E9E4CEFD22EDC7
:10144800F8F5F0EE8420D21CFEADF075F008EF2F11
:10145800FFED33FD4007985006D5F0F222C398FD02
:051468000FD5F0EA229F
:10146D00C2D5EC30E709B2D5E4C39DFDE49CFCEE9A
:10147D0030E715B2D5E4C39FFFE49EFE121418C3E6
:10148D00E49DFDE49CFC800312141830D507C3E4E1
:06149D009FFFE49EFE2209
:1014A300C5F0F8A3E028F0C5F0F8E58215827002D4
:0614B3001583E038F02271
:1014B900A3F8E0C5F025F0F0E582158270021583E6
:0614C900E0C838F0E82243
:1014CF00BB0110E58229F582E5833AF583E0F5F05B
:1014DF00A3E0225009E92582F886F008E622BBFE38
:1014EF000AE92582F8E2F5F008E222E5832AF5837E
:0814FF00E993F5F0A3E9932243
:1015070075F008758200EF2FFFEE33FECD33CDCC9B
:1015170033CCC58233C5829BED9AEC99E58298401E
:101527000CF582EE9BFEED9AFDEC99FC0FD5F0D6FB
:10153700E4CEFBE4CDFAE4CCF9A88222B800C1B925
:101547000059BA002DEC8BF084CFCECDFCE5F0CB63
:10155700F97818EF2FFFEE33FEED33FDEC33FCEB9C
:1015670033FB10D703994004EB99FB0FD8E5E4F957
:10157700FA227818EF2FFFEE33FEED33FDEC33FC44
:10158700C933C910D7059BE99A4007EC9BFCE99A38
:10159700F90FD8E0E4C9FAE4CCFB2275F010EF2F7D
:1015A700FFEE33FEED33FDCC33CCC833C810D7077D
:1015B7009BEC9AE899400AED9BFDEC9AFCE899F8B8
:0E15C7000FD5F0DAE4CDFBE4CCFAE4C8F9224B
:10576500C2D5E830E70FB2D5E4C39BFBE49AFAE46F
:1057750099F9E498F8EC30E717B2D512579B121552
:1057850043E4C39BFBE49AFAE499F9E498F88003AF
:1057950012154330D50DE4C39FFFE49EFEE49DFD45
:0457A500E49CFC2262
:0E15D500C3E49FFFE49EFEE49DFDE49CFC2227
:1015E300EB9FF5F0EA9E42F0E99D42F0EC6480C87F
:0615F30064809845F0221F
:1015F900EB9FF5F0EA9E42F0E99D42F0E89C45F048
:0116090022BE
:10160A00E8600FECC313FCED13FDEE13FEEF13FFBE
:03161A00D8F122E2
:10161D00BB010789828A830216DD5005E9F802169F
:10162D00D1BBFE05E9F80216E989828A830216F517
:0C163D00ECF0A3EDF0A3EEF0A3EFF02220
:10164900A8828583F0D083D08212166012166012A8
:101659001660121660E473E493A3C583C5F0C583CD
:10166900C8C582C8F0A3C583C5F0C583C8C582C8EB
:01167900224E
:10167A00F5F0C582A4C582C5F0C583A42583F58388
:01168A00223D
:10168B00BB010789828A8302170E5005E9F80217FE
:10169B0005BBFE05E9F802171789828A830217201A
:1016AB00D083D082F8E4937012740193700DA3A3CE
:1016BB0093F8740193F5828883E4737402936860E2
:0616CB00EFA3A3A380DFE2
:10480D000251D6E493A3F8E493A34003F68001F29A
:10481D0008DFF48029E493A3F85407240CC8C333AC
:10482D00C4540F4420C8834004F456800146F6DF7B
:10483D00E4800B0102040810204080905E5AE47E53
:10484D00019360BCA3FF543F30E509541FFEE49370
:10485D00A360010ECF54C025E060A840B8E493A337
:10486D00FAE493A3F8E493A3C8C582C8CAC583CA62
:10487D00F0A3C8C582C8CAC583CADFE9DEE780BE1A
:015E7600002B
:0C16D100E6FC08E6FD08E6FE08E6FF2245
:0C16DD00E0FCA3E0FDA3E0FEA3E0FF2280
:0C16E900E2FC08E2FD08E2FE08E2FF223D
:1016F500E493FC740193FD740293FE740393FF223B
:09170500E6FB08E6FA08E6F92209
:09170E00E0FBA3E0FAA3E0F922DC
:09171700E2FB08E2FA08E2F92203
:0C172000E493FB740193FA740293F92225
:00000001FF
